S31508000000A0380020450100081D670008FD570008B4
S3150800001041660008011700089FBE0008000000009E
S31508000020000000000000000000000000FF8C00082F
S31508000030AD4F000800000000258900081DA700082C
S315080000405F0100085F0100085F0100085F01000802
S315080000505F0100085F0100085F0100085F010008F2
S315080000605F0100085F0100085F0100085F010008E2
S315080000705F0100085F0100085F0100085F010008D2
S315080000805F0100085F0100085F0100085F010008C2
S315080000905F0100085F0100085F0100085F010008B2
S315080000A05F0100085F0100085F0100085F010008A2
S315080000B05F0100085F0100085F0100085F01000892
S315080000C05F0100085F0100085F0100085F01000882
S315080000D05F010008CDBA0008B5BB000841BC00089E
S315080000E05F0100085F0100085F0100085F01000862
S315080000F05F0100085F0100085F0100085F01000852
S315080001005F0100085F0100085F0100085F01000841
S315080001105F0100085F010008C1A9000845AB000897
S315080001205F0100085F0100085F0100085F01000821
S31508000130DFF80CD000F04AFC0048004715DC000840
S31508000140A03800200648804706480047FEE7FEE735
S31508000150FEE7FEE7FEE7FEE7FEE7FEE7FEE7FEE769
S3150800016021A700083101000840EA01039B0703D0D4
S3150800017009E008C9121F08C0042AFAD203E011F8D8
S31508000180013B00F8013B521EF9D27047D2B201E09A
S3150800019000F8012B491EFBD270470022F6E710B57E
S315080001A013460A4604461946FFF7F0FF204610BDD7
S315080001B0F0B480EA0102D40F4200B2EB410F02D23A
S315080001C00246084611464A0042D0C30DDDB2C1F3C5
S315080001D0C752AD1A202D35DAC1F3160141F40002D3
S315080001E004B15242C5F1200602FA06F12A4110442A
S315080001F0B3EBD05F23D0C4B1012DA0EBC35009DC0B
S31508000200F0BC4FF0004202EAC352DBB200F5000030
S3150800021000F021BB400000F1807000EBC350A0F154
S31508000220807040EAD170490009E0490841EAC07186
S31508000230A0EBC35000F50000400800EBC350F0BC2B
S3150800024000F000BB6142012202EB4101001BF6E708
S31508000250F0BC704781F00041AAE780F00040A7E7AC
S3150800026080EA010210B502F00043400022D04A009D
S315080002701FD0010E01EB1261C0F35600C2F35602FD
S3150800028040F4000042F40002A0FB022000047F397B
S31508000290140400D0401C50EA124001D44000491E04
S315080002A0C2B20C0604EBD010401C4008802A02D0CB
S315080002B003E0002010BD20F00100002900DA00202C
S315080002C0184310BD2DE9FE4F804681EA0300C00F92
S315080002D00C46009021F0004123F00045B8EB0200DF
S315080002E0A94105D24046214690461C460B46024681
S315080002F023F00040104347D0270DC7F30A00C3F385
S315080003000A510290401A019040286BDAC3F3130091
S3150800031040F4801B0098924620B10023D2EB030AD2
S3150800032063EB0B0B01985946C0F14002504600F0AA
S3150800033058FA06460D4650465946019A00F070FA94
S3150800034010EB08006141002487EA115284EAE7733A
S315080003501A4340D0009A62B3019A012A4FEA07521B
S3150800036015DC001B61EB02014FF0004202EA07525E
S31508000370CDE90042001C41F5801132462B4600F0BB
S31508000380A7FA03B0BDE8F08F40462146F9E7001BFF
S3150800039061EB0201001C41F5801300185B4120182F
S315080003A0A2F5001747EB030140EAD570B6196D416F
S315080003B011E06D084FEA360645EAC0754FEA07525E
S315080003C0001B61EB0201001C41F5801149084FEA48
S315080003D030000019514132462B4603B0BDE8F04FB4
S315080003E000F067BA0098012240000023D0EB020211
S315080003F063EBE073009821464FEAE074B8EB00001F
S3150800040061EB0401E9E783F000435BE781F0004113
S3150800041058E72DE9FE4F81EA030404F0004421F071
S31508000420004100944FF0000B23F0004350EA01040A
S315080004305ED052EA03045BD0C3F30A54C1F30A55EB
S315080004402C44A4F2F3340194A0FB0254C1F3130123
S3150800045041F48011C3F3130343F4801301FB0244F0
S3150800046000FB034E840A970A44EA815447EA8357F5
S31508000470A4FB076802958D0A05FB07854FEA932CAE
S3150800048004FB0C542705029D4FEA065847EA16371F
S31508000490B5EB08056EEB070C870E920E47EA811737
S315080004A042EA8312A7FB0201B6EB0B0164EB0004D8
S315080004B02B0D43EA0C335E1844EB1C50DA465146C2
S315080004C0E7FB0201C5F313044FEA0B3343EA14535F
S315080004D04FEA0432019C43EA0603A4F10C04029491
S315080004E0009CCDE900B400F0F3F903B0BDE8F08F45
S315080004F000200146F9E72DE9F04D81EA030404F0EE
S31508000500004B21F0004514464FF0000A23F0004145
S3150800051050EA050220D054EA01021DD0C5F30A5755
S315080005200246C5F31303C1F31300C1F30A5640F498
S31508000530801543F48013A7EB0608101BD64608F26D
S31508000540FD3873EB050002D308F1010801E09218A3
S315080005505B41B8F1000F03DA00200146BDE8F08DD3
S3150800056000204FF48011064684460EE0171B73EBF5
S31508000570050705D3121B63EB050306434CEA010C7A
S3150800058049084FEA300092185B4150EA0107EDD15D
S3150800059052EA030012D082EA040083EA05010843FE
S315080005A005D0101BAB4106D20122002306E000222B
S315080005B04FF0004302E06FF0010253101AEB0600F9
S315080005C04CEB085110EB0A0041EB0B01BDE8F04D6E
S315080005D000F06FB9C10F80EAE0700844CA07962395
S315080005E0002100F038B996230022114600F033B9ED
S315080005F00EB5C10F80EAE0700844CA07002140F230
S3150800060033438DE80E000A460B4600F061F903B045
S3150800061000BD0EB540F2334102910021CDE900112B
S315080006200A460B4600F054F903B000BD00F000423C
S3150800063020F00040C10DC0F3160040F400007F29E9
S3150800064001DA00207047962903DCC1F19601C840FB
S3150800065001E096398840002AF4D04042704770B5C8
S31508000660C1F30A5201F000450024C1F3130140F218
S31508000670FF3341F480119A4201DA002070BD40F23E
S3150800068033439A42A2F2334203DC524200F0B8F8EE
S3150800069000E090402C43F1D0404270BD00F000428B
S315080006A030F000400AD0C10D01F56071C0F31600A4
S315080006B042EA0151C208400711437047002001462B
S315080006C07047000030B5041E71F1000404DB4FF0DA
S315080006D00044404264EB0101141E73F1000405DB7B
S315080006E01C464FF00043524263EB0403994208BF8D
S315080006F0904230BD01F0004330B421F0004150EA89
S31508000700010206D00A0DA2F56072C1F31301002A90
S3150800071002DC30BC00207047440F44EAC104C10023
S31508000720E01830BC00EBC25000F08CB8002801DBA2
S31508000730C0F10040002901DBC1F100418142704748
S31508000740002801DBC0F10040002901DBC1F10041AE
S315080007508842704730B50B46014600202022012406
S3150800076009E021FA02F59D4205D303FA02F5491B71
S3150800077004FA02F52844151EA2F10102F1DC30BD87
S315080007802DE9F05F0546002092469B4688460646B8
S31508000790814640241BE0284641464746224600F04B
S315080007A02FF853465A46C01A914110D31146184697
S315080007B0224600F016F82D1A67EB01084F46224626
S315080007C00120002100F00DF817EB00094E41201E0C
S315080007D0A4F10104DFDC484631462A464346BDE813
S315080007E0F09F202A04DB203A00FA02F10020704725
S315080007F09140C2F1200320FA03F319439040704751
S31508000800202A04DB203A21FA02F00021704721FA57
S3150800081002F3D040C2F120029140084319467047BE
S31508000820202A06DBCB17203A41FA02F043EAE073A6
S3150800083006E041FA02F3D040C2F120029140084393
S31508000840194670470029A8BF7047401C490008BFD1
S3150800085020F00100704710B4B0FA80FC00FA0CF0E2
S3150800086050EA010404BF10BC704749B1CCF120041A
S3150800087021FA04F411FA0CF118BF012121430843A7
S31508000880A3EB0C01CB1D4FEA00614FEA102042BFD3
S31508000890002010BC704700EBC35010440029A4BFC9
S315080008A010BC7047401C490008BF20F0010010BC6E
S315080008B0704710B5141E73F1000408DA401C41F1A4
S315080008C0000192185B411A4301D120F0010010BDC6
S315080008D02DE9F04D92469B4611B1B1FA81F202E03C
S315080008E0B0FA80F220329046FFF77BFF04460F46A7
S315080008F040EA0A0041EA0B0153465A46084313D018
S31508000900114653EA010019D0C8F140025046FFF7D4
S3150800091077FF05460E46504659464246FFF761FFA1
S31508000920084305D0012004E020463946BDE8F08D8D
S315080009300020054346EAE0762C4337430A986305C8
S31508000940E40AA0EB08000022FD0A44EA47540A30EC
S3150800095002D500200146E9E7010510196941DDE9DC
S31508000960084500196941BDE8F04DA2E770B521F0C8
S31508000970004303430CD0C1F30A550024D5EB040504
S3150800098064EB0403D617AD1AB34102DB0020014617
S3150800099070BD201841EB025170BDC1F30A52C1F374
S315080009A0130140F2FF3341F480119A4202DA002023
S315080009B00146704740F233439A42A2F2334202DCC0
S315080009C05242FFF71DBFFFF70CBF0000064C074D4C
S315080009D006E0E06840F0010394E807009847103401
S315080009E0AC42F6D3FFF7A8FB683901088839010835
S315080009F02DE9F04D00231A461B1A8A4103DB002015
S31508000A000146BDE8F08DC1F30A52C1F3130141F462
S31508000A1080154FF0000BD10702D100186D41521E08
S31508000A200027044640F2FF11384601EB620A3E46AB
S31508000A308046024600204FF48011FFF7E1FEC219F6
S31508000A407141BB1846EB0100B4EB030C75EB000CC7
S31508000A5004D3E41A65EB000517460E46241908F177
S31508000A6001006D4180463428E3DDF91946EB06009E
S31508000A70091BA84103D24FF0FF32134601E00022BA
S31508000A8013461BEB070046EB0A51BDE8F04DFFF78E
S31508000A9010BF70B58C1810F8015B15F0070301D16B
S31508000AA010F8013B2A1106D110F8012B03E010F8C3
S31508000AB0016B01F8016B5B1EF9D12B0705D40023E6
S31508000AC0521E0DD401F8013BFAE710F8013BCB1A88
S31508000AD0921C03E013F8015B01F8015B521EF9D57D
S31508000AE0A142D8D3002070BD21B1826842F001022C
S31508000AF0826003E0826822F001028260704721B1B9
S31508000B00826842F48072826003E0826822F480720E
S31508000B108260704700B58BB00121084607F038FFA0
S31508000B20114804F01FF9114800901148019000205F
S31508000B300290012003900020049080200590400038
S31508000B400690800007902020089000020990002057
S31508000B500A906946044804F0ABF90121024804F0FA
S31508000B60F5F80BB000BD0000080002404C24014017
S31508000B701013002000B587B0FFF7CCFF01214FF412
S31508000B80047007F035FF4FF4004007F0F5FE01202A
S31508000B90ADF8040003208DF8060000208DF8070044
S31508000BA001A91E4804F0D5FC002002908DF80C001F
S31508000BB001208DF80D004FF4602004900020059068
S31508000BC001208DF8180002A9154800F07BF80523C6
S31508000BD001220A21124800F09DF801211048FFF76A
S31508000BE08EFF01210E48FFF77FFF0D4800F0EEF853
S31508000BF000BF0B4800F05BF80028FAD1084800F05F
S31508000C00F5F800BF064800F03BF80028FAD10121A4
S31508000C10034800F0E0F807B000BD000000100140EE
S31508000C200024014010B504461248844208D1012127
S31508000C30401507F0EDFE0021601507F0E9FE17E004
S31508000C400D48844208D10121001507F0E1FE002174
S31508000C50201507F0DDFE0BE00848844208D1012183
S31508000C60C80307F0D5FE00214FF4004007F0D0FE78
S31508000C7010BD00000024014000280140003C01404E
S31508000C80014600208A6802F004020AB1012000E049
S31508000C90002070470146C86C80B2704702460020A3
S31508000CA013680B400BB1012000E000207047014695
S31508000CB000208A6802F008020AB1012000E000203C
S31508000CC07047000030B502460020002350680F4CDC
S31508000CD020400D790C6844EA05242043506090684A
S31508000CE00B4C2040D1E902542C434D7944EA450483
S31508000CF020439060D06A20F470000C7C641EE4B235
S31508000D00234340EA0350D06230BD0000FFFEF0FFE7
S31508000D10FDF7F1FFF0B504460D4600200021092D28
S31508000D2011DDE068A5F10A0606EB4607072606FA6E
S31508000D3007F18843A5F10A0606EB460603FA06F10B
S31508000D400843E0600CE0206905EB4507072606FA2C
S31508000D5007F1884305EB450603FA06F108432061C7
S31508000D60072A0FDA606B561E06EB86071F2606FA59
S31508000D7007F18843561E06EB860605FA06F1084370
S31508000D80606322E00D2A0FDA206BD61F06EB860772
S31508000D901F2606FA07F18843D61F06EB860605FACC
S31508000DA006F10843206310E0E06AA2F10D0606EB9F
S31508000DB086071F2606FA07F18843A2F10D0606EBF9
S31508000DC0860605FA06F10843E062F0BD816841F03F
S31508000DD008018160704721B1826842F4A0028260EE
S31508000DE003E0826822F4A00282607047816841F0BD
S31508000DF0040181607047014640F65E10814205DDB8
S31508000E0040F6C210814201DA2A20704740F60E30B9
S31508000E10814205DD40F67230814201DA2320F4E78B
S31508000E2040F65160814205DD40F6B560814201DA3F
S31508000E307920EAE740F6B340814205DD40F61750CF
S31508000E40814201DA7820E0E740F67750814205DDF5
S31508000E5040F6DB50814201DA7A20D6E740F61E706A
S31508000E60814205DD40F68270814201DA6F20CCE7C7
S31508000E7040F6F830814205DD40F65C40814201DAF1
S31508000E807320C2E740F63220814205DD40F69620FF
S31508000E90814201DA3020B8E740F6A300814205DD39
S31508000EA040F60710814201DA3920AEE740F2356094
S31508000EB0814204DDB1F5D36F01DC3620A5E740F2A7
S31508000EC0CA30814205DD40F22E40814201DA3320E4
S31508000ED09BE7B1F53F7F04DDB1F5587F01DA322093
S31508000EE093E740F28950814205DD40F2ED50814298
S31508000EF001DA352089E740F2DB70814205DD40F6EC
S31508000F003F00814201DA38207FE740F214708142BF
S31508000F1004DDB1F5EF6F01DA372076E740F2A44039
S31508000F20814204DDB1F5A16F01DA34206DE740F2A4
S31508000F302D20814204DDB1F5247F01DC312064E7F0
S31508000F40002062E700B587B0012148F2800007F06B
S31508000F504FFD4FF4004007F00FFD4020ADF80400A8
S31508000F6000208DF8070001A9174804F0F2FA17487F
S31508000F70FFF758FE002002908DF80C008DF80D0042
S31508000F804FF4602004900020059001208DF8180089
S31508000F9002A90E48FFF796FE01210C48FFF7A4FDAB
S31508000FA00A48FFF713FF00BF0848FFF780FE00282E
S31508000FB0FAD10648FFF71AFF00BF0448FFF760FE9C
S31508000FC00028FAD107B000BD001C0140003C0140D2
S31508000FD070B500240121042004F0ACFB0546FFF798
S31508000FE00AFF0446BCB120480088401C1E490880F8
S31508000FF00846008841F64C51884211DB00201A4900
S315080010000880012019490880194908701948047090
S315080010101948047004E00020134908801349088021
S3150800102012480088F8B9002C16DD1448007898B9DB
S3150800103013480088401C124908800846008814286E
S315080010400ADB0020088001200C490870084908704E
S3150800105008480470084804700848007818B114B99C
S3150800106000200649087070BD060000200800002010
S3150800107001000020000000200200002003000020DC
S315080010800400002008B50121202007F0B1FC0F203C
S31508001090ADF8000010208DF8030003208DF802003B
S315080010A06946344804F055FA4FF44060ADF800003C
S315080010B028208DF8030069462E4804F04AFA0121D3
S315080010C0C82007F095FC7420ADF8000010208DF8B4
S315080010D0030003208DF802006946274804F039FA10
S315080010E01220ADF8000010208DF8030003208DF8BB
S315080010F002006946214804F02CFA4FF48070ADF8D6
S31508001100000010208DF8030003208DF802006946C0
S315080011101B4804F01EFA0820ADF8000004208DF8DC
S3150800112003006946144804F014FA2420ADF80000B8
S3150800113004208DF803006946104804F00AFA4FF4B3
S315080011400070ADF8000004208DF8030069460C48CD
S3150800115004F0FFF94FF42050ADF8000010208DF888
S31508001160030003208DF802006946034804F0F1F9EC
S3150800117008BD00000014014000180140001C014091
S31508001180000C014070B505460C4616460120764906
S315080011900860002075490870012D6BD1012074493B
S315080011A0087007F043FB00207249088072490880DE
S315080011B0012072490880012E3ED13CE06D4AB2F901
S315080011C00010002901DB0A4600E04A42231FC3EB50
S315080011D0C303B2EBC30F16DD664AB2F90000002856
S315080011E001DB024600E04242A31DC3EBC303B2EB98
S315080011F0C30F08DA0020624908800CF049F901207B
S315080012005A49087070BD5B49B1F90000002801DB36
S31508001210014600E04142A21DC2EBC202B1EBC20F79
S3150800122009DD0020564908800CF032F901204F49A3
S3150800123008700020E6E7C1E700BF4E4AB2F9001081
S31508001240002901DB0A4600E04A42C4EBC403B2EBBC
S31508001250C30FF2DB484AB2F90000002801DB024658
S3150800126000E04242C4EBC403B2EBC30FE5DB002047
S3150800127042490880002D6BD100203D49087007F0CF
S31508001280D5FA00203B4908803B49088001203B49A4
S315080012900880012E3ED13CE0364AB2F900100029FA
S315080012A001DB0A4600E04A42231FC3EBC303B2EB45
S315080012B0C30F16DD2F4AB2F90000002801DB0246EB
S315080012C000E04242A31DC3EBC303B2EBC30F08DA27
S315080012D000202B4908800CF0DBF801202349087010
S315080012E090E72449B1F90000002801DB014600E037
S315080012F04142A21DC2EBC202B1EBC20F09DD0020BA
S315080013001F4908800CF0C4F801201849087000200D
S3150800131078E7C1E700BF174AB2F90010002901DBD8
S315080013200A4600E04A42C4EBC403B2EBC30FF2DB41
S31508001330114AB2F90000002801DB024600E04242E9
S31508001340C4EBC403B2EBC30FE5DB00200B490880EE
S3150800135000200B4908800CF09BF80DF0F7FA0120E5
S315080013600249087000BF4DE79C0000205800002085
S315080013704D0000205A0000205C0000205400002088
S315080013804A00002010B504464D480078582847D131
S31508001390A4F114004B49087064200CF0D9FB4A48A4
S315080013A048490978405C6F2839D047484549097843
S315080013B0405C722805D1002211211046FFF7E2FE93
S315080013C00AE041483F490978405C6C2804D100226C
S315080013D011210120FFF7D6FE3C4A3DA13D4807F002
S315080013E0A3FA4FF4FA700CF08DFB4FF4FA700CF078
S315080013F089FB4FF4FA700CF085FB344A143A34A191
S31508001400344807F091FA4FF4FA700CF07BFB4FF46E
S31508001410FA700CF077FB4FF4FA700CF073FB4DE0A2
S3150800142027480078532849D1A4F1140025490870A3
S3150800143064200CF08DFB2448C01F22490978405CC3
S315080014406F283BD02048C01F1E490978405C722887
S3150800145005D1002211211046FFF794FE0BE01A4829
S31508001460C01F18490978405C6C2804D10022112154
S315080014700120FFF787FE154A15A1164807F054FA0A
S315080014804FF4FA700CF03EFB4FF4FA700CF03AFB8E
S315080014904FF4FA700CF036FB0C4A143A0CA10D48BE
S315080014A007F042FA4FF4FA700CF02CFB4FF4FA707E
S315080014B00CF028FB4FF4FA700CF024FB10BD00006A
S315080014C016000020210000201D140020590F0020BE
S315080014D0257300000044004008B50121402007F0AC
S315080014E087FA4FF48050ADF8000010208DF80300FD
S315080014F003208DF8020069460F4804F02AF80C21EB
S315080015000D4804F0FBF80121802007F071FA4FF42A
S315080015106070ADF8000028208DF8030003208DF8D0
S3150800152002006946054804F014F84FF46071034850
S3150800153004F0E2F808BD000000180140001C014054
S3150800154070B50446492C1AD10020694908706949C2
S3150800155008600121684809F0CEFE4FF42F716648ED
S315080015600AF0CFF900BF654800680028FBD00021C3
S3150800157061480AF0C6F900215F4809F0BCFE532C01
S315080015801CD153205A49087001205A490860012184
S31508001590594809F0B0FE4FF42F7157480AF0B1F9CF
S315080015A000BF5648001F00680028FAD0002152489C
S315080015B00AF0A7F90021504809F09DFE582C2FD1B2
S315080015C058204B4908704D480068012829D1C82081
S315080015D00CF098FA012047490860C8200CF092FAE6
S315080015E00121454809F087FEC8200CF08BFA4FF414
S315080015F02F7141480AF085F9C8200CF083FA0025B6
S3150800160004E064200CF07EFA681CC5B22D2DF8DBC8
S31508001610002139480AF075F90021374809F06BFEB0
S315080016205AE03648001F0068012829D1C8200CF066
S3150800163069FA00202F490860C8200CF063FA0121D6
S315080016402D4809F058FEC8200CF05CFA4FF42F71AB
S3150800165029480AF056F9C8200CF054FA002504E087
S3150800166064200CF04FFA681CC5B2992DF8DB0021EE
S3150800167021480AF046F900211F4809F03CFE2BE0F4
S315080016804920FFF75DFF58201949087001201949BC
S315080016900860C8200CF036FA0121174809F02BFE1D
S315080016A0C8200CF02FFA4FF42F7113480AF029F9C5
S315080016B0C8200CF027FA002504E064200CF022FA72
S315080016C0681CC5B22D2DF8DB00210B480AF019F964
S315080016D00021094809F00FFE542C07D100210648BD
S315080016E00AF00FF90021044809F005FE70BD000054
S315080016F016000020B0012342002C0140208123421D
S3150800170000BFFEE71CB506F077FF002006F00EFCCA
S315080017100120244948231822CDE90010132102206C
S3150800172006F0E0FC0120204948231822CDE90010E4
S3150800173013211A2006F0D6FC01201C49482318223A
S31508001740CDE900101321322006F0CCFC0020184900
S3150800175048231822CDE9001013214A2006F0C2FCBE
S315080017600120144948231822CDE9001013216220CC
S3150800177006F0B8FC012310A22F211F2006F036FC24
S3150800178006F0B0FD0BE006F037FFFFF721FC0D4829
S315080017900078012803D100200A49087000E0F2E722
S315080017A000BF1CBD9A27010802290108222A010840
S315080017B0DA29010892290108C2B7CFDFC9E8D6C3DA
S315080017C0000000000100002000B58FB000200E9038
S315080017D010200D9000200C9010200B9001200A90EC
S315080017E000200990089007900690059004F0E8FC00
S315080017F006F002FF002006F099FBFE480078012853
S315080018001BD100200E9014E000200D900AE0002164
S31508001810F94A0D9802EB40020E9811540D98401C97
S31508001820C0B20D900D980C28F1DB0E98401CC0B282
S315080018300E900E980228E7DB00E3EE4800780228AF
S3150800184078D1002005906FE0EC49059811F8100052
S3150800185080B9059801EB4000407858B901200090FE
S3150800186005984007000E1023E5A21946049006F0D5
S3150800187053FE55E0E149059801EB4000407880B1F8
S31508001880012804D0032816D0042828D11DE005987D
S315080018904007000E0023DCA21021049006F0A6FBE8
S315080018A01EE005984007000E0023D8A210210490D8
S315080018B006F09CFB14E005984007000E0023D4A20E
S315080018C01021049006F092FB0AE005984007000EE6
S315080018D00023D0A21021049006F088FB00E000BF88
S315080018E000BF01201021CDE90010C449059811F860
S315080018F0100004901021059801EB4010C0B2012396
S315080019000390049A06F0B4FD2021059801EB4010D7
S31508001910C0B20E9010200D900698401CC0B20690DA
S315080019200598401CC0B20590059804288CDB042055
S31508001930059078E0F2E0B149059811F8100088B9E9
S31508001940059801EB4000407860B9012000900598A1
S31508001950001F4007000E1023A9A22021049006F0BC
S31508001960DBFD5CE0A549059801EB4000407888B1AD
S31508001970012804D0032818D004282CD120E0059883
S31508001980001F4007000E00239FA22021049006F0A6
S315080019902DFB21E00598001F4007000E00239BA29F
S315080019A02021049006F022FB16E00598001F400748
S315080019B0000E002396A22021049006F017FB0BE0E8
S315080019C00598001F4007000E002392A220210490CC
S315080019D006F00CFB00E000BF00BF01201021CDE996
S315080019E000108649059811F8100004900598001F04
S315080019F0102101EB4010C0B2012303902021049A64
S31508001A0006F036FD0598001F202101EB4010C0B2F4
S31508001A100E9020200D900698401CC0B2069005989E
S31508001A20401CC0B205900598082884DB082005905C
S31508001A3070E07249059811F8100080B9059801EB15
S31508001A404000407858B90120009005984007000EDC
S31508001A5010236BA23021049006F05EFD56E067491C
S31508001A60059801EB4000407880B1012804D003288E
S31508001A7016D0042828D11DE005984007000E00233B
S31508001A8061A23021049006F0B1FA1EE005984007DD
S31508001A90000E00235DA23021049006F0A7FA14E098
S31508001AA005984007000E002359A23021049006F03D
S31508001AB09DFA0AE005984007000E002355A230213A
S31508001AC0049006F093FA00E000BF00BF0120102141
S31508001AD0CDE900104949059811F810000490102125
S31508001AE0059801EB4010C0B2012303903021049AF7
S31508001AF006F0BEFC2021059801EB4010C0B20E90FE
S31508001B0030200D900698401CC0B206900598401CDF
S31508001B10C0B2059005980C288BDB8FE13548007814
S31508001B200328FAD10020059084E03B49059811F86E
S31508001B30100080B9059801EB4000407858B901209B
S31508001B40009005984007000E10232DA21946049010
S31508001B5006F0E2FC6AE03049059801EB400040785F
S31508001B6080B1012804D0032816D0042828D11DE006
S31508001B7005984007000E002323A21021049006F0C2
S31508001B8035FA1EE005984007000E00231FA2102113
S31508001B90049006F02BFA14E005984007000E00237F
S31508001BA01BA21021049006F021FA0AE005984007C6
S31508001BB0000E002317A21021049006F017FA00E081
S31508001BC000BF00BF01201021CDE900101249059879
S31508001BD011F8100004901021059801EB4010C0B2CE
S31508001BE001230390049A06F043FC2021059801EB93
S31508001BF0401013E0DA100020FC1400201A1500200B
S31508001C002020202000000000C7B00000BAF3000022
S31508001C10D7F30000D3D2000038150020C0B20E90CA
S31508001C2010200D900698401CC0B206900598401CDE
S31508001C30C0B2059005980428FFF677AF04200590F2
S31508001C407CE0FE49059811F8100090B9059801EB5B
S31508001C504000407868B9012000900598001F4007A9
S31508001C60000E1023AFF268022021049006F054FCFF
S31508001C7060E0F249059801EB4000407890B10128F0
S31508001C8004D003281AD0042830D123E00598001F71
S31508001C904007000E0023AFF290022021049006F0C0
S31508001CA0A5F924E00598001F4007000E0023AFF2AF
S31508001CB0A4022021049006F099F918E00598001F5F
S31508001CC04007000E0023AFF2B8022021049006F068
S31508001CD08DF90CE00598001F4007000E0023AFF2AF
S31508001CE0CC022021049006F081F900E000BF00BF75
S31508001CF001201021CDE90010D049059811F81000EF
S31508001D0004900598001F102101EB4010C0B2012372
S31508001D1003902021049A06F0ABFB0598001F2021AA
S31508001D2001EB4010C0B20E9020200D900698401C82
S31508001D30C0B206900598401CC0B2059005980828C0
S31508001D40FFF67FAF0820059075E0BC49059811F8A5
S31508001D50100088B9059801EB4000407860B9012069
S31508001D60009005984007000E1023AFF26C12302140
S31508001D70049006F0D1FB5AE0B049059801EB400003
S31508001D80407888B1012804D0032818D004282CD11B
S31508001D9020E005984007000E0023AFF29412302188
S31508001DA0049006F023F921E005984007000E002369
S31508001DB0AFF2A8123021049006F018F916E005983B
S31508001DC04007000E0023AFF2B8123021049006F047
S31508001DD00DF90BE005984007000E0023AFF2CC1270
S31508001DE03021049006F002F900E000BF00BF012090
S31508001DF01021CDE900109149059811F810000490BA
S31508001E001021059801EB4010C0B201230390302140
S31508001E10049A06F02DFB2021059801EB4010C0B26C
S31508001E200E9030200D900698401CC0B2069005987A
S31508001E30401CC0B2059005980C2886DB06F052FABD
S31508001E4001F00ABA06F0D8FBFFF7C2F87C4800781A
S31508001E500128F5D106980B2801DB0B2006900020F7
S31508001E6077490870774800782A2801D00020099019
S31508001E70744800786F2801D00020089072480078CE
S31508001E8001287DD17148007820B97048407808B992
S31508001E90002006906B480078362872D012DC32286B
S31508001EA070D008DC23286ED02A286DD030286CD054
S31508001EB031286BD10AE1332869D0342868D035280F
S31508001EC0F7D1BBE1732872D008DC37286CD03828E4
S31508001ED06BD039286AD06F28EBD103E378287DD0F8
S31508001EE0792802D07A28E4D129E00A98012825D150
S31508001EF00D98302822DC002009900A900D980B9046
S31508001F000E980C900023AFF2F422DDE90D1006F0CE
S31508001F106DF80E981030C0B20E900E987F2805DB2B
S31508001F2000200E900D981030C0B20D9006F0DAF928
S31508001F300421464A069802EB40004170EAE20A98F4
S31508001F4001282FD10D9830282CDC002009900A9002
S31508001F500D980B900E980C900023AFF24C32DDE9E9
S31508001F600D1006F043F80E981030C0B20E900E9879
S31508001F707F280FDB00200E900D981030C0B208E0C5
S31508001F80D1E289E1D0E0BBE23EE271E0C1E2F9E0EC
S31508001F9026E10D9006F0A6F903212C4A069802EBD5
S31508001FA040004170B6E202E0A4E1D1E1FEE10A9800
S31508001FB0012827D10D98302824DC002009900A90A2
S31508001FC00D980B900E980C900023AFF2C432DDE901
S31508001FD00D1006F00BF80E98103000E013E0C0B2B2
S31508001FE00E900E987F2805DB00200E900D98103075
S31508001FF0C0B20D9006F076F90121144A069802EB54
S315080020004000417086E20A98012830D10D983028A0
S315080020102DDC002009900A900D980B900E980C90D4
S315080020200023AFF21842DDE90D1005F0DFFF0E9828
S315080020301030C0B20E900E987F2809E0381500209F
S315080020400100002002000020DA100020FC14002005
S3150800205005DB00200E900D981030C0B20D9006F0EA
S3150800206041F90021F84A069802EB4000417051E216
S315080020700A9850BB0D98302827DC002009900120CB
S315080020800A900D980B900E980C9001201023EFA241
S315080020900090DDE90D1006F03FFA0E981030C0B238
S315080020A00E900E987F2805DB00200E900D981030B4
S315080020B0C0B20D9006F016F90021E34A069802F818
S315080020C010100698401CC0B2069023E20A9850BB2E
S315080020D00D98302827DC0020099001200A900D98D9
S315080020E00B900E980C9001201023D9A20090DDE9E0
S315080020F00D1006F011FA0E981030C0B20E900E9818
S315080021007F2805DB00200E900D981030C0B20D9088
S3150800211006F0E8F80121CC4A069802F8101006984D
S31508002120401CC0B20690F5E10A9850BB0D983028BD
S3150800213027DC0020099001200A900D980B900E9834
S315080021400C9001201023C3A20090DDE90D1006F0C3
S31508002150E3F90E981030C0B20E900E987F2805DB72
S3150800216000200E900D981030C0B20D9006F0BAF807
S315080021700221B54A069802F810100698401CC0B20B
S315080021800690C7E10A9850BB0D98302827DC002036
S31508002190099001200A900D980B900E980C9001203A
S315080021A01023ADA20090DDE90D1006F0B5F90E98E2
S315080021B01030C0B20E900E987F2805DB00200E90D6
S315080021C00D981030C0B20D9006F08CF803219E4A87
S315080021D0069802F810100698401CC0B2069099E1BD
S315080021E00A9850BB0D98302827DC0020099001205A
S315080021F00A900D980B900E980C900120102397A228
S315080022000090DDE90D1006F087F90E981030C0B27F
S315080022100E900E987F2805DB00200E900D98103042
S31508002220C0B20D9006F05EF80421874A069802F8B7
S3150800223010100698401CC0B206906BE10A9850BB75
S315080022400D98302827DC0020099001200A900D9867
S315080022500B900E980C900120102381A20090DDE9C6
S315080022600D1006F059F90E981030C0B20E900E985F
S315080022707F2805DB00200E900D981030C0B20D9017
S3150800228006F030F80521704A069802F810100698EC
S31508002290401CC0B206903DE10A9850BB0D98302804
S315080022A027DC0020099001200A900D980B900E98C3
S315080022B00C90012010236BA20090DDE90D1006F0AA
S315080022C02BF90E981030C0B20E900E987F2805DBB9
S315080022D000200E900D981030C0B20D9006F002F84E
S315080022E00621594A069802F810100698401CC0B2F2
S315080022F006900FE10A9850BB0D98302827DC00207D
S31508002300099001200A900D980B900E980C900120C8
S31508002310102355A20090DDE90D1006F0FDF80E9881
S315080023201030C0B20E900E987F2805DB00200E9064
S315080023300D981030C0B20D9005F0D4FF0721424A1F
S31508002340069802F810100698401CC0B20690E1E004
S315080023500A9850BB0D98302827DC002009900120E8
S315080023600A900D980B900E980C90012010233FA20E
S315080023700090DDE90D1006F0CFF80E981030C0B2C7
S315080023800E900E987F2805DB00200E900D981030D1
S31508002390C0B20D9005F0A6FF08212B4A069802F850
S315080023A010100698401CC0B20690B3E00A9850BBBD
S315080023B00D98302827DC0020099001200A900D98F6
S315080023C00B900E980C900120102329A20090DDE9AD
S315080023D00D1006F0A1F80E981030C0B20E900E98A7
S315080023E07F2805DB00200E900D981030C0B20D90A6
S315080023F005F078FF0921144A069802F81010069885
S31508002400401CC0B2069085E00998401CC0B20990ED
S315080024100998022865DB0C48007828B90A484078EC
S3150800242010B90020069030E00A9860B90021069895
S31508002430401E054A02EB400041700698012819DC47
S315080024400120069021E01AE0FC1400204F0000004D
S3150800245031000000320000003300000034000000A4
S315080024603500000036000000370000003800000084
S31508002470390000000698401EC0B2069005E000210B
S315080024800698401EFD4A02F81010002009900A9886
S3150800249008B9012000E000200A900C980E900B98CD
S315080024A00D9001201023F6A20090DDE90D1006F02C
S315080024B033F805F017FF0C9828B90B98102802D1A5
S315080024C001200A9026E00E98102804DB0C98103894
S315080024D0C0B20C9005E07F200C900B981038C0B263
S315080024E00B9017E00898401CC0B20890089802287C
S315080024F005DB00200890E148069901F0F1FF09E0A4
S31508002500012007907A20DF490870DF49069808708D
S3150800251000E000BF00BF079801287DD1D9480078A0
S315080025207A28FAD148E3D9480078022875D1D848DC
S31508002530007820B9D648407808B900200690D148D6
S31508002540007836286AD012DC322868D008DC2328BE
S3150800255066D02A2878D0302877D0312876D100E17D
S31508002560332874D0342873D03528F7D1C1E17328BD
S3150800257074D008DC37286DD038286CD039286BD051
S315080025806F28EBD1F8E2782867D0792802D07A2824
S31508002590E4D129E00A98012825D10D98302822DCB3
S315080025A0002009900A900D980B900E980C90002325
S315080025B0AFF6A012DDE90D1005F018FD0E981030E3
S315080025C0C0B20E900E987F2805DB00200E900D985D
S315080025D01030C0B20D9005F085FE0421AC4A06986D
S315080025E002EB40004170DFE20A9801282BD10D98D2
S315080025F0302828DC002009900A900D980B900E9838
S315080026000C900023AFF6F812DDE90D1005F0EEFC8C
S315080026100E981030C0B204E048E3CEE298E1CFE06D
S31508002620B8E20E900E987F2805DB00200E900D98D4
S315080026301030C0B20D9005F055FE0321944A069855
S3150800264002EB40004170AFE23EE25BE0ABE2E6E05F
S3150800265020E103E0ABE1D9E107E229E00A98012885
S3150800266025D10D98302822DC002009900A900D9873
S315080026700B900E980C900023AFF67422DDE90D102E
S3150800268005F0B4FC0E981030C0B20E900E987F2854
S3150800269005DB00200E900D981030C0B20D9005F0A5
S315080026A021FE01217A4A069802EB400041707BE23E
S315080026B00A98012825D10D98302822DC0020099097
S315080026C00A900D980B900E980C900023AFF6C42232
S315080026D0DDE90D1005F08AFC0E981030C0B20E9098
S315080026E00E987F2805DB00200E900D981030C0B29A
S315080026F00D9005F0F7FD0021654A069802EB4000AB
S31508002700417051E20A9858BB0D98302828DC002001
S31508002710099001200A900D980B900E980C900120B4
S315080027201023AFF2D8220090DDE90D1005F0F4FE73
S315080027300E981030C0B20E900E987F2805DB002048
S315080027400E900D981030C0B20D9005F0CBFD00210B
S315080027504F4A069802F810100698401CC0B2069018
S3150800276022E20A9858BB0D98302828DC00200990E8
S3150800277001200A900D980B900E980C9001201023BA
S31508002780AFF234320090DDE90D1005F0C5FE0E9863
S315080027901030C0B20E900E987F2805DB00200E90F0
S315080027A00D981030C0B20D9005F09CFD0121384AF5
S315080027B0069802F810100698401CC0B20690F3E17D
S315080027C00A9858BB0D98302828DC0020099001206B
S315080027D00A900D980B900E980C9001201023AFF2DA
S315080027E08C320090DDE90D1005F096FE0E9810303B
S315080027F0C0B20E900E987F2805DB00200E900D982B
S315080028001030C0B20D9005F06DFD0221204A0698E1
S3150800281002F810100698401CC0B20690C4E10A9847
S3150800282058BB0D98302828DC0020099001200A9012
S315080028300D980B900E980C9001201023AFF2E832F9
S315080028400090DDE90D1005F067FE0E981030C0B255
S315080028500E900E987F2805DB00200E900D981030FC
S31508002860C0B20D9005F03EFD0321094A069802F80C
S3150800287010100698401CC0B2069095E1FC14002082
S315080028802020000002000020B5000020DA100020F9
S315080028901A1500200A9858BB0D98302828DC002005
S315080028A0099001200A900D980B900E980C90012023
S315080028B01023AFF258420090DDE90D1005F02CFE0A
S315080028C00E981030C0B20E900E987F2805DB0020B7
S315080028D00E900D981030C0B20D9005F003FD04213E
S315080028E0FC4A069802F810100698401CC0B20690DA
S315080028F05AE10A9858BB0D98302828DC0020099020
S3150800290001200A900D980B900E980C900120102328
S31508002910AFF2B4420090DDE90D1005F0FDFD0E980A
S315080029201030C0B20E900E987F2805DB00200E905E
S315080029300D981030C0B20D9005F0D4FC0521E54A7B
S31508002940069802F810100698401CC0B206902BE1B3
S315080029500A9858BB0D98302828DC002009900120D9
S315080029600A900D980B900E980C9001201023AFF248
S315080029700C520090DDE90D1005F0CEFD0E981030D2
S31508002980C0B20E900E987F2805DB00200E900D9899
S315080029901030C0B20D9005F0A5FC0621CD4A069868
S315080029A002F810100698401CC0B20690FCE00A987F
S315080029B058BB0D98302828DC0020099001200A9081
S315080029C00D980B900E980C9001201023AFF26852C8
S315080029D00090DDE90D1005F09FFD0E981030C0B28D
S315080029E00E900E987F2805DB00200E900D9810306B
S315080029F0C0B20D9005F076FC0721B64A069802F893
S31508002A0010100698401CC0B20690CDE00A9858BB34
S31508002A100D98302828DC0020099001200A900D988E
S31508002A200B900E980C9001201023AFF2C052009024
S31508002A30DDE90D1005F070FD0E981030C0B20E904D
S31508002A400E987F2805DB00200E900D981030C0B236
S31508002A500D9005F047FC08219E4A069802F81010CA
S31508002A600698401CC0B206909EE00A9858BB0D987E
S31508002A70302828DC0020099001200A900D980B9038
S31508002A800E980C9001201023AFF21C620090DDE92D
S31508002A900D1005F041FD0E981030C0B20E900E983C
S31508002AA07F2805DB00200E900D981030C0B20D90DF
S31508002AB005F018FC0921874A069802F810100698AE
S31508002AC0401CC0B206906FE00998401CC0B209903D
S31508002AD0099802284FDB7F48007828B97D48407856
S31508002AE010B90020069019E00A9888B900210698BE
S31508002AF0401E784A02EB400041700698012802DC25
S31508002B00012006900AE00698401EC0B2069005E02D
S31508002B1000210698401E6F4A02F8101000200990FE
S31508002B200A9808B9012000E000200A900C980E9037
S31508002B300B980D9001201023AFF2BC220090DDE91E
S31508002B400D1005F0E9FC05F0CDFB0C9828B90B989B
S31508002B50102802D101200A9026E00E98102804DBDE
S31508002B600C981038C0B20C9005E07F200C900B989A
S31508002B701038C0B20B9017E00898401CC0B20890F5
S31508002B800898022805DB002008905248069901F0AB
S31508002B90A7FC09E0012007907A204F4908704F49A1
S31508002BA00698087000E000BF00BF079801287DD18D
S31508002BB0494800787A28FAD150E34948007803282A
S31508002BC0F5D14848007820B94648407808B9002029
S31508002BD0069041480078362869D012DC322867D03A
S31508002BE008DC232873D02A2872D0302871D03128DF
S31508002BF07ED10AE133287CD034287BD03528F7D11A
S31508002C00BFE1732877D008DC372875D0382874D008
S31508002C10392873D06F28EBD1FDE278286FD0792850
S31508002C2002D07A28E4D128E00A98012824D10D9800
S31508002C30302821DC002009900A900D980B900E98F8
S31508002C400C90002328A2DDE90D1005F0CFF90E98A7
S31508002C501030C0B20E900E987F2805DB00200E902B
S31508002C600D981030C0B20D9005F03CFB04211D4AAA
S31508002C70069802EB40004170E5E20A98012842D125
S31508002C800D9830283FDC002009900A900D980B908B
S31508002C900E980C90002315A2DDE90D1005F0A6F993
S31508002CA00E981030C0B20E900E9802E0D4E297E16A
S31508002CB0DAE07F2805DB00200E900D981030C0B2B0
S31508002CC00D9005F00FFB0321064A069818E0B0E2BE
S31508002CD049E26BE01A15002002000020B600002029
S31508002CE0DA10002038150020D3D20000D7F30000F0
S31508002CF0A8E2E8E016E107E0A1E1CFE1FDE12CE07A
S31508002D0002EB400041709EE20A98012824D10D98F2
S31508002D10302821DC002009900A900D980B900E9817
S31508002D200C900023FEA2DDE90D1005F05FF90E9860
S31508002D301030C0B20E900E987F2805DB00200E904A
S31508002D400D981030C0B20D9005F0CCFA0121F54A65
S31508002D50069802EB4000417075E20A98012824D1D2
S31508002D600D98302821DC002009900A900D980B90C8
S31508002D700E980C900023ECA2DDE90D1005F036F94B
S31508002D800E981030C0B20E900E987F2805DB0020F2
S31508002D900E900D981030C0B20D9005F0A3FA0021E0
S31508002DA0E04A069802EB400041704CE20A9858BB8C
S31508002DB00D98302828DC0020099001200A900D98EB
S31508002DC00B900E980C9001201023AFF680120090FD
S31508002DD0DDE90D1005F0A0FB0E981030C0B20E907C
S31508002DE00E987F2805DB00200E900D981030C0B293
S31508002DF00D9005F077FA0021CA4A069802F81010D5
S31508002E000698401CC0B206901DE20A9858BB0D9859
S31508002E10302828DC0020099001200A900D980B9094
S31508002E200E980C9001201023AFF6DC120090DDE915
S31508002E300D1005F071FB0E981030C0B20E900E986A
S31508002E407F2805DB00200E900D981030C0B20D903B
S31508002E5005F048FA0121B34A069802F810100698B8
S31508002E60401CC0B20690EEE10A9858BB0D9830286F
S31508002E7028DC0020099001200A900D980B900E98E6
S31508002E800C9001201023AFF634220090DDE90D10D6
S31508002E9005F042FB0E981030C0B20E900E987F28AF
S31508002EA005DB00200E900D981030C0B20D9005F08D
S31508002EB019FA02219B4A069802F810100698401C37
S31508002EC0C0B20690BFE10A9858BB0D98302828DC96
S31508002ED00020099001200A900D980B900E980C90EE
S31508002EE001201023AFF690220090DDE90D1005F0C1
S31508002EF013FB0E981030C0B20E900E987F2805DB93
S31508002F0000200E900D981030C0B20D9005F0EAF929
S31508002F100321844A069802F810100698401CC0B28D
S31508002F20069090E10A9858BB0D98302828DC0020B6
S31508002F30099001200A900D980B900E980C9001208C
S31508002F401023AFF6E8220090DDE90D1005F0E4FA4B
S31508002F500E981030C0B20E900E987F2805DB002020
S31508002F600E900D981030C0B20D9005F0BBF90421F3
S31508002F706C4A069802F810100698401CC0B20690D3
S31508002F8061E10A9858BB0D98302828DC0020099082
S31508002F9001200A900D980B900E980C900120102392
S31508002FA0AFF644320090DDE90D1005F0B5FA0E983B
S31508002FB01030C0B20E900E987F2805DB00200E90C8
S31508002FC00D981030C0B20D9005F08CF90521554AC0
S31508002FD0069802F810100698401CC0B2069032E116
S31508002FE00A9858BB0D98302828DC00200990012043
S31508002FF00A900D980B900E980C9001201023AFF6AE
S315080030009C320090DDE90D1005F086FA0E98103016
S31508003010C0B20E900E987F2805DB00200E900D9802
S315080030201030C0B20D9005F05DF906213D4A0698AC
S3150800303002F810100698401CC0B2069003E10A98E0
S3150800304058BB0D98302828DC0020099001200A90EA
S315080030500D980B900E980C9001201023AFF6F832BD
S315080030600090DDE90D1005F057FA0E981030C0B241
S315080030700E900E987F2805DB00200E900D981030D4
S31508003080C0B20D9005F02EF90721264A069802F8D7
S3150800309010100698401CC0B20690D4E00A9858BB97
S315080030A00D98302828DC0020099001200A900D98F8
S315080030B00B900E980C9001201023AFF6504200900A
S315080030C0DDE90D1005F028FA0E981030C0B20E9002
S315080030D00E987F2805DB00200E900D981030C0B2A0
S315080030E00D9005F0FFF808210E4A069802F8101010
S315080030F00698401CC0B20690A5E00A9890BB0D98A9
S3150800310030282FDC0020099001200A900D980B909A
S315080031100E980C9001201023AFF6AC42009005E003
S31508003120C7B0000038150020BAF30000DDE90D101D
S3150800313005F0F2F90E981030C0B20E900E987F285E
S3150800314005DB00200E900D981030C0B20D9005F0EA
S31508003150C9F80921434A069802F810100698401C37
S31508003160C0B206906FE00998401CC0B20990099851
S3150800317002284FDB3B48007828B93A48407810B90E
S315080031800020069019E00A9888B900210698401E82
S31508003190344A02EB400041700698012802DC0120FF
S315080031A006900AE00698401EC0B2069005E0002187
S315080031B00698401E2B4A02F81010002009900A981B
S315080031C008B9012000E000200A900C980E900B9890
S315080031D00D9001201023AFF658120090DDE90D106E
S315080031E005F09AF905F07EF80C9828B90B9810287E
S315080031F002D101200A9026E00E98102804DB0C98CC
S315080032001038C0B20C9005E07F200C900B9810384F
S31508003210C0B20B9017E00898401CC0B208900898F6
S31508003220022805DB002008900E48069901F058F997
S3150800323009E0012007907A200B4908700B49069887
S31508003240087000E000BF00BF0798012804D10648AF
S3150800325000787A2800D101E0FEF7F4BD00BF0FB070
S3150800326000BD00003815002002000020B70000202D
S315080032707CB505F0C1F9002004F058FE002395A29C
S315080032801021184604F0B2FE0020102393A2194616
S315080032900090202005F040F901238EA2202100206D
S315080032A004F0A4FE012010238DA2202100900846D8
S315080032B005F032F9012387A23021002004F096FE9A
S315080032C00120102387A230210090202005F024F940
S315080032D0002010210223CDE90010834802786020DF
S315080032E005F0C6F8012010210223CDE900107F4819
S315080032F002782021602005F0BBF801201021022366
S31508003300CDE900107A4802783021602005F0B0F83F
S3150800331078480078012807D1102377A2194600902B
S31508003320402005F0F9F816E074480078012807D11E
S31508003330102371A220210090402005F0EDF80AE044
S315080033406F480078012806D110236BA2302100901F
S31508003350402005F0E1F804F0C5FFB8E005F04CF9A7
S31508003360FDF736FE674800780128F6D10020654942
S31508003370087060480078012807D06048007801285E
S3150800338003D05F48007801287ED15F4800782A2854
S315080033907BD158480078012818D100240FE0002571
S315080033A009E05A4800EB4500005D584901EB450124
S315080033B00855681CC5B20C2DF3DB601CC4B2022C80
S315080033C0EDDB494800784849087038E04B480078F2
S315080033D0012818D100240FE0002509E04C4800EB2D
S315080033E04500005D494901EB45010855681CC5B211
S315080033F00C2DF3DB601CC4B2022CEDDB3B480078D5
S31508003400394908701BE03E480078012817D1002486
S315080034100FE0002509E03F4800EB4500005D3B4909
S3150800342001EB45010855681CC5B20C2DF3DB601C81
S31508003430C4B2022CEDDB2E4800782B490870012017
S31508003440102335A219460090402005F065F80120A2
S31508003450102331A220210090402005F05DF80120BC
S3150800346010232DA230210090402005F055F80020A9
S3150800347010210223CDE900101B480278602004F0D1
S31508003480F7FF04F02FFF01E011E007E000201949DB
S3150800349008701A4908701A49087018E01A4800781E
S315080034A0732803D018480078782810D110E01648F9
S315080034B000786F2803D101201849087006E01248E1
S315080034C000782A2802D101200A49087000E045E759
S315080034D000BF7CBDD7D4C9E8000000003100000059
S315080034E03200000033000000B5000020B6000020BE
S315080034F0B7000020DB1000202A000000DC100020A6
S31508003500DD1000200100002002000020FC1400202D
S315080035101A1500203815002020000000DA100020B7
S315080035207CB505F069F8002004F000FD012396A299
S315080035301021002004F05AFD0120102394A21946F8
S315080035400090202004F0E8FF00238FA220211846CF
S3150800355004F04CFD002010238EA22021009008467E
S3150800356004F0DAFF012388A23021002004F03EFD92
S315080035700120102388A230210090202004F0CCFFDF
S31508003580012010210223CDE900108448027860202A
S3150800359004F06EFF002010210223CDE900108048B8
S315080035A002782021602004F063FF01201021022305
S315080035B0CDE900107B4802783021602004F058FFDE
S315080035C079480078012807D1102378A21946009077
S315080035D0402004F0A1FF16E075480078012807D1BD
S315080035E0102372A220210090402004F095FF0AE0E3
S315080035F070480078012806D110236CA2302100906B
S31508003600402004F089FF04F06DFEB9E004F0F4FFF1
S31508003610FDF7DEFC684800780128F6D100206649E7
S31508003620087061480078012807D0614800780128A9
S3150800363003D06048007801287DD1604800782A28A0
S315080036407AD159480078012818D100240FE00025BE
S3150800365009E05B4800EB4500005D5A4901EB45016E
S315080036600855681CC5B20C2DF3DB601CC4B2022CCD
S31508003670EDDB4A4800784A49087038E04C4800783B
S31508003680012818D100240FE0002509E04D4800EB79
S315080036904500005D4B4901EB45010855681CC5B25C
S315080036A00C2DF3DB601CC4B2022CEDDB3C48007821
S315080036B03B4908701BE03F480078012817D10024D1
S315080036C00FE0002509E0404800EB4500005D3D4954
S315080036D001EB45010855681CC5B20C2DF3DB601CCF
S315080036E0C4B2022CEDDB2F4800782D490870012062
S315080036F0102336A219460090402004F00DFF012041
S31508003700102332A220210090402004F005FF01205A
S3150800371010232EA230210090402004F0FDFE002048
S3150800372010210223CDE900101D48027820216020CF
S3150800373004F09EFE01E013E009E004F0D3FD00204A
S31508003740194908701A4908701A49087018E01B4880
S315080037500078732803D019480078782810D110E02B
S31508003760164800786F2803D102201949087006E028
S31508003770124800782A2802D101200D49087000E075
S3150800378044E700BF7CBD0000D7D4C9E800000000AC
S31508003790310000003200000033000000B5000020B0
S315080037A0B6000020B7000020DB1000202A00000029
S315080037B0DC100020DD10002001000020020000209F
S315080037C0FC1400201A1500203815002020000000DF
S315080037D0DA1000207CB504F00FFF002004F0A6FBE9
S315080037E0012396A21021002004F000FC01201023DA
S315080037F094A219460090202004F08EFE01238FA281
S315080038002021002004F0F2FB012010238EA22021A3
S315080038100090084604F080FE002388A2302118464E
S3150800382004F0E4FB0020102388A230210090202019
S3150800383004F072FE012010210223CDE9001084480D
S315080038400278602004F014FE012010210223CDE93D
S315080038500010804802782021602004F009FE00202C
S3150800386010210223CDE900107B4802783021602020
S3150800387004F0FEFD79480078012807D1102378A2C4
S3150800388019460090402004F047FE16E07548007877
S31508003890012807D1102372A220210090402004F0AD
S315080038A03BFE0AE070480078012806D110236CA276
S315080038B030210090402004F02FFE04F013FDB9E0FB
S315080038C004F09AFEFDF784FB684800780128F6D1D3
S315080038D000206649087061480078012807D06148C9
S315080038E00078012803D06048007801287DD1604817
S315080038F000782A287AD159480078012818D1002456
S315080039000FE0002509E05B4800EB4500005D5A49D9
S3150800391001EB45010855681CC5B20C2DF3DB601C8C
S31508003920C4B2022CEDDB4A4800784B49087038E0EF
S315080039304C480078012818D100240FE0002509E03A
S315080039404E4800EB4500005D4B4901EB4501085523
S31508003950681CC5B20C2DF3DB601CC4B2022CEDDB6F
S315080039603C4800783C4908701BE03F48007801282D
S3150800397017D100240FE0002509E03F4800EB450079
S31508003980005D3D4901EB45010855681CC5B20C2D83
S31508003990F3DB601CC4B2022CEDDB2F4800782E49FD
S315080039A008700120102336A219460090402004F022
S315080039B0B3FD0120102332A220210090402004F0FC
S315080039C0ABFD012010232EA230210090402004F0E8
S315080039D0A3FD002010210223CDE900101E4802781D
S315080039E03021602004F044FD01E013E009E004F012
S315080039F079FC0020194908701A4908701A49087094
S31508003A0018E01B480078732803D0194800787828EE
S31508003A1010D110E0164800786F2803D10320194901
S31508003A20087006E0124800782A2802D101200E49BB
S31508003A30087000E044E700BF7CBD0000D7D4C9E8A1
S31508003A4000000000310000003200000033000000D2
S31508003A50B5000020B6000020B7000020DB100020CB
S31508003A602A000000DC100020DD10002001000020E4
S31508003A7002000020FC140020381500201A1500202A
S31508003A8020000000DA1000201CB504F0B5FD002067
S31508003A9004F04CFAFA480078012877D1002451E05E
S31508003AA0F84810F8140070B9F64800EB440040785E
S31508003AB048B9012061070090080E1023F2A21946A2
S31508003AC004F02AFD3CE0EF4800EB4400407870B172
S31508003AD0012804D0032812D0042820D117E0610752
S31508003AE0080E0123EAA2102104F080FA18E0610703
S31508003AF0080E0123E7A2102104F078FA10E0610706
S31508003B00080E0123E4A2102104F070FA08E0610708
S31508003B10080E0123E1A2102104F068FA00E000BFB4
S31508003B2000BF01201021CDE90010D64911F8142054
S31508003B30102101EB4411C8B20123102104F098FCAE
S31508003B40601CC4B2042CABDB042458E0CD4810F842
S31508003B50140078B9CB4800EB4400407850B90120EE
S31508003B60211F49070090080E1023C7A2202104F040
S31508003B70D3FC42E0C34800EB4400407880B10128FA
S31508003B8005D0032815D0042825D11BE090E0211F75
S31508003B904907080E0123BEA2202104F027FA1BE0DC
S31508003BA0211F4907080E0123BAA2202104F01EFA94
S31508003BB012E0211F4907080E0123B7A2202104F0AD
S31508003BC015FA09E0211F4907080E0123B3A220218F
S31508003BD004F00CFA00E000BF00BF01201021CDE977
S31508003BE00010A84911F81420211F102303EB4111D6
S31508003BF0C8B20123202104F03BFC601CC4B2082C87
S31508003C00A4DB082451E09F4810F8140070B99D48B9
S31508003C1000EB4400407848B9012061070090080E7F
S31508003C20102399A2302104F077FC3CE0954800EB7C
S31508003C304400407870B1012804D0032812D0042823
S31508003C4020D117E06107080E012391A2302104F064
S31508003C50CDF918E06107080E01238EA2302104F081
S31508003C60C5F910E06107080E01238BA2302104F084
S31508003C70BDF908E06107080E012388A2302104F087
S31508003C80B5F900E000BF00BF01201021CDE9001002
S31508003C907C4911F81420102303EB4411C8B2012300
S31508003CA0302104F0E5FB601CC4B20C2CABDB3CE213
S31508003CB073480078022877D1002451E0784810F834
S31508003CC0140070B9764800EB4400407848B90120E2
S31508003CD061070090080E10236BA2194604F01CFC1D
S31508003CE03CE06F4800EB4400407870B1012804D0EE
S31508003CF0032812D0042820D117E06107080E0123F3
S31508003D0063A2102104F072F918E06107080E012376
S31508003D1060A2102104F06AF910E06107080E012379
S31508003D205DA2102104F062F908E06107080E01237C
S31508003D305AA2102104F05AF900E000BF00BF012082
S31508003D401021CDE90010564911F81420102101EB75
S31508003D504411C8B20123102104F08AFB601CC4B2C6
S31508003D60042CABDB042458E04D4810F8140078B94D
S31508003D704B4800EB4400407850B90120211F490701
S31508003D800090080E102340A2202104F0C5FB42E053
S31508003D90434800EB4400407880B1012805D0032849
S31508003DA015D0042825D11BE0A4E0211F4907080ED9
S31508003DB0012337A2202104F019F91BE0211F490726
S31508003DC0080E012333A2202104F010F912E0211F66
S31508003DD04907080E012330A2202104F007F909E05B
S31508003DE0211F4907080E01232CA2202104F0FEF802
S31508003DF000E000BF00BF01201021CDE900102849CE
S31508003E0011F81420211F102303EB4111C8B2012316
S31508003E10202104F02DFB601CC4B2082CA4DB082466
S31508003E2065E01F4810F8140070B91D4800EB4400FF
S31508003E30407848B9012061070090080E102312A2A5
S31508003E40302104F069FB50E0154800EB4400407847
S31508003E5070B1012804D0032824D0042834D12AE0DC
S31508003E606107080E01230AA2302104F0BFF82CE0EE
S31508003E706107080E012307A2302104F0B7F824E0F1
S31508003E80DA100020FC14002020202020000000006A
S31508003E90C7B00000BAF30000D7F30000D3D2000081
S31508003EA01A1500206107080E0123AFF2140230210B
S31508003EB004F09CF809E06107080E0123AFF224021A
S31508003EC0302104F093F800E000BF00BF0120102164
S31508003ED0CDE90010BA4911F81420102303EB441158
S31508003EE0C8B20123302104F0C3FA601CC4B20C2CFA
S31508003EF097DB1AE1B34800780328FAD1002456E084
S31508003F00B14810F8140078B9AF4800EB440040787F
S31508003F1050B9012061070090080E1023AFF29802ED
S31508003F20194604F0F9FA40E0A74800EB4400407847
S31508003F3078B1012804D0032814D0042824D11AE023
S31508003F406107080E0123AFF2B802102104F04EF8FB
S31508003F501BE06107080E0123AFF2C802102104F026
S31508003F6045F812E06107080E0123AFF2D4021021CA
S31508003F7004F03CF809E06107080E0123AFF2E402F9
S31508003F80102104F033F800E000BF00BF0120102123
S31508003F90CDE900108C4911F81420102101EB4411C9
S31508003FA0C8B20123102104F063FA601CC4B2042CC1
S31508003FB0A6DB04245CE0844810F8140080B9824823
S31508003FC000EB4400407858B90120211F49070090AA
S31508003FD0080E1023AFF25012202104F09DFA45E096
S31508003FE0794800EB4400407880B1012804D00328C2
S31508003FF016D0042828D11DE0211F4907080E0123E1
S31508004000AFF27412202103F0F1FF1EE0211F4907C9
S31508004010080E0123AFF28412202103F0E7FF14E013
S31508004020211F4907080E0123AFF29412202103F03D
S31508004030DDFF0AE0211F4907080E0123AFF2A4128B
S31508004040202103F0D3FF00E000BF00BF01201021AC
S31508004050CDE900105C4911F81420211F102303EB49
S315080040604111C8B20123202104F002FA601CC4B22F
S31508004070082CA0DB082456E0534810F8140078B939
S31508004080514800EB4400407850B901206107009080
S31508004090080E1023AFF21022302104F03DFA40E05A
S315080040A0494800EB4400407878B1012804D0032839
S315080040B014D0042824D11AE06107080E0123AFF2B0
S315080040C03022302103F092FF1BE06107080E01231E
S315080040D0AFF24022302103F089FF12E06107080E93
S315080040E00123AFF24C22302103F080FF09E061077B
S315080040F0080E0123AFF25C22302103F077FF00E0BF
S3150800410000BF00BF01201021CDE900102E4911F88B
S315080041101420102303EB4411C8B20123302104F004
S31508004120A7F9601CC4B20C2CA6DB04F0DBF800244B
S3150800413042E004F061FAFCF74BFF244800780128B6
S315080041403AD1002021490870214800786F2828D1E3
S31508004150002420A206210A2001F0F2FF194800785F
S31508004160012805D11C4801781C4800F0B9F912E06D
S3150800417014480078022805D119480178104800F03B
S31508004180AFF908E00F480078032804D115480178EC
S315080041900D4800F0A5F914A206210A2001F0D0FF67
S315080041A00AE00B480078792805D1601CC4B2022CB5
S315080041B002DB002401E000E0BBE700BF1CBD0000F5
S315080041C01A150020DA1000203815002001000020FA
S315080041D002000020676F0000B5000020FC140020D4
S315080041E0B6000020B7000020202000002DE9F05F6F
S315080041F004460D4616460AAF97E880074FF0000BAF
S315080042009048066090480570012C4DD100BF0120EA
S315080042108C49086004F00AFB00BF8C48B0F900001E
S31508004220844203DD8A4800780028F6D1012005F08B
S315080042308BFB884908700846007838B900BF85485E
S31508004240007818B9824800780028F8D181480078A3
S31508004250012802D10AF07AFBECE07E4800780328B0
S315080042600DD107E07B480078012803D1784800780B
S3150800427000B100E0F6E700BF0AF068FBDAE075482F
S31508004280007804280DD107E072480078012803D188
S315080042906F48007800B100E0F6E700BF0AF056FB69
S315080042A0C8E00AF053FBC5E0022C5AD10220654942
S315080042B0086004F0BBFA00BF601E6449B1F900103B
S315080042C0884203DD624800780028F5D101205D495F
S315080042D0086000BF5D48B0F90000844203DD5C4811
S315080042E000780028F6D1012005F02EFB5949087000
S315080042F00846007838B900BF5648007818B95448B7
S3150800430000780028F8D153480078012802D10AF02D
S315080043101DFB8FE04F48007803280DD107E04D4874
S315080043200078012803D14A48007800B100E0F6E792
S3150800433000BF0AF00BFB7DE04648007804280DD143
S3150800434007E044480078012803D14148007800B1C5
S3150800435000E0F6E700BF0AF0F9FA6BE00AF0F6FAB1
S3150800436068E0032C66DB03203649086004F05EFA31
S3150800437000BF3648B0F90000012803DA344800784F
S315080043800028F6D102202F49086000BF601E2F4979
S31508004390B1F90010884203DD2D4800780028F5D1D0
S315080043A001202849086000BF2848B0F90000844267
S315080043B003DD274800780028F6D1012005F0C4FA65
S315080043C0244908700846007838B900BF21480078A3
S315080043D018B91F4800780028F8D11E480078012827
S315080043E002D10AF0B3FA25E01A48007803280DD15D
S315080043F007E018480078012803D11548007800B16D
S3150800440000E0F6E700BF0AF0A1FA13E011480078C9
S3150800441004280DD107E00F480078012803D10C487D
S31508004420007800B100E0F6E700BF0AF08FFA01E075
S315080044300AF08CFA00200549088009F029F8BDE839
S31508004440F09F00009C0000204D0000204A0000203C
S315080044506C0000204C0000202DE9FF4107460C4661
S3150800446016464FF00008092F38D00425042D00DB26
S3150800447000BF032C01D0042C07D10A2009F042FB07
S315080044800021204600F0E6FA0124052C01D0062C6E
S3150800449004D1B0464146204600F078F9072C01D0F1
S315080044A0082C05D12A462146384600F031F800275F
S315080044B0092C01D00A2C03D1204600F0EDF900277B
S315080044C0002000900190029003462A462146039058
S315080044D03846FFF78BFE322009F014FBBDE8FF8152
S315080044E070B505460E46002400BF0BE005EB4403F5
S315080044F01A7905EB4403597815F81400FFF7ACFF51
S31508004500601CC4B2B442F1DB0AF020FA70BD0000A8
S3150800451070B504460E46154694480560F01F944942
S3150800452008700120934908709148007800B300206C
S31508004530914908609149C1F888018F49083908608E
S315080045408E49C1F880014FF4C3718D4807F0DDF933
S315080045504FF4C3718A4807F0D6F94FF4C3718848F7
S3150800456007F0CFF94FF4C371854807F0C8F91FE083
S315080045700120814908608149C1F888017E490839C6
S3150800458008607E49C1F880014FF4C3717C4807F082
S31508004590BCF94FF4C3717A4807F0B5F94FF4C37103
S315080045A0774807F0AEF94FF4C371754807F0A7F9D5
S315080045B0012C1DD14FF4967009F0A4FA01206B491D
S315080045C0086004F033F900206E490880012005F0E0
S315080045D0E3FC6C49088000BF6A48B0F900008442D1
S315080045E003DD694800780028F6D10AF0AFF967E0DC
S315080045F0022C2BD14FF4967009F084FA02205B49FD
S31508004600086004F013F900205E490880012005F0CF
S31508004610C3FC5C49088000BF601E5A49B1F9001006
S31508004620884203DD584800780028F5D101204F4913
S31508004630086000BF5348B0F90000844203DD5248C1
S3150800464000780028F6D10AF081F939E0032C37DB27
S315080046504FF4967009F056FA03204449086004F0AE
S31508004660E5F8002047490880012005F095FC4549F2
S31508004670088000BF4348B0F90000012803DA424821
S3150800468000780028F6D102203849086000BF601E6D
S315080046903C49B1F90010884203DD3B480078002800
S315080046A0F5D101203149086000BF3648B0F900004D
S315080046B0844203DD344800780028F6D10AF046F92A
S315080046C00A21062000F062F82948007828B301205C
S315080046D0294908602949C1F8880127490839086025
S315080046E02649C1F880014FF4C371254807F00DF932
S315080046F04FF4C371224807F006F94FF4C3712048F6
S3150800470007F0FFF84FF4C3711D4807F0F8F85A2070
S3150800471009F0F8F90AF01AF924E0012016490860A8
S315080047201649C1F888011449083908601349C1F8BF
S3150800473080014FF4C371124807F0E7F84FF4C371CC
S315080047400F4807F0E0F84FF4C3710D4807F0D9F8A1
S315080047504FF4C3710A4807F0D2F85A2009F0D2F983
S315080047600AF0F4F800200349087070BD9C00002088
S315080047704D000020490000208C8122420080224200
S31508004780003401404A0000206C00002070B5054640
S315080047900E464CF2503006FB00F4052D38D10AF0CF
S315080047A0D5F823E00120394908604FF4CD7138481F
S315080047B007F0ABF800203749C1F888014FF4AF710C
S315080047C0334807F0A0F800203049083908604FF44C
S315080047D0AF712F4807F095F801202E49C1F88001DE
S315080047E04FF4AF712A4807F08AF8641E052CD9D20F
S315080047F00021274807F089F80021254807F083F8A3
S315080048000021234807F07BF80021214807F079F8B2
S31508004810062D38D123E000201C4908604FF4BE71EC
S315080048201B4807F072F801201A49C1F888014FF4AD
S31508004830AF71174807F067F801201449083908606E
S315080048404FF4AF71124807F05CF800201149C1F81F
S3150800485080014FF4AF710E4807F051F8641E052C1D
S31508004860D9D200210A4807F050F80021084807F075
S315080048704AF80021064807F042F80021044807F0E4
S3150800488040F80AF063F80AF061F870BD8C8122429C
S31508004890003401400080224270B5044600250120FC
S315080048A0334908700A2C2FD1002032490860324952
S315080048B0C1F888012F49083908602F49C1F88001D5
S315080048C04FF496712D4807F020F84FF496712B484F
S315080048D007F019F84FF49671284807F012F84FF4C4
S315080048E09671264807F00BF8012005F02DF8C5B299
S315080048F003E0012005F028F8C5B2002DF9D00AF02A
S3150800490025F800201A490870092C2FD101201949C9
S3150800491008601949C1F88801164908390860164916
S31508004920C1F880014FF49671144806F0EEFF4FF473
S315080049309671124806F0E7FF4FF496710F4806F095
S31508004940E0FF4FF496710D4806F0D9FF012004F0F8
S31508004950FBFFC5B203E0012004F0F6FFC5B2002D47
S31508004960F9D009F0F3FF00200149087070BD000076
S31508004970480000208C8122420080224200340140F7
S315080049802DE9F04104460D4617461E4601202B49DF
S3150800499008602B48057003F049FF012C3CDD00BF79
S315080049A0601E2849B1F90010884203DD26480078C0
S315080049B00028F5D1012004F0C7FF244908700846ED
S315080049C0007838B900BF2148007818B91E48007821
S315080049D00028F8D11D48007801281DD01B4800780A
S315080049E003280AD107E019480078012803D1164898
S315080049F0007800B100E0F6E70EE0144800780428D5
S31508004A000AD107E011480078012803D10E4800783A
S31508004A1000B100E0F6E700BF012008490860002061
S31508004A200B49086000BF0A480068B042FBD3002063
S31508004A300449088008F02CFDBDE8F0819C000020A0
S31508004A404D0000204A0000206C0000204C00002089
S31508004A50500000202DE9F04104460E4604209849EE
S31508004A600860032C4BD10027012240F225519548B6
S31508004A7007F07BF90121934807F034F900209249A1
S31508004A80086000BF002190480068FBF74FFEF9D088
S31508004A908D4807688D493846FBF78AFB07468C49D7
S31508004AA03846FBF74DFE04D889493846FBF7D2FB52
S31508004AB0074602208749087003F0B8FE00BF8248FF
S31508004AC001683846FBF7C6FB8046FBF7AFFD051EB7
S31508004AD001DB284600E068420528F0DA00207E4916
S31508004AE00880002240F22551764807F03EF9002159
S31508004AF0744807F0F7F800207349086000BF042CD3
S31508004B0048D10027012240F225516E4807F02DF9B9
S31508004B1001216C4807F0E6F800206B49086000BFE1
S31508004B20002169480068FBF701FEF9D06648076866
S31508004B3066493846FBF78EFB074600213846FBF7E1
S31508004B40F5FD04D862493846FBF732FB07460320D1
S31508004B506049087003F06AFE00BF5B480168384682
S31508004B60FBF778FB8046FBF761FD051E01DB28464F
S31508004B7000E068420528F0DA002240F22551514843
S31508004B8007F0F3F800214F4807F0ACF800204E492B
S31508004B9008608BE0052C19D102204E49087003F0F5
S31508004BA045FE00204D49088001204B49088000BF7A
S31508004BB04A49B1F90000002801DB014600E04142FC
S31508004BC06429F5DB0020444908806FE0062C1AD1D9
S31508004BD002204049087003F029FE00203F4908805A
S31508004BE001203D49088000BF3C49B1F90000002872
S31508004BF001DB014600E04142B1F5C87FF4DB002045
S31508004C003549088052E0072C19D10320314908702C
S31508004C1003F00CFE00203149088001202E49088047
S31508004C2000BF2E49B1F90000002801DB014600E06B
S31508004C304142B429F5DB00202749088036E0082CD4
S31508004C4019D102202349087003F0F0FD00202349FA
S31508004C50088001202049088000BF2049B1F90000DA
S31508004C60002801DB014600E041426429F5DB00200B
S31508004C70194908801AE0092C18D10320154908702B
S31508004C8003F0D4FD00201549088001201249088048
S31508004C9000BF1249B1F90000002801DB014600E017
S31508004CA041426429F5DB00200B49088008F0F0FB37
S31508004CB009F04CFE00200A490880BDE8F081000092
S31508004CC09C00002000380140EC1200200000BA4287
S31508004CD00000B4434D000020540000205600002078
S31508004CE04A0000202DE9FF5F06460F4690461C46FF
S31508004CF0DDE911ABDDF840900E9D052D0EDA6EB19B
S31508004D0013988DE8000E03904246394630460F9BAD
S31508004D10FFF76CFA642008F0F5FE0AE0052D08DBBB
S31508004D202B46424639463046FFF72AFE642008F0ED
S31508004D30E9FE032C01D0042C06D139462046FFF79C
S31508004D4089FE642008F0DEFEBDE8FF9F21B10268F7
S31508004D5042F00102026004E002684FF6FE731A4050
S31508004D600260704701684FF6FE721140016000212B
S31508004D70016041608160C1604B49884208D14A4957
S31508004D800839496841F00F01474A083A51608AE0F4
S31508004D9045491431884208D143490839496841F0E0
S31508004DA0F001414A083A51607DE03F49283188427E
S31508004DB008D13D490839496841F470613A4A083AC8
S31508004DC0516070E038493C31884208D13649083983
S31508004DD0496841F47041344A083A516063E03249FF
S31508004DE05031884208D130490839496841F4702160
S31508004DF02D4A083A516056E02B496431884208D159
S31508004E0029490839496841F47001274A083A516026
S31508004E1049E025497831884208D123490839496843
S31508004E2041F07061204A083A51603CE01F498842C7
S31508004E3006D1011F096841F00F01021F116032E017
S31508004E401A491431884208D11849091F096841F0DE
S31508004E50F001164A121F116025E0144928318842CC
S31508004E6008D11249091F096841F470610F4A121FD7
S31508004E70116018E00D493C31884208D10B49091FD9
S31508004E80096841F47041094A121F11600BE007498D
S31508004E905031884207D10549091F096841F4702134
S31508004EA0024A121F116070470800024008040240B7
S31508004EB010B50022026847F6F0739A430C6A8B68AD
S31508004EC023430C6923434C6923438C692343CC69E8
S31508004ED023434C6A23438C6A23431A430260CB68F4
S31508004EE043600B6883604B68C36010BD1CB503F054
S31508004EF083FB002003F01AF80020244948231822CF
S31508004F00CDE900101321022003F0ECF80120204916
S31508004F1048231822CDE9001013211A2003F0E2F8DD
S31508004F2001201C4948231822CDE9001013213220FC
S31508004F3003F0D8F80120184948231822CDE90010B3
S31508004F4013214A2003F0CEF80120144948231822D9
S31508004F50CDE900101321622003F0C4F8012310A242
S31508004F602F21084603F042F803F0BCF90BE003F0E2
S31508004F7043FBFCF72DF80C480078012803D10020E4
S31508004F800949087000E0F2E700BF1CBD9A2701082E
S31508004F9002290108222A0108DA29010892290108AA
S31508004FA0C9E8D6C3000000000100002070470000D1
S31508004FB01CB5474880784749887045488078401E20
S31508004FC0C1B244484173407B012802DC01214148B3
S31508004FD041733F4881783F4801763D488078401EB6
S31508004FE0C1B23C4880F8231090F82300012803DC5E
S31508004FF00121384880F8231003F0FEFA002002F059
S3150800500095FF002334A21021184602F0EFFF002076
S31508005010102333A219460090202003F07DFA0123BD
S315080050202DA22021002002F0E1FF012010232DA24D
S3150800503020210090084603F06FFA01232AA23021A6
S31508005040002002F0D3FF0120102329A2302100906E
S31508005050202003F061FA00201021CDE900101C4839
S31508005060807825490A5C02231021602003F000FAA3
S3150800507001201021CDE90010164880781E490A5CE7
S3150800508002232021602003F0F3F903F02BF91CE03A
S3150800509003F0B2FAFBF79CFF18480078012814D1F0
S315080050A00020164908701648007879280CD115A2F0
S315080050B006210A2001F044F808F0F0F912A20621A8
S315080050C00A2001F03DF800E000E0E1E700BF1CBD62
S315080050D0B800002026010020C2B7CFDF000000007C
S315080050E03578300035783200D1ADBCA30000000019
S315080050F05354313838000000A00000200100002079
S3150800510002000020676F0000202000002DE9F0470C
S3150800511006460F4690461C46DDF82090E11704EB3C
S315080051205171C910A4EBC10131B92046E11704EB4E
S315080051305171C1F3C70506E02046E11704EB51712A
S31508005140C910491CCDB23D4611E02946304601F04A
S3150800515041F9B24607E019F8010B01F07DF90AF1A9
S31508005160010000F0FF0AC245F5DD681CC5B2A5427C
S31508005170EBDDBDE8F0870000FEB504460E460020CC
S3150800518001900290002E33D140F27620844200DC52
S315080051900446A4F2762084B20A2094FBF0F084B286
S315080051A0152C00DD1524002509E0042105F1080069
S315080051B0254A1154202120301154681CC5B2152DDA
S315080051C0F3DB00250AE0F420C5F11C011E4A505401
S315080051D02F20C5F13C015054681CC5B2A542F2DB2C
S315080051E0194801237F22002100906020FFF78EFFD7
S315080051F0012E28D100BF642094FBF0F00A2190FB11
S31508005200F1F201FB12003030C0B28DF804002E20F6
S315080052108DF805000A2094FBF0F090FBF1F201FBF3
S3150800522012003030C0B28DF806000A2094FBF0F167
S3150800523000FB11403030C0B28DF8070001AA0021EA
S31508005240602001F083F8FEBD020900201CB503F0BA
S31508005250D3F9002002F06AFE0120244948231822C7
S31508005260CDE900101321022002F03CFF012020495D
S3150800527048231822CDE9001013211A2002F032FF24
S3150800528001201C4948231822CDE900101321322099
S3150800529002F028FF0120184948231822CDE90010FA
S315080052A013214A2002F01EFF002014494823182221
S315080052B0CDE900101321622002F014FF012310A289
S315080052C02F211F2002F092FE03F00CF80BE003F0EA
S315080052D093F9FBF77DFE0D480078012803D10020DD
S315080052E00A49087000E0F2E700BF1CBD9A270108CA
S315080052F002290108222A0108DA2901089229010847
S31508005300B6E6BBFAB5F7BDDA0000000001000020DA
S3150800531008B503F071F9002002F008FE01201023F9
S3150800532034A219460090002003F0F6F8012332A2B1
S315080053301021084602F05AFE0120102330A2194611
S315080053400090402003F0E8F801232EA210215020F7
S3150800535002F04CFE012010232CA2202100900020F0
S3150800536003F0DAF801232AA22021102002F03EFEDB
S315080053700120102328A220210090402003F0CCF819
S31508005380012326A22021502002F030FE01201023FE
S3150800539024A230210090002003F0BEF8012322A2A7
S315080053A03021102002F022FE02F09CFF21E0204866
S315080053B0007880B9012010231EA2302100904020D9
S315080053C003F0AAF8012315A23021502002F00EFEA0
S315080053D002F088FF09E00120102317A2302100906F
S315080053E0402003F099F802F07DFF03F005F9FBF77A
S315080053F0EFFDDCE7312E0000D5C5BFAA000000008E
S31508005400322E0000C8FDBDC700000000332E000084
S31508005410C9ECD6B100000000342E0000CAD5BBD8AE
S31508005420000000004F2E0000C9E8D6C300000000A7
S31508005430C51200207A2E00002020202020200000FF
S3150800544030B5044604254FF4302000F06FF80546C1
S31508005450042D17D10C48006940F002000A4908617A
S3150800546008464461006940F0400008614FF4302066
S3150800547000F05CF805460448006941F6FD710840ED
S3150800548001490861284630BD0020024004200B4926
S31508005490C96801F0010109B101200EE00749C96890
S315080054A001F0040109B1022007E00449C96801F0C6
S315080054B0100109B1032000E00420704700200240D3
S315080054C00348006940F08000014908617047000000
S315080054D00020024070B504460D460426F00200F08E
S315080054E025F80646042E11D10948006940F0010046
S315080054F0074908612580F00200F018F806460448B6
S31508005500006941F6FE71084001490861304670BDE0
