S31508000000E036002045010008B958000849500008A4
S31508000010B55800085913000837AD0008000000005D
S315080000200000000000000000000000001F7B000820
S315080000308548000800000000E9770008ED940008EC
S315080000405F0100085F0100085F0100085F01000802
S315080000505F0100085F0100085F0100085F010008F2
S315080000605F0100085F0100085F0100085F010008E2
S315080000705F0100085F0100085F0100085F010008D2
S315080000805F0100085F0100085F0100085F010008C2
S315080000905F0100085F0100085F0100085F010008B2
S315080000A05F0100085F0100085F0100085F010008A2
S315080000B05F0100085F0100085F0100085F01000892
S315080000C05F0100085F0100085F0100085F01000882
S315080000D05F0100089DA8000885A9000811AA000864
S315080000E05F0100085F0100085F0100085F01000862
S315080000F05F0100085F0100085F0100085F01000852
S315080001005F0100085F0100085F0100085F01000841
S315080001105F0100085F01000891970008159900081B
S315080001205F0100085F0100085F0100085F01000821
S31508000130DFF80CD000F000FC0048004711B90008B1
S31508000140E03600200648804706480047FEE7FEE7F7
S31508000150FEE7FEE7FEE7FEE7FEE7FEE7FEE7FEE769
S31508000160F19400083101000840EA01039B0703D017
S3150800017009E008C9121F08C0042AFAD203E011F8D8
S31508000180013B00F8013B521EF9D27047D2B201E09A
S3150800019000F8012B491EFBD270470022F6E710B57E
S315080001A013460A4604461946FFF7F0FF204610BDD7
S315080001B0F0B480EA0102D40F4200B2EB410F02D23A
S315080001C00246084611464A0042D0C30DDDB2C1F3C5
S315080001D0C752AD1A202D35DAC1F3160141F40002D3
S315080001E004B15242C5F1200602FA06F12A4110442A
S315080001F0B3EBD05F23D0C4B1012DA0EBC35009DC0B
S31508000200F0BC4FF0004202EAC352DBB200F5000030
S3150800021000F0F0BA400000F1807000EBC350A0F186
S31508000220807040EAD170490009E0490841EAC07186
S31508000230A0EBC35000F50000400800EBC350F0BC2B
S3150800024000F0CFBA6142012202EB4101001BF6E73A
S31508000250F0BC704781F00041AAE780F00040A7E7AC
S3150800026080EA010210B502F00043400022D04A009D
S315080002701FD0010E01EB1261C0F35600C2F35602FD
S3150800028040F4000042F40002A0FB022000047F397B
S31508000290140400D0401C50EA124001D44000491E04
S315080002A0C2B20C0604EBD010401C4008802A02D0CB
S315080002B003E0002010BD20F00100002900DA00202C
S315080002C0184310BD2DE9FE4F804681EA0300C00F92
S315080002D00C46009021F0004123F00045B8EB0200DF
S315080002E0A94105D24046214690461C460B46024681
S315080002F023F00040104347D0270DC7F30A00C3F385
S315080003000A510290401A019040286BDAC3F3130091
S3150800031040F4801B0098924620B10023D2EB030AD2
S3150800032063EB0B0B01985946C0F14002504600F0AA
S3150800033027FA06460D4650465946019A00F03FFAF6
S3150800034010EB08006141002487EA115284EAE7733A
S315080003501A4340D0009A62B3019A012A4FEA07521B
S3150800036015DC001B61EB02014FF0004202EA07525E
S31508000370CDE90042001C41F5801132462B4600F0BB
S3150800038076FA03B0BDE8F08F40462146F9E7001B30
S3150800039061EB0201001C41F5801300185B4120182F
S315080003A0A2F5001747EB030140EAD570B6196D416F
S315080003B011E06D084FEA360645EAC0754FEA07525E
S315080003C0001B61EB0201001C41F5801149084FEA48
S315080003D030000019514132462B4603B0BDE8F04FB4
S315080003E000F036BA0098012240000023D0EB020242
S315080003F063EBE073009821464FEAE074B8EB00001F
S3150800040061EB0401E9E783F000435BE781F0004113
S3150800041058E72DE9FE4F81EA030404F0004421F071
S31508000420004100944FF0000B23F0004350EA01040A
S315080004305ED052EA03045BD0C3F30A54C1F30A55EB
S315080004402C44A4F2F3340194A0FB0254C1F3130123
S3150800045041F48011C3F3130343F4801301FB0244F0
S3150800046000FB034E840A970A44EA815447EA8357F5
S31508000470A4FB076802958D0A05FB07854FEA932CAE
S3150800048004FB0C542705029D4FEA065847EA16371F
S31508000490B5EB08056EEB070C870E920E47EA811737
S315080004A042EA8312A7FB0201B6EB0B0164EB0004D8
S315080004B02B0D43EA0C335E1844EB1C50DA465146C2
S315080004C0E7FB0201C5F313044FEA0B3343EA14535F
S315080004D04FEA0432019C43EA0603A4F10C04029491
S315080004E0009CCDE900B400F0C2F903B0BDE8F08F76
S315080004F000200146F9E72DE9F04D81EA030404F0EE
S31508000500004B21F0004514464FF0000A23F0004145
S3150800051050EA050220D054EA01021DD0C5F30A5755
S315080005200246C5F31303C1F31300C1F30A5640F498
S31508000530801543F48013A7EB0608101BD64608F26D
S31508000540FD3873EB050002D308F1010801E09218A3
S315080005505B41B8F1000F03DA00200146BDE8F08DD3
S3150800056000204FF48011064684460EE0171B73EBF5
S31508000570050705D3121B63EB050306434CEA010C7A
S3150800058049084FEA300092185B4150EA0107EDD15D
S3150800059052EA030012D082EA040083EA05010843FE
S315080005A005D0101BAB4106D20122002306E000222B
S315080005B04FF0004302E06FF0010253101AEB0600F9
S315080005C04CEB085110EB0A0041EB0B01BDE8F04D6E
S315080005D000F03EB9C10F80EAE0700844CA079623C6
S315080005E0002100F007B996230022114600F002B94F
S315080005F00EB5C10F80EAE0700844CA07002140F230
S3150800060033438DE80E000A460B4600F030F903B076
S3150800061000BD0EB540F2334102910021CDE900112B
S315080006200A460B4600F023F903B000BD00F000426D
S3150800063020F00040C10DC0F3160040F400007F29E9
S3150800064001DA00207047962903DCC1F19601C840FB
S3150800065001E096398840002AF4D04042704770B5C8
S31508000660C1F30A5201F000450024C1F3130140F218
S31508000670FF3341F480119A4201DA002070BD40F23E
S3150800068033439A42A2F2334203DC524200F087F81F
S3150800069000E090402C43F1D0404270BD00F000428B
S315080006A030F000400AD0C10D01F56071C0F31600A4
S315080006B042EA0151C208400711437047002001462B
S315080006C07047000030B5041E71F1000404DB4FF0DA
S315080006D00044404264EB0101141E73F1000405DB7B
S315080006E01C464FF00043524263EB0403994208BF8D
S315080006F0904230BD01F0004330B421F0004150EA89
S31508000700010206D00A0DA2F56072C1F31301002A90
S3150800071002DC30BC00207047440F44EAC104C10023
S31508000720E01830BC00EBC25000F05BB8002801DBD3
S31508000730C0F10040002901DBC1F100418142704748
S31508000740002801DBC0F10040002901DBC1F10041AE
S315080007508842704730B50B46014600202022012406
S3150800076009E021FA02F59D4205D303FA02F5491B71
S3150800077004FA02F52844151EA2F10102F1DC30BD87
S31508000780202A04DB203A00FA02F100207047914043
S31508000790C2F1200320FA03F3194390407047202A38
S315080007A004DB203A21FA02F00021704721FA02F30D
S315080007B0D040C2F120029140084319467047202ACA
S315080007C006DBCB17203A41FA02F043EAE07306E06B
S315080007D041FA02F3D040C2F120029140084319467B
S315080007E070470029A8BF7047401C490008BF20F081
S315080007F00100704710B4B0FA80FC00FA0CF050EA19
S31508000800010404BF10BC704749B1CCF1200421FA99
S3150800081004F411FA0CF118BF012121430843A3EB94
S315080008200C01CB1D4FEA00614FEA102042BF0020A1
S3150800083010BC704700EBC35010440029A4BF10BC7D
S315080008407047401C490008BF20F0010010BC7047E3
S3150800085010B5141E73F1000408DA401C41F10001BA
S3150800086092185B411A4301D120F0010010BD2DE911
S31508000870F04D92469B4611B1B1FA81F202E0B0FA08
S3150800088080F220329046FFF77BFF04460F4640EA87
S315080008900A0041EA0B0153465A46084313D011464B
S315080008A053EA010019D0C8F140025046FFF777FF16
S315080008B005460E46504659464246FFF761FF08432D
S315080008C005D0012004E020463946BDE8F08D002019
S315080008D0054346EAE0762C4337430A986305E40A5B
S315080008E0A0EB08000022FD0A44EA47540A3002D564
S315080008F000200146E9E7010510196941DDE90845C7
S3150800090000196941BDE8F04DA2E770B521F0004332
S3150800091003430CD0C1F30A550024D5EB040564EB58
S315080009200403D617AD1AB34102DB0020014670BD99
S31508000930201841EB025170BD064C074D06E0E068F1
S3150800094040F0010394E8070098471034AC42F6D308
S31508000950FFF7F2FB10160108301601082DE9F04DD5
S3150800096000231A461B1A8A4103DB00200146BDE80C
S31508000970F08DC1F30A52C1F3130141F480154FF00B
S31508000980000BD10702D100186D41521E00270446FC
S3150800099040F2FF11384601EB620A3E46804602469F
S315080009A000204FF48011FFF7FAFEC2197141BB18F7
S315080009B046EB0100B4EB030C75EB000C04D3E41A08
S315080009C065EB000517460E46241908F101006D412E
S315080009D080463428E3DDF91946EB0600091BA841D1
S315080009E003D24FF0FF32134601E0002213461BEBF9
S315080009F0070046EB0A51BDE8F04DFFF729BF70B571
S31508000A008C1810F8015B15F0070301D110F8013BAB
S31508000A102A1106D110F8012B03E010F8016B01F832
S31508000A20016B5B1EF9D12B0705D40023521E0DD48A
S31508000A3001F8013BFAE710F8013BCB1A921C03E0D8
S31508000A4013F8015B01F8015B521EF9D5A142D8D310
S31508000A50002070BD21B1826842F00102826003E085
S31508000A60826822F001028260704721B1826842F4EE
S31508000A708072826003E0826822F480728260704726
S31508000A8000B58BB00121084606F0BCFE114803F0FC
S31508000A90D5FD1148009011480190002002900120D0
S31508000AA00390002004908020059040000690800066
S31508000AB00790202008900002099000200A906946B5
S31508000AC0044803F061FE0121024803F0ABFD0BB0B8
S31508000AD000BD0000080002404C240140E812002036
S31508000AE000B587B0FFF7CCFF01214FF4047006F07C
S31508000AF0B9FE4FF4004006F079FE0120ADF8040077
S31508000B0003208DF8060000208DF8070001A91E486D
S31508000B1004F08BF9002002908DF80C0001208DF866
S31508000B200D004FF4602004900020059001208DF8F8
S31508000B30180002A9154800F07BF8052301220A21AE
S31508000B40124800F09DF801211048FFF78EFF012199
S31508000B500E48FFF77FFF0D4800F0EEF800BF0B4880
S31508000B6000F05BF80028FAD1084800F0F5F800BF55
S31508000B70064800F03BF80028FAD10121034800F0A6
S31508000B80E0F807B000BD0000001001400024014055
S31508000B9010B504461248844208D10121401506F0D2
S31508000BA071FE0021601506F06DFE17E00D488442BF
S31508000BB008D10121001506F065FE0021201506F072
S31508000BC061FE0BE00848844208D10121C80306F0FB
S31508000BD059FE00214FF4004006F054FE10BD0000F7
S31508000BE00024014000280140003C01400146002045
S31508000BF08A6802F004020AB1012000E0002070476A
S31508000C000146C86C80B270470246002013680B4044
S31508000C100BB1012000E000207047014600208A68D9
S31508000C2002F008020AB1012000E000207047000027
S31508000C3030B502460020002350680F4C20400D793D
S31508000C400C6844EA05242043506090680B4C204009
S31508000C50D1E902542C434D7944EA45042043906077
S31508000C60D06A20F470000C7C641EE4B2234340EA88
S31508000C700350D06230BD0000FFFEF0FFFDF7F1FF24
S31508000C80F0B504460D4600200021092D11DDE06867
S31508000C90A5F10A0606EB4607072606FA07F1884372
S31508000CA0A5F10A0606EB460603FA06F10843E060D4
S31508000CB00CE0206905EB4507072606FA07F1884385
S31508000CC005EB450603FA06F108432061072A0FDA01
S31508000CD0606B561E06EB86071F2606FA07F1884341
S31508000CE0561E06EB860605FA06F10843606322E0FF
S31508000CF00D2A0FDA206BD61F06EB86071F2606FA83
S31508000D0007F18843D61F06EB860605FA06F108435F
S31508000D10206310E0E06AA2F10D0606EB86071F269F
S31508000D2006FA07F18843A2F10D0606EB860605FAD0
S31508000D3006F10843E062F0BD816841F00801816070
S31508000D40704721B1826842F4A002826003E082689B
S31508000D5022F4A00282607047816841F00401816034
S31508000D607047014640F63810814205DD40F6A61068
S31508000D70814201DA2A20704740F6DC20814205DDEF
S31508000D8040F64A30814201DA2320F4E7B1F5616F73
S31508000D9005DD40F67460814201DA7920EBE740F61A
S31508000DA07640814205DD40F6DA40814201DA782054
S31508000DB0E1E740F63450814205DD40F6A250814213
S31508000DC001DA7A20D7E740F6D860814205DD40F699
S31508000DD03C70814201DA6F20CDE740F6B830814297
S31508000DE005DD40F61C40814201DA7320C3E7B1F500
S31508000DF0206F05DD40F66E20814201DA3020BAE721
S31508000E0040F67A00814205DD40F6E800814201DAC3
S31508000E103920B0E7B1F5C36F05DD40F2866081423F
S31508000E2001DA3620A7E7B1F5707F05DD40F22440E8
S31508000E30814201DA33209EE740F2EE20814204DD4A
S31508000E40B1F5577F01DA322095E740F26E508142BC
S31508000E5005DD40F2DC50814201DA35208BE740F2AD
S31508000E60B270814204DDB1F5026F01DA382082E7FB
S31508000E7040F2F460814205DD40F26270814201DA97
S31508000E80372078E740F29240814204DDB1F5A06F41
S31508000E9001DA34206FE7B1F5077F05DD40F28A20D5
S31508000EA0814201DA312066E7002064E700B587B0A1
S31508000EB0012148F2800006F0D5FC4FF4004006F008
S31508000EC095FC4020ADF8040000208DF8070001A924
S31508000ED0174803F0AAFF1748FFF75AFE00200290AA
S31508000EE08DF80C008DF80D004FF46020049000205A
S31508000EF0059001208DF8180002A90E48FFF798FE04
S31508000F0001210C48FFF7A6FD0A48FFF715FF00BFA9
S31508000F100848FFF782FE0028FAD10648FFF71CFFAB
S31508000F2000BF0448FFF762FE0028FAD107B000BDEB
S31508000F30001C0140003C014070B50024012104203A
S31508000F4004F06EF80546FFF70CFF0446BCB12048CE
S31508000F500088401C1E4908800846008841F64C5106
S31508000F60884211DB00201A490880012019490880A7
S31508000F7019490870194804701948047004E00020DB
S31508000F80134908801349088012480088F8B9002CCC
S31508000F9016DD1448007898B913480088401C124991
S31508000FA008800846008814280ADB002008800120EB
S31508000FB00C49087008490870084804700848047005
S31508000FC00848007818B114B900200649087070BDA1
S31508000FD00600002008000020010000200000002074
S31508000FE002000020030000200400002008B50121AB
S31508000FF0202006F037FC0F20ADF8000010208DF8F1
S31508001000030003208DF802006946344803F00DFFFB
S315080010104FF44060ADF8000028208DF803006946BB
S315080010202E4803F002FF0121C82006F01BFC74209D
S31508001030ADF8000010208DF8030003208DF802009B
S315080010406946274803F0F1FE1220ADF8000010208B
S315080010508DF8030003208DF802006946214803F045
S31508001060E4FE4FF48070ADF8000010208DF8030000
S3150800107003208DF8020069461B4803F0D6FE0820B7
S31508001080ADF8000004208DF803006946144803F003
S31508001090CCFE2420ADF8000004208DF80300694634
S315080010A0104803F0C2FE4FF40070ADF800000420AB
S315080010B08DF8030069460C4803F0B7FE4FF420503C
S315080010C0ADF8000010208DF8030003208DF802000B
S315080010D06946034803F0A9FE08BD00000014014054
S315080010E000180140001C0140000C014070B505467F
S315080010F00C46164601207649086000207549087096
S31508001100012D6BD101207449087006F0F1FA002010
S315080011107249088072490880012072490880012EA8
S315080011203ED13CE06D4AB2F90010002901DB0A46BF
S3150800113000E04A42231FC3EBC303B2EBC30F16DD1D
S31508001140664AB2F90000002801DB024600E0424286
S31508001150A31DC3EBC303B2EBC30F08DA0020624931
S3150800116008800AF0C1F901205A49087070BD5B4928
S31508001170B1F90000002801DB014600E04142A21D4A
S31508001180C2EBC202B1EBC20F09DD00205649088046
S315080011900AF0AAF901204F4908700020E6E7C1E7DE
S315080011A000BF4E4AB2F90010002901DB0A4600E0EA
S315080011B04A42C4EBC403B2EBC30FF2DB484AB2F9A6
S315080011C00000002801DB024600E04242C4EBC403EB
S315080011D0B2EBC30FE5DB002042490880002D6BD136
S315080011E000203D49087006F083FA00203B49088034
S315080011F03B49088001203B490880012E3ED13CE04E
S31508001200364AB2F90010002901DB0A4600E04A42D4
S31508001210231FC3EBC303B2EBC30F16DD2F4AB2F984
S315080012200000002801DB024600E04242A31DC3EB92
S31508001230C303B2EBC30F08DA00202B4908800AF073
S3150800124053F901202349087090E72449B1F90000B1
S31508001250002801DB014600E04142A21DC2EBC202A2
S31508001260B1EBC20F09DD00201F4908800AF03CF9DE
S31508001270012018490870002078E7C1E700BF174A1F
S31508001280B2F90010002901DB0A4600E04A42C4EB25
S31508001290C403B2EBC30FF2DB114AB2F9000000280F
S315080012A001DB024600E04242C4EBC403B2EBC30FC3
S315080012B0E5DB00200B49088000200B4908800AF06E
S315080012C013F90BF097F901200249087000BF4DE7A2
S315080012D06C000020280000201F0000202A000020A3
S315080012E02C000020240000201C00002010B5044615
S315080012F0492C0ED10C21164803F075FE012115481C
S3150800130008F0E1FE4FF42F71124809F0E2F900BF28
S31508001310FEE7532C1AD10C210D4803F062FE012179
S315080013200C4808F0D0FE64210A4809F0D2F900BF3B
S315080013300821074803F04CFE0028F9D0002105488B
S3150800134009F0C7F90021034808F0BDFE10BD0000EA
S3150800135000180140002C014000BFFEE71CB506F04E
S31508001360ADF8002005F044FD012024494823182241
S31508001370CDE900101321022005F016FE01202049B0
S3150800138048231822CDE9001013211A2005F00CFE77
S3150800139001201C4948231822CDE9001013213220C8
S315080013A005F002FE0020184948231822CDE900104E
S315080013B013214A2005F0F8FD012014494823182274
S315080013C0CDE900101321622005F0EEFD012310A2DD
S315080013D02F211F2005F06CFD05F0E6FE0BE006F058
S315080013E06DF8FFF7A9FD0D480078012803D1002004
S315080013F00A49087000E0F2E700BF1CBD4204010874
S31508001400AA050108CA060108820601083A06010863
S31508001410C2B7CFDFC9E8D6C300000000010000202C
S3150800142000B58FB000200E9010200D9000200C9073
S3150800143010200B9001200A90002009900890079030
S315080014400690059004F0B8F806F038F8002005F084
S31508001450CFFCFE48007801281BD100200E9014E02E
S3150800146000200D900AE00021F94A0D9802EB40028F
S315080014700E9811540D98401CC0B20D900D980C286A
S31508001480F1DB0E98401CC0B20E900E980228E7DBDE
S3150800149000E3EE480078022878D1002005906FE036
S315080014A0EC49059811F8100080B9059801EB400041
S315080014B0407858B90120009005984007000E10237F
S315080014C0E5A21946049005F089FF55E0E14905981B
S315080014D001EB4000407880B1012804D0032816D0DB
S315080014E0042828D11DE005984007000E0023DCA239
S315080014F01021049005F0DCFC1EE005984007000E5C
S315080015000023D8A21021049005F0D2FC14E0059817
S315080015104007000E0023D4A21021049005F0C8FC51
S315080015200AE005984007000E0023D0A21021049077
S3150800153005F0BEFC00E000BF00BF01201021CDE988
S315080015400010C449059811F8100004901021059858
S3150800155001EB4010C0B201230390049A05F0EAFE9D
S315080015602021059801EB4010C0B20E9010200D9076
S315080015700698401CC0B206900598401CC0B205905B
S31508001580059804288CDB0420059078E0F2E0B14940
S31508001590059811F8100088B9059801EB40004078C5
S315080015A060B9012000900598001F4007000E10231F
S315080015B0A9A22021049005F011FF5CE0A549059831
S315080015C001EB4000407888B1012804D0032818D0E0
S315080015D004282CD120E00598001F4007000E0023A0
S315080015E09FA22021049005F063FC21E00598001FC6
S315080015F04007000E00239BA22021049005F058FC0A
S3150800160016E00598001F4007000E002396A2202129
S31508001610049005F04DFC0BE00598001F4007000EEE
S31508001620002392A22021049005F042FC00E000BFAE
S3150800163000BF01201021CDE900108649059811F850
S31508001640100004900598001F102101EB4010C0B24D
S31508001650012303902021049A05F06CFE0598001FCB
S31508001660202101EB4010C0B20E9020200D90069864
S31508001670401CC0B206900598401CC0B2059005985B
S31508001680082884DB0820059070E07249059811F84F
S31508001690100080B9059801EB4000407858B9012040
S315080016A0009005984007000E10236BA23021049085
S315080016B005F094FE56E06749059801EB400040782E
S315080016C080B1012804D0032816D0042828D11DE0AB
S315080016D005984007000E002361A23021049005F00A
S315080016E0E7FB1EE005984007000E00235DA23021A7
S315080016F0049005F0DDFB14E005984007000E002372
S3150800170059A23021049005F0D3FB0AE0059840075A
S31508001710000E002355A23021049005F0C9FB00E015
S3150800172000BF00BF01201021CDE9001049490598E6
S3150800173011F8100004901021059801EB4010C0B272
S31508001740012303903021049A05F0F4FD2021059821
S3150800175001EB4010C0B20E9030200D900698401C48
S31508001760C0B206900598401CC0B2059005980C2892
S315080017708BDB8FE1354800780328FAD100200590E5
S3150800178084E03B49059811F8100080B9059801EBEB
S315080017904000407858B90120009005984007000E8F
S315080017A010232DA21946049005F018FE6AE0304968
S315080017B0059801EB4000407880B1012804D0032841
S315080017C016D0042828D11DE005984007000E0023EE
S315080017D023A21021049005F06BFB1EE00598400734
S315080017E0000E00231FA21021049005F061FB14E0EF
S315080017F005984007000E00231BA21021049005F04F
S3150800180057FB0AE005984007000E002317A210218F
S31508001810049005F04DFB00E000BF00BF0120102139
S31508001820CDE900101249059811F81000049010210E
S31508001830059801EB4010C0B201230390049A05F005
S3150800184079FD2021059801EB401013E0A510002032
S31508001850A0130020BE130020202020200000000036
S31508001860C7B00000BAF30000D7F30000D3D20000D7
S31508001870DC130020C0B20E9010200D900698401C74
S31508001880C0B206900598401CC0B205900598042879
S31508001890FFF677AF042005907CE0FE49059811F81D
S315080018A0100090B9059801EB4000407868B901200E
S315080018B000900598001F4007000E1023AFF268023B
S315080018C02021049005F08AFD60E0F249059801EBB5
S315080018D04000407890B1012804D003281AD0042883
S315080018E030D123E00598001F4007000E0023AFF211
S315080018F090022021049005F0DBFA24E00598001FE9
S315080019004007000E0023AFF2A4022021049005F040
S31508001910CFFA18E00598001F4007000E0023AFF223
S31508001920B8022021049005F0C3FA0CE00598001FC0
S315080019304007000E0023AFF2CC022021049005F0E8
S31508001940B7FA00E000BF00BF01201021CDE9001062
S31508001950D049059811F8100004900598001F102129
S3150800196001EB4010C0B2012303902021049A05F030
S31508001970E1FC0598001F202101EB4010C0B20E9033
S3150800198020200D900698401CC0B206900598401C71
S31508001990C0B2059005980828FFF67FAF0820059085
S315080019A075E0BC49059811F8100088B9059801EB4F
S315080019B04000407860B90120009005984007000E65
S315080019C01023AFF26C123021049005F007FD5AE09F
S315080019D0B049059801EB4000407888B1012804D049
S315080019E0032818D004282CD120E005984007000EBB
S315080019F00023AFF294123021049005F059FA21E041
S31508001A0005984007000E0023AFF2A8123021049073
S31508001A1005F04EFA16E005984007000E0023AFF2CF
S31508001A20B8123021049005F043FA0BE005984007F8
S31508001A30000E0023AFF2CC123021049005F038FADC
S31508001A4000E000BF00BF01201021CDE90010914938
S31508001A50059811F8100004901021059801EB401024
S31508001A60C0B2012303903021049A05F063FC2021BB
S31508001A70059801EB4010C0B20E9030200D900698E4
S31508001A80401CC0B206900598401CC0B20590059847
S31508001A900C2886DB05F088FB01F00ABA05F00EFD76
S31508001AA0FFF74AFA7C4800780128F5D106980B28F2
S31508001AB001DB0B20069000207749087077480078EC
S31508001AC02A2801D000200990744800786F2801D090
S31508001AD0002008907248007801287DD17148007866
S31508001AE020B97048407808B9002006906B480078FD
S31508001AF0362872D012DC322870D008DC23286ED043
S31508001B002A286DD030286CD031286BD10AE13328C9
S31508001B1069D0342868D03528F7D1BBE1732872D04C
S31508001B2008DC37286CD038286BD039286AD06F285B
S31508001B30EBD103E378287DD0792802D07A28E4D13E
S31508001B4029E00A98012825D10D98302822DC0020A2
S31508001B5009900A900D980B900E980C900023AFF2FE
S31508001B60F422DDE90D1005F0A3F90E981030C0B285
S31508001B700E900E987F2805DB00200E900D981030E9
S31508001B80C0B20D9005F010FB0421464A069802EBF8
S31508001B9040004170EAE20A9801282FD10D983028B2
S31508001BA02CDC002009900A900D980B900E980C904A
S31508001BB00023AFF24C32DDE90D1005F079F90E98E5
S31508001BC01030C0B20E900E987F280FDB00200E90C2
S31508001BD00D981030C0B208E0D1E289E1D0E0BBE24E
S31508001BE03EE271E0C1E2F9E026E10D9005F0DCFA8B
S31508001BF003212C4A069802EB40004170B6E202E047
S31508001C00A4E1D1E1FEE10A98012827D10D983028F0
S31508001C1024DC002009900A900D980B900E980C90E1
S31508001C200023AFF2C432DDE90D1005F041F90E9834
S31508001C30103000E013E0C0B20E900E987F2805DB46
S31508001C4000200E900D981030C0B20D9005F0ACFA39
S31508001C500121144A069802EB4000417086E20A9870
S31508001C60012830D10D9830282DDC002009900A90E3
S31508001C700D980B900E980C900023AFF21842DDE9F0
S31508001C800D1005F015F90E981030C0B20E900E988A
S31508001C907F2809E0DC130020010000200200002054
S31508001CA0A5100020A013002005DB00200E900D983B
S31508001CB01030C0B20D9005F077FA0021F84A069860
S31508001CC002EB4000417051E20A9850BB0D9830284B
S31508001CD027DC0020099001200A900D980B900E9899
S31508001CE00C9001201023EFA20090DDE90D1005F0FD
S31508001CF075FB0E981030C0B20E900E987F2805DB43
S31508001D0000200E900D981030C0B20D9005F04CFAD8
S31508001D100021E34A069802F810100698401CC0B243
S31508001D20069023E20A9850BB0D98302827DC00203D
S31508001D30099001200A900D980B900E980C9001209E
S31508001D401023D9A20090DDE90D1005F047FB0E9887
S31508001D501030C0B20E900E987F2805DB00200E903A
S31508001D600D981030C0B20D9005F01EFA0121CC4A2C
S31508001D70069802F810100698401CC0B20690F5E1C5
S31508001D800A9850BB0D98302827DC002009900120BE
S31508001D900A900D980B900E980C9001201023C3A260
S31508001DA00090DDE90D1005F019FB0E981030C0B251
S31508001DB00E900E987F2805DB00200E900D981030A7
S31508001DC0C0B20D9005F0F0F90221B54A069802F85E
S31508001DD010100698401CC0B20690C7E10A9850BB7E
S31508001DE00D98302827DC0020099001200A900D98CC
S31508001DF00B900E980C9001201023ADA20090DDE9FF
S31508001E000D1005F0EBFA0E981030C0B20E900E9831
S31508001E107F2805DB00200E900D981030C0B20D907B
S31508001E2005F0C2F903219E4A069802F81010069892
S31508001E30401CC0B2069099E10A9850BB0D9830280C
S31508001E4027DC0020099001200A900D980B900E9827
S31508001E500C900120102397A20090DDE90D1005F0E3
S31508001E60BDFA0E981030C0B20E900E987F2805DB8A
S31508001E7000200E900D981030C0B20D9005F094F920
S31508001E800421874A069802F810100698401CC0B22A
S31508001E9006906BE10A9850BB0D98302827DC002085
S31508001EA0099001200A900D980B900E980C9001202D
S31508001EB0102381A20090DDE90D1005F08FFA0E9827
S31508001EC01030C0B20E900E987F2805DB00200E90C9
S31508001ED00D981030C0B20D9005F066F90521704ACC
S31508001EE0069802F810100698401CC0B206903DE10C
S31508001EF00A9850BB0D98302827DC0020099001204D
S31508001F000A900D980B900E980C90012010236BA246
S31508001F100090DDE90D1005F061FA0E981030C0B298
S31508001F200E900E987F2805DB00200E900D98103035
S31508001F30C0B20D9005F038F90621594A069802F8FC
S31508001F4010100698401CC0B206900FE10A9850BBC4
S31508001F500D98302827DC0020099001200A900D985A
S31508001F600B900E980C900120102355A20090DDE9E5
S31508001F700D1005F033FA0E981030C0B20E900E9878
S31508001F807F2805DB00200E900D981030C0B20D900A
S31508001F9005F00AF90721424A069802F81010069831
S31508001FA0401CC0B20690E1E00A9850BB0D98302854
S31508001FB027DC0020099001200A900D980B900E98B6
S31508001FC00C90012010233FA20090DDE90D1005F0CA
S31508001FD005FA0E981030C0B20E900E987F2805DBD1
S31508001FE000200E900D981030C0B20D9005F0DCF868
S31508001FF008212B4A069802F810100698401CC0B211
S315080020000690B3E00A9850BB0D98302827DC0020CC
S31508002010099001200A900D980B900E980C900120BB
S31508002020102329A20090DDE90D1005F0D7F90E98C6
S315080020301030C0B20E900E987F2805DB00200E9057
S315080020400D981030C0B20D9005F0AEF80921144A6B
S31508002050069802F810100698401CC0B2069085E053
S315080020600998401CC0B209900998022865DB0C48FB
S31508002070007828B90A48407810B90020069030E060
S315080020800A9860B900210698401E054A02EB4000EE
S3150800209041700698012819DC0120069021E01AE013
S315080020A0A01300204F00000031000000320000009D
S315080020B03300000034000000350000003600000040
S315080020C03700000038000000390000000698401E5E
S315080020D0C0B2069005E000210698401EFD4A02F8A7
S315080020E01010002009900A9808B9012000E0002085
S315080020F00A900C980E900B980D9001201023F6A2CA
S315080021000090DDE90D1005F069F905F04DF80C9819
S3150800211028B90B98102802D101200A9026E00E98BB
S31508002120102804DB0C981038C0B20C9005E07F200C
S315080021300C900B981038C0B20B9017E00898401C0A
S31508002140C0B208900898022805DB00200890E148EC
S31508002150069901F0E1FF09E0012007907A20DF499E
S315080021600870DF490698087000E000BF00BF0798AE
S3150800217001287DD1D94800787A28FAD148E3D94888
S315080021800078022875D1D848007820B9D648407812
S3150800219008B900200690D148007836286AD012DCA3
S315080021A0322868D008DC232866D02A2878D0302838
S315080021B077D0312876D100E1332874D0342873D00B
S315080021C03528F7D1C1E1732874D008DC37286DD0DB
S315080021D038286CD039286BD06F28EBD1F8E27828EC
S315080021E067D0792802D07A28E4D129E00A9801280C
S315080021F025D10D98302822DC002009900A900D98E8
S315080022000B900E980C900023AFF6A012DDE90D1086
S3150800221004F04EFE0E981030C0B20E900E987F282D
S3150800222005DB00200E900D981030C0B20D9004F01A
S31508002230BBFF0421AC4A069802EB40004170DFE27E
S315080022400A9801282BD10D98302828DC00200990FF
S315080022500A900D980B900E980C900023AFF6F81282
S31508002260DDE90D1004F024FE0E981030C0B204E02B
S3150800227048E3CEE298E1CFE0B8E20E900E987F28C8
S3150800228005DB00200E900D981030C0B20D9004F0BA
S315080022908BFF0321944A069802EB40004170AFE297
S315080022A03EE25BE0ABE2E6E020E103E0ABE1D9E148
S315080022B007E229E00A98012825D10D98302822DC62
S315080022C0002009900A900D980B900E980C90002308
S315080022D0AFF67422DDE90D1004F0EAFD0E98103011
S315080022E0C0B20E900E987F2805DB00200E900D9840
S315080022F01030C0B20D9004F057FF01217A4A0698B3
S3150800230002EB400041707BE20A98012825D10D981E
S31508002310302822DC002009900A900D980B900E9820
S315080023200C900023AFF6C422DDE90D1004F0C0FDC1
S315080023300E981030C0B20E900E987F2805DB00204C
S315080023400E900D981030C0B20D9004F02DFF0021AC
S31508002350654A069802EB4000417051E20A9858BB5C
S315080023600D98302828DC0020099001200A900D9845
S315080023700B900E980C9001201023AFF2D8220090F3
S31508002380DDE90D1005F02AF80E981030C0B20E904F
S315080023900E987F2805DB00200E900D981030C0B2ED
S315080023A00D9004F001FF00214F4A069802F810101C
S315080023B00698401CC0B2069022E20A9858BB0D98AF
S315080023C0302828DC0020099001200A900D980B90EF
S315080023D00E980C9001201023AFF234320090DDE9FC
S315080023E00D1004F0FBFF0E981030C0B20E900E9838
S315080023F07F2805DB00200E900D981030C0B20D9096
S3150800240004F0D2FE0121384A069802F81010069800
S31508002410401CC0B20690F3E10A9858BB0D983028C4
S3150800242028DC0020099001200A900D980B900E9840
S315080024300C9001201023AFF28C320090DDE90D10CC
S3150800244004F0CCFF0E981030C0B20E900E987F287C
S3150800245005DB00200E900D981030C0B20D9004F0E8
S31508002460A3FE0221204A069802F810100698401C7E
S31508002470C0B20690C4E10A9858BB0D98302828DCEB
S315080024800020099001200A900D980B900E980C9048
S3150800249001201023AFF2E8320090DDE90D1004F0B8
S315080024A09DFF0E981030C0B20E900E987F2805DB5F
S315080024B000200E900D981030C0B20D9004F074FEF6
S315080024C00321094A069802F810100698401CC0B263
S315080024D0069095E1A01300202020000002000020AD
S315080024E085000020A5100020BE1300200A9858BBBE
S315080024F00D98302828DC0020099001200A900D98B4
S315080025000B900E980C9001201023AFF258420090C1
S31508002510DDE90D1004F062FF0E981030C0B20E907F
S315080025200E987F2805DB00200E900D981030C0B25B
S315080025300D9004F039FE0421FC4A069802F81010A2
S315080025400698401CC0B206905AE10A9858BB0D98E6
S31508002550302828DC0020099001200A900D980B905D
S315080025600E980C9001201023AFF2B4420090DDE9DA
S315080025700D1004F033FF0E981030C0B20E900E986E
S315080025807F2805DB00200E900D981030C0B20D9004
S3150800259004F00AFE0521E54A069802F81010069886
S315080025A0401CC0B206902BE10A9858BB0D983028FB
S315080025B028DC0020099001200A900D980B900E98AF
S315080025C00C9001201023AFF20C520090DDE90D109B
S315080025D004F004FF0E981030C0B20E900E987F28B3
S315080025E005DB00200E900D981030C0B20D9004F057
S315080025F0DBFD0621CD4A069802F810100698401C05
S31508002600C0B20690FCE00A9858BB0D98302828DC22
S315080026100020099001200A900D980B900E980C90B6
S3150800262001201023AFF268520090DDE90D1004F086
S31508002630D5FE0E981030C0B20E900E987F2805DB96
S3150800264000200E900D981030C0B20D9004F0ACFD2D
S315080026500721B64A069802F810100698401CC0B220
S315080026600690CDE00A9858BB0D98302828DC002043
S31508002670099001200A900D980B900E980C90012055
S315080026801023AFF2C0520090DDE90D1004F0A6FE4B
S315080026900E981030C0B20E900E987F2805DB0020E9
S315080026A00E900D981030C0B20D9004F07DFD0821F3
S315080026B09E4A069802F810100698401CC0B206906A
S315080026C09EE00A9858BB0D98302828DC002009900F
S315080026D001200A900D980B900E980C90012010235B
S315080026E0AFF21C620090DDE90D1004F077FE0E983B
S315080026F01030C0B20E900E987F2805DB00200E9091
S315080027000D981030C0B20D9004F04EFD0921874A8D
S31508002710069802F810100698401CC0B206906FE0A2
S315080027200998401CC0B20990099802284FDB7F48D7
S31508002730007828B97D48407810B90020069019E03D
S315080027400A9888B900210698401E784A02EB40008C
S3150800275041700698012802DC012006900AE00698D6
S31508002760401EC0B2069005E000210698401E6F4A3A
S3150800277002F81010002009900A9808B9012000E014
S3150800278000200A900C980E900B980D9001201023AB
S31508002790AFF2BC220090DDE90D1004F01FFE04F034
S315080027A003FD0C9828B90B98102802D101200A902D
S315080027B026E00E98102804DB0C981038C0B20C904E
S315080027C005E07F200C900B981038C0B20B9017E0EC
S315080027D00898401CC0B208900898022805DB00201B
S315080027E008905248069901F097FC09E001200790E5
S315080027F07A204F4908704F490698087000E000BFD4
S3150800280000BF079801287DD1494800787A28FAD16F
S3150800281050E3494800780328F5D14848007820B99C
S315080028204648407808B9002006904148007836287E
S3150800283069D012DC322867D008DC232873D02A280E
S3150800284072D0302871D031287ED10AE133287CD065
S3150800285034287BD03528F7D1BFE1732877D008DC38
S31508002860372875D0382874D0392873D06F28EBD11B
S31508002870FDE278286FD0792802D07A28E4D128E0BA
S315080028800A98012824D10D98302821DC00200990C7
S315080028900A900D980B900E980C90002328A2DDE95B
S315080028A00D1004F005FB0E981030C0B20E900E986D
S315080028B07F2805DB00200E900D981030C0B20D90D1
S315080028C004F072FC04211D4A069802EB4000417090
S315080028D0E5E20A98012842D10D9830283FDC00200D
S315080028E009900A900D980B900E980C90002315A24B
S315080028F0DDE90D1004F0DCFA0E981030C0B20E9027
S315080029000E9802E0D4E297E1DAE07F2805DB0020A2
S315080029100E900D981030C0B20D9004F045FC0321BE
S31508002920064A069818E0B0E249E26BE0BE130020BA
S315080029300200002086000020A5100020DC130020DD
S31508002940D3D20000D7F30000A8E2E8E016E107E0DA
S31508002950A1E1CFE1FDE12CE002EB400041709EE2EF
S315080029600A98012824D10D98302821DC00200990E6
S315080029700A900D980B900E980C900023FEA2DDE9A4
S315080029800D1004F095FA0E981030C0B20E900E98FD
S315080029907F2805DB00200E900D981030C0B20D90F0
S315080029A004F002FC0121F54A069802EB400041704A
S315080029B075E20A98012824D10D98302821DC0020D8
S315080029C009900A900D980B900E980C900023ECA293
S315080029D0DDE90D1004F06CFA0E981030C0B20E90B6
S315080029E00E987F2805DB00200E900D981030C0B297
S315080029F00D9004F0D9FB0021E04A069802EB40004E
S31508002A0041704CE20A9858BB0D98302828DC002003
S31508002A10099001200A900D980B900E980C900120B1
S31508002A201023AFF680120090DDE90D1004F0D6FCF5
S31508002A300E981030C0B20E900E987F2805DB002045
S31508002A400E900D981030C0B20D9004F0ADFB002129
S31508002A50CA4A069802F810100698401CC0B206909A
S31508002A601DE20A9858BB0D98302828DC00200990EA
S31508002A7001200A900D980B900E980C9001201023B7
S31508002A80AFF6DC120090DDE90D1004F0A7FC0E98F5
S31508002A901030C0B20E900E987F2805DB00200E90ED
S31508002AA00D981030C0B20D9004F07EFB0121B34A98
S31508002AB0069802F810100698401CC0B20690EEE17F
S31508002AC00A9858BB0D98302828DC00200990012068
S31508002AD00A900D980B900E980C9001201023AFF6D3
S31508002AE034220090DDE90D1004F078FC0E981030C1
S31508002AF0C0B20E900E987F2805DB00200E900D9828
S31508002B001030C0B20D9004F04FFB02219B4A069884
S31508002B1002F810100698401CC0B20690BFE10A9849
S31508002B2058BB0D98302828DC0020099001200A900F
S31508002B300D980B900E980C9001201023AFF690225A
S31508002B400090DDE90D1004F049FC0E981030C0B273
S31508002B500E900E987F2805DB00200E900D981030F9
S31508002B60C0B20D9004F020FB0321844A069802F8AF
S31508002B7010100698401CC0B2069090E10A9858BBFF
S31508002B800D98302828DC0020099001200A900D981D
S31508002B900B900E980C9001201023AFF6E8220090B7
S31508002BA0DDE90D1004F01AFC0E981030C0B20E9034
S31508002BB00E987F2805DB00200E900D981030C0B2C5
S31508002BC00D9004F0F1FA04216C4A069802F81010E8
S31508002BD00698401CC0B2069061E10A9858BB0D9849
S31508002BE0302828DC0020099001200A900D980B90C7
S31508002BF00E980C9001201023AFF644320090DDE9C0
S31508002C000D1004F0EBFB0E981030C0B20E900E9823
S31508002C107F2805DB00200E900D981030C0B20D906D
S31508002C2004F0C2FA0521554A069802F810100698CB
S31508002C30401CC0B2069032E10A9858BB0D9830285D
S31508002C4028DC0020099001200A900D980B900E9818
S31508002C500C9001201023AFF69C320090DDE90D1090
S31508002C6004F0BCFB0E981030C0B20E900E987F2868
S31508002C7005DB00200E900D981030C0B20D9004F0C0
S31508002C8093FA06213D4A069802F810100698401C49
S31508002C90C0B2069003E10A9858BB0D98302828DC84
S31508002CA00020099001200A900D980B900E980C9020
S31508002CB001201023AFF6F8320090DDE90D1004F07C
S31508002CC08DFB0E981030C0B20E900E987F2805DB4B
S31508002CD000200E900D981030C0B20D9004F064FAE2
S31508002CE00721264A069802F810100698401CC0B21A
S31508002CF00690D4E00A9858BB0D98302828DC0020A6
S31508002D00099001200A900D980B900E980C900120BE
S31508002D101023AFF650420090DDE90D1004F05EFB7B
S31508002D200E981030C0B20E900E987F2805DB002052
S31508002D300E900D981030C0B20D9004F035FA0821A7
S31508002D400E4A069802F810100698401CC0B2069063
S31508002D50A5E00A9890BB0D9830282FDC0020099032
S31508002D6001200A900D980B900E980C9001201023C4
S31508002D70AFF6AC42009005E0C7B00000DC130020B7
S31508002D80BAF30000DDE90D1004F028FB0E981030A8
S31508002D90C0B20E900E987F2805DB00200E900D9885
S31508002DA01030C0B20D9004F0FFF90921434A069885
S31508002DB002F810100698401CC0B206906FE00998F9
S31508002DC0401CC0B20990099802284FDB3B4800789E
S31508002DD028B93A48407810B90020069019E00A98B0
S31508002DE088B900210698401E344A02EB400041701B
S31508002DF00698012802DC012006900AE00698401E83
S31508002E00C0B2069005E000210698401E2B4A02F83B
S31508002E101010002009900A9808B9012000E0002047
S31508002E200A900C980E900B980D9001201023AFF67F
S31508002E3058120090DDE90D1004F0D0FA04F0B4F948
S31508002E400C9828B90B98102802D101200A9026E080
S31508002E500E98102804DB0C981038C0B20C9005E0C8
S31508002E607F200C900B981038C0B20B9017E008988A
S31508002E70401CC0B208900898022805DB002008907C
S31508002E800E48069901F048F909E0012007907A20D2
S31508002E900B4908700B490698087000E000BF00BF90
S31508002EA00798012804D1064800787A2800D101E05D
S31508002EB0FEF7F4BD00BF0FB000BD0000DC13002014
S31508002EC002000020870000207CB504F0F7FA0020F5
S31508002ED003F08EFF002395A21021184603F0E8FFA1
S31508002EE00020102393A219460090202004F076FAB9
S31508002EF001238EA22021002003F0DAFF01201023EF
S31508002F008DA220210090084604F068FA012387A2C2
S31508002F103021002003F0CCFF0120102387A23021A6
S31508002F200090202004F05AFA002010210223CDE94F
S31508002F30001083480278602004F0FCF90120102173
S31508002F400223CDE900107F4802782021602004F092
S31508002F50F1F9012010210223CDE900107A48027800
S31508002F603021602004F0E6F978480078012807D176
S31508002F70102377A219460090402004F02FFA16E095
S31508002F8074480078012807D1102371A220210090E7
S31508002F90402004F023FA0AE06F480078012806D199
S31508002FA010236BA230210090402004F017FA04F099
S31508002FB0FBF8B8E004F082FAFDF7BEFF6748007830
S31508002FC00128F6D100206549087060480078012874
S31508002FD007D060480078012803D05F4800780128A8
S31508002FE07ED15F4800782A287BD158480078012886
S31508002FF018D100240FE0002509E05A4800EB4500E7
S31508003000005D584901EB45010855681CC5B20C2DF1
S31508003010F3DB601CC4B2022CEDDB49480078484952
S31508003020087038E04B480078012818D100240FE0D2
S31508003030002509E04C4800EB4500005D494901EBD5
S3150800304045010855681CC5B20C2DF3DB601CC4B2DB
S31508003050022CEDDB3B480078394908701BE03E48F6
S315080030600078012817D100240FE0002509E03F4821
S3150800307000EB4500005D3B4901EB45010855681C1E
S31508003080C5B20C2DF3DB601CC4B2022CEDDB2E4856
S3150800309000782B4908700120102335A219460090A4
S315080030A0402004F09BF90120102331A22021009032
S315080030B0402004F093F9012010232DA2302100901E
S315080030C0402004F08BF9002010210223CDE90010DE
S315080030D01B480278602004F02DF904F065F801E039
S315080030E011E007E00020194908701A4908701A49C2
S315080030F0087018E01A480078732803D01848007832
S31508003100782810D110E0164800786F2803D10120DE
S315080031101849087006E0124800782A2802D10120CA
S315080031200A49087000E045E700BF7CBDD7D4C9E866
S3150800313000000000310000003200000033000000EB
S31508003140850000208600002087000020A6100020A9
S315080031502A000000A7100020A81000200100002067
S3150800316002000020A0130020BE130020DC1300205C
S3150800317020000000A51000207CB504F09FF900206F
S3150800318003F036FE012396A21021002003F090FEDC
S315080031900120102394A219460090202004F01EF95D
S315080031A000238FA22021184603F082FE0020102358
S315080031B08EA220210090084604F010F9012388A267
S315080031C03021002003F074FE0120102388A230214C
S315080031D00090202004F002F9012010210223CDE9F5
S315080031E0001084480278602004F0A4F8002010211A
S315080031F00223CDE90010804802782021602004F0DF
S3150800320099F8012010210223CDE900107B480278A5
S315080032103021602004F08EF879480078012807D11B
S31508003220102378A219460090402004F0D7F816E03B
S3150800323075480078012807D1102372A22021009032
S31508003240402004F0CBF80AE070480078012806D13F
S3150800325010236CA230210090402004F0BFF803F040
S31508003260A3FFB9E004F02AF9FDF766FE684800787E
S315080032700128F6D1002066490870614800780128BF
S3150800328007D061480078012803D0604800780128F3
S315080032907DD1604800782A287AD1594800780128D3
S315080032A018D100240FE0002509E05B4800EB450033
S315080032B0005D5A4901EB45010855681CC5B20C2D3D
S315080032C0F3DB601CC4B2022CEDDB4A4800784A499D
S315080032D0087038E04C480078012818D100240FE01F
S315080032E0002509E04D4800EB4500005D4B4901EB20
S315080032F045010855681CC5B20C2DF3DB601CC4B229
S31508003300022CEDDB3C4800783B4908701BE03F483F
S315080033100078012817D100240FE0002509E040486D
S3150800332000EB4500005D3D4901EB45010855681C69
S31508003330C5B20C2DF3DB601CC4B2022CEDDB2F48A2
S3150800334000782D4908700120102336A219460090EE
S31508003350402004F043F80120102332A220210090D7
S31508003360402004F03BF8012010232EA230210090C3
S31508003370402004F033F8002010210223CDE9001084
S315080033801D4802782021602003F0D4FF01E013E0F5
S3150800339009E003F009FF0020194908701A49087066
S315080033A01A49087018E01B480078732803D0194892
S315080033B00078782810D110E0164800786F2803D1D5
S315080033C002201949087006E0124800782A2802D116
S315080033D001200D49087000E044E700BF7CBD0000ED
S315080033E0D7D4C9E800000000310000003200000010
S315080033F0330000008500002086000020870000209A
S31508003400A61000202A000000A7100020A8100020FF
S315080034100100002002000020A0130020BE13002097
S31508003420DC13002020000000A51000207CB504F065
S3150800343045F8002003F0DCFC012396A210210020A9
S3150800344003F036FD0120102394A21946009020208F
S3150800345003F0C4FF01238FA22021002003F028FDDA
S31508003460012010238EA220210090084603F0B6FF03
S31508003470002388A23021184603F01AFD00201023E5
S3150800348088A230210090202003F0A8FF01201021F7
S315080034900223CDE9001084480278602003F04AFF31
S315080034A0012010210223CDE900108048027820214E
S315080034B0602003F03FFF002010210223CDE9001011
S315080034C07B4802783021602003F034FF7948007881
S315080034D0012807D1102378A219460090402003F04E
S315080034E07DFF16E075480078012807D1102372A2DF
S315080034F020210090402003F071FF0AE07048007810
S31508003500012806D110236CA230210090402003F038
S3150800351065FF03F049FEB9E003F0D0FFFDF70CFDA7
S31508003520684800780128F6D1002066490870614885
S315080035300078012807D061480078012803D0604840
S31508003540007801287DD1604800782A287AD1594820
S315080035500078012818D100240FE0002509E05B480F
S3150800356000EB4500005D5A4901EB45010855681C0A
S31508003570C5B20C2DF3DB601CC4B2022CEDDB4A4845
S3150800358000784B49087038E04C480078012818D173
S3150800359000240FE0002509E04E4800EB4500005DD9
S315080035A04B4901EB45010855681CC5B20C2DF3DBE8
S315080035B0601CC4B2022CEDDB3C4800783C4908701C
S315080035C01BE03F480078012817D100240FE00025AA
S315080035D009E03F4800EB4500005D3D4901EB450128
S315080035E00855681CC5B20C2DF3DB601CC4B2022C4E
S315080035F0EDDB2F4800782E4908700120102336A2EB
S3150800360019460090402003F0E9FE0120102332A25B
S3150800361020210090402003F0E1FE012010232EA275
S3150800362030210090402003F0D9FE0020102102230B
S31508003630CDE900101E4802783021602003F07AFE9A
S3150800364001E013E009E003F0AFFD00201949087016
S315080036501A4908701A49087018E01B480078732838
S3150800366003D019480078782810D110E01648007859
S315080036706F2803D103201949087006E0124800781C
S315080036802A2802D101200E49087000E044E700BF4D
S315080036907CBD0000D7D4C9E8000000003100000056
S315080036A0320000003300000085000020860000205C
S315080036B087000020A61000202A000000A71000207E
S315080036C0A81000200100002002000020A0130020FE
S315080036D0DC130020BE13002020000000A5100020E7
S315080036E01CB503F0EBFE002003F082FBFA480078D5
S315080036F0012877D1002451E0F84810F8140070B971
S31508003700F64800EB4400407848B90120610700906C
S31508003710080E1023F2A2194603F060FE3CE0EF48BB
S3150800372000EB4400407870B1012804D0032812D079
S31508003730042820D117E06107080E0123EAA2102108
S3150800374003F0B6FB18E06107080E0123E7A2102173
S3150800375003F0AEFB10E06107080E0123E4A2102176
S3150800376003F0A6FB08E06107080E0123E1A2102179
S3150800377003F09EFB00E000BF00BF01201021CDE949
S315080037800010D64911F81420102101EB4411C8B2D3
S315080037900123102103F0CEFD601CC4B2042CABDB60
S315080037A0042458E0CD4810F8140078B9CB4800EB4B
S315080037B04400407850B90120211F49070090080E9F
S315080037C01023C7A2202103F009FE42E0C34800EBFC
S315080037D04400407880B1012805D0032815D0042874
S315080037E025D11BE090E0211F4907080E0123BEA240
S315080037F0202103F05DFB1BE0211F4907080E01236A
S31508003800BAA2202103F054FB12E0211F4907080E33
S315080038100123B7A2202103F04BFB09E0211F49072A
S31508003820080E0123B3A2202103F042FB00E000BFEB
S3150800383000BF01201021CDE90010A84911F8142075
S31508003840211F102303EB4111C8B20123202103F0E5
S3150800385071FD601CC4B2082CA4DB082451E09F4803
S3150800386010F8140070B99D4800EB4400407848B938
S31508003870012061070090080E102399A2302103F059
S31508003880ADFD3CE0954800EB4400407870B1012856
S3150800389004D0032812D0042820D117E06107080EA7
S315080038A0012391A2302103F003FB18E06107080EFB
S315080038B001238EA2302103F0FBFA10E06107080EFF
S315080038C001238BA2302103F0F3FA08E06107080E02
S315080038D0012388A2302103F0EBFA00E000BF00BF05
S315080038E001201021CDE900107C4911F8142010237D
S315080038F003EB4411C8B20123302103F01BFD601C01
S31508003900C4B20C2CABDB3CE273480078022877D1B2
S31508003910002451E0784810F8140070B9764800EB96
S315080039204400407848B9012061070090080E10232A
S315080039306BA2194603F052FD3CE06F4800EB4400C9
S31508003940407870B1012804D0032812D0042820D169
S3150800395017E06107080E012363A2102103F0A8FAF5
S3150800396018E06107080E012360A2102103F0A0FAEF
S3150800397010E06107080E01235DA2102103F098FAF2
S3150800398008E06107080E01235AA2102103F090FAF5
S3150800399000E000BF00BF01201021CDE90010564904
S315080039A011F81420102101EB4411C8B2012310218B
S315080039B003F0C0FC601CC4B2042CABDB042458E042
S315080039C04D4810F8140078B94B4800EB440040788D
S315080039D050B90120211F49070090080E102340A264
S315080039E0202103F0FBFC42E0434800EB440040780A
S315080039F080B1012805D0032815D0042825D11BE05D
S31508003A00A4E0211F4907080E012337A2202103F04D
S31508003A104FFA1BE0211F4907080E012333A2202174
S31508003A2003F046FA12E0211F4907080E012330A2C7
S31508003A30202103F03DFA09E0211F4907080E01235A
S31508003A402CA2202103F034FA00E000BF00BF0120B9
S31508003A501021CDE90010284911F81420211F102340
S31508003A6003EB4111C8B20123202103F063FC601C5B
S31508003A70C4B2082CA4DB082465E01F4810F814001B
S31508003A8070B91D4800EB4400407848B90120610729
S31508003A900090080E102312A2302103F09FFC50E07C
S31508003AA0154800EB4400407870B1012804D003287B
S31508003AB024D0042834D12AE06107080E01230AA27B
S31508003AC0302103F0F5F92CE06107080E012307A25F
S31508003AD0302103F0EDF924E0A5100020A013002002
S31508003AE02020202000000000C7B00000BAF3000024
S31508003AF0D7F30000D3D20000BE1300206107080EDA
S31508003B000123AFF21402302103F0D2F909E061076C
S31508003B10080E0123AFF22402302103F0C9F900E0B0
S31508003B2000BF00BF01201021CDE90010BA4911F8E5
S31508003B301420102303EB4411C8B20123302103F0EB
S31508003B40F9FB601CC4B20C2C97DB1AE1B348007869
S31508003B500328FAD1002456E0B14810F8140078B9C1
S31508003B60AF4800EB4400407850B901206107009047
S31508003B70080E1023AFF29802194603F02FFC40E016
S31508003B80A74800EB4400407878B1012804D0032800
S31508003B9014D0042824D11AE06107080E0123AFF2D5
S31508003BA0B802102103F084F91BE06107080E01230F
S31508003BB0AFF2C802102103F07BF912E06107080E84
S31508003BC00123AFF2D402102103F072F909E061076C
S31508003BD0080E0123AFF2E402102103F069F900E0B0
S31508003BE000BF00BF01201021CDE900108C4911F853
S31508003BF01420102101EB4411C8B20123102103F04F
S31508003C0099FB601CC4B2042CA6DB04245CE084483F
S31508003C1010F8140080B9824800EB4400407858B97F
S31508003C200120211F49070090080E1023AFF25012F9
S31508003C30202103F0D3FB45E0794800EB44004078A7
S31508003C4080B1012804D0032816D0042828D11DE005
S31508003C50211F4907080E0123AFF27412202103F031
S31508003C6027F91EE0211F4907080E0123AFF2841227
S31508003C70202103F01DF914E0211F4907080E01232E
S31508003C80AFF29412202103F013F90AE0211F490725
S31508003C90080E0123AFF2A412202103F009F900E06F
S31508003CA000BF00BF01201021CDE900105C4911F8C2
S31508003CB01420211F102303EB4111C8B20123202130
S31508003CC003F038FB601CC4B2082CA0DB082456E0BD
S31508003CD0534810F8140078B9514800EB440040786E
S31508003CE050B9012061070090080E1023AFF2102288
S31508003CF0302103F073FB40E0494800EB440040786C
S31508003D0078B1012804D0032814D0042824D11AE055
S31508003D106107080E0123AFF23022302103F0C8F8FC
S31508003D201BE06107080E0123AFF24022302103F0A1
S31508003D30BFF812E06107080E0123AFF24C223021CA
S31508003D4003F0B6F809E06107080E0123AFF25C221A
S31508003D50302103F0ADF800E000BF00BF01201021BC
S31508003D60CDE900102E4911F81420102303EB441155
S31508003D70C8B20123302103F0DDFA601CC4B20C2C52
S31508003D80A6DB03F011FA002442E003F097FBFDF7E7
S31508003D90D3F82448007801283AD100202149087030
S31508003DA0214800786F2828D1002420A206210A205D
S31508003DB001F0C2FB19480078012805D11C48017892
S31508003DC01C4800F0A9F912E014480078022805D129
S31508003DD019480178104800F09FF908E00F48007864
S31508003DE0032804D1154801780D4800F095F914A266
S31508003DF006210A2001F0A0FB0AE00B480078792882
S31508003E0005D1601CC4B2022C02DB002401E000E0EC
S31508003E10BBE700BF1CBD0000BE130020A510002094
S31508003E20DC1300200100002002000020676F00005C
S31508003E3085000020A01300208600002087000020AF
S31508003E40202000002DE9F05F04460E4615460AAF0D
S31508003E5097E880074FF0000B914805609148067077
S31508003E60012C4DD100BF01208D49086003F040FCAC
S31508003E7000BF8D48B0F90000844203DD8B48007806
S31508003E800028F6D1012004F06FFC8949087008461D
S31508003E90007838B900BF8648007818B98348007892
S31508003EA00028F8D182480078012802D108F0A2FB40
S31508003EB0EEE07F48007803280DD107E07C480078BB
S31508003EC0012803D17948007800B100E0F6E700BF81
S31508003ED008F090FBDCE07648007804280DD107E06E
S31508003EE073480078012803D17048007800B100E0D3
S31508003EF0F6E700BF08F07EFBCAE008F07BFBC7E0E8
S31508003F00022C5AD102206649086003F0F1FB00BF73
S31508003F10601E6549B1F90010884203DD63480078E0
S31508003F200028F5D101205E49086000BF5E48B0F957
S31508003F300000844203DD5D4800780028F6D10120A0
S31508003F4004F012FC5A4908700846007838B900BFD0
S31508003F505748007818B9554800780028F8D15448C9
S31508003F600078012802D108F045FB91E05048007816
S31508003F7003280DD107E04E480078012803D14B48A5
S31508003F80007800B100E0F6E700BF08F033FB7FE0F9
S31508003F904748007804280DD107E0454800780128ED
S31508003FA003D14248007800B100E0F6E700BF08F008
S31508003FB021FB6DE008F01EFB6AE0032C68DB02209B
S31508003FC03749086003F094FB00BF3748B0F9000092
S31508003FD0012803DA354800780028F6D1304805600C
S31508003FE000BF601E3049B1F90010884203DD2F4832
S31508003FF000780028F5D101202949086000BF2A4821
S31508004000B0F90000844203DD284800780028F6D17C
S31508004010012004F0A9FB264908700846007838B93B
S3150800402000BF2348007818B9204800780028F8D13E
S315080040301F480078012802D108F0DCFA28E01C485D
S315080040400078032810D101201649087007E018489F
S315080040500078012803D11548007800B100E0F6E79A
S3150800406000BF08F0C7FA13E01148007804280DD1FC
S3150800407007E00F480078012803D10C48007800B102
S3150800408000E0F6E700BF08F0B5FA01E008F0B2FA7A
S3150800409000200549088007F027FABDE8F09F0000D0
S315080040A06C0000201F0000201C0000203C0000209F
S315080040B01E0000202DE9FF4106460C4617464FF024
S315080040C00008092E26D00425042D00DB00BF032C8A
S315080040D001D0042C07D10A2007F0B8FB002120469E
S315080040E000F022F90124052C01D0062C04D1B8468B
S315080040F04146204600F028F80020009001900290E2
S3150800410003462A46214603903046FFF79BFE322097
S3150800411007F09CFBBDE8FF8170B505460E460024F6
S3150800412000BF0BE005EB44031A7905EB4403597805
S3150800413015F81400FFF7BEFF601CC4B2B442F1DBE9
S3150800414008F058FA70BD000070B505460E464CF2E8
S31508004150503006FB00F403F0CBFA052D38D123E0E6
S315080041600120394908604FF4B971384806F0B5FAA4
S3150800417000203749C1F888014FF4B971334806F071
S31508004180AAFA012030490C3908604FF4B9712F4852
S3150800419006F09DFA00202E49C1F884014FF4B97142
S315080041A02A4806F096FA641E052CD9D2002127481B
S315080041B006F093FA0021254806F08DFA00212348D7
S315080041C006F085FA0021214806F083FA08F012FA6B
S315080041D0062D38D123E000201B4908604FF4B97139
S315080041E01A4806F07AFA01201949C1F888014FF4ED
S315080041F0B971164806F06FFA002013490C390860A1
S315080042004FF4B971114806F062FA01201049C1F855
S3150800421084014FF4B9710D4806F05BFA641E052C4B
S31508004220D9D20021094806F058FA0021074806F0B5
S3150800423052FA0021054806F04AFA0021034806F01A
S3150800424048FA08F0D7F970BD8C8122420034014043
S31508004250008022422DE9F04104460D4617461E46C7
S3150800426001202B4908602B48057003F041FA012C00
S315080042703CDD00BF601E2849B1F90010884203DD05
S31508004280264800780028F5D1012004F06DFA244963
S3150800429008700846007838B900BF2148007818B970
S315080042A01E4800780028F8D11D48007801281DD03E
S315080042B01B48007803280AD107E019480078012826
S315080042C003D11648007800B100E0F6E70EE014487E
S315080042D0007804280AD107E011480078012803D19C
S315080042E00E48007800B100E0F6E700BF0120084953
S315080042F0086000200B49086000BF0A480068B04201
S31508004300FBD300200449088007F0EEF8BDE8F081E9
S315080043106C0000201F0000201C0000203C0000202C
S315080043201E000020200000202DE9F04104460E461C
S31508004330012099490860032C4BD10027012240F23D
S315080043402551964806F05DFC0121944806F016FCB6
S3150800435000209349086000BF002191480068FCF7D7
S31508004360E5F9F9D08E4807688E493846FBF720FFED
S3150800437007468D493846FCF7E3F904D88A49384692
S31508004380FBF768FF074602208849087003F0B0F972
S3150800439000BF834801683846FBF75CFF8046FCF798
S315080043A045F9051E01DB284600E068420528F0DAD3
S315080043B000207F490880002240F22551774806F000
S315080043C020FC0021754806F0D9FB002074490860D6
S315080043D000BF042C4BD10027012240F225516F481B
S315080043E006F00FFC01216D4806F0C8FB00216C4859
S315080043F00068FCF79BF900BF4FF0000168480068A9
S31508004400FCF794F9F8D06648076866493846FBF71A
S3150800441021FF074600213846FCF788F904D8624987
S315080044203846FBF7C5FE074603206049087003F0C7
S315080044305FF900BF5A4801683846FBF70BFF80460C
S31508004440FCF7F4F8051E01DB284600E0684205285B
S31508004450F0DA002240F22551504806F0D2FB00213E
S315080044604E4806F08BFB00204D4908608BE0052C72
S3150800447019D102204D49087003F03AF900204D4938
S31508004480088001204A49088000BF4A49B1F900005E
S31508004490002801DB014600E041426429F5DB0020E3
S315080044A0434908806FE0062C1AD102203F4908705C
S315080044B003F01EF900203F49088001203C49088086
S315080044C000BF3C49B1F90000002801DB014600E0C5
S315080044D04142B1F5C87FF4DB00203549088052E037
S315080044E0072C19D103203149087003F001F900207F
S315080044F03049088001202E49088000BF2D49B1F9AE
S315080045000000002801DB014600E04142B429F5DB42
S3150800451000202749088036E0082C19D102202349B3
S31508004520087003F0E5F80020224908800120204998
S31508004530088000BF1F49B1F90000002801DB0146C9
S3150800454000E041426429F5DB0020194908801AE099
S31508004550092C18D103201549087003F0C9F8002062
S315080045601449088001201249088000BF1149B1F991
S315080045700000002801DB014600E041426429F5DB22
S3150800458000200B49088006F0AFFF08F033F800203A
S3150800459009490880BDE8F0816C0000200038014018
S315080045A0B81200200000BA420000B4431F000020E1
S315080045B024000020260000201C0000202DE9FF5FB3
S315080045C006460F4690461C46DDE911ABDDF84090DD
S315080045D00E9D052D0EDA6EB113988DE8000E039028
S315080045E04246394630460F9BFFF72CFC642007F0FD
S315080045F02DF90AE0052D08DB2B464246394630469A
S31508004600FFF728FE642007F021F9032C01D0042CBB
S3150800461006D139462046FFF787FE642007F016F9CB
S31508004620BDE8FF9F21B1026842F00102026004E082
S3150800463002684FF6FE731A400260704701684FF62B
S31508004640FE72114001600021016041608160C16015
S315080046504B49884208D14A490839496841F00F014F
S31508004660474A083A51608AE045491431884208D1D8
S3150800467043490839496841F0F001414A083A51600E
S315080046807DE03F492831884208D13D4908394968C3
S3150800469041F470613A4A083A516070E038493C3151
S315080046A0884208D136490839496841F47041344A84
S315080046B0083A516063E032495031884208D130499E
S315080046C00839496841F470212D4A083A516056E084
S315080046D02B496431884208D129490839496841F487
S315080046E07001274A083A516049E0254978318842DD
S315080046F008D123490839496841F07061204A083AC7
S3150800470051603CE01F49884206D1011F096841F003
S315080047100F01021F116032E01A491431884208D18C
S315080047201849091F096841F0F001164A121F11605D
S3150800473025E014492831884208D11249091F096819
S3150800474041F470610F4A121F116018E00D493C319F
S31508004750884208D10B49091F096841F47041094A82
S31508004760121F11600BE007495031884207D10549ED
S31508004770091F096841F47021024A121F1160704727
S31508004780080002400804024010B50022026847F6F5
S31508004790F0739A430C6A8B6823430C6923434C696C
S315080047A023438C692343CC6923434C6A23438C6A8D
S315080047B023431A430260CB6843600B6883604B68E7
S315080047C0C36010BD1CB502F079FE002002F010FB94
S315080047D00020244948231822CDE90010132102207D
S315080047E002F0E2FB0120204948231822CDE90010F7
S315080047F013211A2002F0D8FB01201C49482318224D
S31508004800CDE900101321322002F0CEFB0120184911
S3150800481048231822CDE9001013214A2002F0C4FBD0
S315080048200120144948231822CDE9001013216220DB
S3150800483002F0BAFB012310A22F21084602F038FB2A
S3150800484002F0B2FC0BE002F039FEFCF775FB0C48EF
S315080048500078012803D100200949087000E0F2E732
S3150800486000BF1CBD42040108AA050108CA060108C2
S31508004870820601083A060108C9E8D6C30000000006
S3150800488001000020704700001CB54748807847495A
S31508004890887045488078401EC1B244484173407BC1
S315080048A0012802DC0121414841733F4881783F488D
S315080048B001763D488078401EC1B23C4880F82310F6
S315080048C090F82300012803DC0121384880F82310DA
S315080048D002F0F4FD002002F08BFA002334A2102126
S315080048E0184602F0E5FA0020102333A21946009074
S315080048F0202002F073FD01232DA22021002002F0C2
S31508004900D7FA012010232DA220210090084602F094
S3150800491065FD01232AA23021002002F0C9FA0120F0
S31508004920102329A230210090202002F057FD0020F4
S315080049301021CDE900101C48807825490A5C02231D
S315080049401021602002F0F6FC01201021CDE90010AC
S31508004950164880781E490A5C02232021602002F04E
S31508004960E9FC02F021FC1CE002F0A8FDFCF7E4FAE1
S3150800497018480078012814D10020164908701648EE
S31508004980007879280CD115A206210A2000F0D4FD5A
S3150800499006F0B0FD12A206210A2000F0CDFD00E0C7
S315080049A000E0E1E700BF1CBD88000020F6000020FB
S315080049B0C2B7CFDF00000000357830003578320006
S315080049C0D1ADBCA3000000005354313838000000B4
S315080049D0700000200100002002000020676F000020
S315080049E0202000002DE9F04706460F4690461C4653
S315080049F0DDF82090E11704EB5171C910A4EBC10151
S31508004A0031B92046E11704EB5171C1F3C70506E039
S31508004A102046E11704EB5171C910491CCDB23D4639
S31508004A2011E02946304600F0D1FEB24607E019F8F3
S31508004A30010B00F00DFF0AF1010000F0FF0AC24564
S31508004A40F5DD681CC5B2A542EBDDBDE8F0870000C0
S31508004A50FEB504460E46002001900290002E33D182
S31508004A6040F27620844200DC0446A4F2762084B222
S31508004A700A2094FBF0F084B2152C00DD15240025DD
S31508004A8009E0042105F10800254A115420212030A7
S31508004A901154681CC5B2152DF3DB00250AE0F42075
S31508004AA0C5F11C011E4A50542F20C5F13C01505433
S31508004AB0681CC5B2A542F2DB194801237F220021F2
S31508004AC000906020FFF78EFF012E28D100BF6420DA
S31508004AD094FBF0F00A2190FBF1F201FB1200303052
S31508004AE0C0B28DF804002E208DF805000A2094FB2C
S31508004AF0F0F090FBF1F201FB12003030C0B28DF8F5
S31508004B0006000A2094FBF0F100FB11403030C0B2D9
S31508004B108DF8070001AA0021602000F013FEFEBDF3
S31508004B20D20800201CB502F0C9FC002002F060F98A
S31508004B300120244948231822CDE900101321022018
S31508004B4002F032FA0120204948231822CDE9001044
S31508004B5013211A2002F028FA01201C49482318229A
S31508004B60CDE900101321322002F01EFA012018495F
S31508004B7048231822CDE9001013214A2002F014FA1E
S31508004B800020144948231822CDE900101321622079
S31508004B9002F00AFA012310A22F211F2002F088F939
S31508004BA002F002FB0BE002F089FCFCF7C5F90D48A0
S31508004BB00078012803D100200A49087000E0F2E7CE
S31508004BC000BF1CBD42040108AA050108CA0601085F
S31508004BD0820601083A060108B6E6BBFAB5F7BDDA59
S31508004BE0000000000100002008B502F067FC002064
S31508004BF002F0FEF80120102334A219460090002086
S31508004C0002F0ECFB012332A21021084602F050F90B
S31508004C100120102330A219460090402002F0DEFB46
S31508004C2001232EA21021502002F042F90120102360
S31508004C302CA220210090002002F0D0FB01232AA2FA
S31508004C402021102002F034F90120102328A2202167
S31508004C500090402002F0C2FB012326A2202150200A
S31508004C6002F026F90120102324A23021009000200A
S31508004C7002F0B4FB012322A23021102002F018F919
S31508004C8002F092FA21E02048007880B9012010232A
S31508004C901EA230210090402002F0A0FB012315A29D
S31508004CA03021502002F004F902F07EFA09E00120D2
S31508004CB0102317A230210090402002F08FFB02F04B
S31508004CC073FA02F0FBFBFCF737F9DCE7312E00003C
S31508004CD0D5C5BFAA00000000322E0000C8FDBDC71A
S31508004CE000000000332E0000C9ECD6B10000000019
S31508004CF0342E0000CAD5BBD8000000004F2E000095
S31508004D00C9E8D6C300000000911200207A2E0000E0
S31508004D10202020202020000030B5044604254FF42A
S31508004D20302000F06FF80546042D17D10C480069AD
S31508004D3040F002000A49086108464461006940F0EB
S31508004D40400008614FF4302000F05CF8054604483E
S31508004D50006941F6FD71084001490861284630BDE1
S31508004D600020024004200B49C96801F0010109B17D
S31508004D7001200EE00749C96801F0040109B10220C3
S31508004D8007E00449C96801F0100109B1032000E0F1
S31508004D9004207047002002400348006940F0800064
S31508004DA001490861704700000020024070B50446BA
S31508004DB00D460426F00200F025F80646042E11D109
S31508004DC00948006940F00100074908612580F0029A
S31508004DD000F018F806460448006941F6FE710840D6
S31508004DE001490861304670BD002002400248034967
S31508004DF04860034848607047230167450020024021
S31508004E00AB89EFCD00B502460423FFF7ABFF034697
S31508004E1003E0FFF7A7FF0346521E012B01D1002A24
S31508004E20F7D102B90523184600BD2DE9F04102461F
S31508004E3000250026002000230024002791F803C03F
S31508004E400CF00F0591F803C00CF0100CBCF1000F24
S31508004E5003D091F802C04CEA050591F800C0BCF1F0
S31508004E60000F31D0146800202BE04FF0010C0CFA2B
S31508004E7000F3B1F800C00CEA03069E4220D1830075
S31508004E804FF00F0C0CFA03F7BC4305FA03FC4CEA87
S31508004E90040491F803C0BCF1280F06D14FF0010CA9
S31508004EA00CFA00FCC2F814C00AE091F803C0BCF181
S31508004EB0480F05D14FF0010C0CFA00FCC2F810C0DF
S31508004EC0401C0828D1D31460B1F800C0BCF1FF0F0C
S31508004ED034DD546800202EE000F1080C4FF001087C
S31508004EE008FA0CF3B1F800C00CEA03069E4221D179
S31508004EF083004FF00F0C0CFA03F7BC4305FA03FCCA
S31508004F004CEA040491F803C0BCF1280F05D100F15E
S31508004F10080C08FA0CF8C2F8148091F803C0BCF122
S31508004F20480F07D100F1080C4FF0010808FA0CF8F1
S31508004F30C2F81080401C0828CED35460BDE8F08122
S31508004F40F0B50A46002300240021002500F000469B
S31508004F50B6F1004F02D11D4EF16901E01B4E716892
S31508004F60C0F3034583B200F44016B6F5401F08D1D6
S31508004F7021F07061154E766826F07066134F7E60D4
S31508004F8012E000F48016B6F5801F06D1032606FA4D
S31508004F9005F4A14341F0706106E0460D360103FAB7
S31508004FA006F6B14341F0706122B1460D360103FAA7
S31508004FB006F6314300F00046B6F1004F02D1034E23
S31508004FC0F16101E0014E7160F0BD00000000014092
S31508004FD00246002093680B400BB1012000E0002038
S31508004FE070474161704701617047000010B504467B
S31508004FF00723012221460948FBF742FE01210748FB
S31508005000FBF79FFE00BF02210448FBF7FDFD0028C1
S31508005010F9D00248FBF7F4FD10BD0000003C014042
S315080050202DE9F04107460C460025002605E03846DE
S31508005030FFF7DCFF0544701CC6B2A642F7DBB5FBDA
S31508005040F4F080B2BDE8F08100BFFEE700B587B096
S315080050500121084602F0E6FB01210D2002F002FCC0
S3150800506001218748FFF76CFF01218648FFF768FF93
S315080050704FF40040ADF8180004208DF81B000320FB
S315080050808DF81A0006A98048FFF7CFFE0820ADF86C
S31508005090180004208DF81B0003208DF81A0006A9B5
S315080050A07A48FFF7C2FE4FF0804005F027F84FF622
S315080050B0FF70ADF810000020ADF80C00ADF8120036
S315080050C0ADF80E0003A94FF0804005F035FB00232C
S315080050D01A4603214FF0804005F004F9684605F0AA
S315080050E089F90620ADF8080069464FF0804005F0BA
S315080050F02BF900204FF0804188840121880704F0AD
S31508005100E2FF0121022002F08DFB0121042002F0BA
S31508005110A9FBC020ADF8180004208DF81B00032059
S315080051208DF81A0006A95848FFF77FFE584804F07C
S31508005130E5FF4FF6FF70ADF810000020ADF80C0043
S31508005140ADF81200ADF80E0003A9514805F0F4FABF
S3150800515000231A4603214E4805F0C4F8684605F0B0
S3150800516049F90620ADF808006946494805F0ECF803
S3150800517000204749243108800121454804F0A3FF4F
S315080051800121042002F04EFB0121082002F06AFBEF
S31508005190C020ADF8180004208DF81B0003208DF8F8
S315080051A01A0006A93948FFF740FE3A4804F0A6FF58
S315080051B04FF6FF70ADF810000020ADF80C00ADF802
S315080051C01200ADF80E0003A9324805F0B5FA00231F
S315080051D01A4603212F4805F085F8684605F00AF9AE
S315080051E00620ADF8080069462A4805F0ADF8002003
S315080051F02849243108800121264804F064FF01214A
S31508005200082002F00FFB0121042002F02BFB0320EB
S31508005210ADF8180004208DF81B0003208DF81A003D
S3150800522006A91948FFF701FE1B4804F067FF4FF669
S31508005230FF70ADF810000020ADF80C00ADF81200B4
S31508005240ADF80E0003A9144805F076FA00231A46AD
S315080052500321114805F046F8684605F0CBF8062004
S31508005260ADF8080069460C4805F06EF800200A49B2
S31508005270243108800121084804F025FF07B000BD45
S31508005280000230000003180000080140000C01402D
S315080052900004004000080040000C004030B589B00A
S315080052A005460C460121C80202F0DCFA012140201D
S315080052B002F0D8FA01212848FFF742FE4FF42050A1
S315080052C0ADF8200018208DF8230003208DF8220061
S315080052D008A92248FFF7A9FDADF81850ADF8144003
S315080052E00020ADF81A00ADF8160005A91C4805F00F
S315080052F023FA6020ADF804000120ADF8060000206E
S31508005300ADF80A00ADF80C000420ADF8080000203E
S31508005310ADF80E004FF48070ADF810000020ADF81F
S31508005320120001A90E4805F077F801A90C4805F006
S31508005330C9F808210A4805F017F90121084804F0B8
S31508005340CEFE0121064804F0AFFE0021044804F011
S31508005350BAFE09B030BD0000C000160000180140B2
S31508005360002C014030B589B005460C46012148039A
S3150800537002F078FA0121102002F074FA4FF47070E6
S31508005380ADF8200018208DF8230003208DF82200A0
S3150800539008A93348FFF749FDADF81850ADF8144091
S315080053A00020ADF81A00ADF8160005A92D4805F03D
S315080053B0C3F96020ADF804000120ADF8060000200E
S315080053C0ADF80A00ADF80C000420ADF8080000207E
S315080053D0ADF80E004FF48070ADF810000020ADF85F
S315080053E0120001A91F4805F017F808211D4805F005
S315080053F05FF801A91B4805F065F80821194805F06A
S31508005400B3F801A9174805F0BDF80821154805F0B5
S3150800541009F901A9134805F00FF90821114805F003
S3150800542049F901210F4804F05AFE01210D4804F0FC
S315080054303BFE01210B4804F046FE0021094805F011
S3150800544046F90021074805F044F90021054805F00A
S3150800545042F90021034805F040F909B030BD0000C3
S3150800546000100140003401401CB502F027F8002066
S3150800547001F0BEFC0120264948231822CDE9001078
S315080054801321022001F090FD00202249482318220A
S31508005490CDE9001013211A2001F086FD01201E49CE
S315080054A048231822CDE900101321322001F07CFD93
S315080054B001201A4948231822CDE9001013214A2051
S315080054C001F072FD0120164948231822CDE9001083
S315080054D01321622001F068FD012312A22F2108463C
S315080054E001F0E6FC01F060FE10A005F093FD0BE06C
S315080054F001F0E4FFFBF720FD0E480078012803D1F0
S3150800550000200C49087000E0F2E700BF1CBD00004F
