:020000040800F2
:10000000C037002045010008ED5D00089D53000841
:10001000115D0008AD1500081FB5000800000000C4
:1000200000000000000000000000000087830008BE
:10003000554B00080000000001800008959D000855
:100040005F0100085F0100085F0100085F01000810
:100050005F0100085F0100085F0100085F01000800
:100060005F0100085F0100085F0100085F010008F0
:100070005F0100085F0100085F0100085F010008E0
:100080005F0100085F0100085F0100085F010008D0
:100090005F0100085F0100085F0100085F010008C0
:1000A0005F0100085F0100085F0100085F010008B0
:1000B0005F0100085F0100085F0100085F010008A0
:1000C0005F0100085F0100085F0100085F01000890
:1000D0005F0100084DB1000835B20008C1B2000848
:1000E0005F0100085F0100085F0100085F01000870
:1000F0005F0100085F0100085F0100085F01000860
:100100005F0100085F0100085F0100085F0100084F
:100110005F0100085F01000839A00008BDA10008C8
:100120005F0100085F0100085F0100085F0100082F
:10013000DFF80CD000F04AFC0048004781D40008EA
:10014000C03700200648804706480047FEE7FEE724
:10015000FEE7FEE7FEE7FEE7FEE7FEE7FEE7FEE777
:10016000999D00083101000840EA01039B0703D074
:1001700009E008C9121F08C0042AFAD203E011F8E6
:10018000013B00F8013B521EF9D27047D2B201E0A8
:1001900000F8012B491EFBD270470022F6E710B58C
:1001A00013460A4604461946FFF7F0FF204610BDE5
:1001B000F0B480EA0102D40F4200B2EB410F02D248
:1001C0000246084611464A0042D0C30DDDB2C1F3D3
:1001D000C752AD1A202D35DAC1F3160141F40002E1
:1001E00004B15242C5F1200602FA06F12A41104438
:1001F000B3EBD05F23D0C4B1012DA0EBC35009DC19
:10020000F0BC4FF0004202EAC352DBB200F500003E
:1002100000F021BB400000F1807000EBC350A0F162
:10022000807040EAD170490009E0490841EAC07194
:10023000A0EBC35000F50000400800EBC350F0BC39
:1002400000F000BB6142012202EB4101001BF6E716
:10025000F0BC704781F00041AAE780F00040A7E7BA
:1002600080EA010210B502F00043400022D04A00AB
:100270001FD0010E01EB1261C0F35600C2F356020B
:1002800040F4000042F40002A0FB022000047F3989
:10029000140400D0401C50EA124001D44000491E12
:1002A000C2B20C0604EBD010401C4008802A02D0D9
:1002B00003E0002010BD20F00100002900DA00203A
:1002C000184310BD2DE9FE4F804681EA0300C00FA0
:1002D0000C46009021F0004123F00045B8EB0200ED
:1002E000A94105D24046214690461C460B4602468F
:1002F00023F00040104347D0270DC7F30A00C3F393
:100300000A510290401A019040286BDAC3F313009F
:1003100040F4801B0098924620B10023D2EB030AE0
:1003200063EB0B0B01985946C0F14002504600F0B8
:1003300058FA06460D4650465946019A00F070FAA2
:1003400010EB08006141002487EA115284EAE77348
:100350001A4340D0009A62B3019A012A4FEA075229
:1003600015DC001B61EB02014FF0004202EA07526C
:10037000CDE90042001C41F5801132462B4600F0C9
:10038000A7FA03B0BDE8F08F40462146F9E7001B0D
:1003900061EB0201001C41F5801300185B4120183D
:1003A000A2F5001747EB030140EAD570B6196D417D
:1003B00011E06D084FEA360645EAC0754FEA07526C
:1003C000001B61EB0201001C41F5801149084FEA56
:1003D00030000019514132462B4603B0BDE8F04FC2
:1003E00000F067BA0098012240000023D0EB02021F
:1003F00063EBE073009821464FEAE074B8EB00002D
:1004000061EB0401E9E783F000435BE781F0004121
:1004100058E72DE9FE4F81EA030404F0004421F07F
:10042000004100944FF0000B23F0004350EA010418
:100430005ED052EA03045BD0C3F30A54C1F30A55F9
:100440002C44A4F2F3340194A0FB0254C1F3130131
:1004500041F48011C3F3130343F4801301FB0244FE
:1004600000FB034E840A970A44EA815447EA835703
:10047000A4FB076802958D0A05FB07854FEA932CBC
:1004800004FB0C542705029D4FEA065847EA16372D
:10049000B5EB08056EEB070C870E920E47EA811745
:1004A00042EA8312A7FB0201B6EB0B0164EB0004E6
:1004B0002B0D43EA0C335E1844EB1C50DA465146D0
:1004C000E7FB0201C5F313044FEA0B3343EA14536D
:1004D0004FEA0432019C43EA0603A4F10C0402949F
:1004E000009CCDE900B400F0F3F903B0BDE8F08F53
:1004F00000200146F9E72DE9F04D81EA030404F0FC
:10050000004B21F0004514464FF0000A23F0004153
:1005100050EA050220D054EA01021DD0C5F30A5763
:100520000246C5F31303C1F31300C1F30A5640F4A6
:10053000801543F48013A7EB0608101BD64608F27B
:10054000FD3873EB050002D308F1010801E09218B1
:100550005B41B8F1000F03DA00200146BDE8F08DE1
:1005600000204FF48011064684460EE0171B73EB03
:10057000050705D3121B63EB050306434CEA010C88
:1005800049084FEA300092185B4150EA0107EDD16B
:1005900052EA030012D082EA040083EA050108430C
:1005A00005D0101BAB4106D20122002306E0002239
:1005B0004FF0004302E06FF0010253101AEB060007
:1005C0004CEB085110EB0A0041EB0B01BDE8F04D7C
:1005D00000F06FB9C10F80EAE0700844CA079623A3
:1005E000002100F038B996230022114600F033B9FB
:1005F0000EB5C10F80EAE0700844CA07002140F23E
:1006000033438DE80E000A460B4600F061F903B053
:1006100000BD0EB540F2334102910021CDE9001139
:100620000A460B4600F054F903B000BD00F000424A
:1006300020F00040C10DC0F3160040F400007F29F7
:1006400001DA00207047962903DCC1F19601C84009
:1006500001E096398840002AF4D04042704770B5D6
:10066000C1F30A5201F000450024C1F3130140F226
:10067000FF3341F480119A4201DA002070BD40F24C
:1006800033439A42A2F2334203DC524200F0B8F8FC
:1006900000E090402C43F1D0404270BD00F0004299
:1006A00030F000400AD0C10D01F56071C0F31600B2
:1006B00042EA0151C2084007114370470020014639
:1006C0007047000030B5041E71F1000404DB4FF0E8
:1006D0000044404264EB0101141E73F1000405DB89
:1006E0001C464FF00043524263EB0403994208BF9B
:1006F000904230BD01F0004330B421F0004150EA97
:10070000010206D00A0DA2F56072C1F31301002A9E
:1007100002DC30BC00207047440F44EAC104C10031
:10072000E01830BC00EBC25000F08CB8002801DBB0
:10073000C0F10040002901DBC1F100418142704756
:10074000002801DBC0F10040002901DBC1F10041BC
:100750008842704730B50B46014600202022012414
:1007600009E021FA02F59D4205D303FA02F5491B7F
:1007700004FA02F52844151EA2F10102F1DC30BD95
:100780002DE9F05F0546002092469B4688460646C6
:10079000814640241BE0284641464746224600F059
:1007A0002FF853465A46C01A914110D311461846A5
:1007B000224600F016F82D1A67EB01084F46224634
:1007C0000120002100F00DF817EB00094E41201E1A
:1007D000A4F10104DFDC484631462A464346BDE821
:1007E000F09F202A04DB203A00FA02F10020704733
:1007F0009140C2F1200320FA03F31943904070475F
:10080000202A04DB203A21FA02F00021704721FA65
:1008100002F3D040C2F120029140084319467047CC
:10082000202A06DBCB17203A41FA02F043EAE073B4
:1008300006E041FA02F3D040C2F1200291400843A1
:10084000194670470029A8BF7047401C490008BFDF
:1008500020F00100704710B4B0FA80FC00FA0CF0F0
:1008600050EA010404BF10BC704749B1CCF1200428
:1008700021FA04F411FA0CF118BF012121430843B5
:10088000A3EB0C01CB1D4FEA00614FEA102042BFE1
:10089000002010BC704700EBC35010440029A4BFD7
:1008A00010BC7047401C490008BF20F0010010BC7C
:1008B000704710B5141E73F1000408DA401C41F1B2
:1008C000000192185B411A4301D120F0010010BDD4
:1008D0002DE9F04D92469B4611B1B1FA81F202E04A
:1008E000B0FA80F220329046FFF77BFF04460F46B5
:1008F00040EA0A0041EA0B0153465A46084313D026
:10090000114653EA010019D0C8F140025046FFF7E2
:1009100077FF05460E46504659464246FFF761FFAF
:10092000084305D0012004E020463946BDE8F08D9B
:100930000020054346EAE0762C4337430A986305D6
:10094000E40AA0EB08000022FD0A44EA47540A30FA
:1009500002D500200146E9E7010510196941DDE9EA
:10096000084500196941BDE8F04DA2E770B521F0D6
:10097000004303430CD0C1F30A550024D5EB040512
:1009800064EB0403D617AD1AB34102DB0020014625
:1009900070BD201841EB025170BDC1F30A52C1F382
:1009A000130140F2FF3341F480119A4202DA002031
:1009B0000146704740F233439A42A2F2334202DCCE
:1009C0005242FFF71DBFFFF70CBF0000064C074D5A
:1009D00006E0E06840F0010394E80700984710340F
:1009E000AC42F6D3FFF7A8FBD0310108F031010883
:1009F0002DE9F04D00231A461B1A8A4103DB002023
:100A00000146BDE8F08DC1F30A52C1F3130141F470
:100A100080154FF0000BD10702D100186D41521E16
:100A20000027044640F2FF11384601EB620A3E46B9
:100A30008046024600204FF48011FFF7E1FEC21904
:100A40007141BB1846EB0100B4EB030C75EB000CD5
:100A500004D3E41A65EB000517460E46241908F185
:100A600001006D4180463428E3DDF91946EB0600AC
:100A7000091BA84103D24FF0FF32134601E00022C8
:100A800013461BEB070046EB0A51BDE8F04DFFF79C
:100A900010BF70B58C1810F8015B15F0070301D179
:100AA00010F8013B2A1106D110F8012B03E010F8D1
:100AB000016B01F8016B5B1EF9D12B0705D40023F4
:100AC000521E0DD401F8013BFAE710F8013BCB1A96
:100AD000921C03E013F8015B01F8015B521EF9D58B
:100AE000A142D8D3002070BD21B1826842F001023A
:100AF000826003E0826822F001028260704721B1C7
:100B0000826842F48072826003E0826822F480721C
:100B10008260704700B58BB00121084607F0A6FA45
:100B2000114803F0F3FE1148009011480190002095
:100B30000290012003900020049080200590400046
:100B40000690800007902020089000020990002065
:100B50000A906946044803F07FFF0121024803F030
:100B6000C9FE0BB000BD0000080002404C2401404B
:100B7000C412002000B587B0FFF7CCFF01214FF46D
:100B8000047007F0A3FA4FF4004007F063FA012065
:100B9000ADF8040003208DF8060000208DF8070052
:100BA00001A91E4804F0A9FA002002908DF80C005B
:100BB00001208DF80D004FF4602004900020059076
:100BC00001208DF8180002A9154800F07BF80523D4
:100BD00001220A21124800F09DF801211048FFF778
:100BE0008EFF01210E48FFF77FFF0D4800F0EEF861
:100BF00000BF0B4800F05BF80028FAD1084800F06D
:100C0000F5F800BF064800F03BF80028FAD10121B2
:100C1000034800F0E0F807B000BD000000100140FC
:100C20000024014010B504461248844208D1012135
:100C3000401507F05BFA0021601507F057FA17E03E
:100C40000D48844208D10121001507F04FFA002118
:100C5000201507F04BFA0BE00848844208D1012127
:100C6000C80307F043FA00214FF4004007F03EFAB2
:100C700010BD00000024014000280140003C01405C
:100C8000014600208A6802F004020AB1012000E057
:100C9000002070470146C86C80B2704702460020B1
:100CA00013680B400BB1012000E0002070470146A3
:100CB00000208A6802F008020AB1012000E000204A
:100CC0007047000030B502460020002350680F4CEA
:100CD00020400D790C6844EA052420435060906858
:100CE0000B4C2040D1E902542C434D7944EA450491
:100CF00020439060D06A20F470000C7C641EE4B243
:100D0000234340EA0350D06230BD0000FFFEF0FFF5
:100D1000FDF7F1FFF0B504460D4600200021092D36
:100D200011DDE068A5F10A0606EB4607072606FA7C
:100D300007F18843A5F10A0606EB460603FA06F119
:100D40000843E0600CE0206905EB4507072606FA3A
:100D500007F1884305EB450603FA06F108432061D5
:100D6000072A0FDA606B561E06EB86071F2606FA67
:100D700007F18843561E06EB860605FA06F108437E
:100D8000606322E00D2A0FDA206BD61F06EB860780
:100D90001F2606FA07F18843D61F06EB860605FADA
:100DA00006F10843206310E0E06AA2F10D0606EBAD
:100DB00086071F2606FA07F18843A2F10D0606EB07
:100DC000860605FA06F10843E062F0BD816841F04D
:100DD00008018160704721B1826842F4A0028260FC
:100DE00003E0826822F4A00282607047816841F0CB
:100DF000040181607047014640F65E10814205DDC6
:100E000040F6C210814201DA2A20704740F60E30C7
:100E1000814205DD40F67230814201DA2320F4E799
:100E200040F65160814205DD40F6B560814201DA4D
:100E30007920EAE740F6B340814205DD40F61750DD
:100E4000814201DA7820E0E740F67750814205DD03
:100E500040F6DB50814201DA7A20D6E740F61E7078
:100E6000814205DD40F68270814201DA6F20CCE7D5
:100E700040F6F830814205DD40F65C40814201DAFF
:100E80007320C2E740F63220814205DD40F696200D
:100E9000814201DA3020B8E740F6A300814205DD47
:100EA00040F60710814201DA3920AEE740F23560A2
:100EB000814204DDB1F5D36F01DC3620A5E740F2B5
:100EC000CA30814205DD40F22E40814201DA3320F2
:100ED0009BE7B1F53F7F04DDB1F5587F01DA3220A1
:100EE00093E740F28950814205DD40F2ED508142A6
:100EF00001DA352089E740F2DB70814205DD40F6FA
:100F00003F00814201DA38207FE740F214708142CD
:100F100004DDB1F5EF6F01DA372076E740F2A44047
:100F2000814204DDB1F5A16F01DA34206DE740F2B2
:100F30002D20814204DDB1F5247F01DC312064E7FE
:100F4000002062E700B587B0012148F2800007F079
:100F5000BDF84FF4004007F07DF84020ADF80400E4
:100F600000208DF8070001A9174804F0C6F81748BB
:100F7000FFF758FE002002908DF80C008DF80D0050
:100F80004FF4602004900020059001208DF8180097
:100F900002A90E48FFF796FE01210C48FFF7A4FDB9
:100FA0000A48FFF713FF00BF0848FFF780FE00283C
:100FB000FAD10648FFF71AFF00BF0448FFF760FEAA
:100FC0000028FAD107B000BD001C0140003C0140E0
:100FD00070B500240121042004F080F90546FFF7D4
:100FE0000AFF0446BCB120480088401C1E49088006
:100FF0000846008841F64C51884211DB00201A490E
:10100000088001201949088019490870194804709E
:101010001948047004E0002013490880134908802F
:1010200012480088F8B9002C16DD1448007898B9E9
:1010300013480088401C124908800846008814287C
:101040000ADB0020088001200C490870084908705C
:1010500008480470084804700848007818B114B9AA
:1010600000200649087070BD06000020080000201E
:1010700001000020000000200200002003000020EA
:101080000400002008B50121202007F01FF80F20E0
:10109000ADF8000010208DF8030003208DF8020049
:1010A0006946344804F029F84FF44060ADF8000078
:1010B00028208DF8030069462E4804F01EF801210F
:1010C000C82007F003F87420ADF8000010208DF858
:1010D000030003208DF802006946274804F00DF84C
:1010E0001220ADF8000010208DF8030003208DF8C9
:1010F00002006946214804F000F84FF48070ADF812
:10110000000010208DF8030003208DF802006946CE
:101110001B4803F0F2FF0820ADF8000004208DF812
:1011200003006946144803F0E8FF2420ADF80000EE
:1011300004208DF803006946104803F0DEFF4FF4E9
:101140000070ADF8000004208DF8030069460C48DB
:1011500003F0D3FF4FF42050ADF8000010208DF8BD
:10116000030003208DF802006946034803F0C5FF21
:1011700008BD00000014014000180140001C01409F
:10118000000C014070B505460C4616460120764914
:101190000860002075490870012D6BD10120744949
:1011A000087006F0B1FE002072490880724908807C
:1011B000012072490880012E3ED13CE06D4AB2F90F
:1011C0000010002901DB0A4600E04A42231FC3EB5E
:1011D000C303B2EBC30F16DD664AB2F90000002864
:1011E00001DB024600E04242A31DC3EBC303B2EBA6
:1011F000C30F08DA0020624908800BF019FE0120B5
:101200005A49087070BD5B49B1F90000002801DB44
:10121000014600E04142A21DC2EBC202B1EBC20F87
:1012200009DD0020564908800BF002FE01204F49DD
:1012300008700020E6E7C1E700BF4E4AB2F900108F
:10124000002901DB0A4600E04A42C4EBC403B2EBCA
:10125000C30FF2DB484AB2F90000002801DB024666
:1012600000E04242C4EBC403B2EBC30FE5DB002055
:1012700042490880002D6BD100203D49087006F0DE
:1012800043FE00203B4908803B49088001203B4940
:101290000880012E3ED13CE0364AB2F90010002908
:1012A00001DB0A4600E04A42231FC3EBC303B2EB53
:1012B000C30F16DD2F4AB2F90000002801DB0246F9
:1012C00000E04242A31DC3EBC303B2EBC30F08DA35
:1012D00000202B4908800BF0ABFD0120234908704A
:1012E00090E72449B1F90000002801DB014600E045
:1012F0004142A21DC2EBC202B1EBC20F09DD0020C8
:101300001F4908800BF094FD012018490870002047
:1013100078E7C1E700BF174AB2F90010002901DBE6
:101320000A4600E04A42C4EBC403B2EBC30FF2DB4F
:10133000114AB2F90000002801DB024600E04242F7
:10134000C4EBC403B2EBC30FE5DB00200B490880FC
:1013500000200B4908800BF06BFD0CF029FF0120E9
:101360000249087000BF4DE78C00002048000020B3
:101370003D0000204A0000204C00002044000020D6
:101380003A00002008B50121402006F09FFE4FF4EE
:101390008050ADF8000010208DF8030003208DF878
:1013A000020069460F4803F0A8FE0C210D4803F027
:1013B00079FF0121802006F089FE4FF46070ADF8BE
:1013C000000028208DF8030003208DF802006946F4
:1013D000054803F092FE4FF46071034803F060FF8C
:1013E00008BD000000180140001C014070B5044613
:1013F000492C1AD100206949087069490860012107
:10140000684809F0B8FA4FF42F71664809F0B9FD41
:1014100000BF654800680028FBD00021614809F042
:10142000B0FD00215F4809F0A6FA532C1CD15320CF
:101430005A49087001205A4908600121594809F0A9
:101440009AFA4FF42F71574809F09BFD00BF564898
:10145000001F00680028FAD00021524809F091FDD1
:101460000021504809F087FA582C2FD158204B49B9
:1014700008704D480068012829D1C8200BF078FF7A
:10148000012047490860C8200BF072FF0121454840
:1014900009F071FAC8200BF06BFF4FF42F7141482F
:1014A00009F06FFDC8200BF063FF002504E0642005
:1014B0000BF05EFF681CC5B2312DF8DB0021394806
:1014C00009F05FFD0021374809F055FA5AE0364827
:1014D000001F0068012829D1C8200BF049FF002017
:1014E0002F490860C8200BF043FF01212D4809F067
:1014F00042FAC8200BF03CFF4FF42F71294809F045
:1015000040FDC8200BF034FF002504E064200BF000
:101510002FFF681CC5B2992DF8DB0021214809F086
:1015200030FD00211F4809F026FA2BE04920FFF783
:101530005DFF582019490870012019490860C8202A
:101540000BF016FF0121174809F015FAC8200BF01F
:101550000FFF4FF42F71134809F013FDC8200BF053
:1015600007FF002504E064200BF002FF681CC5B2F1
:10157000312DF8DB00210B4809F003FD002109485B
:1015800009F0F9F9542C07D10021064809F0F9FCBB
:101590000021044809F0EFF970BD0000160000209A
:1015A000B0012342002C01402081234200BFFEE70E
:1015B0001CB506F08FFB002006F026F80120244918
:1015C00048231822CDE900101321022006F0F8F874
:1015D0000120204948231822CDE9001013211A20A8
:1015E00006F0EEF801201C4948231822CDE900102E
:1015F0001321322006F0E4F800201849482318226D
:10160000CDE9001013214A2006F0DAF80120144930
:1016100048231822CDE900101321622006F0D0F8EB
:10162000012310A22F211F2006F04EF806F0C8F962
:101630000BE006F04FFBFFF7CBFC0D4800780128CC
:1016400003D100200A49087000E0F2E700BF1CBD8A
:10165000FE1F010866210108862201083E220108BA
:10166000F6210108C2B7CFDFC9E8D6C300000000E9
:101670000100002000B58FB000200E9010200D90CA
:1016800000200C9010200B9001200A90002009905F
:10169000089007900690059004F048F906F01AFBB0
:1016A000002005F0B1FFFE48007801281BD1002082
:1016B0000E9014E000200D900AE00021F94A0D98E8
:1016C00002EB40020E9811540D98401CC0B20D90D0
:1016D0000D980C28F1DB0E98401CC0B20E900E98AD
:1016E0000228E7DB00E3EE480078022878D10020EA
:1016F00005906FE0EC49059811F8100080B9059845
:1017000001EB4000407858B901200090059840074F
:10171000000E1023E5A21946049006F06BFA55E07E
:10172000E149059801EB4000407880B1012804D0E0
:10173000032816D0042828D11DE005984007000E84
:101740000023DCA21021049005F0BEFF1EE00598E6
:101750004007000E0023D8A21021049005F0B4FF2A
:1017600014E005984007000E0023D4A21021049035
:1017700005F0AAFF0AE005984007000E0023D0A25A
:101780001021049005F0A0FF00E000BF00BF012081
:101790001021CDE90010C449059811F810000490FB
:1017A0001021059801EB4010C0B201230390049A68
:1017B00006F0CCF92021059801EB4010C0B20E9044
:1017C00010200D900698401CC0B206900598401C51
:1017D000C0B20590059804288CDB0420059078E0C1
:1017E000F2E0B149059811F8100088B9059801EBAD
:1017F0004000407860B9012000900598001F400724
:10180000000E1023A9A22021049006F0F3F95CE059
:10181000A549059801EB4000407888B1012804D023
:10182000032818D004282CD120E00598001F400779
:10183000000E00239FA22021049005F045FF21E027
:101840000598001F4007000E00239BA22021049052
:1018500005F03AFF16E00598001F4007000E002330
:1018600096A22021049005F02FFF0BE00598001FA1
:101870004007000E002392A22021049005F024FFCF
:1018800000E000BF00BF01201021CDE90010864913
:10189000059811F8100004900598001F102101EB25
:1018A0004010C0B2012303902021049A06F04EF9A3
:1018B0000598001F202101EB4010C0B20E9020209F
:1018C0000D900698401CC0B206900598401CC0B20E
:1018D00005900598082884DB0820059070E072497F
:1018E000059811F8100080B9059801EB4000407888
:1018F00058B90120009005984007000E10236BA2F4
:101900003021049006F076F956E06749059801EB1E
:101910004000407880B1012804D0032816D0042864
:1019200028D11DE005984007000E002361A2302158
:10193000049005F0C9FE1EE005984007000E002344
:101940005DA23021049005F0BFFE14E00598400729
:10195000000E002359A23021049005F0B5FE0AE0E4
:1019600005984007000E002355A23021049005F091
:10197000ABFE00E000BF00BF01201021CDE9001048
:101980004949059811F8100004901021059801EBC1
:101990004010C0B2012303903021049A06F0D6F81B
:1019A0002021059801EB4010C0B20E9030200D9020
:1019B0000698401CC0B206900598401CC0B2059025
:1019C00005980C288BDB8FE1354800780328FAD185
:1019D0000020059084E03B49059811F8100080B97B
:1019E000059801EB4000407858B901200090059817
:1019F0004007000E10232DA21946049006F0FAF8B5
:101A00006AE03049059801EB4000407880B1012838
:101A100004D0032816D0042828D11DE005984007DB
:101A2000000E002323A21021049005F04DFE1EE0BD
:101A300005984007000E00231FA21021049005F016
:101A400043FE14E005984007000E00231BA210215E
:101A5000049005F039FE0AE005984007000E0023C7
:101A600017A21021049005F02FFE00E000BF00BF78
:101A700001201021CDE900101249059811F810003D
:101A800004901021059801EB4010C0B2012303908F
:101A9000049A06F05BF82021059801EB401013E052
:101AA0008E10002018140020361400202020202042
:101AB00000000000C7B00000BAF30000D7F3000038
:101AC000D3D2000054140020C0B20E9010200D900C
:101AD0000698401CC0B206900598401CC0B2059004
:101AE00005980428FFF677AF042005907CE0FE49B6
:101AF000059811F8100090B9059801EB4000407866
:101B000068B9012000900598001F4007000E1023BF
:101B1000AFF268022021049006F06CF860E0F24910
:101B2000059801EB4000407890B1012804D00328CB
:101B30001AD0042830D123E00598001F4007000E7A
:101B40000023AFF290022021049005F0BDFD24E0B7
:101B50000598001F4007000E0023AFF2A4022021C9
:101B6000049005F0B1FD18E00598001F4007000E35
:101B70000023AFF2B8022021049005F0A5FD0CE08F
:101B80000598001F4007000E0023AFF2CC02202171
:101B9000049005F099FD00E000BF00BF0120102176
:101BA000CDE90010D049059811F81000049005986F
:101BB000001F102101EB4010C0B20123039020212F
:101BC000049A05F0C3FF0598001F202101EB401087
:101BD000C0B20E9020200D900698401CC0B2069016
:101BE0000598401CC0B2059005980828FFF67FAF05
:101BF0000820059075E0BC49059811F8100088B9D7
:101C0000059801EB4000407860B9012000900598EC
:101C10004007000E1023AFF26C123021049005F043
:101C2000E9FF5AE0B049059801EB4000407888B1DF
:101C3000012804D0032818D004282CD120E00598CE
:101C40004007000E0023AFF294123021049005F0FB
:101C50003BFD21E005984007000E0023AFF2A812DB
:101C60003021049005F030FD16E005984007000E85
:101C70000023AFF2B8123021049005F025FD0BE0EF
:101C800005984007000E0023AFF2CC1230210490DB
:101C900005F01AFD00E000BF00BF01201021CDE9D2
:101CA00000109149059811F8100004901021059832
:101CB00001EB4010C0B2012303903021049A05F0DB
:101CC00045FF2021059801EB4010C0B20E90302056
:101CD0000D900698401CC0B206900598401CC0B2FA
:101CE000059005980C2886DB05F06AFE01F00ABA1B
:101CF00005F0F0FFFFF76CF97C4800780128F5D17A
:101D000006980B2801DB0B2006900020774908700D
:101D1000774800782A2801D000200990744800787C
:101D20006F2801D0002008907248007801287DD1EA
:101D30007148007820B97048407808B900200690B2
:101D40006B480078362872D012DC322870D008DC5C
:101D500023286ED02A286DD030286CD031286BD142
:101D60000AE1332869D0342868D03528F7D1BBE19F
:101D7000732872D008DC37286CD038286BD039280B
:101D80006AD06F28EBD103E378287DD0792802D080
:101D90007A28E4D129E00A98012825D10D98302825
:101DA00022DC002009900A900D980B900E980C9060
:101DB0000023AFF2F422DDE90D1005F085FC0E984A
:101DC0001030C0B20E900E987F2805DB00200E90D8
:101DD0000D981030C0B20D9005F0F2FD0421464A76
:101DE000069802EB40004170EAE20A9801282FD1E0
:101DF0000D9830282CDC002009900A900D980B904B
:101E00000E980C900023AFF24C32DDE90D1005F076
:101E10005BFC0E981030C0B20E900E987F280FDB3E
:101E200000200E900D981030C0B208E0D1E289E198
:101E3000D0E0BBE23EE271E0C1E2F9E026E10D90C4
:101E400005F0BEFD03212C4A069802EB40004170CC
:101E5000B6E202E0A4E1D1E1FEE10A98012827D12F
:101E60000D98302824DC002009900A900D980B90E2
:101E70000E980C900023AFF2C432DDE90D1005F08E
:101E800023FC0E98103000E013E0C0B20E900E98C4
:101E90007F2805DB00200E900D981030C0B20D9009
:101EA00005F08EFD0121144A069802EB40004170B6
:101EB00086E20A98012830D10D9830282DDC0020C8
:101EC00009900A900D980B900E980C900023AFF299
:101ED0001842DDE90D1005F0F7FB0E981030C0B286
:101EE0000E900E987F2809E0541400200100002075
:101EF000020000208E1000201814002005DB0020B6
:101F00000E900D981030C0B20D9005F059FD0021D3
:101F1000F84A069802EB4000417051E20A9850BB23
:101F20000D98302827DC0020099001200A900D9898
:101F30000B900E980C9001201023EFA20090DDE989
:101F40000D1005F057FE0E981030C0B20E900E988E
:101F50007F2805DB00200E900D981030C0B20D9048
:101F600005F02EFD0021E34A069802F810100698AD
:101F7000401CC0B2069023E20A9850BB0D9830284E
:101F800027DC0020099001200A900D980B900E98F4
:101F90000C9001201023D9A20090DDE90D1005F06E
:101FA00029FE0E981030C0B20E900E987F2805DBE7
:101FB00000200E900D981030C0B20D9005F000FD7D
:101FC0000121CC4A069802F810100698401CC0B2B5
:101FD0000690F5E10A9850BB0D98302827DC0020C8
:101FE000099001200A900D980B900E980C900120FA
:101FF0001023C3A20090DDE90D1005F0FBFD0E9843
:102000001030C0B20E900E987F2805DB00200E9095
:102010000D981030C0B20D9005F0D2FC0221B54AE7
:10202000069802F810100698401CC0B20690C7E14E
:102030000A9850BB0D98302827DC00200990012019
:102040000A900D980B900E980C9001201023ADA2D1
:102050000090DDE90D1005F0CDFD0E981030C0B2F6
:102060000E900E987F2805DB00200E900D98103002
:10207000C0B20D9005F0A4FC03219E4A069802F818
:1020800010100698401CC0B2069099E10A9850BB07
:102090000D98302827DC0020099001200A900D9827
:1020A0000B900E980C900120102397A20090DDE970
:1020B0000D1005F09FFD0E981030C0B20E900E98D6
:1020C0007F2805DB00200E900D981030C0B20D90D7
:1020D00005F076FC0421874A069802F8101006984D
:1020E000401CC0B206906BE10A9850BB0D98302896
:1020F00027DC0020099001200A900D980B900E9883
:102100000C900120102381A20090DDE90D1005F054
:1021100071FD0E981030C0B20E900E987F2805DB2E
:1021200000200E900D981030C0B20D9005F048FCC4
:102130000521704A069802F810100698401CC0B29B
:1021400006903DE10A9850BB0D98302827DC00200E
:10215000099001200A900D980B900E980C90012088
:1021600010236BA20090DDE90D1005F043FD0E98E1
:102170001030C0B20E900E987F2805DB00200E9024
:102180000D981030C0B20D9005F01AFC0621594A86
:10219000069802F810100698401CC0B206900FE195
:1021A0000A9850BB0D98302827DC002009900120A8
:1021B0000A900D980B900E980C900120102355A2B8
:1021C0000090DDE90D1005F015FD0E981030C0B23D
:1021D0000E900E987F2805DB00200E900D98103091
:1021E000C0B20D9005F0ECFB0721424A069802F8B8
:1021F00010100698401CC0B20690E1E00A9850BB4F
:102200000D98302827DC0020099001200A900D98B5
:102210000B900E980C90012010233FA20090DDE956
:102220000D1005F0E7FC0E981030C0B20E900E981D
:102230007F2805DB00200E900D981030C0B20D9065
:1022400005F0BEFB08212B4A069802F810100698EC
:10225000401CC0B20690B3E00A9850BB0D983028DD
:1022600027DC0020099001200A900D980B900E9811
:102270000C900120102329A20090DDE90D1005F03B
:10228000B9FC0E981030C0B20E900E987F2805DB76
:1022900000200E900D981030C0B20D9005F090FB0C
:1022A0000921144A069802F810100698401CC0B282
:1022B000069085E00998401CC0B209900998022850
:1022C00065DB0C48007828B90A48407810B900202E
:1022D000069030E00A9860B900210698401E054A31
:1022E00002EB400041700698012819DC012006909D
:1022F00021E01AE0181400204F0000003100000017
:1023000032000000330000003400000035000000FF
:1023100036000000370000003800000039000000DF
:102320000698401EC0B2069005E000210698401EA7
:10233000FD4A02F81010002009900A9808B90120FF
:1023400000E000200A900C980E900B980D90012050
:102350001023F6A20090DDE90D1005F04BFC05F00E
:102360002FFB0C9828B90B98102802D101200A9055
:1023700026E00E98102804DB0C981038C0B20C90A0
:1023800005E07F200C900B981038C0B20B9017E03E
:102390000898401CC0B208900898022805DB00206D
:1023A0000890E148069901F0DFFF09E0012007905D
:1023B0007A20DF490870DF490698087000E000BF06
:1023C00000BF079801287DD1D94800787A28FAD132
:1023D00048E3D9480078022875D1D848007820B958
:1023E000D648407808B900200690D14800783628B1
:1023F0006AD012DC322868D008DC232866D02A286C
:1024000078D0302877D0312876D100E1332874D0C5
:10241000342873D03528F7D1C1E1732874D008DC93
:1024200037286DD038286CD039286BD06F28EBD185
:10243000F8E2782867D0792802D07A28E4D129E018
:102440000A98012825D10D98302822DC0020099017
:102450000A900D980B900E980C900023AFF6A012E6
:10246000DDE90D1005F030F90E981030C0B20E9075
:102470000E987F2805DB00200E900D981030C0B21A
:102480000D9005F09DFA0421AC4A069802EB40003D
:102490004170DFE20A9801282BD10D98302828DC02
:1024A000002009900A900D980B900E980C90002334
:1024B000AFF6F812DDE90D1005F006F90E981030B0
:1024C000C0B204E048E3CEE298E1CFE0B8E20E907B
:1024D0000E987F2805DB00200E900D981030C0B2BA
:1024E0000D9005F06DFA0321944A069802EB400026
:1024F0004170AFE23EE25BE0ABE2E6E020E103E008
:10250000ABE1D9E107E229E00A98012825D10D982D
:10251000302822DC002009900A900D980B900E982C
:102520000C900023AFF67422DDE90D1005F0CCF815
:102530000E981030C0B20E900E987F2805DB002058
:102540000E900D981030C0B20D9005F039FA0121AF
:102550007A4A069802EB400041707BE20A98012813
:1025600025D10D98302822DC002009900A900D9882
:102570000B900E980C900023AFF6C422DDE90D10ED
:1025800005F0A2F80E981030C0B20E900E987F2879
:1025900005DB00200E900D981030C0B20D9005F0B4
:1025A0000FFA0021654A069802EB4000417051E2A3
:1025B0000A9858BB0D98302828DC0020099001208B
:1025C0000A900D980B900E980C9001201023AFF2FA
:1025D000D8220090DDE90D1005F00CFB0E981030AC
:1025E000C0B20E900E987F2805DB00200E900D984B
:1025F0001030C0B20D9005F0E3F900214F4A069863
:1026000002F810100698401CC0B2069022E20A9808
:1026100058BB0D98302828DC0020099001200A9032
:102620000D980B900E980C9001201023AFF23432CD
:102630000090DDE90D1005F0DDFA0E981030C0B203
:102640000E900E987F2805DB00200E900D9810301C
:10265000C0B20D9005F0B4F90121384A069802F88D
:1026600010100698401CC0B20690F3E10A9858BBBF
:102670000D98302828DC0020099001200A900D9840
:102680000B900E980C9001201023AFF28C3200902A
:10269000DDE90D1005F0AEFA0E981030C0B20E90C4
:1026A0000E987F2805DB00200E900D981030C0B2E8
:1026B0000D9005F085F90221204A069802F81010C5
:1026C0000698401CC0B20690C4E10A9858BB0D9809
:1026D000302828DC0020099001200A900D980B90EA
:1026E0000E980C9001201023AFF2E8320090DDE943
:1026F0000D1005F07FFA0E981030C0B20E900E98B3
:102700007F2805DB00200E900D981030C0B20D9090
:1027100005F056F90321094A069802F810100698A8
:10272000401CC0B2069095E1181400202020000043
:1027300002000020A50000208E100020361400208A
:102740000A9858BB0D98302828DC002009900120F9
:102750000A900D980B900E980C9001201023AFF268
:1027600058420090DDE90D1005F044FA0E98103043
:10277000C0B20E900E987F2805DB00200E900D98B9
:102780001030C0B20D9005F01BF90421FC4A0698E8
:1027900002F810100698401CC0B206905AE10A9840
:1027A00058BB0D98302828DC0020099001200A90A1
:1027B0000D980B900E980C9001201023AFF2B442AC
:1027C0000090DDE90D1005F015FA0E981030C0B23A
:1027D0000E900E987F2805DB00200E900D9810308B
:1027E000C0B20D9005F0ECF80521E54A069802F814
:1027F00010100698401CC0B206902BE10A9858BBF6
:102800000D98302828DC0020099001200A900D98AE
:102810000B900E980C9001201023AFF20C520090F8
:10282000DDE90D1005F0E6F90E981030C0B20E90FB
:102830000E987F2805DB00200E900D981030C0B256
:102840000D9005F0BDF80621CD4A069802F810104B
:102850000698401CC0B20690FCE00A9858BB0D9840
:10286000302828DC0020099001200A900D980B9058
:102870000E980C9001201023AFF268520090DDE911
:102880000D1005F0B7F90E981030C0B20E900E98EA
:102890007F2805DB00200E900D981030C0B20D90FF
:1028A00005F08EF80721B64A069802F8101006982F
:1028B000401CC0B20690CDE00A9858BB0D98302855
:1028C00028DC0020099001200A900D980B900E98AA
:1028D0000C9001201023AFF2C0520090DDE90D10E2
:1028E00005F088F90E981030C0B20E900E987F282F
:1028F00005DB00200E900D981030C0B20D9005F051
:102900005FF808219E4A069802F810100698401CAD
:10291000C0B206909EE00A9858BB0D98302828DC7B
:102920000020099001200A900D980B900E980C90B1
:1029300001201023AFF21C620090DDE90D1005F0BC
:1029400059F90E981030C0B20E900E987F2805DB12
:1029500000200E900D981030C0B20D9005F030F8A8
:102960000921874A069802F810100698401CC0B248
:1029700006906FE00998401CC0B20990099802289F
:102980004FDB7F48007828B97D48407810B9002097
:10299000069019E00A9888B900210698401E784AE6
:1029A00002EB400041700698012802DC01200690ED
:1029B0000AE00698401EC0B2069005E00021069885
:1029C000401E6F4A02F81010002009900A9808B9BA
:1029D000012000E000200A900C980E900B980D90BA
:1029E00001201023AFF2BC220090DDE90D1005F0AC
:1029F00001F904F0E5FF0C9828B90B98102802D1D2
:102A000001200A9026E00E98102804DB0C9810385C
:102A1000C0B20C9005E07F200C900B981038C0B22B
:102A20000B9017E00898401CC0B208900898022844
:102A300005DB002008905248069901F095FC09E05A
:102A4000012007907A204F4908704F490698087076
:102A500000E000BF00BF079801287DD149480078F9
:102A60007A28FAD150E3494800780328F5D148483C
:102A7000007820B94648407808B9002006904148BF
:102A80000078362869D012DC322867D008DC232889
:102A900073D02A2872D0302871D031287ED10AE133
:102AA00033287CD034287BD03528F7D1BFE1732878
:102AB00077D008DC372875D0382874D0392873D0FF
:102AC0006F28EBD1FDE278286FD0792802D07A28E0
:102AD000E4D128E00A98012824D10D98302821DC7F
:102AE000002009900A900D980B900E980C900023EE
:102AF00028A2DDE90D1004F0E7FD0E981030C0B2F9
:102B00000E900E987F2805DB00200E900D98103057
:102B1000C0B20D9004F054FF04211D4A069802EB48
:102B200040004170E5E20A98012842D10D98302812
:102B30003FDC002009900A900D980B900E980C90A5
:102B4000002315A2DDE90D1004F0BEFD0E98103033
:102B5000C0B20E900E9802E0D4E297E1DAE07F284E
:102B600005DB00200E900D981030C0B20D9004F0DF
:102B700027FF0321064A069818E0B0E249E26BE01D
:102B80003614002002000020A60000208E10002035
:102B900054140020D3D20000D7F30000A8E2E8E0EC
:102BA00016E107E0A1E1CFE1FDE12CE002EB4000FE
:102BB00041709EE20A98012824D10D98302821DC2A
:102BC000002009900A900D980B900E980C9000230D
:102BD000FEA2DDE90D1004F077FD0E981030C0B2B2
:102BE0000E900E987F2805DB00200E900D98103077
:102BF000C0B20D9004F0E4FE0121F54A069802EB04
:102C00004000417075E20A98012824D10D983028BF
:102C100021DC002009900A900D980B900E980C90E2
:102C20000023ECA2DDE90D1004F04EFD0E981030EB
:102C3000C0B20E900E987F2805DB00200E900D98F4
:102C40001030C0B20D9004F0BBFE0021E04A06989F
:102C500002EB400041704CE20A9858BB0D983028B6
:102C600028DC0020099001200A900D980B900E9806
:102C70000C9001201023AFF680120090DDE90D10BA
:102C800004F0B8FF0E981030C0B20E900E987F2856
:102C900005DB00200E900D981030C0B20D9004F0AE
:102CA0008FFE0021CA4A069802F810100698401CB0
:102CB000C0B206901DE20A9858BB0D98302828DC57
:102CC0000020099001200A900D980B900E980C900E
:102CD00001201023AFF6DC120090DDE90D1004F0A6
:102CE00089FF0E981030C0B20E900E987F2805DB39
:102CF00000200E900D981030C0B20D9004F060FED0
:102D00000121B34A069802F810100698401CC0B280
:102D10000690EEE10A9858BB0D98302828DC002078
:102D2000099001200A900D980B900E980C900120AC
:102D30001023AFF634220090DDE90D1004F05AFFA5
:102D40000E981030C0B20E900E987F2805DB002040
:102D50000E900D981030C0B20D9004F031FE02219B
:102D60009B4A069802F810100698401CC0B20690C4
:102D7000BFE10A9858BB0D98302828DC0020099044
:102D800001200A900D980B900E980C9001201023B2
:102D9000AFF690220090DDE90D1004F02BFF0E98A5
:102DA0001030C0B20E900E987F2805DB00200E90E8
:102DB0000D981030C0B20D9004F002FE0321844A39
:102DC000069802F810100698401CC0B2069090E1D8
:102DD0000A9858BB0D98302828DC00200990012063
:102DE0000A900D980B900E980C9001201023AFF6CE
:102DF000E8220090DDE90D1004F0FCFE0E98103082
:102E0000C0B20E900E987F2805DB00200E900D9822
:102E10001030C0B20D9004F0D3FD04216C4A069826
:102E200002F810100698401CC0B2069061E10A98A2
:102E300058BB0D98302828DC0020099001200A900A
:102E40000D980B900E980C9001201023AFF6443291
:102E50000090DDE90D1004F0CDFE0E981030C0B2E8
:102E60000E900E987F2805DB00200E900D981030F4
:102E7000C0B20D9004F0A4FD0521554A069802F851
:102E800010100698401CC0B2069032E10A9858BB58
:102E90000D98302828DC0020099001200A900D9818
:102EA0000B900E980C9001201023AFF69C320090EE
:102EB000DDE90D1004F09EFE0E981030C0B20E90A9
:102EC0000E987F2805DB00200E900D981030C0B2C0
:102ED0000D9004F075FD06213D4A069802F8101089
:102EE0000698401CC0B2069003E10A9858BB0D98A2
:102EF000302828DC0020099001200A900D980B90C2
:102F00000E980C9001201023AFF6F8320090DDE906
:102F10000D1004F06FFE0E981030C0B20E900E9897
:102F20007F2805DB00200E900D981030C0B20D9068
:102F300004F046FD0721264A069802F8101006986C
:102F4000401CC0B20690D4E00A9858BB0D983028B7
:102F500028DC0020099001200A900D980B900E9813
:102F60000C9001201023AFF650420090DDE90D10C7
:102F700004F040FE0E981030C0B20E900E987F28DC
:102F800005DB00200E900D981030C0B20D9004F0BB
:102F900017FD08210E4A069802F810100698401CEA
:102FA000C0B20690A5E00A9890BB0D9830282FDC9F
:102FB0000020099001200A900D980B900E980C901B
:102FC00001201023AFF6AC42009005E0C7B000002E
:102FD00054140020BAF30000DDE90D1004F00AFEDD
:102FE0000E981030C0B20E900E987F2805DB00209E
:102FF0000E900D981030C0B20D9004F0E1FC092144
:10300000434A069802F810100698401CC0B2069079
:103010006FE00998401CC0B20990099802284FDB64
:103020003B48007828B93A48407810B9002006900B
:1030300019E00A9888B900210698401E344A02EB2C
:10304000400041700698012802DC012006900AE049
:103050000698401EC0B2069005E000210698401E6A
:103060002B4A02F81010002009900A9808B9012094
:1030700000E000200A900C980E900B980D90012013
:103080001023AFF658120090DDE90D1004F0B2FDE8
:1030900004F096FC0C9828B90B98102802D1012056
:1030A0000A9026E00E98102804DB0C981038C0B265
:1030B0000C9005E07F200C900B981038C0B20B905C
:1030C00017E00898401CC0B208900898022805DB59
:1030D000002008900E48069901F046F909E0012009
:1030E00007907A200B4908700B490698087000E099
:1030F00000BF00BF0798012804D1064800787A284D
:1031000000D101E0FEF7F4BD00BF0FB000BD00002C
:103110005414002002000020A70000207CB504F019
:10312000D9FD002004F070FA002395A21021184662
:1031300004F0CAFA0020102393A219460090202020
:1031400004F058FD01238EA22021002004F0BCFAD7
:10315000012010238DA220210090084604F04AFD92
:10316000012387A23021002004F0AEFA01201023B1
:1031700087A230210090202004F03CFD0020102187
:103180000223CDE9001083480278602004F0DEFCC1
:10319000012010210223CDE900107F480278202170
:1031A000602004F0D3FC012010210223CDE900109F
:1031B0007A4802783021602004F0C8FC7848007812
:1031C000012807D1102377A219460090402004F06F
:1031D00011FD16E074480078012807D1102371A270
:1031E00020210090402004F005FD0AE06F4800789F
:1031F000012806D110236BA230210090402004F05A
:10320000F9FC04F0DDFBB8E004F064FDFDF7E0FE3E
:10321000674800780128F6D10020654908706048A9
:103220000078012807D060480078012803D05F4863
:10323000007801287ED15F4800782A287BD1584841
:103240000078012818D100240FE0002509E05A4831
:1032500000EB4500005D584901EB45010855681C2D
:10326000C5B20C2DF3DB601CC4B2022CEDDB494867
:1032700000784849087038E04B480078012818D198
:1032800000240FE0002509E04C4800EB4500005DFC
:10329000494901EB45010855681CC5B20C2DF3DB0B
:1032A000601CC4B2022CEDDB3B4800783949087041
:1032B0001BE03E480078012817D100240FE00025CC
:1032C00009E03F4800EB4500005D3B4901EB45014B
:1032D0000855681CC5B20C2DF3DB601CC4B2022C6F
:1032E000EDDB2E4800782B4908700120102335A211
:1032F00019460090402004F07DFC0120102331A2EB
:1033000020210090402004F075FC012010232DA204
:1033100030210090402004F06DFC00201021022399
:10332000CDE900101B480278602004F00FFC04F087
:1033300047FB01E011E007E00020194908701A4935
:1033400008701A49087018E01A480078732803D0EA
:1033500018480078782810D110E0164800786F28B7
:1033600003D101201849087006E0124800782A2885
:1033700002D101200A49087000E045E700BF7CBD8A
:10338000D7D4C9E80000000031000000320000007E
:1033900033000000A5000020A6000020A7000020A8
:1033A0008F1000202A0000009010002091100020B3
:1033B0000100002002000020181400203614002014
:1033C00054140020200000008E1000207CB504F072
:1033D00081FC002004F018F9012396A2102100209E
:1033E00004F072F90120102394A2194600902020C5
:1033F00004F000FC00238FA22021184604F064F999
:10340000002010238EA220210090084604F0F2FB39
:10341000012388A23021002004F056F90120102356
:1034200088A230210090202004F0E4FB012010212C
:103430000223CDE9001084480278602004F086FB66
:10344000002010210223CDE90010804802782021BD
:10345000602004F07BFB012010210223CDE9001045
:103460007B4802783021602004F070FB79480078B6
:10347000012807D1102378A219460090402004F0BB
:10348000B9FB16E075480078012807D1102372A215
:1034900020210090402004F0ADFB0AE07048007845
:1034A000012806D110236CA230210090402004F0A6
:1034B000A1FB04F085FAB9E004F00CFCFDF788FDEF
:1034C000684800780128F6D10020664908706148F4
:1034D0000078012807D061480078012803D06048AF
:1034E000007801287DD1604800782A287AD159488F
:1034F0000078012818D100240FE0002509E05B487E
:1035000000EB4500005D5A4901EB45010855681C78
:10351000C5B20C2DF3DB601CC4B2022CEDDB4A48B3
:1035200000784A49087038E04C480078012818D1E2
:1035300000240FE0002509E04D4800EB4500005D48
:103540004B4901EB45010855681CC5B20C2DF3DB56
:10355000601CC4B2022CEDDB3C4800783B4908708B
:103560001BE03F480078012817D100240FE0002518
:1035700009E0404800EB4500005D3D4901EB450195
:103580000855681CC5B20C2DF3DB601CC4B2022CBC
:10359000EDDB2F4800782D4908700120102336A25A
:1035A00019460090402004F025FB0120102332A290
:1035B00020210090402004F01DFB012010232EA2AA
:1035C00030210090402004F015FB00201021022340
:1035D000CDE900101D4802782021602004F0B6FAE1
:1035E00001E013E009E004F0EBF90020194908704C
:1035F0001A4908701A49087018E01B4800787328A7
:1036000003D019480078782810D110E016480078C7
:103610006F2803D102201949087006E0124800788B
:103620002A2802D101200D49087000E044E700BFBC
:103630007CBD0000D7D4C9E80000000031000000C4
:103640003200000033000000A5000020A60000208A
:10365000A70000208F1000202A00000090100020FA
:10366000911000200100002002000020181400200A
:103670003614002054140020200000008E1000207A
:103680007CB504F027FB002003F0BEFF012396A2C7
:103690001021002004F018F80120102394A21946EC
:1036A0000090202004F0A6FA01238FA22021002000
:1036B00004F00AF8012010238EA220210090084671
:1036C00004F098FA002388A23021184603F0FCFF8A
:1036D0000020102388A230210090202004F08AFAD4
:1036E000012010210223CDE90010844802786020D7
:1036F00004F02CFA012010210223CDE900108048AB
:1037000002782021602004F021FA002010210223F9
:10371000CDE900107B4802783021602004F016FAD1
:1037200079480078012807D1102378A21946009023
:10373000402004F05FFA16E075480078012807D1B0
:10374000102372A220210090402004F053FA0AE0D6
:1037500070480078012806D110236CA23021009017
:10376000402004F047FA04F02BF9B9E004F0B2FA73
:10377000FDF72EFC684800780128F6D10020664944
:10378000087061480078012807D061480078012856
:1037900003D06048007801287DD1604800782A284D
:1037A0007AD159480078012818D100240FE000256B
:1037B00009E05B4800EB4500005D5A4901EB45011B
:1037C0000855681CC5B20C2DF3DB601CC4B2022C7A
:1037D000EDDB4A4800784B49087038E04C480078E7
:1037E000012818D100240FE0002509E04E4800EB25
:1037F0004500005D4B4901EB45010855681CC5B209
:103800000C2DF3DB601CC4B2022CEDDB3C480078CD
:103810003C4908701BE03F480078012817D100247C
:103820000FE0002509E03F4800EB4500005D3D4901
:1038300001EB45010855681CC5B20C2DF3DB601C7B
:10384000C4B2022CEDDB2F4800782E49087001200D
:10385000102336A219460090402004F0CBF9012035
:10386000102332A220210090402004F0C3F901204F
:1038700010232EA230210090402004F0BBF900203C
:1038800010210223CDE900101E480278302160206B
:1038900004F05CF901E013E009E004F091F8002085
:1038A000194908701A4908701A49087018E01B482D
:1038B0000078732803D019480078782810D110E0D8
:1038C000164800786F2803D103201949087006E0D4
:1038D000124800782A2802D101200E49087000E021
:1038E00044E700BF7CBD0000D7D4C9E80000000059
:1038F000310000003200000033000000A50000206D
:10390000A6000020A70000208F1000202A00000041
:1039100090100020911000200100002002000020E3
:103920001814002054140020361400202000000039
:103930008E1000201CB504F0CDF9002003F064FEC9
:10394000FA480078012877D1002451E0F84810F8AF
:10395000140070B9F64800EB4400407848B90120E3
:1039600061070090080E1023F2A2194604F042F9F4
:103970003CE0EF4800EB4400407870B1012804D0EF
:10398000032812D0042820D117E06107080E012374
:10399000EAA2102103F098FE18E06107080E012347
:1039A000E7A2102103F090FE10E06107080E01234A
:1039B000E4A2102103F088FE08E06107080E01234D
:1039C000E1A2102103F080FE00E000BF00BF012053
:1039D0001021CDE90010D64911F81420102101EB77
:1039E0004411C8B20123102104F0B0F8601CC4B225
:1039F000042CABDB042458E0CD4810F8140078B94F
:103A0000CB4800EB4400407850B90120211F490702
:103A10000090080E1023C7A2202104F0EBF842E02A
:103A2000C34800EB4400407880B1012805D003284A
:103A300015D0042825D11BE090E0211F4907080E6E
:103A40000123BEA2202103F03FFE1BE0211F4907F6
:103A5000080E0123BAA2202103F036FE12E0211F36
:103A60004907080E0123B7A2202103F02DFE09E02B
:103A7000211F4907080E0123B3A2202103F024FED1
:103A800000E000BF00BF01201021CDE90010A849CF
:103A900011F81420211F102303EB4111C8B2012398
:103AA000202104F053F8601CC4B2082CA4DB0824C5
:103AB00051E09F4810F8140070B99D4800EB440095
:103AC000407848B9012061070090080E102399A2A0
:103AD000302104F08FF83CE0954800EB440040783A
:103AE00070B1012804D0032812D0042820D117E097
:103AF0006107080E012391A2302103F0E5FD18E0D3
:103B00006107080E01238EA2302103F0DDFD10E0D5
:103B10006107080E01238BA2302103F0D5FD08E0D8
:103B20006107080E012388A2302103F0CDFD00E0DB
:103B300000BF00BF01201021CDE900107C4911F821
:103B40001420102303EB4411C8B20123302103F0E9
:103B5000FDFF601CC4B20C2CABDB3CE27348007868
:103B6000022877D1002451E0784810F8140070B989
:103B7000764800EB4400407848B901206107009086
:103B8000080E10236BA2194604F034F83CE06F488D
:103B900000EB4400407870B1012804D0032812D013
:103BA000042820D117E06107080E012363A2102129
:103BB00003F08AFD18E06107080E012360A21021BE
:103BC00003F082FD10E06107080E01235DA21021C1
:103BD00003F07AFD08E06107080E01235AA21021C4
:103BE00003F072FD00E000BF00BF01201021CDE90D
:103BF0000010564911F81420102101EB4411C8B2ED
:103C00000123102103F0A2FF601CC4B2042CABDB23
:103C1000042458E04D4810F8140078B94B4800EBE4
:103C20004400407850B90120211F49070090080E38
:103C3000102340A2202103F0DDFF42E0434800EBC7
:103C40004400407880B1012805D0032815D004280D
:103C500025D11BE0A4E0211F4907080E012337A24C
:103C6000202103F031FD1BE0211F4907080E01232D
:103C700033A2202103F028FD12E0211F4907080E7E
:103C8000012330A2202103F01FFD09E0211F490775
:103C9000080E01232CA2202103F016FD00E000BF36
:103CA00000BF01201021CDE90010284911F814208F
:103CB000211F102303EB4111C8B20123202103F07F
:103CC00045FF601CC4B2082CA4DB082465E01F4833
:103CD00010F8140070B91D4800EB4400407848B952
:103CE000012061070090080E102312A2302103F07A
:103CF00081FF50E0154800EB4400407870B1012886
:103D000004D0032824D0042834D12AE06107080E07
:103D100001230AA2302103F0D7FC2CE06107080E32
:103D2000012307A2302103F0CFFC24E08E100020F5
:103D3000181400202020202000000000C7B0000040
:103D4000BAF30000D7F30000D3D2000036140020ED
:103D50006107080E0123AFF21402302103F0B4FC16
:103D600009E06107080E0123AFF22402302103F0BD
:103D7000ABFC00E000BF00BF01201021CDE9001026
:103D8000BA4911F81420102303EB4411C8B20123DF
:103D9000302103F0DBFE601CC4B20C2C97DB1AE16F
:103DA000B34800780328FAD1002456E0B14810F84F
:103DB000140078B9AF4800EB4400407850B90120B6
:103DC00061070090080E1023AFF29802194603F025
:103DD00011FF40E0A74800EB4400407878B101288B
:103DE00004D0032814D0042824D11AE06107080E57
:103DF0000123AFF2B802102103F066FC1BE061075B
:103E0000080E0123AFF2C802102103F05DFC12E09E
:103E10006107080E0123AFF2D402102103F054FC15
:103E200009E06107080E0123AFF2E402102103F05C
:103E30004BFC00E000BF00BF01201021CDE90010C5
:103E40008C4911F81420102101EB4411C8B2012350
:103E5000102103F07BFE601CC4B2042CA6DB0424FA
:103E60005CE0844810F8140080B9824800EB4400FC
:103E7000407858B90120211F49070090080E1023EF
:103E8000AFF25012202103F0B5FE45E0794800EB77
:103E90004400407880B1012804D0032816D00428BB
:103EA00028D11DE0211F4907080E0123AFF274122B
:103EB000202103F009FC1EE0211F4907080E012301
:103EC000AFF28412202103F0FFFB14E0211F490709
:103ED000080E0123AFF29412202103F0F5FB0AE053
:103EE000211F4907080E0123AFF2A412202103F07D
:103EF000EBFB00E000BF00BF01201021CDE9001066
:103F00005C4911F81420211F102303EB4111C8B2A2
:103F10000123202103F01AFE601CC4B2082CA0DB90
:103F2000082456E0534810F8140078B9514800EBC3
:103F30004400407850B9012061070090080E10231A
:103F4000AFF21022302103F055FE40E0494800EB6B
:103F50004400407878B1012804D0032814D0042804
:103F600024D11AE06107080E0123AFF2302230217C
:103F700003F0AAFB1BE06107080E0123AFF2402209
:103F8000302103F0A1FB12E06107080E0123AFF21C
:103F90004C22302103F098FB09E06107080E012351
:103FA000AFF25C22302103F08FFB00E000BF00BFC6
:103FB00001201021CDE900102E4911F81420102302
:103FC00003EB4411C8B20123302103F0BFFD601C94
:103FD000C4B20C2CA6DB03F0F3FC002442E003F097
:103FE00079FEFCF7F5FF2448007801283AD100203B
:103FF00021490870214800786F2828D1002420A288
:1040000006210A2001F052FC19480078012805D148
:104010001C4801781C4800F0A7F912E01448007809
:10402000022805D119480178104800F09DF908E0F0
:104030000F480078032804D1154801780D4800F096
:1040400093F914A206210A2001F030FC0AE00B4883
:104050000078792805D1601CC4B2022C02DB002450
:1040600001E000E0BBE700BF1CBD000036140020EB
:104070008E100020541400200100002002000020B7
:10408000676F0000A500002018140020A600002083
:10409000A7000020202000002DE9F05F04460D4617
:1040A00016460AAF97E880074FF0000B904806606D
:1040B00090480570012C4DD100BF01208C4908604B
:1040C00003F022FF00BF8C48B0F90000844203DDFA
:1040D0008A4800780028F6D1012004F079FF884949
:1040E00008700846007838B900BF8548007818B9CC
:1040F000824800780028F8D181480078012802D150
:104100000AF056F8ECE07E48007803280DD107E06D
:104110007B480078012803D17848007800B100E09E
:10412000F6E700BF0AF044F8DAE0754800780428A2
:104130000DD107E072480078012803D16F4800785C
:1041400000B100E0F6E700BF0AF032F8C8E00AF07C
:104150002FF8C5E0022C5AD102206549086003F00F
:10416000D3FE00BF601E6449B1F90010884203DD30
:10417000624800780028F5D101205D49086000BF41
:104180005D48B0F90000844203DD5C4800780028F7
:10419000F6D1012004F01CFF594908700846007848
:1041A00038B900BF5648007818B95448007800283C
:1041B000F8D153480078012802D109F0F9FF8FE0C7
:1041C0004F48007803280DD107E04D4800780128BA
:1041D00003D14A48007800B100E0F6E700BF09F0DB
:1041E000E7FF7DE04648007804280DD107E0444809
:1041F0000078012803D14148007800B100E0F6E7DB
:1042000000BF09F0D5FF6BE009F0D2FF68E0032C96
:1042100066DB03203649086003F076FE00BF3648AF
:10422000B0F90000012803DA344800780028F6D1FC
:1042300002202F49086000BF601E2F49B1F900100D
:10424000884203DD2D4800780028F5D10120284957
:10425000086000BF2848B0F90000844203DD274809
:1042600000780028F6D1012004F0B2FE244908703D
:104270000846007838B900BF2148007818B91F48AF
:1042800000780028F8D11E480078012802D109F0F2
:104290008FFF25E01A48007803280DD107E0184861
:1042A0000078012803D11548007800B100E0F6E756
:1042B00000BF09F07DFF13E01148007804280DD1FC
:1042C00007E00F480078012803D10C48007800B1BE
:1042D00000E0F6E700BF09F06BFF01E009F068FFBE
:1042E00000200549088008F0A3FDBDE8F09F00000C
:1042F0008C0000203D0000203A0000205C000020DF
:104300003C0000202DE9FF4106460C4617464FF0C1
:104310000008092E26D00425042D00DB00BF032C45
:1043200001D0042C07D10A2009F022F800212046F0
:1043300000F062F90124052C01D0062C04D1B84606
:104340004146204600F028F800200090019002909D
:1043500003462A46214603903046FFF79DFE322051
:1043600009F006F8BDE8FF8170B505460E46002449
:1043700000BF0BE005EB44031A7905EB44035978C1
:1043800015F81400FFF7BEFF601CC4B2B442F1DBA5
:1043900009F00EFF70BD00002DE9F04105460E4604
:1043A0004CF2503006FB00F4052D38D109F000FF27
:1043B00023E00120574908604FF4EB71564806F09E
:1043C000E0FD00205549C1F880014FF4C371524807
:1043D00006F0D5FD01204F49091D08604FF4C37157
:1043E0004D4806F0D0FD00204C49C1F88C014FF437
:1043F000C371494806F0C9FD641E052CD9D20021BD
:10440000454806F0C2FD0021434806F0BCFD0021EE
:10441000414806F0B4FD00213F4806F0B2FD062DEC
:1044200074D1002701203E49087023E0002039495B
:1044300008604FF4EB71384806F0A3FD01203749BE
:10444000C1F880014FF4C371334806F098FD002095
:104450003049091D08604FF4C3712F4806F093FDE1
:1044600001202E49C1F88C014FF4C3712A4806F08F
:104470008CFD641E052CD9D20021274806F085FD4D
:104480000021254806F07FFD0021234806F077FD36
:104490000021214806F075FD322008F069FF1E2E2C
:1044A0002EDB00201B4908601C49C1F88001012057
:1044B0001849091D08601949C1F88C014FF4C371EE
:1044C000154806F05EFD4FF4C371134806F057FD22
:1044D0004FF4C371104806F056FD4FF4C3710E48F7
:1044E00006F053FDC82008F043FF012004F070FDE2
:1044F000C7B203E0012004F06BFDC7B2002FF9D072
:1045000000200749087009F053FE00BF09F050FE73
:10451000BDE8F081848122420034014000802242C3
:10452000380000202DE9F04104460D4617461E468E
:1045300001202B4908602B48057003F0E5FC012C95
:104540003CDD00BF601E2849B1F90010884203DD40
:10455000264800780028F5D1012004F039FD2449CF
:1045600008700846007838B900BF2148007818B9AB
:104570001E4800780028F8D11D48007801281DD079
:104580001B48007803280AD107E019480078012861
:1045900003D11648007800B100E0F6E70EE01448B9
:1045A000007804280AD107E011480078012803D1D7
:1045B0000E48007800B100E0F6E700BF012008498E
:1045C000086000200B49086000BF0A480068B0423C
:1045D000FBD300200449088008F02AFCBDE8F081E4
:1045E0008C0000203D0000203A0000205C000020EC
:1045F0003C000020400000202DE9F04104460E461A
:10460000042099490860032C4BD10027012240F275
:104610002551964806F0E9FE0121944806F0A2FED5
:1046200000209349086000BF002191480068FCF712
:104630007DF8F9D08E4807688E493846FBF7B8FDFB
:1046400007468D493846FCF77BF804D88A49384636
:10465000FBF700FE074602208849087003F054FC6F
:1046600000BF834801683846FBF7F4FD8046FBF73E
:10467000DDFF051E01DB284600E068420528F0DA70
:1046800000207F490880002240F22551774806F03B
:10469000ACFE0021754806F065FE002074490860F4
:1046A00000BF042C4BD10027012240F225516F4856
:1046B00006F09BFE01216D4806F054FE00216C4877
:1046C0000068FCF733F800BF4FF00001684800684D
:1046D000FCF72CF8F8D06648076866493846FBF7BF
:1046E000B9FD074600213846FCF720F804D8624996
:1046F0003846FBF75DFD074603206049087003F06C
:1047000003FC00BF5A4801683846FBF7A3FD80460A
:10471000FBF78CFF051E01DB284600E068420528F8
:10472000F0DA002240F22551504806F05EFE0021EA
:104730004E4806F017FE00204D4908608BE0052C1E
:1047400019D102204D49087003F0DEFB00204D49CD
:10475000088001204A49088000BF4A49B1F9000099
:10476000002801DB014600E041426429F5DB00201E
:10477000434908806FE0062C1AD102203F49087097
:1047800003F0C2FB00203F49088001203C4908801B
:1047900000BF3C49B1F90000002801DB014600E000
:1047A0004142B1F5C87FF4DB00203549088052E072
:1047B000072C19D103203149087003F0A5FB002014
:1047C0003049088001202E49088000BF2D49B1F9E9
:1047D0000000002801DB014600E04142B429F5DB7E
:1047E00000202749088036E0082C19D102202349EF
:1047F000087003F089FB002022490880012020492D
:10480000088000BF1F49B1F90000002801DB014604
:1048100000E041426429F5DB0020194908801AE0D4
:10482000092C18D103201549087003F06DFB0020F6
:104830001449088001201249088000BF1149B1F9CC
:104840000000002801DB014600E041426429F5DB5D
:1048500000200B49088008F0EBFA09F0A9FC0020C1
:1048600009490880BDE8F0818C0000200038014033
:10487000A01200200000BA420000B4433D00002016
:1048800044000020460000203A0000202DE9FF5F90
:1048900006460F4690461C46DDE911ABDDF8409018
:1048A0000E9D052D0EDA6EB113988DE8000E039063
:1048B0004246394630460F9BFFF7EEFB642008F076
:1048C00057FD0AE0052D08DB2B46424639463046A7
:1048D000FFF728FE642008F04BFD032C01D0042CC8
:1048E00006D139462046FFF787FE642008F040FDD8
:1048F000BDE8FF9F21B1026842F00102026004E0BE
:1049000002684FF6FE731A400260704701684FF666
:10491000FE72114001600021016041608160C16050
:104920004B49884208D14A490839496841F00F018A
:10493000474A083A51608AE045491431884208D113
:1049400043490839496841F0F001414A083A516049
:104950007DE03F492831884208D13D4908394968FE
:1049600041F470613A4A083A516070E038493C318C
:10497000884208D136490839496841F47041344ABF
:10498000083A516063E032495031884208D13049D9
:104990000839496841F470212D4A083A516056E0BF
:1049A0002B496431884208D129490839496841F4C2
:1049B0007001274A083A516049E025497831884218
:1049C00008D123490839496841F07061204A083A02
:1049D00051603CE01F49884206D1011F096841F03F
:1049E0000F01021F116032E01A491431884208D1C8
:1049F0001849091F096841F0F001164A121F116099
:104A000025E014492831884208D11249091F096854
:104A100041F470610F4A121F116018E00D493C31DA
:104A2000884208D10B49091F096841F47041094ABD
:104A3000121F11600BE007495031884207D1054928
:104A4000091F096841F47021024A121F1160704762
:104A5000080002400804024010B50022026847F630
:104A6000F0739A430C6A8B6823430C6923434C69A7
:104A700023438C692343CC6923434C6A23438C6AC8
:104A800023431A430260CB6843600B6883604B6822
:104A9000C36010BD1CB503F01DF9002002F0B4FD89
:104AA0000020244948231822CDE9001013210220B8
:104AB00002F086FE0120204948231822CDE900108B
:104AC00013211A2002F07CFE01201C4948231822E1
:104AD000CDE900101321322002F072FE01201849A6
:104AE00048231822CDE9001013214A2002F068FE65
:104AF0000120144948231822CDE900101321622017
:104B000002F05EFE012310A22F21084602F0DCFD18
:104B100002F056FF0BE003F0DDF8FCF759FA0C4801
:104B20000078012803D100200949087000E0F2E76D
:104B300000BF1CBDFE1F0108662101088622010876
:104B40003E220108F6210108C9E8D6C30000000092
:104B500001000020704700001CB547488078474995
:104B6000887045488078401EC1B244484173407BFC
:104B7000012802DC0121414841733F4881783F48C8
:104B800001763D488078401EC1B23C4880F8231031
:104B900090F82300012803DC0121384880F8231015
:104BA00003F098F8002002F02FFD002334A210211A
:104BB000184602F089FD0020102333A21946009008
:104BC000202003F017F801232DA22021002002F05D
:104BD0007BFD012010232DA220210090084603F028
:104BE00009F801232AA23021002002F06DFD0120E6
:104BF000102329A230210090202002F0FBFF00208A
:104C00001021CDE900101C48807825490A5C022358
:104C10001021602002F09AFF01201021CDE9001040
:104C2000164880781E490A5C02232021602002F089
:104C30008DFF02F0C5FE1CE003F04CF8FCF7C8F94C
:104C400018480078012814D1002016490870164829
:104C5000007879280CD115A206210A2000F026FE42
:104C600008F0ECF812A206210A2000F01FFE00E076
:104C700000E0E1E700BF1CBDA800002016010020F5
:104C8000C2B7CFDF00000000357830003578320041
:104C9000D1ADBCA3000000005354313838000000EF
:104CA000900000200100002002000020676F00003B
:104CB000202000002DE9F04706460F4690461C468E
:104CC000DDF82090E11704EB5171C910A4EBC1018C
:104CD00031B92046E11704EB5171C1F3C70506E075
:104CE0002046E11704EB5171C910491CCDB23D4675
:104CF00011E02946304600F023FFB24607E019F8DC
:104D0000010B00F05FFF0AF1010000F0FF0AC2454D
:104D1000F5DD681CC5B2A542EBDDBDE8F0870000FB
:104D2000FEB504460E46002001900290002E33D1BD
:104D300040F27620844200DC0446A4F2762084B25D
:104D40000A2094FBF0F084B2152C00DD1524002518
:104D500009E0042105F10800254A115420212030E2
:104D60001154681CC5B2152DF3DB00250AE0F420B0
:104D7000C5F11C011E4A50542F20C5F13C0150546E
:104D8000681CC5B2A542F2DB194801237F2200212D
:104D900000906020FFF78EFF012E28D100BF642015
:104DA00094FBF0F00A2190FBF1F201FB120030308D
:104DB000C0B28DF804002E208DF805000A2094FB67
:104DC000F0F090FBF1F201FB12003030C0B28DF830
:104DD00006000A2094FBF0F100FB11403030C0B215
:104DE0008DF8070001AA0021602000F065FEFEBDDD
:104DF000F20800201CB502F06DFF002002F004FC58
:104E00000120244948231822CDE900101321022053
:104E100002F0D6FC0120204948231822CDE90010D9
:104E200013211A2002F0CCFC01201C49482318222F
:104E3000CDE900101321322002F0C2FC01201849F4
:104E400048231822CDE9001013214A2002F0B8FCB3
:104E50000020144948231822CDE9001013216220B4
:104E600002F0AEFC012310A22F211F2002F02CFC27
:104E700002F0A6FD0BE002F02DFFFCF7A9F80D48AB
:104E80000078012803D100200A49087000E0F2E709
:104E900000BF1CBDFE1F0108662101088622010813
:104EA0003E220108F6210108B6E6BBFAB5F7BDDAE5
:104EB000000000000100002008B502F00BFF0020F8
:104EC00002F0A2FB0120102334A21946009000201A
:104ED00002F090FE012332A21021084602F0F4FBFA
:104EE0000120102330A219460090402002F082FEDB
:104EF00001232EA21021502002F0E6FB01201023F6
:104F00002CA220210090002002F074FE01232AA28E
:104F10002021102002F0D8FB0120102328A22021FC
:104F20000090402002F066FE012326A2202150209E
:104F300002F0CAFB0120102324A23021009000209F
:104F400002F058FE012322A23021102002F0BCFB07
:104F500002F036FD21E02048007880B901201023BE
:104F60001EA230210090402002F044FE012315A231
:104F70003021502002F0A8FB02F022FD09E00120C0
:104F8000102317A230210090402002F033FE02F0DF
:104F900017FD02F09FFEFCF71BF8DCE7312E000046
:104FA000D5C5BFAA00000000322E0000C8FDBDC755
:104FB00000000000332E0000C9ECD6B10000000054
:104FC000342E0000CAD5BBD8000000004F2E0000D0
:104FD000C9E8D6C300000000791200207A2E000034
:104FE000202020202020000030B5044604254FF466
:104FF000302000F06FF80546042D17D10C480069E9
:1050000040F002000A49086108464461006940F026
:10501000400008614FF4302000F05CF80546044879
:10502000006941F6FD71084001490861284630BD1C
:105030000020024004200B49C96801F0010109B1B8
:1050400001200EE00749C96801F0040109B10220FE
:1050500007E00449C96801F0100109B1032000E02C
:1050600004207047002002400348006940F080009F
:1050700001490861704700000020024070B50446F5
:105080000D460426F00200F025F80646042E11D144
:105090000948006940F00100074908612580F002D5
:1050A00000F018F806460448006941F6FE71084011
:1050B00001490861304670BD0020024002480349A2
:1050C000486003484860704723016745002002405C
:1050D000AB89EFCD00B502460423FFF7ABFF0346D3
:1050E00003E0FFF7A7FF0346521E012B01D1002A60
:1050F000F7D102B90523184600BD2DE9F04102465B
:1051000000250026002000230024002791F803C07A
:105110000CF00F0591F803C00CF0100CBCF1000F5F
:1051200003D091F802C04CEA050591F800C0BCF12B
:10513000000F31D0146800202BE04FF0010C0CFA66
:1051400000F3B1F800C00CEA03069E4220D18300B0
:105150004FF00F0C0CFA03F7BC4305FA03FC4CEAC2
:10516000040491F803C0BCF1280F06D14FF0010CE4
:105170000CFA00FCC2F814C00AE091F803C0BCF1BC
:10518000480F05D14FF0010C0CFA00FCC2F810C01A
:10519000401C0828D1D31460B1F800C0BCF1FF0F47
:1051A00034DD546800202EE000F1080C4FF00108B7
:1051B00008FA0CF3B1F800C00CEA03069E4221D1B4
:1051C00083004FF00F0C0CFA03F7BC4305FA03FC05
:1051D0004CEA040491F803C0BCF1280F05D100F19A
:1051E000080C08FA0CF8C2F8148091F803C0BCF15E
:1051F000480F07D100F1080C4FF0010808FA0CF82D
:10520000C2F81080401C0828CED35460BDE8F0815D
:10521000F0B50A46002300240021002500F00046D6
:10522000B6F1004F02D11D4EF16901E01B4E7168CD
:10523000C0F3034583B200F44016B6F5401F08D111
:1052400021F07061154E766826F07066134F7E600F
:1052500012E000F48016B6F5801F06D1032606FA88
:1052600005F4A14341F0706106E0460D360103FAF2
:1052700006F6B14341F0706122B1460D360103FAE2
:1052800006F6314300F00046B6F1004F02D1034E5E
:10529000F16101E0014E7160F0BD000000000140CD
:1052A000416170470161704710B504460723012230
:1052B00021460948FBF72EFD01210748FBF78BFD2E
:1052C00000BF02210448FBF7E9FC0028F9D002489E
:1052D000FBF7E0FC10BD0000003C01402DE9F0416F
:1052E00007460C460025002605E03846FFF7DCFFA0
:1052F0000544701CC6B2A642F7DBB5FBF4F080B2E1
:10530000BDE8F08110B5164A16A1174802F07AFEE2
:1053100016480021016081808171154801608180FB
:10532000817114480160416001811348016041604E
:10533000816015211148FAF730FF15211048FAF75E
:105340002CFF00200F4908700F4908700F490870A2
:105350000F4908700F4908700F49087010BD000010
:105360000D0F0020257300000044004022000020A3
:1053700029000020190000203413002042130020CF
:1053800057130020180000201700002020000020E4
:1053900021000020300000203100002000BFFEE787
:1053A00000B587B00121084602F070FE01210D20F2
:1053B00002F08CFE01218748FFF72AFF0121864871
:1053C000FFF726FF4FF40040ADF8180004208DF8D9
:1053D0001B0003208DF81A0006A98048FFF78DFEF8
:1053E0000820ADF8180004208DF81B0003208DF86C
:1053F0001A0006A97A48FFF780FE4FF0804005F0BA
:10540000D5FA4FF6FF70ADF810000020ADF80C0093
:10541000ADF81200ADF80E0003A94FF0804005F082
:10542000E3FD00231A4603214FF0804005F0B2FB54
:10543000684605F037FC0620ADF8080069464FF0D5
:10544000804005F0D9FB00204FF080418884012185
:10545000880705F090FA0121022002F017FE0121D1
:10546000042002F033FEC020ADF8180004208DF8AF
:105470001B0003208DF81A0006A95848FFF73DFECF
:10548000584805F093FA4FF6FF70ADF81000002071
:10549000ADF80C00ADF81200ADF80E0003A95148AC
:1054A00005F0A2FD00231A4603214E4805F072FBC9
:1054B000684605F0F7FB0620ADF808006946494844
:1054C00005F09AFB00204749243108800121454816
:1054D00005F051FA0121042002F0D8FD0121082035
:1054E00002F0F4FDC020ADF8180004208DF81B0078
:1054F00003208DF81A0006A93948FFF7FEFD3A4847
:1055000005F054FA4FF6FF70ADF810000020ADF82A
:105510000C00ADF81200ADF80E0003A9324805F0FA
:1055200063FD00231A4603212F4805F033FB68462C
:1055300005F0B8FB0620ADF8080069462A4805F0DA
:105540005BFB00202849243108800121264805F012
:1055500012FA0121082002F099FD0121042002F035
:10556000B5FD0320ADF8180004208DF81B000320C2
:105570008DF81A0006A91948FFF7BFFD1B4805F072
:1055800015FA4FF6FF70ADF810000020ADF80C00D2
:10559000ADF81200ADF80E0003A9144805F024FD83
:1055A00000231A460321114805F0F4FA684605F075
:1055B00079FB0620ADF8080069460C4805F01CFB95
:1055C00000200A49243108800121084805F0D3F958
:1055D00007B000BD000230000003180000080140C1
:1055E000000C01400004004000080040000C004096
:1055F00030B589B005460C460121C80202F066FDAF
:105600000121402002F062FD01213048FFF700FE39
:105610004FF42050ADF8200018208DF8230003200F
:105620008DF8220008A92A48FFF767FDADF8185049
:10563000ADF814400020ADF81A00ADF8160005A929
:10564000244805F0D1FC6020ADF804000120ADF83D
:1056500006000020ADF80A00ADF80C000420ADF8FB
:1056600008000020ADF80E004FF48070ADF8100077
:105670000020ADF8120001A9164805F025FB01A98C
:10568000144805F077FB0821124805F0C5FB01A975
:10569000104805F0CFFB08210E4805F01BFC012146
:1056A0000C4805F074F901210A4805F055F900216C
:1056B000084805F066FC0021064805F064FC00215E
:1056C000044805F058F909B030BD0000C0001600CC
:1056D00000180140002C014030B589B005460C4649
:1056E0000121480302F0F2FC0121102002F0EEFC3F
:1056F0004FF47070ADF8200018208DF823000320BF
:105700008DF8220008A93348FFF7F7FCADF81850D0
:10571000ADF814400020ADF81A00ADF8160005A948
:105720002D4805F061FC6020ADF804000120ADF8C3
:1057300006000020ADF80A00ADF80C000420ADF81A
:1057400008000020ADF80E004FF48070ADF8100096
:105750000020ADF8120001A91F4805F0B5FA082194
:105760001D4805F0FDFA01A91B4805F003FB0821BF
:10577000194805F051FB01A9174805F05BFB08210A
:10578000154805F0A7FB01A9134805F0ADFB08215A
:10579000114805F0E7FB01210F4805F0F8F8012159
:1057A0000D4805F0D9F801210B4805F0E4F8002177
:1057B000094805F0E4FB0021074805F0E2FB002161
:1057C000054805F0E0FB0021034805F0DEFB09B0C9
:1057D00030BD000000100140003401401CB502F053
:1057E00079FA002001F010FF0120264948231822F1
:1057F000CDE900101321022001F0E2FF0020224930
:1058000048231822CDE9001013211A2001F0D8FFF7
:1058100001201E4948231822CDE90010132132200F
:1058200001F0CEFF01201A4948231822CDE90010CB
:1058300013214A2001F0C4FF0120164948231822F1
:10584000CDE900101321622001F0BAFF012312A25A
:105850002F21084601F038FF02F0B2F810A006F040
:10586000C3FD0BE002F036FAFBF7B2FB0E480078FE
:10587000012803D100200C49087000E0F2E700BFC6
:105880001CBD0000FE1F01086621010886220108D8
:105890003E220108F6210108CBABB3B500000000A1
:1058A00044414E0D0A00000001000020F8B50446F6
:1058B0000F461646002535E0705D7F281BDD705DC4
:1058C0008DF80000681C305C8DF8010000208DF818
:1058D00002007620B0EBC40F02DA0024B81CC7B275
:1058E000E106080E6A46394600F066F8A01CC4B20C
:1058F000A81CC5B216E0705D8DF8000000208DF880
:1059000001007820B0EBC40F02DA0024B81CC7B243
:10591000E106080E6A46394600F0CEF8601CC4B2B3
:10592000681CC5B2705D0028C6D1F8BD70B50024F2
:1059300015E004F1B001C8B200F014F9012000F044
:1059400011F9102000F00EF9002504E0002000F00D
:1059500039F9681CC5B2802DF8DB601CC4B2082C74
:10596000E7DB70BD70B5002415E004F1B001C8B2EA
:1059700000F0F8F8012000F0F5F8102000F0F2F83F
:10598000002504E0002000F01DF9681CC5B2802D40
:10599000F8DB601CC4B2022CE7DB70BD09E043F207
:1059A000264100BF0A00A1F1010399B2FAD1421EBB
:1059B00090B20028F3D170472DE9F04781460F4699
:1059C00090460024002501266BE00024012611E00A
:1059D0003748005D18F80510884209D13449601C29
:1059E000095C681C18F80000814201D1260105E01D
:1059F000A01CC4B22E48005D7F28E9DC00BFB9F1CD
:105A0000760F03DD4FF00009B81CC7B2394648468F
:105A100000F096F8012E21D03946484600F090F863
:105A2000002407E02349885D00F0CCF8701C86B2A2
:105A3000601CC4B2102CF5DB781CC1B2484600F0E3
:105A40007FF8002407E01B49885D00F0BBF8701C5C
:105A500086B2601CC4B2102CF5DB1CE0681CC5B219
:105A60003946484600F06CF8002404E0002000F0BD
:105A7000A9F8601CC4B2102CF8DB781CC1B24846EF
:105A800000F05EF8002404E0002000F09BF8601CA9
:105A9000C4B2102CF8DB09F1100000F0FF09A81CBB
:105AA000C5B218F8050000288FD1BDE8F0870000C6
:105AB0004CE6000859E700082DE9F04706460F4676
:105AC000904600250024A14631E018F8090020384E
:105AD000C5B2782E02DD0026781CC7B239463046A2
