S3150800000028380020450100080D5D000851530008F6
S31508000010315C0008AD150008FBB3000800000000BD
S315080000200000000000000000000000006B820008CD
S31508000030594B000800000000E57E0008719C000886
S315080000405F0100085F0100085F0100085F01000802
S315080000505F0100085F0100085F0100085F010008F2
S315080000605F0100085F0100085F0100085F010008E2
S315080000705F0100085F0100085F0100085F010008D2
S315080000805F0100085F0100085F0100085F010008C2
S315080000905F0100085F0100085F0100085F010008B2
S315080000A05F0100085F0100085F0100085F010008A2
S315080000B05F0100085F0100085F0100085F01000892
S315080000C05F0100085F0100085F0100085F01000882
S315080000D05F01000829B0000811B100089DB10008A9
S315080000E05F0100085F0100085F0100085F01000862
S315080000F05F0100085F0100085F0100085F01000852
S315080001005F0100085F0100085F0100085F01000841
S315080001105F0100085F010008159F000899A0000804
S315080001205F0100085F0100085F0100085F01000821
S31508000130DFF80CD000F04AFC0048004799C80008D0
S31508000140283800200648804706480047FEE7FEE7AD
S31508000150FEE7FEE7FEE7FEE7FEE7FEE7FEE7FEE769
S31508000160759C00083101000840EA01039B0703D08B
S3150800017009E008C9121F08C0042AFAD203E011F8D8
S31508000180013B00F8013B521EF9D27047D2B201E09A
S3150800019000F8012B491EFBD270470022F6E710B57E
S315080001A013460A4604461946FFF7F0FF204610BDD7
S315080001B0F0B480EA0102D40F4200B2EB410F02D23A
S315080001C00246084611464A0042D0C30DDDB2C1F3C5
S315080001D0C752AD1A202D35DAC1F3160141F40002D3
S315080001E004B15242C5F1200602FA06F12A4110442A
S315080001F0B3EBD05F23D0C4B1012DA0EBC35009DC0B
S31508000200F0BC4FF0004202EAC352DBB200F5000030
S3150800021000F021BB400000F1807000EBC350A0F154
S31508000220807040EAD170490009E0490841EAC07186
S31508000230A0EBC35000F50000400800EBC350F0BC2B
S3150800024000F000BB6142012202EB4101001BF6E708
S31508000250F0BC704781F00041AAE780F00040A7E7AC
S3150800026080EA010210B502F00043400022D04A009D
S315080002701FD0010E01EB1261C0F35600C2F35602FD
S3150800028040F4000042F40002A0FB022000047F397B
S31508000290140400D0401C50EA124001D44000491E04
S315080002A0C2B20C0604EBD010401C4008802A02D0CB
S315080002B003E0002010BD20F00100002900DA00202C
S315080002C0184310BD2DE9FE4F804681EA0300C00F92
S315080002D00C46009021F0004123F00045B8EB0200DF
S315080002E0A94105D24046214690461C460B46024681
S315080002F023F00040104347D0270DC7F30A00C3F385
S315080003000A510290401A019040286BDAC3F3130091
S3150800031040F4801B0098924620B10023D2EB030AD2
S3150800032063EB0B0B01985946C0F14002504600F0AA
S3150800033058FA06460D4650465946019A00F070FA94
S3150800034010EB08006141002487EA115284EAE7733A
S315080003501A4340D0009A62B3019A012A4FEA07521B
S3150800036015DC001B61EB02014FF0004202EA07525E
S31508000370CDE90042001C41F5801132462B4600F0BB
S31508000380A7FA03B0BDE8F08F40462146F9E7001BFF
S3150800039061EB0201001C41F5801300185B4120182F
S315080003A0A2F5001747EB030140EAD570B6196D416F
S315080003B011E06D084FEA360645EAC0754FEA07525E
S315080003C0001B61EB0201001C41F5801149084FEA48
S315080003D030000019514132462B4603B0BDE8F04FB4
S315080003E000F067BA0098012240000023D0EB020211
S315080003F063EBE073009821464FEAE074B8EB00001F
S3150800040061EB0401E9E783F000435BE781F0004113
S3150800041058E72DE9FE4F81EA030404F0004421F071
S31508000420004100944FF0000B23F0004350EA01040A
S315080004305ED052EA03045BD0C3F30A54C1F30A55EB
S315080004402C44A4F2F3340194A0FB0254C1F3130123
S3150800045041F48011C3F3130343F4801301FB0244F0
S3150800046000FB034E840A970A44EA815447EA8357F5
S31508000470A4FB076802958D0A05FB07854FEA932CAE
S3150800048004FB0C542705029D4FEA065847EA16371F
S31508000490B5EB08056EEB070C870E920E47EA811737
S315080004A042EA8312A7FB0201B6EB0B0164EB0004D8
S315080004B02B0D43EA0C335E1844EB1C50DA465146C2
S315080004C0E7FB0201C5F313044FEA0B3343EA14535F
S315080004D04FEA0432019C43EA0603A4F10C04029491
S315080004E0009CCDE900B400F0F3F903B0BDE8F08F45
S315080004F000200146F9E72DE9F04D81EA030404F0EE
S31508000500004B21F0004514464FF0000A23F0004145
S3150800051050EA050220D054EA01021DD0C5F30A5755
S315080005200246C5F31303C1F31300C1F30A5640F498
S31508000530801543F48013A7EB0608101BD64608F26D
S31508000540FD3873EB050002D308F1010801E09218A3
S315080005505B41B8F1000F03DA00200146BDE8F08DD3
S3150800056000204FF48011064684460EE0171B73EBF5
S31508000570050705D3121B63EB050306434CEA010C7A
S3150800058049084FEA300092185B4150EA0107EDD15D
S3150800059052EA030012D082EA040083EA05010843FE
S315080005A005D0101BAB4106D20122002306E000222B
S315080005B04FF0004302E06FF0010253101AEB0600F9
S315080005C04CEB085110EB0A0041EB0B01BDE8F04D6E
S315080005D000F06FB9C10F80EAE0700844CA07962395
S315080005E0002100F038B996230022114600F033B9ED
S315080005F00EB5C10F80EAE0700844CA07002140F230
S3150800060033438DE80E000A460B4600F061F903B045
S3150800061000BD0EB540F2334102910021CDE900112B
S315080006200A460B4600F054F903B000BD00F000423C
S3150800063020F00040C10DC0F3160040F400007F29E9
S3150800064001DA00207047962903DCC1F19601C840FB
S3150800065001E096398840002AF4D04042704770B5C8
S31508000660C1F30A5201F000450024C1F3130140F218
S31508000670FF3341F480119A4201DA002070BD40F23E
S3150800068033439A42A2F2334203DC524200F0B8F8EE
S3150800069000E090402C43F1D0404270BD00F000428B
S315080006A030F000400AD0C10D01F56071C0F31600A4
S315080006B042EA0151C208400711437047002001462B
S315080006C07047000030B5041E71F1000404DB4FF0DA
S315080006D00044404264EB0101141E73F1000405DB7B
S315080006E01C464FF00043524263EB0403994208BF8D
S315080006F0904230BD01F0004330B421F0004150EA89
S31508000700010206D00A0DA2F56072C1F31301002A90
S3150800071002DC30BC00207047440F44EAC104C10023
S31508000720E01830BC00EBC25000F08CB8002801DBA2
S31508000730C0F10040002901DBC1F100418142704748
S31508000740002801DBC0F10040002901DBC1F10041AE
S315080007508842704730B50B46014600202022012406
S3150800076009E021FA02F59D4205D303FA02F5491B71
S3150800077004FA02F52844151EA2F10102F1DC30BD87
S315080007802DE9F05F0546002092469B4688460646B8
S31508000790814640241BE0284641464746224600F04B
S315080007A02FF853465A46C01A914110D31146184697
S315080007B0224600F016F82D1A67EB01084F46224626
S315080007C00120002100F00DF817EB00094E41201E0C
S315080007D0A4F10104DFDC484631462A464346BDE813
S315080007E0F09F202A04DB203A00FA02F10020704725
S315080007F09140C2F1200320FA03F319439040704751
S31508000800202A04DB203A21FA02F00021704721FA57
S3150800081002F3D040C2F120029140084319467047BE
S31508000820202A06DBCB17203A41FA02F043EAE073A6
S3150800083006E041FA02F3D040C2F120029140084393
S31508000840194670470029A8BF7047401C490008BFD1
S3150800085020F00100704710B4B0FA80FC00FA0CF0E2
S3150800086050EA010404BF10BC704749B1CCF120041A
S3150800087021FA04F411FA0CF118BF012121430843A7
S31508000880A3EB0C01CB1D4FEA00614FEA102042BFD3
S31508000890002010BC704700EBC35010440029A4BFC9
S315080008A010BC7047401C490008BF20F0010010BC6E
S315080008B0704710B5141E73F1000408DA401C41F1A4
S315080008C0000192185B411A4301D120F0010010BDC6
S315080008D02DE9F04D92469B4611B1B1FA81F202E03C
S315080008E0B0FA80F220329046FFF77BFF04460F46A7
S315080008F040EA0A0041EA0B0153465A46084313D018
S31508000900114653EA010019D0C8F140025046FFF7D4
S3150800091077FF05460E46504659464246FFF761FFA1
S31508000920084305D0012004E020463946BDE8F08D8D
S315080009300020054346EAE0762C4337430A986305C8
S31508000940E40AA0EB08000022FD0A44EA47540A30EC
S3150800095002D500200146E9E7010510196941DDE9DC
S31508000960084500196941BDE8F04DA2E770B521F0C8
S31508000970004303430CD0C1F30A550024D5EB040504
S3150800098064EB0403D617AD1AB34102DB0020014617
S3150800099070BD201841EB025170BDC1F30A52C1F374
S315080009A0130140F2FF3341F480119A4202DA002023
S315080009B00146704740F233439A42A2F2334202DCC0
S315080009C05242FFF71DBFFFF70CBF0000064C074D4C
S315080009D006E0E06840F0010394E807009847103401
S315080009E0AC42F6D3FFF7A8FBE8250108082601085C
S315080009F02DE9F04D00231A461B1A8A4103DB002015
S31508000A000146BDE8F08DC1F30A52C1F3130141F462
S31508000A1080154FF0000BD10702D100186D41521E08
S31508000A200027044640F2FF11384601EB620A3E46AB
S31508000A308046024600204FF48011FFF7E1FEC219F6
S31508000A407141BB1846EB0100B4EB030C75EB000CC7
S31508000A5004D3E41A65EB000517460E46241908F177
S31508000A6001006D4180463428E3DDF91946EB06009E
S31508000A70091BA84103D24FF0FF32134601E00022BA
S31508000A8013461BEB070046EB0A51BDE8F04DFFF78E
S31508000A9010BF70B58C1810F8015B15F0070301D16B
S31508000AA010F8013B2A1106D110F8012B03E010F8C3
S31508000AB0016B01F8016B5B1EF9D12B0705D40023E6
S31508000AC0521E0DD401F8013BFAE710F8013BCB1A88
S31508000AD0921C03E013F8015B01F8015B521EF9D57D
S31508000AE0A142D8D3002070BD21B1826842F001022C
S31508000AF0826003E0826822F001028260704721B1B9
S31508000B00826842F48072826003E0826822F480720E
S31508000B108260704700B58BB00121084607F018FAC5
S31508000B20114803F0F5FE1148009011480190002085
S31508000B300290012003900020049080200590400038
S31508000B400690800007902020089000020990002057
S31508000B500A906946044803F081FF0121024803F020
S31508000B60CBFE0BB000BD0000080002404C2401403B
S31508000B70AC13002000B587B0FFF7CCFF01214FF476
S31508000B80047007F015FA4FF4004007F0D5F9012074
S31508000B90ADF8040003208DF8060000208DF8070044
S31508000BA001A91E4804F0ABFA002002908DF80C004B
S31508000BB001208DF80D004FF4602004900020059068
S31508000BC001208DF8180002A9154800F07BF80523C6
S31508000BD001220A21124800F09DF801211048FFF76A
S31508000BE08EFF01210E48FFF77FFF0D4800F0EEF853
S31508000BF000BF0B4800F05BF80028FAD1084800F05F
S31508000C00F5F800BF064800F03BF80028FAD10121A4
S31508000C10034800F0E0F807B000BD000000100140EE
S31508000C200024014010B504461248844208D1012127
S31508000C30401507F0CDF90021601507F0C9F917E04E
S31508000C400D48844208D10121001507F0C1F9002199
S31508000C50201507F0BDF90BE00848844208D10121A8
S31508000C60C80307F0B5F900214FF4004007F0B0F9C2
S31508000C7010BD00000024014000280140003C01404E
S31508000C80014600208A6802F004020AB1012000E049
S31508000C90002070470146C86C80B2704702460020A3
S31508000CA013680B400BB1012000E000207047014695
S31508000CB000208A6802F008020AB1012000E000203C
S31508000CC07047000030B502460020002350680F4CDC
S31508000CD020400D790C6844EA05242043506090684A
S31508000CE00B4C2040D1E902542C434D7944EA450483
S31508000CF020439060D06A20F470000C7C641EE4B235
S31508000D00234340EA0350D06230BD0000FFFEF0FFE7
S31508000D10FDF7F1FFF0B504460D4600200021092D28
S31508000D2011DDE068A5F10A0606EB4607072606FA6E
S31508000D3007F18843A5F10A0606EB460603FA06F10B
S31508000D400843E0600CE0206905EB4507072606FA2C
S31508000D5007F1884305EB450603FA06F108432061C7
S31508000D60072A0FDA606B561E06EB86071F2606FA59
S31508000D7007F18843561E06EB860605FA06F1084370
S31508000D80606322E00D2A0FDA206BD61F06EB860772
S31508000D901F2606FA07F18843D61F06EB860605FACC
S31508000DA006F10843206310E0E06AA2F10D0606EB9F
S31508000DB086071F2606FA07F18843A2F10D0606EBF9
S31508000DC0860605FA06F10843E062F0BD816841F03F
S31508000DD008018160704721B1826842F4A0028260EE
S31508000DE003E0826822F4A00282607047816841F0BD
S31508000DF0040181607047014640F65E10814205DDB8
S31508000E0040F6C210814201DA2A20704740F60E30B9
S31508000E10814205DD40F67230814201DA2320F4E78B
S31508000E2040F65160814205DD40F6B560814201DA3F
S31508000E307920EAE740F6B340814205DD40F61750CF
S31508000E40814201DA7820E0E740F67750814205DDF5
S31508000E5040F6DB50814201DA7A20D6E740F61E706A
S31508000E60814205DD40F68270814201DA6F20CCE7C7
S31508000E7040F6F830814205DD40F65C40814201DAF1
S31508000E807320C2E740F63220814205DD40F69620FF
S31508000E90814201DA3020B8E740F6A300814205DD39
S31508000EA040F60710814201DA3920AEE740F2356094
S31508000EB0814204DDB1F5D36F01DC3620A5E740F2A7
S31508000EC0CA30814205DD40F22E40814201DA3320E4
S31508000ED09BE7B1F53F7F04DDB1F5587F01DA322093
S31508000EE093E740F28950814205DD40F2ED50814298
S31508000EF001DA352089E740F2DB70814205DD40F6EC
S31508000F003F00814201DA38207FE740F214708142BF
S31508000F1004DDB1F5EF6F01DA372076E740F2A44039
S31508000F20814204DDB1F5A16F01DA34206DE740F2A4
S31508000F302D20814204DDB1F5247F01DC312064E7F0
S31508000F40002062E700B587B0012148F2800007F06B
S31508000F502FF84FF4004006F0EFFF4020ADF80400EC
S31508000F6000208DF8070001A9174804F0C8F81748AB
S31508000F70FFF758FE002002908DF80C008DF80D0042
S31508000F804FF4602004900020059001208DF8180089
S31508000F9002A90E48FFF796FE01210C48FFF7A4FDAB
S31508000FA00A48FFF713FF00BF0848FFF780FE00282E
S31508000FB0FAD10648FFF71AFF00BF0448FFF760FE9C
S31508000FC00028FAD107B000BD001C0140003C0140D2
S31508000FD070B500240121042004F082F90546FFF7C4
S31508000FE00AFF0446BCB120480088401C1E490880F8
S31508000FF00846008841F64C51884211DB00201A4900
S315080010000880012019490880194908701948047090
S315080010101948047004E00020134908801349088021
S3150800102012480088F8B9002C16DD1448007898B9DB
S3150800103013480088401C124908800846008814286E
S315080010400ADB0020088001200C490870084908704E
S3150800105008480470084804700848007818B114B99C
S3150800106000200649087070BD060000200800002010
S3150800107001000020000000200200002003000020DC
S315080010800400002008B50121202006F091FF0F205A
S31508001090ADF8000010208DF8030003208DF802003B
S315080010A06946344804F02BF84FF44060ADF8000068
S315080010B028208DF8030069462E4804F020F80121FF
S315080010C0C82006F075FF7420ADF8000010208DF8D2
S315080010D0030003208DF802006946274804F00FF83C
S315080010E01220ADF8000010208DF8030003208DF8BB
S315080010F002006946214804F002F84FF48070ADF802
S31508001100000010208DF8030003208DF802006946C0
S315080011101B4803F0F4FF0820ADF8000004208DF802
S3150800112003006946144803F0EAFF2420ADF80000DE
S3150800113004208DF803006946104803F0E0FF4FF4D9
S315080011400070ADF8000004208DF8030069460C48CD
S3150800115003F0D5FF4FF42050ADF8000010208DF8AD
S31508001160030003208DF802006946034803F0C7FF11
S3150800117008BD00000014014000180140001C014091
S31508001180000C014070B505460C4616460120764906
S315080011900860002075490870012D6BD1012074493B
S315080011A0087006F023FE00207249088072490880FC
S315080011B0012072490880012E3ED13CE06D4AB2F901
S315080011C00010002901DB0A4600E04A42231FC3EB50
S315080011D0C303B2EBC30F16DD664AB2F90000002856
S315080011E001DB024600E04242A31DC3EBC303B2EB98
S315080011F0C30F08DA0020624908800BF07BF901204A
S315080012005A49087070BD5B49B1F90000002801DB36
S31508001210014600E04142A21DC2EBC202B1EBC20F79
S3150800122009DD0020564908800BF064F901204F4972
S3150800123008700020E6E7C1E700BF4E4AB2F9001081
S31508001240002901DB0A4600E04A42C4EBC403B2EBBC
S31508001250C30FF2DB484AB2F90000002801DB024658
S3150800126000E04242C4EBC403B2EBC30FE5DB002047
S3150800127042490880002D6BD100203D49087006F0D0
S31508001280B5FD00203B4908803B49088001203B49C1
S315080012900880012E3ED13CE0364AB2F900100029FA
S315080012A001DB0A4600E04A42231FC3EBC303B2EB45
S315080012B0C30F16DD2F4AB2F90000002801DB0246EB
S315080012C000E04242A31DC3EBC303B2EBC30F08DA27
S315080012D000202B4908800BF00DF9012023490870DE
S315080012E090E72449B1F90000002801DB014600E037
S315080012F04142A21DC2EBC202B1EBC20F09DD0020BA
S315080013001F4908800BF0F6F80120184908700020DC
S3150800131078E7C1E700BF174AB2F90010002901DBD8
S315080013200A4600E04A42C4EBC403B2EBC30FF2DB41
S31508001330114AB2F90000002801DB024600E04242E9
S31508001340C4EBC403B2EBC30FE5DB00200B490880EE
S3150800135000200B4908800BF0CDF80CF035F9012078
S315080013600249087000BF4DE77400002030000020D5
S315080013702500002032000020340000202C00002028
S315080013802200002008B50121402006F011FE4FF486
S315080013908050ADF8000010208DF8030003208DF86A
S315080013A0020069460F4803F0AAFE0C210D4803F017
S315080013B07BFF0121802006F0FBFD4FF46070ADF83D
S315080013C0000028208DF8030003208DF802006946E6
S315080013D0054803F094FE4FF46071034803F062FF7A
S315080013E008BD000000180140001C014070B5044605
S315080013F0492C1AD1002069490870694908600121F9
S31508001400684809F026FA4FF42F71664809F027FD57
S3150800141000BF654800680028FBD00021614809F034
S315080014201EFD00215F4809F014FA532C1CD15320E5
S315080014305A49087001205A4908600121594809F09B
S3150800144008FA4FF42F71574809F009FD00BF5648AE
S31508001450001F00680028FAD00021524809F0FFFC56
S315080014600021504809F0F5F9582C2FD158204B493E
S3150800147008704D480068012829D1C8200BF0AAF940
S31508001480012047490860C8200BF0A4F90121454806
S3150800149009F0DFF9C8200BF09DF94FF42F71414888
S315080014A009F0DDFCC8200BF095F9002504E064205E
S315080014B00BF090F9681CC5B2312DF8DB00213948CC
S315080014C009F0CDFC0021374809F0C3F95AE036483F
S315080014D0001F0068012829D1C8200BF07BF90020DD
S315080014E02F490860C8200BF075F901212D4809F02D
S315080014F0B0F9C8200BF06EF94FF42F71294809F09E
S31508001500AEFCC8200BF066F9002504E064200BF059
S3150800151061F9681CC5B2992DF8DB0021214809F04C
S315080015209EFC00211F4809F094F92BE04920FFF79B
S315080015305DFF582019490870012019490860C8201C
S315080015400BF048F90121174809F083F9C8200BF078
S3150800155041F94FF42F71134809F081FCC8200BF0AC
S3150800156039F9002504E064200BF034F9681CC5B28B
S31508001570312DF8DB00210B4809F071FC00210948E0
S3150800158009F067F9542C07D10021064809F067FCD1
S315080015900021044809F05DF970BD0000160000201E
S315080015A0B0012342002C01402081234200BFFEE700
S315080015B01CB506F001FB002005F098FF0120244920
S315080015C048231822CDE900101321022006F06AF8F4
S315080015D00120204948231822CDE9001013211A209A
S315080015E006F060F801201C4948231822CDE90010AE
S315080015F01321322006F056F80020184948231822ED
S31508001600CDE9001013214A2006F04CF801201449B0
S3150800161048231822CDE900101321622006F042F86B
S31508001620012310A22F211F2005F0C0FF06F03AF96A
S315080016300BE006F0C1FAFFF7CBFC0D48007801284D
S3150800164003D100200A49087000E0F2E700BF1CBD7C
S31508001650161401087E1501089E160108561601087B
S315080016600E160108C2B7CFDFC9E8D6C300000000CE
S315080016700100002000B58FB000200E9010200D90BC
S3150800168000200C9010200B9001200A900020099051
S31508001690089007900690059004F022F906F08CFA57
S315080016A0002005F023FFFE48007801281BD1002002
S315080016B00E9014E000200D900AE00021F94A0D98DA
S315080016C002EB40020E9811540D98401CC0B20D90C2
S315080016D00D980C28F1DB0E98401CC0B20E900E989F
S315080016E00228E7DB00E3EE480078022878D10020DC
S315080016F005906FE0EC49059811F8100080B9059837
S3150800170001EB4000407858B9012000900598400741
S31508001710000E1023E5A21946049006F0DDF955E0FF
S31508001720E149059801EB4000407880B1012804D0D2
S31508001730032816D0042828D11DE005984007000E76
S315080017400023DCA21021049005F030FF1EE0059866
S315080017504007000E0023D8A21021049005F026FFAA
S3150800176014E005984007000E0023D4A21021049027
S3150800177005F01CFF0AE005984007000E0023D0A2DA
S315080017801021049005F012FF00E000BF00BF012001
S315080017901021CDE90010C449059811F810000490ED
S315080017A01021059801EB4010C0B201230390049A5A
S315080017B006F03EF92021059801EB4010C0B20E90C4
S315080017C010200D900698401CC0B206900598401C43
S315080017D0C0B20590059804288CDB0420059078E0B3
S315080017E0F2E0B149059811F8100088B9059801EB9F
S315080017F04000407860B9012000900598001F400716
S31508001800000E1023A9A22021049006F065F95CE0D9
S31508001810A549059801EB4000407888B1012804D015
S31508001820032818D004282CD120E00598001F40076B
S31508001830000E00239FA22021049005F0B7FE21E0A8
S315080018400598001F4007000E00239BA22021049044
S3150800185005F0ACFE16E00598001F4007000E0023B1
S3150800186096A22021049005F0A1FE0BE00598001F22
S315080018704007000E002392A22021049005F096FE50
S3150800188000E000BF00BF01201021CDE90010864905
S31508001890059811F8100004900598001F102101EB17
S315080018A04010C0B2012303902021049A06F0C0F824
S315080018B00598001F202101EB4010C0B20E90202091
S315080018C00D900698401CC0B206900598401CC0B200
S315080018D005900598082884DB0820059070E0724971
S315080018E0059811F8100080B9059801EB400040787A
S315080018F058B90120009005984007000E10236BA2E6
S315080019003021049006F0E8F856E06749059801EB9F
S315080019104000407880B1012804D0032816D0042856
S3150800192028D11DE005984007000E002361A230214A
S31508001930049005F03BFE1EE005984007000E0023C4
S315080019405DA23021049005F031FE14E005984007A9
S31508001950000E002359A23021049005F027FE0AE064
S3150800196005984007000E002355A23021049005F083
S315080019701DFE00E000BF00BF01201021CDE90010C8
S315080019804949059811F8100004901021059801EBB3
S315080019904010C0B2012303903021049A06F048F89B
S315080019A02021059801EB4010C0B20E9030200D9012
S315080019B00698401CC0B206900598401CC0B2059017
S315080019C005980C288BDB8FE1354800780328FAD177
S315080019D00020059084E03B49059811F8100080B96D
S315080019E0059801EB4000407858B901200090059809
S315080019F04007000E10232DA21946049006F06CF835
S31508001A006AE03049059801EB4000407880B101282A
S31508001A1004D0032816D0042828D11DE005984007CD
S31508001A20000E002323A21021049005F0BFFD1EE03E
S31508001A3005984007000E00231FA21021049005F008
S31508001A40B5FD14E005984007000E00231BA21021DF
S31508001A50049005F0ABFD0AE005984007000E002348
S31508001A6017A21021049005F0A1FD00E000BF00BFF9
S31508001A7001201021CDE900101249059811F810002F
S31508001A8004901021059801EB4010C0B20123039081
S31508001A90049A05F0CDFF2021059801EB401013E0CC
S31508001AA07511002084140020A21400202020202074
S31508001AB000000000C7B00000BAF30000D7F300002A
S31508001AC0D3D20000C0140020C0B20E9010200D9092
S31508001AD00698401CC0B206900598401CC0B20590F6
S31508001AE005980428FFF677AF042005907CE0FE49A8
S31508001AF0059811F8100090B9059801EB4000407858
S31508001B0068B9012000900598001F4007000E1023B1
S31508001B10AFF268022021049005F0DEFF60E0F2498A
S31508001B20059801EB4000407890B1012804D00328BD
S31508001B301AD0042830D123E00598001F4007000E6C
S31508001B400023AFF290022021049005F02FFD24E037
S31508001B500598001F4007000E0023AFF2A4022021BB
S31508001B60049005F023FD18E00598001F4007000EB5
S31508001B700023AFF2B8022021049005F017FD0CE00F
S31508001B800598001F4007000E0023AFF2CC02202163
S31508001B90049005F00BFD00E000BF00BF01201021F6
S31508001BA0CDE90010D049059811F810000490059861
S31508001BB0001F102101EB4010C0B201230390202121
S31508001BC0049A05F035FF0598001F202101EB401007
S31508001BD0C0B20E9020200D900698401CC0B2069008
S31508001BE00598401CC0B2059005980828FFF67FAFF7
S31508001BF00820059075E0BC49059811F8100088B9C9
S31508001C00059801EB4000407860B9012000900598DE
S31508001C104007000E1023AFF26C123021049005F035
S31508001C205BFF5AE0B049059801EB4000407888B15F
S31508001C30012804D0032818D004282CD120E00598C0
S31508001C404007000E0023AFF294123021049005F0ED
S31508001C50ADFC21E005984007000E0023AFF2A8125C
S31508001C603021049005F0A2FC16E005984007000E06
S31508001C700023AFF2B8123021049005F097FC0BE070
S31508001C8005984007000E0023AFF2CC1230210490CD
S31508001C9005F08CFC00E000BF00BF01201021CDE953
S31508001CA000109149059811F8100004901021059824
S31508001CB001EB4010C0B2012303903021049A05F0CD
S31508001CC0B7FE2021059801EB4010C0B20E903020D7
S31508001CD00D900698401CC0B206900598401CC0B2EC
S31508001CE0059005980C2886DB05F0DCFD01F00ABA9C
S31508001CF005F062FFFFF76CF97C4800780128F5D1FA
S31508001D0006980B2801DB0B200690002077490870FF
S31508001D10774800782A2801D000200990744800786E
S31508001D206F2801D0002008907248007801287DD1DC
S31508001D307148007820B97048407808B900200690A4
S31508001D406B480078362872D012DC322870D008DC4E
S31508001D5023286ED02A286DD030286CD031286BD134
S31508001D600AE1332869D0342868D03528F7D1BBE191
S31508001D70732872D008DC37286CD038286BD03928FD
S31508001D806AD06F28EBD103E378287DD0792802D072
S31508001D907A28E4D129E00A98012825D10D98302817
S31508001DA022DC002009900A900D980B900E980C9052
S31508001DB00023AFF2F422DDE90D1005F0F7FB0E98CB
S31508001DC01030C0B20E900E987F2805DB00200E90CA
S31508001DD00D981030C0B20D9005F064FD0421464AF6
S31508001DE0069802EB40004170EAE20A9801282FD1D2
S31508001DF00D9830282CDC002009900A900D980B903D
S31508001E000E980C900023AFF24C32DDE90D1005F068
S31508001E10CDFB0E981030C0B20E900E987F280FDBBF
S31508001E2000200E900D981030C0B208E0D1E289E18A
S31508001E30D0E0BBE23EE271E0C1E2F9E026E10D90B6
S31508001E4005F030FD03212C4A069802EB400041704C
S31508001E50B6E202E0A4E1D1E1FEE10A98012827D121
S31508001E600D98302824DC002009900A900D980B90D4
S31508001E700E980C900023AFF2C432DDE90D1005F080
S31508001E8095FB0E98103000E013E0C0B20E900E9845
S31508001E907F2805DB00200E900D981030C0B20D90FB
S31508001EA005F000FD0121144A069802EB4000417036
S31508001EB086E20A98012830D10D9830282DDC0020BA
S31508001EC009900A900D980B900E980C900023AFF28B
S31508001ED01842DDE90D1005F069FB0E981030C0B206
S31508001EE00E900E987F2809E0C014002001000020FB
S31508001EF002000020751100208414002005DB002054
S31508001F000E900D981030C0B20D9005F0CBFC002154
S31508001F10F84A069802EB4000417051E20A9850BB15
S31508001F200D98302827DC0020099001200A900D988A
S31508001F300B900E980C9001201023EFA20090DDE97B
S31508001F400D1005F0C9FD0E981030C0B20E900E980F
S31508001F507F2805DB00200E900D981030C0B20D903A
S31508001F6005F0A0FC0021E34A069802F8101006982E
S31508001F70401CC0B2069023E20A9850BB0D98302840
S31508001F8027DC0020099001200A900D980B900E98E6
S31508001F900C9001201023D9A20090DDE90D1005F060
S31508001FA09BFD0E981030C0B20E900E987F2805DB68
S31508001FB000200E900D981030C0B20D9005F072FCFE
S31508001FC00121CC4A069802F810100698401CC0B2A7
S31508001FD00690F5E10A9850BB0D98302827DC0020BA
S31508001FE0099001200A900D980B900E980C900120EC
S31508001FF01023C3A20090DDE90D1005F06DFD0E98C3
S315080020001030C0B20E900E987F2805DB00200E9087
S315080020100D981030C0B20D9005F044FC0221B54A67
S31508002020069802F810100698401CC0B20690C7E140
S315080020300A9850BB0D98302827DC0020099001200B
S315080020400A900D980B900E980C9001201023ADA2C3
S315080020500090DDE90D1005F03FFD0E981030C0B276
S315080020600E900E987F2805DB00200E900D981030F4
S31508002070C0B20D9005F016FC03219E4A069802F898
S3150800208010100698401CC0B2069099E10A9850BBF9
S315080020900D98302827DC0020099001200A900D9819
S315080020A00B900E980C900120102397A20090DDE962
S315080020B00D1005F011FD0E981030C0B20E900E9856
S315080020C07F2805DB00200E900D981030C0B20D90C9
S315080020D005F0E8FB0421874A069802F810100698CE
S315080020E0401CC0B206906BE10A9850BB0D98302888
S315080020F027DC0020099001200A900D980B900E9875
S315080021000C900120102381A20090DDE90D1005F046
S31508002110E3FC0E981030C0B20E900E987F2805DBAF
S3150800212000200E900D981030C0B20D9005F0BAFB45
S315080021300521704A069802F810100698401CC0B28D
S3150800214006903DE10A9850BB0D98302827DC002000
S31508002150099001200A900D980B900E980C9001207A
S3150800216010236BA20090DDE90D1005F0B5FC0E9862
S315080021701030C0B20E900E987F2805DB00200E9016
S315080021800D981030C0B20D9005F08CFB0621594A07
S31508002190069802F810100698401CC0B206900FE187
S315080021A00A9850BB0D98302827DC0020099001209A
S315080021B00A900D980B900E980C900120102355A2AA
S315080021C00090DDE90D1005F087FC0E981030C0B2BE
S315080021D00E900E987F2805DB00200E900D98103083
S315080021E0C0B20D9005F05EFB0721424A069802F838
S315080021F010100698401CC0B20690E1E00A9850BB41
S315080022000D98302827DC0020099001200A900D98A7
S315080022100B900E980C90012010233FA20090DDE948
S315080022200D1005F059FC0E981030C0B20E900E989D
S315080022307F2805DB00200E900D981030C0B20D9057
S3150800224005F030FB08212B4A069802F8101006986C
S31508002250401CC0B20690B3E00A9850BB0D983028CF
S3150800226027DC0020099001200A900D980B900E9803
S315080022700C900120102329A20090DDE90D1005F02D
S315080022802BFC0E981030C0B20E900E987F2805DBF6
S3150800229000200E900D981030C0B20D9005F002FB8C
S315080022A00921144A069802F810100698401CC0B274
S315080022B0069085E00998401CC0B209900998022842
S315080022C065DB0C48007828B90A48407810B9002020
S315080022D0069030E00A9860B900210698401E054A23
S315080022E002EB400041700698012819DC012006908F
S315080022F021E01AE0841400204F000000310000009D
S3150800230032000000330000003400000035000000F1
S3150800231036000000370000003800000039000000D1
S315080023200698401EC0B2069005E000210698401E99
S31508002330FD4A02F81010002009900A9808B90120F1
S3150800234000E000200A900C980E900B980D90012042
S315080023501023F6A20090DDE90D1005F0BDFB05F08F
S31508002360A1FA0C9828B90B98102802D101200A90D6
S3150800237026E00E98102804DB0C981038C0B20C9092
S3150800238005E07F200C900B981038C0B20B9017E030
S315080023900898401CC0B208900898022805DB00205F
S315080023A00890E148069901F0E1FF09E0012007904D
S315080023B07A20DF490870DF490698087000E000BFF8
S315080023C000BF079801287DD1D94800787A28FAD124
S315080023D048E3D9480078022875D1D848007820B94A
S315080023E0D648407808B900200690D14800783628A3
S315080023F06AD012DC322868D008DC232866D02A285E
S3150800240078D0302877D0312876D100E1332874D0B7
S31508002410342873D03528F7D1C1E1732874D008DC85
S3150800242037286DD038286CD039286BD06F28EBD177
S31508002430F8E2782867D0792802D07A28E4D129E00A
S315080024400A98012825D10D98302822DC0020099009
S315080024500A900D980B900E980C900023AFF6A012D8
S31508002460DDE90D1005F0A2F80E981030C0B20E90F6
S315080024700E987F2805DB00200E900D981030C0B20C
S315080024800D9005F00FFA0421AC4A069802EB4000BD
S315080024904170DFE20A9801282BD10D98302828DCF4
S315080024A0002009900A900D980B900E980C90002326
S315080024B0AFF6F812DDE90D1005F078F80E98103031
S315080024C0C0B204E048E3CEE298E1CFE0B8E20E906D
S315080024D00E987F2805DB00200E900D981030C0B2AC
S315080024E00D9005F0DFF90321944A069802EB4000A7
S315080024F04170AFE23EE25BE0ABE2E6E020E103E0FA
S31508002500ABE1D9E107E229E00A98012825D10D981F
S31508002510302822DC002009900A900D980B900E981E
S315080025200C900023AFF67422DDE90D1005F03EF895
S315080025300E981030C0B20E900E987F2805DB00204A
S315080025400E900D981030C0B20D9005F0ABF9012130
S315080025507A4A069802EB400041707BE20A98012805
S3150800256025D10D98302822DC002009900A900D9874
S315080025700B900E980C900023AFF6C422DDE90D10DF
S3150800258005F014F80E981030C0B20E900E987F28F9
S3150800259005DB00200E900D981030C0B20D9005F0A6
S315080025A081F90021654A069802EB4000417051E224
S315080025B00A9858BB0D98302828DC0020099001207D
S315080025C00A900D980B900E980C9001201023AFF2EC
S315080025D0D8220090DDE90D1005F07EFA0E9810302D
S315080025E0C0B20E900E987F2805DB00200E900D983D
S315080025F01030C0B20D9005F055F900214F4A0698E3
S3150800260002F810100698401CC0B2069022E20A98FA
S3150800261058BB0D98302828DC0020099001200A9024
S315080026200D980B900E980C9001201023AFF23432BF
S315080026300090DDE90D1005F04FFA0E981030C0B283
S315080026400E900E987F2805DB00200E900D9810300E
S31508002650C0B20D9005F026F90121384A069802F80D
S3150800266010100698401CC0B20690F3E10A9858BBB1
S315080026700D98302828DC0020099001200A900D9832
S315080026800B900E980C9001201023AFF28C3200901C
S31508002690DDE90D1005F020FA0E981030C0B20E9044
S315080026A00E987F2805DB00200E900D981030C0B2DA
S315080026B00D9005F0F7F80221204A069802F8101046
S315080026C00698401CC0B20690C4E10A9858BB0D98FB
S315080026D0302828DC0020099001200A900D980B90DC
S315080026E00E980C9001201023AFF2E8320090DDE935
S315080026F00D1005F0F1F90E981030C0B20E900E9834
S315080027007F2805DB00200E900D981030C0B20D9082
S3150800271005F0C8F80321094A069802F81010069829
S31508002720401CC0B2069095E18414002020200000C9
S31508002730020000208D00002075110020A214002040
S315080027400A9858BB0D98302828DC002009900120EB
S315080027500A900D980B900E980C9001201023AFF25A
S3150800276058420090DDE90D1005F0B6F90E981030C4
S31508002770C0B20E900E987F2805DB00200E900D98AB
S315080027801030C0B20D9005F08DF80421FC4A069869
S3150800279002F810100698401CC0B206905AE10A9832
S315080027A058BB0D98302828DC0020099001200A9093
S315080027B00D980B900E980C9001201023AFF2B4429E
S315080027C00090DDE90D1005F087F90E981030C0B2BB
S315080027D00E900E987F2805DB00200E900D9810307D
S315080027E0C0B20D9005F05EF80521E54A069802F894
S315080027F010100698401CC0B206902BE10A9858BBE8
S315080028000D98302828DC0020099001200A900D98A0
S315080028100B900E980C9001201023AFF20C520090EA
S31508002820DDE90D1005F058F90E981030C0B20E907B
S315080028300E987F2805DB00200E900D981030C0B248
S315080028400D9005F02FF80621CD4A069802F81010CB
S315080028500698401CC0B20690FCE00A9858BB0D9832
S31508002860302828DC0020099001200A900D980B904A
S315080028700E980C9001201023AFF268520090DDE903
S315080028800D1005F029F90E981030C0B20E900E986A
S315080028907F2805DB00200E900D981030C0B20D90F1
S315080028A005F000F80721B64A069802F810100698AF
S315080028B0401CC0B20690CDE00A9858BB0D98302847
S315080028C028DC0020099001200A900D980B900E989C
S315080028D00C9001201023AFF2C0520090DDE90D10D4
S315080028E005F0FAF80E981030C0B20E900E987F28B0
S315080028F005DB00200E900D981030C0B20D9004F044
S31508002900D1FF08219E4A069802F810100698401C26
S31508002910C0B206909EE00A9858BB0D98302828DC6D
S315080029200020099001200A900D980B900E980C90A3
S3150800293001201023AFF21C620090DDE90D1005F0AE
S31508002940CBF80E981030C0B20E900E987F2805DB93
S3150800295000200E900D981030C0B20D9004F0A2FF22
S315080029600921874A069802F810100698401CC0B23A
S3150800297006906FE00998401CC0B209900998022891
S315080029804FDB7F48007828B97D48407810B9002089
S31508002990069019E00A9888B900210698401E784AD8
S315080029A002EB400041700698012802DC01200690DF
S315080029B00AE00698401EC0B2069005E00021069877
S315080029C0401E6F4A02F81010002009900A9808B9AC
S315080029D0012000E000200A900C980E900B980D90AC
S315080029E001201023AFF2BC220090DDE90D1005F09E
S315080029F073F804F057FF0C9828B90B98102802D1E1
S31508002A0001200A9026E00E98102804DB0C9810384E
S31508002A10C0B20C9005E07F200C900B981038C0B21D
S31508002A200B9017E00898401CC0B208900898022836
S31508002A3005DB002008905248069901F097FC09E04A
S31508002A40012007907A204F4908704F490698087068
S31508002A5000E000BF00BF079801287DD149480078EB
S31508002A607A28FAD150E3494800780328F5D148482E
S31508002A70007820B94648407808B9002006904148B1
S31508002A800078362869D012DC322867D008DC23287B
S31508002A9073D02A2872D0302871D031287ED10AE125
S31508002AA033287CD034287BD03528F7D1BFE173286A
S31508002AB077D008DC372875D0382874D0392873D0F1
S31508002AC06F28EBD1FDE278286FD0792802D07A28D2
S31508002AD0E4D128E00A98012824D10D98302821DC71
S31508002AE0002009900A900D980B900E980C900023E0
S31508002AF028A2DDE90D1004F059FD0E981030C0B279
S31508002B000E900E987F2805DB00200E900D98103049
S31508002B10C0B20D9004F0C6FE04211D4A069802EBC9
S31508002B2040004170E5E20A98012842D10D98302804
S31508002B303FDC002009900A900D980B900E980C9097
S31508002B40002315A2DDE90D1004F030FD0E981030B3
S31508002B50C0B20E900E9802E0D4E297E1DAE07F2840
S31508002B6005DB00200E900D981030C0B20D9004F0D1
S31508002B7099FE0321064A069818E0B0E249E26BE09E
S31508002B80A2140020020000208E00002075110020EB
S31508002B90C0140020D3D20000D7F30000A8E2E8E072
S31508002BA016E107E0A1E1CFE1FDE12CE002EB4000F0
S31508002BB041709EE20A98012824D10D98302821DC1C
S31508002BC0002009900A900D980B900E980C900023FF
S31508002BD0FEA2DDE90D1004F0E9FC0E981030C0B233
S31508002BE00E900E987F2805DB00200E900D98103069
S31508002BF0C0B20D9004F056FE0121F54A069802EB84
S31508002C004000417075E20A98012824D10D983028B1
S31508002C1021DC002009900A900D980B900E980C90D4
S31508002C200023ECA2DDE90D1004F0C0FC0E9810306C
S31508002C30C0B20E900E987F2805DB00200E900D98E6
S31508002C401030C0B20D9004F02DFE0021E04A06981F
S31508002C5002EB400041704CE20A9858BB0D983028A8
S31508002C6028DC0020099001200A900D980B900E98F8
S31508002C700C9001201023AFF680120090DDE90D10AC
S31508002C8004F02AFF0E981030C0B20E900E987F28D6
S31508002C9005DB00200E900D981030C0B20D9004F0A0
S31508002CA001FE0021CA4A069802F810100698401C30
S31508002CB0C0B206901DE20A9858BB0D98302828DC49
S31508002CC00020099001200A900D980B900E980C9000
S31508002CD001201023AFF6DC120090DDE90D1004F098
S31508002CE0FBFE0E981030C0B20E900E987F2805DBBA
S31508002CF000200E900D981030C0B20D9004F0D2FD51
S31508002D000121B34A069802F810100698401CC0B272
S31508002D100690EEE10A9858BB0D98302828DC00206A
S31508002D20099001200A900D980B900E980C9001209E
S31508002D301023AFF634220090DDE90D1004F0CCFE26
S31508002D400E981030C0B20E900E987F2805DB002032
S31508002D500E900D981030C0B20D9004F0A3FD02211C
S31508002D609B4A069802F810100698401CC0B20690B6
S31508002D70BFE10A9858BB0D98302828DC0020099036
S31508002D8001200A900D980B900E980C9001201023A4
S31508002D90AFF690220090DDE90D1004F09DFE0E9826
S31508002DA01030C0B20E900E987F2805DB00200E90DA
S31508002DB00D981030C0B20D9004F074FD0321844ABA
S31508002DC0069802F810100698401CC0B2069090E1CA
S31508002DD00A9858BB0D98302828DC00200990012055
S31508002DE00A900D980B900E980C9001201023AFF6C0
S31508002DF0E8220090DDE90D1004F06EFE0E98103002
S31508002E00C0B20E900E987F2805DB00200E900D9814
S31508002E101030C0B20D9004F045FD04216C4A0698A6
S31508002E2002F810100698401CC0B2069061E10A9894
S31508002E3058BB0D98302828DC0020099001200A90FC
S31508002E400D980B900E980C9001201023AFF6443283
S31508002E500090DDE90D1004F03FFE0E981030C0B268
S31508002E600E900E987F2805DB00200E900D981030E6
S31508002E70C0B20D9004F016FD0521554A069802F8D1
S31508002E8010100698401CC0B2069032E10A9858BB4A
S31508002E900D98302828DC0020099001200A900D980A
S31508002EA00B900E980C9001201023AFF69C320090E0
S31508002EB0DDE90D1004F010FE0E981030C0B20E9029
S31508002EC00E987F2805DB00200E900D981030C0B2B2
S31508002ED00D9004F0E7FC06213D4A069802F810100A
S31508002EE00698401CC0B2069003E10A9858BB0D9894
S31508002EF0302828DC0020099001200A900D980B90B4
S31508002F000E980C9001201023AFF6F8320090DDE9F8
S31508002F100D1004F0E1FD0E981030C0B20E900E9818
S31508002F207F2805DB00200E900D981030C0B20D905A
S31508002F3004F0B8FC0721264A069802F810100698ED
S31508002F40401CC0B20690D4E00A9858BB0D983028A9
S31508002F5028DC0020099001200A900D980B900E9805
S31508002F600C9001201023AFF650420090DDE90D10B9
S31508002F7004F0B2FD0E981030C0B20E900E987F285D
S31508002F8005DB00200E900D981030C0B20D9004F0AD
S31508002F9089FC08210E4A069802F810100698401C6B
S31508002FA0C0B20690A5E00A9890BB0D9830282FDC91
S31508002FB00020099001200A900D980B900E980C900D
S31508002FC001201023AFF6AC42009005E0C7B0000020
S31508002FD0C0140020BAF30000DDE90D1004F07CFDF2
S31508002FE00E981030C0B20E900E987F2805DB002090
S31508002FF00E900D981030C0B20D9004F053FC0921C4
S31508003000434A069802F810100698401CC0B206906B
S315080030106FE00998401CC0B20990099802284FDB56
S315080030203B48007828B93A48407810B900200690FD
S3150800303019E00A9888B900210698401E344A02EB1E
S31508003040400041700698012802DC012006900AE03B
S315080030500698401EC0B2069005E000210698401E5C
S315080030602B4A02F81010002009900A9808B9012086
S3150800307000E000200A900C980E900B980D90012005
S315080030801023AFF658120090DDE90D1004F024FD68
S3150800309004F008FC0C9828B90B98102802D10120D6
S315080030A00A9026E00E98102804DB0C981038C0B257
S315080030B00C9005E07F200C900B981038C0B20B904E
S315080030C017E00898401CC0B208900898022805DB4B
S315080030D0002008900E48069901F048F909E00120F9
S315080030E007907A200B4908700B490698087000E08B
S315080030F000BF00BF0798012804D1064800787A283F
S3150800310000D101E0FEF7F4BD00BF0FB000BD00001E
S31508003110C0140020020000208F0000207CB504F0B7
S315080031204BFD002004F0E2F9002395A21021184671
S3150800313004F03CFA0020102393A2194600902020A0
S3150800314004F0CAFC01238EA22021002004F02EFAE6
S31508003150012010238DA220210090084604F0BCFC13
S31508003160012387A23021002004F020FA0120102331
S3150800317087A230210090202004F0AEFC0020102108
S315080031800223CDE9001083480278602004F050FC41
S31508003190012010210223CDE900107F480278202162
S315080031A0602004F045FC012010210223CDE900101F
S315080031B07A4802783021602004F03AFC7848007892
S315080031C0012807D1102377A219460090402004F061
S315080031D083FC16E074480078012807D1102371A2F1
S315080031E020210090402004F077FC0AE06F48007820
S315080031F0012806D110236BA230210090402004F04C
S315080032006BFC04F04FFBB8E004F0D6FCFDF7E0FEDB
S31508003210674800780128F6D100206549087060489B
S315080032200078012807D060480078012803D05F4855
S31508003230007801287ED15F4800782A287BD1584833
S315080032400078012818D100240FE0002509E05A4823
S3150800325000EB4500005D584901EB45010855681C1F
S31508003260C5B20C2DF3DB601CC4B2022CEDDB494859
S3150800327000784849087038E04B480078012818D18A
S3150800328000240FE0002509E04C4800EB4500005DEE
S31508003290494901EB45010855681CC5B20C2DF3DBFD
S315080032A0601CC4B2022CEDDB3B4800783949087033
S315080032B01BE03E480078012817D100240FE00025BE
S315080032C009E03F4800EB4500005D3B4901EB45013D
S315080032D00855681CC5B20C2DF3DB601CC4B2022C61
S315080032E0EDDB2E4800782B4908700120102335A203
S315080032F019460090402004F0EFFB0120102331A26C
S3150800330020210090402004F0E7FB012010232DA285
S3150800331030210090402004F0DFFB0020102102231A
S31508003320CDE900101B480278602004F081FB04F008
S31508003330B9FA01E011E007E00020194908701A49B6
S3150800334008701A49087018E01A480078732803D0DC
S3150800335018480078782810D110E0164800786F28A9
S3150800336003D101201849087006E0124800782A2877
S3150800337002D101200A49087000E045E700BF7CBD7C
S31508003380D7D4C9E800000000310000003200000070
S31508003390330000008D0000208E0000208F000020E2
S315080033A0761100202A0000007711002078110020ED
S315080033B0010000200200002084140020A21400202E
S315080033C0C014002020000000751100207CB504F010
S315080033D0F3FB002004F08AF8012396A210210020AE
S315080033E004F0E4F80120102394A219460090202046
S315080033F004F072FB00238FA22021184604F0D6F8A9
S31508003400002010238EA220210090084604F064FBB9
S31508003410012388A23021002004F0C8F801201023D7
S3150800342088A230210090202004F056FB01201021AC
S315080034300223CDE9001084480278602004F0F8FAE7
S31508003440002010210223CDE90010804802782021AF
S31508003450602004F0EDFA012010210223CDE90010C6
S315080034607B4802783021602004F0E2FA7948007837
S31508003470012807D1102378A219460090402004F0AD
S315080034802BFB16E075480078012807D1102372A295
S3150800349020210090402004F01FFB0AE070480078C5
S315080034A0012806D110236CA230210090402004F098
S315080034B013FB04F0F7F9B9E004F07EFBFDF788FD8D
S315080034C0684800780128F6D10020664908706148E6
S315080034D00078012807D061480078012803D06048A1
S315080034E0007801287DD1604800782A287AD1594881
S315080034F00078012818D100240FE0002509E05B4870
S3150800350000EB4500005D5A4901EB45010855681C6A
S31508003510C5B20C2DF3DB601CC4B2022CEDDB4A48A5
S3150800352000784A49087038E04C480078012818D1D4
S3150800353000240FE0002509E04D4800EB4500005D3A
S315080035404B4901EB45010855681CC5B20C2DF3DB48
S31508003550601CC4B2022CEDDB3C4800783B4908707D
S315080035601BE03F480078012817D100240FE000250A
S3150800357009E0404800EB4500005D3D4901EB450187
S315080035800855681CC5B20C2DF3DB601CC4B2022CAE
S31508003590EDDB2F4800782D4908700120102336A24C
S315080035A019460090402004F097FA0120102332A211
S315080035B020210090402004F08FFA012010232EA22B
S315080035C030210090402004F087FA002010210223C1
S315080035D0CDE900101D4802782021602004F028FA61
S315080035E001E013E009E004F05DF9002019490870CC
S315080035F01A4908701A49087018E01B480078732899
S3150800360003D019480078782810D110E016480078B9
S315080036106F2803D102201949087006E0124800787D
S315080036202A2802D101200D49087000E044E700BFAE
S315080036307CBD0000D7D4C9E80000000031000000B6
S3150800364032000000330000008D0000208E000020AC
S315080036508F000020761100202A0000007711002034
S3150800366078110020010000200200002084140020A8
S31508003670A2140020C01400202000000075110020AC
S315080036807CB504F099FA002003F030FF012396A2D6
S315080036901021002003F08AFF0120102394A2194666
S315080036A00090202004F018FA01238FA22021002080
S315080036B003F07CFF012010238EA2202100900846EB
S315080036C004F00AFA002388A23021184603F06EFF98
S315080036D00020102388A230210090202004F0FCF955
S315080036E0012010210223CDE90010844802786020C9
S315080036F004F09EF9012010210223CDE9001080482C
S3150800370002782021602004F093F90020102102237A
S31508003710CDE900107B4802783021602004F088F952
S3150800372079480078012807D1102378A21946009015
S31508003730402004F0D1F916E075480078012807D131
S31508003740102372A220210090402004F0C5F90AE057
S3150800375070480078012806D110236CA23021009009
S31508003760402004F0B9F904F09DF8B9E004F024FA11
S31508003770FDF72EFC684800780128F6D10020664936
S31508003780087061480078012807D061480078012848
S3150800379003D06048007801287DD1604800782A283F
S315080037A07AD159480078012818D100240FE000255D
S315080037B009E05B4800EB4500005D5A4901EB45010D
S315080037C00855681CC5B20C2DF3DB601CC4B2022C6C
S315080037D0EDDB4A4800784B49087038E04C480078D9
S315080037E0012818D100240FE0002509E04E4800EB17
S315080037F04500005D4B4901EB45010855681CC5B2FB
S315080038000C2DF3DB601CC4B2022CEDDB3C480078BF
S315080038103C4908701BE03F480078012817D100246E
S315080038200FE0002509E03F4800EB4500005D3D49F3
S3150800383001EB45010855681CC5B20C2DF3DB601C6D
S31508003840C4B2022CEDDB2F4800782E4908700120FF
S31508003850102336A219460090402004F03DF90120B5
S31508003860102332A220210090402004F035F90120CF
S3150800387010232EA230210090402004F02DF90020BC
S3150800388010210223CDE900101E480278302160205D
S3150800389004F0CEF801E013E009E004F003F8002094
S315080038A0194908701A4908701A49087018E01B481F
S315080038B00078732803D019480078782810D110E0CA
S315080038C0164800786F2803D103201949087006E0C6
S315080038D0124800782A2802D101200E49087000E013
S315080038E044E700BF7CBD0000D7D4C9E8000000004B
S315080038F03100000032000000330000008D00002077
S315080039008E0000208F000020761100202A0000007B
S315080039107711002078110020010000200200002005
S3150800392084140020C0140020A214002020000000E7
S31508003930751100201CB504F03FF9002003F0D6FDF0
S31508003940FA480078012877D1002451E0F84810F8A1
S31508003950140070B9F64800EB4400407848B90120D5
S3150800396061070090080E1023F2A2194604F0B4F875
S315080039703CE0EF4800EB4400407870B1012804D0E1
S31508003980032812D0042820D117E06107080E012366
S31508003990EAA2102103F00AFE18E06107080E0123C7
S315080039A0E7A2102103F002FE10E06107080E0123CA
S315080039B0E4A2102103F0FAFD08E06107080E0123CE
S315080039C0E1A2102103F0F2FD00E000BF00BF0120D4
S315080039D01021CDE90010D64911F81420102101EB69
S315080039E04411C8B20123102104F022F8601CC4B2A5
S315080039F0042CABDB042458E0CD4810F8140078B941
S31508003A00CB4800EB4400407850B90120211F4907F4
S31508003A100090080E1023C7A2202104F05DF842E0AA
S31508003A20C34800EB4400407880B1012805D003283C
S31508003A3015D0042825D11BE090E0211F4907080E60
S31508003A400123BEA2202103F0B1FD1BE0211F490777
S31508003A50080E0123BAA2202103F0A8FD12E0211FB7
S31508003A604907080E0123B7A2202103F09FFD09E0AC
S31508003A70211F4907080E0123B3A2202103F096FD52
S31508003A8000E000BF00BF01201021CDE90010A849C1
S31508003A9011F81420211F102303EB4111C8B201238A
S31508003AA0202103F0C5FF601CC4B2082CA4DB08243F
S31508003AB051E09F4810F8140070B99D4800EB440087
S31508003AC0407848B9012061070090080E102399A292
S31508003AD0302104F001F83CE0954800EB44004078BA
S31508003AE070B1012804D0032812D0042820D117E089
S31508003AF06107080E012391A2302103F057FD18E053
S31508003B006107080E01238EA2302103F04FFD10E055
S31508003B106107080E01238BA2302103F047FD08E058
S31508003B206107080E012388A2302103F03FFD00E05B
S31508003B3000BF00BF01201021CDE900107C4911F813
S31508003B401420102303EB4411C8B20123302103F0DB
S31508003B506FFF601CC4B20C2CABDB3CE273480078E8
S31508003B60022877D1002451E0784810F8140070B97B
S31508003B70764800EB4400407848B901206107009078
S31508003B80080E10236BA2194603F0A6FF3CE06F4807
S31508003B9000EB4400407870B1012804D0032812D005
S31508003BA0042820D117E06107080E012363A210211B
S31508003BB003F0FCFC18E06107080E012360A210213F
S31508003BC003F0F4FC10E06107080E01235DA2102142
S31508003BD003F0ECFC08E06107080E01235AA2102145
S31508003BE003F0E4FC00E000BF00BF01201021CDE98E
S31508003BF00010564911F81420102101EB4411C8B2DF
S31508003C000123102103F014FF601CC4B2042CABDBA3
S31508003C10042458E04D4810F8140078B94B4800EBD6
S31508003C204400407850B90120211F49070090080E2A
S31508003C30102340A2202103F04FFF42E0434800EB47
S31508003C404400407880B1012805D0032815D00428FF
S31508003C5025D11BE0A4E0211F4907080E012337A23E
S31508003C60202103F0A3FC1BE0211F4907080E0123AE
S31508003C7033A2202103F09AFC12E0211F4907080EFF
S31508003C80012330A2202103F091FC09E0211F4907F6
S31508003C90080E01232CA2202103F088FC00E000BFB7
S31508003CA000BF01201021CDE90010284911F8142081
S31508003CB0211F102303EB4111C8B20123202103F071
S31508003CC0B7FE601CC4B2082CA4DB082465E01F48B4
S31508003CD010F8140070B91D4800EB4400407848B944
S31508003CE0012061070090080E102312A2302103F06C
S31508003CF0F3FE50E0154800EB4400407870B1012807
S31508003D0004D0032824D0042834D12AE06107080EF9
S31508003D1001230AA2302103F049FC2CE06107080EB2
S31508003D20012307A2302103F041FC24E0751100208D
S31508003D30841400202020202000000000C7B00000C6
S31508003D40BAF30000D7F30000D3D20000A214002073
S31508003D506107080E0123AFF21402302103F026FC96
S31508003D6009E06107080E0123AFF22402302103F0AF
S31508003D701DFC00E000BF00BF01201021CDE90010A6
S31508003D80BA4911F81420102303EB4411C8B20123D1
S31508003D90302103F04DFE601CC4B20C2C97DB1AE1EF
S31508003DA0B34800780328FAD1002456E0B14810F841
S31508003DB0140078B9AF4800EB4400407850B90120A8
S31508003DC061070090080E1023AFF29802194603F017
S31508003DD083FE40E0A74800EB4400407878B101280C
S31508003DE004D0032814D0042824D11AE06107080E49
S31508003DF00123AFF2B802102103F0D8FB1BE06107DC
S31508003E00080E0123AFF2C802102103F0CFFB12E01F
S31508003E106107080E0123AFF2D402102103F0C6FB96
S31508003E2009E06107080E0123AFF2E402102103F04E
S31508003E30BDFB00E000BF00BF01201021CDE9001046
S31508003E408C4911F81420102101EB4411C8B2012342
S31508003E50102103F0EDFD601CC4B2042CA6DB04247B
S31508003E605CE0844810F8140080B9824800EB4400EE
S31508003E70407858B90120211F49070090080E1023E1
S31508003E80AFF25012202103F027FE45E0794800EBF7
S31508003E904400407880B1012804D0032816D00428AD
S31508003EA028D11DE0211F4907080E0123AFF274121D
S31508003EB0202103F07BFB1EE0211F4907080E012382
S31508003EC0AFF28412202103F071FB14E0211F490789
S31508003ED0080E0123AFF29412202103F067FB0AE0D3
S31508003EE0211F4907080E0123AFF2A412202103F06F
S31508003EF05DFB00E000BF00BF01201021CDE90010E6
S31508003F005C4911F81420211F102303EB4111C8B294
S31508003F100123202103F08CFD601CC4B2082CA0DB11
S31508003F20082456E0534810F8140078B9514800EBB5
S31508003F304400407850B9012061070090080E10230C
S31508003F40AFF21022302103F0C7FD40E0494800EBEC
S31508003F504400407878B1012804D0032814D00428F6
S31508003F6024D11AE06107080E0123AFF2302230216E
S31508003F7003F01CFB1BE06107080E0123AFF2402289
S31508003F80302103F013FB12E06107080E0123AFF29C
S31508003F904C22302103F00AFB09E06107080E0123D1
S31508003FA0AFF25C22302103F001FB00E000BF00BF46
S31508003FB001201021CDE900102E4911F814201023F4
S31508003FC003EB4411C8B20123302103F031FD601C14
S31508003FD0C4B20C2CA6DB03F065FC002442E003F017
S31508003FE0EBFDFCF7F5FF2448007801283AD10020BC
S31508003FF021490870214800786F2828D1002420A27A
S3150800400006210A2001F02CFC19480078012805D160
S315080040101C4801781C4800F0A9F912E014480078F9
S31508004020022805D119480178104800F09FF908E0E0
S315080040300F480078032804D1154801780D4800F088
S3150800404095F914A206210A2001F00AFC0AE00B4899
S315080040500078792805D1601CC4B2022C02DB002442
S3150800406001E000E0BBE700BF1CBD0000A214002071
S3150800407075110020C0140020010000200200002055
S31508004080676F00008D000020841400208E00002039
S315080040908F000020202000002DE9F05F04460E4620
S315080040A015460AAF97E880074FF0000B9148056060
S315080040B091480670012C4DD100BF01208D4908603A
S315080040C003F094FE00BF8D48B0F90000844203DD7A
S315080040D08B4800780028F6D1012004F0EBFE8949C8
S315080040E008700846007838B900BF8648007818B9BD
S315080040F0834800780028F8D182480078012802D140
S3150800410009F062FAEEE07F48007803280DD107E04F
S315080041107C480078012803D17948007800B100E08E
S31508004120F6E700BF09F050FADCE076480078042884
S315080041300DD107E073480078012803D1704800784C
S3150800414000B100E0F6E700BF09F03EFACAE009F060
S315080041503BFAC7E0022C5AD102206649086003F0F0
S3150800416045FE00BF601E6549B1F90010884203DDAF
S31508004170634800780028F5D101205E49086000BF31
S315080041805E48B0F90000844203DD5D4800780028E7
S31508004190F6D1012004F08EFE5A49087008460078C8
S315080041A038B900BF5748007818B95548007800282C
S315080041B0F8D154480078012802D109F005FA91E0AF
S315080041C05048007803280DD107E04E4800780128AA
S315080041D003D14B48007800B100E0F6E700BF09F0CC
S315080041E0F3F97FE04748007804280DD107E04548F1
S315080041F00078012803D14248007800B100E0F6E7CC
S3150800420000BF09F0E1F96DE009F0DEF96AE0032C78
S3150800421068DB02203749086003F0E8FD00BF37482D
S31508004220B0F90000012803DA354800780028F6D1ED
S315080042303048056000BF601E3049B1F90010884259
S3150800424003DD2F4800780028F5D1012029490860A8
S3150800425000BF2A48B0F90000844203DD28480078E8
S315080042600028F6D1012004F025FE264908700846E4
S31508004270007838B900BF2348007818B92048007874
S315080042800028F8D11F480078012802D109F09CF9C6
S3150800429028E01C480078032810D101201649087028
S315080042A007E018480078012803D11548007800B1BE
S315080042B000E0F6E700BF09F087F913E01148007837
S315080042C004280DD107E00F480078012803D10C48CF
S315080042D0007800B100E0F6E700BF09F075F901E0E3
S315080042E009F072F900200549088008F003F9BDE8CD
S315080042F0F09F000074000020250000202200002006
S3150800430044000020240000202DE9FF4106460C4603
S3150800431017464FF00008092E26D00425042D00DB89
S3150800432000BF032C01D0042C07D10A2008F052FA4A
S315080043300021204600F062F90124052C01D0062C44
S3150800434004D1B8464146204600F028F800200090DF
S315080043500190029003462A46214603903046FFF70D
S315080043609BFE322008F036FABDE8FF8170B5054697
S315080043700E46002400BF0BE005EB44031A7905EB53
S315080043804403597815F81400FFF7BEFF601CC4B241
S31508004390B442F1DB09F018F970BD00002DE9F041CF
S315080043A005460E464CF2503006FB00F4052D38D172
S315080043B009F00AF923E00120574908604FF4EB7128
S315080043C0564806F04CFD00205549C1F880014FF4C7
S315080043D0C371524806F041FD01204F49091D086086
S315080043E04FF4C3714D4806F03CFD00204C49C1F816
S315080043F08C014FF4C371494806F035FD641E052C3F
S31508004400D9D20021454806F02EFD0021434806F082
S3150800441028FD0021414806F020FD00213F4806F00E
S315080044201EFD062D74D1002701203E49087023E0A1
S315080044300020394908604FF4EB71384806F00FFD43
S3150800444001203749C1F880014FF4C371334806F09B
S3150800445004FD00203049091D08604FF4C3712F4838
S3150800446006F0FFFC01202E49C1F88C014FF4C371F8
S315080044702A4806F0F8FC641E052CD9D200212748E4
S3150800448006F0F1FC0021254806F0EBFC0021234844
S3150800449006F0E3FC0021214806F0E1FC322008F092
S315080044A099F91E2E2EDB00201B4908601C49C1F80D
S315080044B0800101201849091D08601949C1F88C01B5
S315080044C04FF4C371154806F0CAFC4FF4C37113487C
S315080044D006F0C3FC4FF4C371104806F0C2FC4FF453
S315080044E0C3710E4806F0BFFCC82008F073F9012016
S315080044F004F0E0FCC7B203E0012004F0DBFCC7B21D
S31508004500002FF9D009F060F800200649087000BFAE
S3150800451009F05AF8BDE8F08184812242003401404E
S3150800452000802242200000202DE9F04104460D4675
S3150800453017461E4601202B4908602B48057003F0D4
S3150800454055FC012C3CDD00BF601E2849B1F900105E
S31508004550884203DD264800780028F5D1012004F0BA
S31508004560A9FC244908700846007838B900BF2148D4
S31508004570007818B91E4800780028F8D11D48007838
S3150800458001281DD01B48007803280AD107E01948DE
S315080045900078012803D11648007800B100E0F6E754
S315080045A00EE01448007804280AD107E0114800787C
S315080045B0012803D10E48007800B100E0F6E700BFF5
S315080045C001200849086000200B49086000BF0A4816
S315080045D00068B042FBD300200449088007F08AFF30
S315080045E0BDE8F0817400002025000020220000208C
S315080045F04400002024000020280000202DE9F04176
S3150800460004460E46012099490860032C4BD1002721
S31508004610012240F22551964806F055FE012194489C
S3150800462006F00EFE00209349086000BF002191485D
S315080046300068FCF77BF8F9D08E4807688E4938463B
S31508004640FBF7B6FD07468D493846FCF779F804D8D6
S315080046508A493846FBF7FEFD074602208849087056
S3150800466003F0C4FB00BF834801683846FBF7F2FD38
S315080046708046FBF7DBFF051E01DB284600E06842A3
S315080046800528F0DA00207F490880002240F22551EB
S31508004690774806F018FE0021754806F0D1FD00207F
S315080046A07449086000BF042C4BD10027012240F250
S315080046B025516F4806F007FE01216D4806F0C0FD3A
S315080046C000216C480068FCF731F800BF4FF0000184
S315080046D068480068FCF72AF8F8D06648076866490B
S315080046E03846FBF7B7FD074600213846FCF71EF8A3
S315080046F004D862493846FBF75BFD07460320604944
S31508004700087003F073FB00BF5A4801683846FBF788
S31508004710A1FD8046FBF78AFF051E01DB284600E05F
S3150800472068420528F0DA002240F22551504806F082
S31508004730CAFD00214E4806F083FD00204D49086059
S315080047408BE0052C19D102204D49087003F04EFB69
S3150800475000204D49088001204A49088000BF4A497F
S31508004760B1F90000002801DB014600E04142642956
S31508004770F5DB0020434908806FE0062C1AD1022099
S315080047803F49087003F032FB00203F4908800120AA
S315080047903C49088000BF3C49B1F90000002801DB0C
S315080047A0014600E04142B1F5C87FF4DB00203549F7
S315080047B0088052E0072C19D103203149087003F00C
S315080047C015FB00203049088001202E49088000BFCB
S315080047D02D49B1F90000002801DB014600E04142FD
S315080047E0B429F5DB00202749088036E0082C19D1C2
S315080047F002202349087003F0F9FA002022490880AC
S3150800480001202049088000BF1F49B1F9000000288F
S3150800481001DB014600E041426429F5DB0020194925
S3150800482008801AE0092C18D103201549087003F0EE
S31508004830DDFA00201449088001201249088000BFCB
S315080048401149B1F90000002801DB014600E04142A8
S315080048506429F5DB00200B49088007F04BFE08F0B9
S31508004860B3FE002009490880BDE8F08174000020E5
S3150800487000380140881300200000BA420000B44303
S31508004880250000202C0000202E00002022000020F9
S315080048902DE9FF5F06460F4690461C46DDE911AB3B
S315080048A0DDF840900E9D052D0EDA6EB113988DE851
S315080048B0000E03904246394630460F9BFFF7ECFB45
S315080048C0642007F087FF0AE0052D08DB2B464246E1
S315080048D039463046FFF728FE642007F07BFF032C95
S315080048E001D0042C06D139462046FFF787FE6420FE
S315080048F007F070FFBDE8FF9F21B1026842F0010290
S31508004900026004E002684FF6FE731A4002607047C0
S3150800491001684FF6FE721140016000210160416096
S315080049208160C1604B49884208D14A4908394968BB
S3150800493041F00F01474A083A51608AE04549143167
S31508004940884208D143490839496841F0F001414A8B
S31508004950083A51607DE03F492831884208D13D49EF
S315080049600839496841F470613A4A083A516070E07A
S3150800497038493C31884208D136490839496841F4F2
S315080049807041344A083A516063E0324950318842EE
S3150800499008D130490839496841F470212D4A083A46
S315080049A0516056E02B496431884208D129490839B3
S315080049B0496841F47001274A083A516049E0254997
S315080049C07831884208D123490839496841F070612D
S315080049D0204A083A51603CE01F49884206D1011F27
S315080049E0096841F00F01021F116032E01A491431BB
S315080049F0884208D11849091F096841F0F001164A8A
S31508004A00121F116025E014492831884208D112493D
S31508004A10091F096841F470610F4A121F116018E0F6
S31508004A200D493C31884208D10B49091F096841F4F0
S31508004A307041094A121F11600BE00749503188423C
S31508004A4007D10549091F096841F47021024A121F56
S31508004A5011607047080002400804024010B50022A1
S31508004A60026847F6F0739A430C6A8B6823430C690D
S31508004A7023434C6923438C692343CC6923434C6AFB
S31508004A8023438C6A23431A430260CB6843600B684E
S31508004A9083604B68C36010BD1CB503F08DF8002019
S31508004AA002F024FD0020244948231822CDE90010ED
S31508004AB01321022002F0F6FD01202049482318227E
S31508004AC0CDE9001013211A2002F0ECFD01201C4943
S31508004AD048231822CDE900101321322002F0E2FD06
S31508004AE00120184948231822CDE9001013214A202D
S31508004AF002F0D8FD0120144948231822CDE90010F8
S31508004B001321622002F0CEFD012310A22F210846B0
S31508004B1002F04CFD02F0C6FE0BE003F04DF8FCF780
S31508004B2057FA0C480078012803D100200949087073
S31508004B3000E0F2E700BF1CBD161401087E15010847
S31508004B409E160108561601080E160108C9E8D6C3AE
S31508004B500000000001000020704700001CB547480F
S31508004B6080784749887045488078401EC1B24448D5
S31508004B704173407B012802DC0121414841733F48CB
S31508004B8081783F4801763D488078401EC1B23C484E
S31508004B9080F8231090F82300012803DC0121384807
S31508004BA080F8231003F008F8002002F09FFC002389
S31508004BB034A21021184602F0F9FC0020102333A273
S31508004BC019460090202002F087FF01232DA22021FC
S31508004BD0002002F0EBFC012010232DA220210090DA
S31508004BE0084602F079FF01232AA23021002002F0AC
S31508004BF0DDFC0120102329A230210090202002F09C
S31508004C006BFF00201021CDE900101C48807825494B
S31508004C100A5C02231021602002F00AFF01201021FD
S31508004C20CDE90010164880781E490A5C0223202127
S31508004C30602002F0FDFE02F035FE1CE002F0BCFF2B
S31508004C40FCF7C6F918480078012814D1002016493F
S31508004C5008701648007879280CD115A206210A2072
S31508004C6000F0FEFD07F04CFC12A206210A2000F017
S31508004C70F7FD00E000E0E1E700BF1CBD9000002062
S31508004C80FE000020C2B7CFDF0000000035783000F4
S31508004C9035783200D1ADBCA300000000535431383A
S31508004CA038000000780000200100002002000020E3
S31508004CB0676F0000202000002DE9F04706460F46E2
S31508004CC090461C46DDF82090E11704EB5171C91097
S31508004CD0A4EBC10131B92046E11704EB5171C1F3C8
S31508004CE0C70506E02046E11704EB5171C910491CB7
S31508004CF0CDB23D4611E02946304600F0FBFEB246ED
S31508004D0007E019F8010B00F037FF0AF1010000F07F
S31508004D10FF0AC245F5DD681CC5B2A542EBDDBDE854
S31508004D20F0870000FEB504460E460020019002906A
S31508004D30002E33D140F27620844200DC0446A4F2E9
S31508004D40762084B20A2094FBF0F084B2152C00DD9C
S31508004D501524002509E0042105F10800254A115407
S31508004D60202120301154681CC5B2152DF3DB00250F
S31508004D700AE0F420C5F11C011E4A50542F20C5F143
S31508004D803C015054681CC5B2A542F2DB1948012300
S31508004D907F22002100906020FFF78EFF012E28D188
S31508004DA000BF642094FBF0F00A2190FBF1F201FBAE
S31508004DB012003030C0B28DF804002E208DF80500A0
S31508004DC00A2094FBF0F090FBF1F201FB1200303060
S31508004DD0C0B28DF806000A2094FBF0F100FB1140E2
S31508004DE03030C0B28DF8070001AA0021602000F01B
S31508004DF03DFEFEBDDA0800201CB502F0DDFE0020EF
S31508004E0002F074FB0120244948231822CDE900103A
S31508004E101321022002F046FC0120204948231822CB
S31508004E20CDE9001013211A2002F03CFC01201C4990
S31508004E3048231822CDE900101321322002F032FC53
S31508004E400120184948231822CDE9001013214A20C9
S31508004E5002F028FC0020144948231822CDE9001046
S31508004E601321622002F01EFC012310A22F211F200D
S31508004E7002F09CFB02F016FD0BE002F09DFEFCF72B
S31508004E80A7F80D480078012803D100200A490870C0
S31508004E9000E0F2E700BF1CBD161401087E150108E4
S31508004EA09E160108561601080E160108B6E6BBFA44
S31508004EB0B5F7BDDA000000000100002008B502F0D1
S31508004EC07BFE002002F012FB0120102334A21946B3
S31508004ED00090002002F000FE012332A210210846AD
S31508004EE002F064FB0120102330A2194600904020EE
S31508004EF002F0F2FD01232EA21021502002F056FBEB
S31508004F00012010232CA220210090002002F0E4FDAD
S31508004F1001232AA22021102002F048FB0120102399
S31508004F2028A220210090402002F0D6FD012326A2C7
S31508004F302021502002F03AFB0120102324A2302120
S31508004F400090002002F0C8FD012322A23021102083
S31508004F5002F02CFB02F0A6FC21E02048007880B97C
S31508004F60012010231EA230210090402002F0B4FD3B
S31508004F70012315A23021502002F018FB02F092FC02
S31508004F8009E00120102317A230210090402002F0EA
S31508004F90A3FD02F087FC02F00FFEFCF719F8DCE728
S31508004FA0312E0000D5C5BFAA00000000322E000031
S31508004FB0C8FDBDC700000000332E0000C9ECD6B1FD
S31508004FC000000000342E0000CAD5BBD8000000003F
S31508004FD04F2E0000C9E8D6C3000000006113002068
S31508004FE07A2E0000202020202020000030B504461C
S31508004FF004254FF4302000F06FF80546042D17D12C
S315080050000C48006940F002000A49086108464461F4
S31508005010006940F0400008614FF4302000F05CF869
S3150800502005460448006941F6FD71084001490861D2
S31508005030284630BD0020024004200B49C96801F00B
S31508005040010109B101200EE00749C96801F0040110
S3150800505009B1022007E00449C96801F0100109B145
S31508005060032000E00420704700200240034800693E
S3150800507040F08000014908617047000000200240A6
S3150800508070B504460D460426F00200F025F80646DB
S31508005090042E11D10948006940F00100074908614A
S315080050A02580F00200F018F806460448006941F623
S315080050B0FE71084001490861304670BD0020024073
S315080050C0024803494860034848607047230167451A
S315080050D000200240AB89EFCD00B502460423FFF756
S315080050E0ABFF034603E0FFF7A7FF0346521E012B5B
S315080050F001D1002AF7D102B90523184600BD2DE9CA
S31508005100F04102460025002600200023002400273F
S3150800511091F803C00CF00F0591F803C00CF0100CC1
S31508005120BCF1000F03D091F802C04CEA050591F8CE
S3150800513000C0BCF1000F31D0146800202BE04FF0FE
S31508005140010C0CFA00F3B1F800C00CEA03069E4203
S3150800515020D183004FF00F0C0CFA03F7BC4305FA75
S3150800516003FC4CEA040491F803C0BCF1280F06D1ED
S315080051704FF0010C0CFA00FCC2F814C00AE091F8D2
S3150800518003C0BCF1480F05D14FF0010C0CFA00FC26
S31508005190C2F810C0401C0828D1D31460B1F800C06A
S315080051A0BCF1FF0F34DD546800202EE000F1080C36
S315080051B04FF0010808FA0CF3B1F800C00CEA030630
S315080051C09E4221D183004FF00F0C0CFA03F7BC4323
S315080051D005FA03FC4CEA040491F803C0BCF1280F55
S315080051E005D100F1080C08FA0CF8C2F8148091F8F9
S315080051F003C0BCF1480F07D100F1080C4FF00108B5
S3150800520008FA0CF8C2F81080401C0828CED354605F
S31508005210BDE8F081F0B50A460023002400210025E8
S3150800522000F00046B6F1004F02D11D4EF16901E0CB
S315080052301B4E7168C0F3034583B200F44016B6F5F9
S31508005240401F08D121F07061154E766826F0706609
S31508005250134F7E6012E000F48016B6F5801F06D163
S31508005260032606FA05F4A14341F0706106E0460DEF
S31508005270360103FA06F6B14341F0706122B1460DD4
S31508005280360103FA06F6314300F00046B6F1004F40
S3150800529002D1034EF16101E0014E7160F0BD0000DC
S315080052A000000140416170470161704710B504462E
S315080052B00723012221460948FBF72CFD012107484F
S315080052C0FBF789FD00BF02210448FBF7E7FC00282D
S315080052D0F9D00248FBF7DEFC10BD0000003C014097
S315080052E02DE9F04107460C460025002605E038461C
S315080052F0FFF7DCFF0544701CC6B2A642F7DBB5FB18
S31508005300F4F080B2BDE8F08110B50A4A0AA10B484C
S3150800531002F0EAFD0A48002101604160018109485E
S3150800532001604160816000200749087007490870DC
S3150800533010BD0000F50E0020257300000044004053
S31508005340B8130020C2130020170000201800002000
S3150800535000BFFEE700B587B00121084602F008FE47
S3150800536001210D2002F024FE01218748FFF752FF94
S3150800537001218648FFF74EFF4FF40040ADF81800AC
S3150800538004208DF81B0003208DF81A0006A9804812
S31508005390FFF7B5FE0820ADF8180004208DF81B00AD
S315080053A003208DF81A0006A97A48FFF7A8FE4FF0E1
S315080053B0804005F069FA4FF6FF70ADF8100000203E
S315080053C0ADF80C00ADF81200ADF80E0003A94FF0C9
S315080053D0804005F077FD00231A4603214FF08040F0
S315080053E005F046FB684605F0CBFB0620ADF808003D
S315080053F069464FF0804005F06DFB00204FF0804174
S3150800540088840121880705F024FA0121022002F088
S31508005410AFFD0121042002F0CBFDC020ADF8180035
S3150800542004208DF81B0003208DF81A0006A9584899
S31508005430FFF765FE584805F027FA4FF6FF70ADF8F6
S3150800544010000020ADF80C00ADF81200ADF80E0003
S3150800545003A9514805F036FD00231A4603214E4894
S3150800546005F006FB684605F08BFB0620ADF808003C
S315080054706946494805F02EFB002047492431088033
S315080054800121454805F0E5F90121042002F070FDE7
S315080054900121082002F08CFDC020ADF81800042078
S315080054A08DF81B0003208DF81A0006A93948FFF766
S315080054B026FE3A4805F0E8F94FF6FF70ADF81000F9
S315080054C00020ADF80C00ADF81200ADF80E0003A9E7
S315080054D0324805F0F7FC00231A4603212F4805F049
S315080054E0C7FA684605F04CFB0620ADF80800694681
S315080054F02A4805F0EFFA00202849243108800121BE
S31508005500264805F0A6F90121082002F031FD0121FF
