S31508000000503B002045010008CD660008FD57000852
S31508000010F1650008011700086BBE00080000000023
S31508000020000000000000000000000000B78C000877
S31508000030C54F000800000000DD880008E9A6000892
S315080000405F0100085F0100085F0100085F01000802
S315080000505F0100085F0100085F0100085F010008F2
S315080000605F0100085F0100085F0100085F010008E2
S315080000705F0100085F0100085F0100085F010008D2
S315080000805F0100085F0100085F0100085F010008C2
S315080000905F0100085F0100085F0100085F010008B2
S315080000A05F0100085F0100085F0100085F010008A2
S315080000B05F0100085F0100085F0100085F01000892
S315080000C05F0100085F0100085F0100085F01000882
S315080000D05F01000899BA000881BB00080DBC00083A
S315080000E05F0100085F0100085F0100085F01000862
S315080000F05F0100085F0100085F0100085F01000852
S315080001005F0100085F0100085F0100085F01000841
S315080001105F0100085F0100088DA9000811AB0008FF
S315080001205F0100085F0100085F0100085F01000821
S31508000130DFF80CD000F04AFC0048004789DC0008CC
S31508000140503B00200648804706480047FEE7FEE782
S31508000150FEE7FEE7FEE7FEE7FEE7FEE7FEE7FEE769
S31508000160EDA600083101000840EA01039B0703D009
S3150800017009E008C9121F08C0042AFAD203E011F8D8
S31508000180013B00F8013B521EF9D27047D2B201E09A
S3150800019000F8012B491EFBD270470022F6E710B57E
S315080001A013460A4604461946FFF7F0FF204610BDD7
S315080001B0F0B480EA0102D40F4200B2EB410F02D23A
S315080001C00246084611464A0042D0C30DDDB2C1F3C5
S315080001D0C752AD1A202D35DAC1F3160141F40002D3
S315080001E004B15242C5F1200602FA06F12A4110442A
S315080001F0B3EBD05F23D0C4B1012DA0EBC35009DC0B
S31508000200F0BC4FF0004202EAC352DBB200F5000030
S3150800021000F021BB400000F1807000EBC350A0F154
S31508000220807040EAD170490009E0490841EAC07186
S31508000230A0EBC35000F50000400800EBC350F0BC2B
S3150800024000F000BB6142012202EB4101001BF6E708
S31508000250F0BC704781F00041AAE780F00040A7E7AC
S3150800026080EA010210B502F00043400022D04A009D
S315080002701FD0010E01EB1261C0F35600C2F35602FD
S3150800028040F4000042F40002A0FB022000047F397B
S31508000290140400D0401C50EA124001D44000491E04
S315080002A0C2B20C0604EBD010401C4008802A02D0CB
S315080002B003E0002010BD20F00100002900DA00202C
S315080002C0184310BD2DE9FE4F804681EA0300C00F92
S315080002D00C46009021F0004123F00045B8EB0200DF
S315080002E0A94105D24046214690461C460B46024681
S315080002F023F00040104347D0270DC7F30A00C3F385
S315080003000A510290401A019040286BDAC3F3130091
S3150800031040F4801B0098924620B10023D2EB030AD2
S3150800032063EB0B0B01985946C0F14002504600F0AA
S3150800033058FA06460D4650465946019A00F070FA94
S3150800034010EB08006141002487EA115284EAE7733A
S315080003501A4340D0009A62B3019A012A4FEA07521B
S3150800036015DC001B61EB02014FF0004202EA07525E
S31508000370CDE90042001C41F5801132462B4600F0BB
S31508000380A7FA03B0BDE8F08F40462146F9E7001BFF
S3150800039061EB0201001C41F5801300185B4120182F
S315080003A0A2F5001747EB030140EAD570B6196D416F
S315080003B011E06D084FEA360645EAC0754FEA07525E
S315080003C0001B61EB0201001C41F5801149084FEA48
S315080003D030000019514132462B4603B0BDE8F04FB4
S315080003E000F067BA0098012240000023D0EB020211
S315080003F063EBE073009821464FEAE074B8EB00001F
S3150800040061EB0401E9E783F000435BE781F0004113
S3150800041058E72DE9FE4F81EA030404F0004421F071
S31508000420004100944FF0000B23F0004350EA01040A
S315080004305ED052EA03045BD0C3F30A54C1F30A55EB
S315080004402C44A4F2F3340194A0FB0254C1F3130123
S3150800045041F48011C3F3130343F4801301FB0244F0
S3150800046000FB034E840A970A44EA815447EA8357F5
S31508000470A4FB076802958D0A05FB07854FEA932CAE
S3150800048004FB0C542705029D4FEA065847EA16371F
S31508000490B5EB08056EEB070C870E920E47EA811737
S315080004A042EA8312A7FB0201B6EB0B0164EB0004D8
S315080004B02B0D43EA0C335E1844EB1C50DA465146C2
S315080004C0E7FB0201C5F313044FEA0B3343EA14535F
S315080004D04FEA0432019C43EA0603A4F10C04029491
S315080004E0009CCDE900B400F0F3F903B0BDE8F08F45
S315080004F000200146F9E72DE9F04D81EA030404F0EE
S31508000500004B21F0004514464FF0000A23F0004145
S3150800051050EA050220D054EA01021DD0C5F30A5755
S315080005200246C5F31303C1F31300C1F30A5640F498
S31508000530801543F48013A7EB0608101BD64608F26D
S31508000540FD3873EB050002D308F1010801E09218A3
S315080005505B41B8F1000F03DA00200146BDE8F08DD3
S3150800056000204FF48011064684460EE0171B73EBF5
S31508000570050705D3121B63EB050306434CEA010C7A
S3150800058049084FEA300092185B4150EA0107EDD15D
S3150800059052EA030012D082EA040083EA05010843FE
S315080005A005D0101BAB4106D20122002306E000222B
S315080005B04FF0004302E06FF0010253101AEB0600F9
S315080005C04CEB085110EB0A0041EB0B01BDE8F04D6E
S315080005D000F06FB9C10F80EAE0700844CA07962395
S315080005E0002100F038B996230022114600F033B9ED
S315080005F00EB5C10F80EAE0700844CA07002140F230
S3150800060033438DE80E000A460B4600F061F903B045
S3150800061000BD0EB540F2334102910021CDE900112B
S315080006200A460B4600F054F903B000BD00F000423C
S3150800063020F00040C10DC0F3160040F400007F29E9
S3150800064001DA00207047962903DCC1F19601C840FB
S3150800065001E096398840002AF4D04042704770B5C8
S31508000660C1F30A5201F000450024C1F3130140F218
S31508000670FF3341F480119A4201DA002070BD40F23E
S3150800068033439A42A2F2334203DC524200F0B8F8EE
S3150800069000E090402C43F1D0404270BD00F000428B
S315080006A030F000400AD0C10D01F56071C0F31600A4
S315080006B042EA0151C208400711437047002001462B
S315080006C07047000030B5041E71F1000404DB4FF0DA
S315080006D00044404264EB0101141E73F1000405DB7B
S315080006E01C464FF00043524263EB0403994208BF8D
S315080006F0904230BD01F0004330B421F0004150EA89
S31508000700010206D00A0DA2F56072C1F31301002A90
S3150800071002DC30BC00207047440F44EAC104C10023
S31508000720E01830BC00EBC25000F08CB8002801DBA2
S31508000730C0F10040002901DBC1F100418142704748
S31508000740002801DBC0F10040002901DBC1F10041AE
S315080007508842704730B50B46014600202022012406
S3150800076009E021FA02F59D4205D303FA02F5491B71
S3150800077004FA02F52844151EA2F10102F1DC30BD87
S315080007802DE9F05F0546002092469B4688460646B8
S31508000790814640241BE0284641464746224600F04B
S315080007A02FF853465A46C01A914110D31146184697
S315080007B0224600F016F82D1A67EB01084F46224626
S315080007C00120002100F00DF817EB00094E41201E0C
S315080007D0A4F10104DFDC484631462A464346BDE813
S315080007E0F09F202A04DB203A00FA02F10020704725
S315080007F09140C2F1200320FA03F319439040704751
S31508000800202A04DB203A21FA02F00021704721FA57
S3150800081002F3D040C2F120029140084319467047BE
S31508000820202A06DBCB17203A41FA02F043EAE073A6
S3150800083006E041FA02F3D040C2F120029140084393
S31508000840194670470029A8BF7047401C490008BFD1
S3150800085020F00100704710B4B0FA80FC00FA0CF0E2
S3150800086050EA010404BF10BC704749B1CCF120041A
S3150800087021FA04F411FA0CF118BF012121430843A7
S31508000880A3EB0C01CB1D4FEA00614FEA102042BFD3
S31508000890002010BC704700EBC35010440029A4BFC9
S315080008A010BC7047401C490008BF20F0010010BC6E
S315080008B0704710B5141E73F1000408DA401C41F1A4
S315080008C0000192185B411A4301D120F0010010BDC6
S315080008D02DE9F04D92469B4611B1B1FA81F202E03C
S315080008E0B0FA80F220329046FFF77BFF04460F46A7
S315080008F040EA0A0041EA0B0153465A46084313D018
S31508000900114653EA010019D0C8F140025046FFF7D4
S3150800091077FF05460E46504659464246FFF761FFA1
S31508000920084305D0012004E020463946BDE8F08D8D
S315080009300020054346EAE0762C4337430A986305C8
S31508000940E40AA0EB08000022FD0A44EA47540A30EC
S3150800095002D500200146E9E7010510196941DDE9DC
S31508000960084500196941BDE8F04DA2E770B521F0C8
S31508000970004303430CD0C1F30A550024D5EB040504
S3150800098064EB0403D617AD1AB34102DB0020014617
S3150800099070BD201841EB025170BDC1F30A52C1F374
S315080009A0130140F2FF3341F480119A4202DA002023
S315080009B00146704740F233439A42A2F2334202DCC0
S315080009C05242FFF71DBFFFF70CBF0000064C074D4C
S315080009D006E0E06840F0010394E807009847103401
S315080009E0AC42F6D3FFF7A8FB203A0108403A0108C3
S315080009F02DE9F04D00231A461B1A8A4103DB002015
S31508000A000146BDE8F08DC1F30A52C1F3130141F462
S31508000A1080154FF0000BD10702D100186D41521E08
S31508000A200027044640F2FF11384601EB620A3E46AB
S31508000A308046024600204FF48011FFF7E1FEC219F6
S31508000A407141BB1846EB0100B4EB030C75EB000CC7
S31508000A5004D3E41A65EB000517460E46241908F177
S31508000A6001006D4180463428E3DDF91946EB06009E
S31508000A70091BA84103D24FF0FF32134601E00022BA
S31508000A8013461BEB070046EB0A51BDE8F04DFFF78E
S31508000A9010BF70B58C1810F8015B15F0070301D16B
S31508000AA010F8013B2A1106D110F8012B03E010F8C3
S31508000AB0016B01F8016B5B1EF9D12B0705D40023E6
S31508000AC0521E0DD401F8013BFAE710F8013BCB1A88
S31508000AD0921C03E013F8015B01F8015B521EF9D57D
S31508000AE0A142D8D3002070BD21B1826842F001022C
S31508000AF0826003E0826822F001028260704721B1B9
S31508000B00826842F48072826003E0826822F480720E
S31508000B108260704700B58BB00121084607F014FFC4
S31508000B20114804F02BF91148009011480190002053
S31508000B300290012003900020049080200590400038
S31508000B400690800007902020089000020990002057
S31508000B500A906946044804F0B7F90121024804F0EE
S31508000B6001F90BB000BD0000080002404C2401400A
S31508000B70BC15002000B587B0FFF7CCFF01214FF464
S31508000B80047007F011FF4FF4004007F0D1FE012072
S31508000B90ADF8040003208DF8060000208DF8070044
S31508000BA001A91E4804F0E1FC002002908DF80C0013
S31508000BB001208DF80D004FF4602004900020059068
S31508000BC001208DF8180002A9154800F07BF80523C6
S31508000BD001220A21124800F09DF801211048FFF76A
S31508000BE08EFF01210E48FFF77FFF0D4800F0EEF853
S31508000BF000BF0B4800F05BF80028FAD1084800F05F
S31508000C00F5F800BF064800F03BF80028FAD10121A4
S31508000C10034800F0E0F807B000BD000000100140EE
S31508000C200024014010B504461248844208D1012127
S31508000C30401507F0C9FE0021601507F0C5FE17E04C
S31508000C400D48844208D10121001507F0BDFE002198
S31508000C50201507F0B9FE0BE00848844208D10121A7
S31508000C60C80307F0B1FE00214FF4004007F0ACFEC0
S31508000C7010BD00000024014000280140003C01404E
S31508000C80014600208A6802F004020AB1012000E049
S31508000C90002070470146C86C80B2704702460020A3
S31508000CA013680B400BB1012000E000207047014695
S31508000CB000208A6802F008020AB1012000E000203C
S31508000CC07047000030B502460020002350680F4CDC
S31508000CD020400D790C6844EA05242043506090684A
S31508000CE00B4C2040D1E902542C434D7944EA450483
S31508000CF020439060D06A20F470000C7C641EE4B235
S31508000D00234340EA0350D06230BD0000FFFEF0FFE7
S31508000D10FDF7F1FFF0B504460D4600200021092D28
S31508000D2011DDE068A5F10A0606EB4607072606FA6E
S31508000D3007F18843A5F10A0606EB460603FA06F10B
S31508000D400843E0600CE0206905EB4507072606FA2C
S31508000D5007F1884305EB450603FA06F108432061C7
S31508000D60072A0FDA606B561E06EB86071F2606FA59
S31508000D7007F18843561E06EB860605FA06F1084370
S31508000D80606322E00D2A0FDA206BD61F06EB860772
S31508000D901F2606FA07F18843D61F06EB860605FACC
S31508000DA006F10843206310E0E06AA2F10D0606EB9F
S31508000DB086071F2606FA07F18843A2F10D0606EBF9
S31508000DC0860605FA06F10843E062F0BD816841F03F
S31508000DD008018160704721B1826842F4A0028260EE
S31508000DE003E0826822F4A00282607047816841F0BD
S31508000DF0040181607047014640F65E10814205DDB8
S31508000E0040F6C210814201DA2A20704740F60E30B9
S31508000E10814205DD40F67230814201DA2320F4E78B
S31508000E2040F65160814205DD40F6B560814201DA3F
S31508000E307920EAE740F6B340814205DD40F61750CF
S31508000E40814201DA7820E0E740F67750814205DDF5
S31508000E5040F6DB50814201DA7A20D6E740F61E706A
S31508000E60814205DD40F68270814201DA6F20CCE7C7
S31508000E7040F6F830814205DD40F65C40814201DAF1
S31508000E807320C2E740F63220814205DD40F69620FF
S31508000E90814201DA3020B8E740F6A300814205DD39
S31508000EA040F60710814201DA3920AEE740F2356094
S31508000EB0814204DDB1F5D36F01DC3620A5E740F2A7
S31508000EC0CA30814205DD40F22E40814201DA3320E4
S31508000ED09BE7B1F53F7F04DDB1F5587F01DA322093
S31508000EE093E740F28950814205DD40F2ED50814298
S31508000EF001DA352089E740F2DB70814205DD40F6EC
S31508000F003F00814201DA38207FE740F214708142BF
S31508000F1004DDB1F5EF6F01DA372076E740F2A44039
S31508000F20814204DDB1F5A16F01DA34206DE740F2A4
S31508000F302D20814204DDB1F5247F01DC312064E7F0
S31508000F40002062E700B587B0012148F2800007F06B
S31508000F502BFD4FF4004007F0EBFC4020ADF80400F1
S31508000F6000208DF8070001A9174804F0FEFA174873
S31508000F70FFF758FE002002908DF80C008DF80D0042
S31508000F804FF4602004900020059001208DF8180089
S31508000F9002A90E48FFF796FE01210C48FFF7A4FDAB
S31508000FA00A48FFF713FF00BF0848FFF780FE00282E
S31508000FB0FAD10648FFF71AFF00BF0448FFF760FE9C
S31508000FC00028FAD107B000BD001C0140003C0140D2
S31508000FD070B500240121042004F0B8FB0546FFF78C
S31508000FE00AFF0446BCB120480088401C1E490880F8
S31508000FF00846008841F64C51884211DB00201A4900
S315080010000880012019490880194908701948047090
S315080010101948047004E00020134908801349088021
S3150800102012480088F8B9002C16DD1448007898B9DB
S3150800103013480088401C124908800846008814286E
S315080010400ADB0020088001200C490870084908704E
S3150800105008480470084804700848007818B114B99C
S3150800106000200649087070BD060000200800002010
S3150800107001000020000000200200002003000020DC
S315080010800400002008B50121202007F08DFC0F2060
S31508001090ADF8000010208DF8030003208DF802003B
S315080010A06946344804F061FA4FF44060ADF8000030
S315080010B028208DF8030069462E4804F056FA0121C7
S315080010C0C82007F071FC7420ADF8000010208DF8D8
S315080010D0030003208DF802006946274804F045FA04
S315080010E01220ADF8000010208DF8030003208DF8BB
S315080010F002006946214804F038FA4FF48070ADF8CA
S31508001100000010208DF8030003208DF802006946C0
S315080011101B4804F02AFA0820ADF8000004208DF8D0
S3150800112003006946144804F020FA2420ADF80000AC
S3150800113004208DF803006946104804F016FA4FF4A7
S315080011400070ADF8000004208DF8030069460C48CD
S3150800115004F00BFA4FF42050ADF8000010208DF87B
S31508001160030003208DF802006946034804F0FDF9E0
S3150800117008BD00000014014000180140001C014091
S31508001180000C014070B505460C4616460120764906
S315080011900860002075490870012D6BD1012074493B
S315080011A0087007F01FFB0020724908807249088002
S315080011B0012072490880012E3ED13CE06D4AB2F901
S315080011C00010002901DB0A4600E04A42231FC3EB50
S315080011D0C303B2EBC30F16DD664AB2F90000002856
S315080011E001DB024600E04242A31DC3EBC303B2EB98
S315080011F0C30F08DA0020624908800CF05DF9012067
S315080012005A49087070BD5B49B1F90000002801DB36
S31508001210014600E04142A21DC2EBC202B1EBC20F79
S3150800122009DD0020564908800CF046F901204F498F
S3150800123008700020E6E7C1E700BF4E4AB2F9001081
S31508001240002901DB0A4600E04A42C4EBC403B2EBBC
S31508001250C30FF2DB484AB2F90000002801DB024658
S3150800126000E04242C4EBC403B2EBC30FE5DB002047
S3150800127042490880002D6BD100203D49087007F0CF
S31508001280B1FA00203B4908803B49088001203B49C8
S315080012900880012E3ED13CE0364AB2F900100029FA
S315080012A001DB0A4600E04A42231FC3EBC303B2EB45
S315080012B0C30F16DD2F4AB2F90000002801DB0246EB
S315080012C000E04242A31DC3EBC303B2EBC30F08DA27
S315080012D000202B4908800CF0EFF8012023490870FC
S315080012E090E72449B1F90000002801DB014600E037
S315080012F04142A21DC2EBC202B1EBC20F09DD0020BA
S315080013001F4908800CF0D8F80120184908700020F9
S3150800131078E7C1E700BF174AB2F90010002901DBD8
S315080013200A4600E04A42C4EBC403B2EBC30FF2DB41
S31508001330114AB2F90000002801DB024600E04242E9
S31508001340C4EBC403B2EBC30FE5DB00200B490880EE
S3150800135000200B4908800CF0AFF80DF041FB012086
S315080013600249087000BF4DE79C0000205800002085
S315080013704D0000205A0000205C0000205400002088
S315080013804A00002010B504464D480078582847D131
S31508001390A4F114004B49087064200CF013FC4A4869
S315080013A048490978405C6F2839D047484549097843
S315080013B0405C722805D1002211211046FFF7E2FE93
S315080013C00AE041483F490978405C6C2804D100226C
S315080013D011210120FFF7D6FE3C4A3DA13D4807F002
S315080013E07FFA4FF4FA700CF0C7FB4FF4FA700CF062
S315080013F0C3FB4FF4FA700CF0BFFB344A143A34A11D
S31508001400344807F06DFA4FF4FA700CF0B5FB4FF458
S31508001410FA700CF0B1FB4FF4FA700CF0ADFB4DE02E
S3150800142027480078532849D1A4F1140025490870A3
S3150800143064200CF0C7FB2448C01F22490978405C89
S315080014406F283BD02048C01F1E490978405C722887
S3150800145005D1002211211046FFF794FE0BE01A4829
S31508001460C01F18490978405C6C2804D10022112154
S315080014700120FFF787FE154A15A1164807F030FA2E
S315080014804FF4FA700CF078FB4FF4FA700CF074FB1A
S315080014904FF4FA700CF070FB0C4A143A0CA10D4884
S315080014A007F01EFA4FF4FA700CF066FB4FF4FA7068
S315080014B00CF062FB4FF4FA700CF05EFB10BD0000F6
S315080014C01600002021000020C9160020590F002010
S315080014D0257300000044004008B50121402007F0AC
S315080014E063FA4FF48050ADF8000010208DF8030021
S315080014F003208DF8020069460F4804F036F80C21DF
S315080015000D4804F007F90121802007F04DFA4FF441
S315080015106070ADF8000028208DF8030003208DF8D0
S3150800152002006946054804F020F84FF46071034844
S3150800153004F0EEF808BD000000180140001C014048
S3150800154070B50446492C1AD10020694908706949C2
S3150800155008600121684809F0B4FE4FF42F71664807
S315080015600AF0B5F900BF654800680028FBD00021DD
S3150800157061480AF0ACF900215F4809F0A2FE532C35
S315080015801CD153205A49087001205A490860012184
S31508001590594809F096FE4FF42F7157480AF097F903
S315080015A000BF5648001F00680028FAD0002152489C
S315080015B00AF08DF90021504809F083FE582C2FD1E6
S315080015C058204B4908704D480068012829D1C82081
S315080015D00CF0D2FA012047490860C8200CF0CCFA72
S315080015E00121454809F06DFEC8200CF0C5FA4FF4F4
S315080015F02F7141480AF06BF9C8200CF0BDFA002596
S3150800160004E064200CF0B8FA681CC5B2302DF8DB8B
S31508001610002139480AF05BF90021374809F051FEE4
S315080016205AE03648001F0068012829D1C8200CF066
S31508001630A3FA00202F490860C8200CF09DFA012162
S315080016402D4809F03EFEC8200CF096FA4FF42F718B
S3150800165029480AF03CF9C8200CF08EFA002504E067
S3150800166064200CF089FA681CC5B2992DF8DB0021B4
S3150800167021480AF02CF900211F4809F022FE2BE028
S315080016804920FFF75DFF58201949087001201949BC
S315080016900860C8200CF070FA0121174809F011FEFD
S315080016A0C8200CF069FA4FF42F7113480AF00FF9A5
S315080016B0C8200CF061FA002504E064200CF05CFAFE
S315080016C0681CC5B2302DF8DB00210B480AF0FFF87C
S315080016D00021094809F0F5FD542C07D100210648D8
S315080016E00AF0F5F80021044809F0EBFD70BD00008A
S315080016F016000020B0012342002C0140208123421D
S3150800170000BFFEE71CB506F053FF002006F0EAFB13
S315080017100120244948231822CDE90010132102206C
S3150800172006F0BCFC0120204948231822CDE9001008
S3150800173013211A2006F0B2FC01201C49482318225E
S31508001740CDE900101321322006F0A8FC0020184924
S3150800175048231822CDE9001013214A2006F09EFCE2
S315080017600120144948231822CDE9001013216220CC
S3150800177006F094FC012310A22F211F2006F012FC6C
S3150800178006F08CFD0BE006F013FFFFF721FC0D4871
S315080017900078012803D100200A49087000E0F2E722
S315080017A000BF1CBD2E28010896290108B62A010883
S315080017B06E2A0108262A0108C2B7CFDFC9E8D6C3B0
S315080017C0000000000100002000B58FB000200E9038
S315080017D010200D9000200C9010200B9001200A90EC
S315080017E000200990089007900690059004F0C0FC28
S315080017F006F0DEFE002006F075FBFE48007801289C
S315080018001BD100200E9014E000200D900AE0002164
S31508001810F94A0D9802EB40020E9811540D98401C97
S31508001820C0B20D900D980C28F1DB0E98401CC0B282
S315080018300E900E980228E7DB00E3EE4800780228AF
S3150800184078D1002005906FE0EC49059811F8100052
S3150800185080B9059801EB4000407858B901200090FE
S3150800186005984007000E1023E5A21946049006F0D5
S315080018702FFE55E0E149059801EB4000407880B11C
S31508001880012804D0032816D0042828D11DE005987D
S315080018904007000E0023DCA21021049006F082FB0C
S315080018A01EE005984007000E0023D8A210210490D8
S315080018B006F078FB14E005984007000E0023D4A232
S315080018C01021049006F06EFB0AE005984007000E0A
S315080018D00023D0A21021049006F064FB00E000BFAC
S315080018E000BF01201021CDE90010C449059811F860
S315080018F0100004901021059801EB4010C0B2012396
S315080019000390049A06F090FD2021059801EB4010FB
S31508001910C0B20E9010200D900698401CC0B20690DA
S315080019200598401CC0B20590059804288CDB042055
S31508001930059078E0F2E0B149059811F8100088B9E9
S31508001940059801EB4000407860B9012000900598A1
S31508001950001F4007000E1023A9A22021049006F0BC
S31508001960B7FD5CE0A549059801EB4000407888B1D1
S31508001970012804D0032818D004282CD120E0059883
S31508001980001F4007000E00239FA22021049006F0A6
S3150800199009FB21E00598001F4007000E00239BA2C3
S315080019A02021049006F0FEFA16E00598001F40076D
S315080019B0000E002396A22021049006F0F3FA0BE00D
S315080019C00598001F4007000E002392A220210490CC
S315080019D006F0E8FA00E000BF00BF01201021CDE9BB
S315080019E000108649059811F8100004900598001F04
S315080019F0102101EB4010C0B2012303902021049A64
S31508001A0006F012FD0598001F202101EB4010C0B218
S31508001A100E9020200D900698401CC0B2069005989E
S31508001A20401CC0B205900598082884DB082005905C
S31508001A3070E07249059811F8100080B9059801EB15
S31508001A404000407858B90120009005984007000EDC
S31508001A5010236BA23021049006F03AFD56E0674940
S31508001A60059801EB4000407880B1012804D003288E
S31508001A7016D0042828D11DE005984007000E00233B
S31508001A8061A23021049006F08DFA1EE00598400701
S31508001A90000E00235DA23021049006F083FA14E0BC
S31508001AA005984007000E002359A23021049006F03D
S31508001AB079FA0AE005984007000E002355A230215E
S31508001AC0049006F06FFA00E000BF00BF0120102165
S31508001AD0CDE900104949059811F810000490102125
S31508001AE0059801EB4010C0B2012303903021049AF7
S31508001AF006F09AFC2021059801EB4010C0B20E9022
S31508001B0030200D900698401CC0B206900598401CDF
S31508001B10C0B2059005980C288BDB8FE13548007814
S31508001B200328FAD10020059084E03B49059811F86E
S31508001B30100080B9059801EB4000407858B901209B
S31508001B40009005984007000E10232DA21946049010
S31508001B5006F0BEFC6AE03049059801EB4000407883
S31508001B6080B1012804D0032816D0042828D11DE006
S31508001B7005984007000E002323A21021049006F0C2
S31508001B8011FA1EE005984007000E00231FA2102137
S31508001B90049006F007FA14E005984007000E0023A3
S31508001BA01BA21021049006F0FDF90AE005984007EB
S31508001BB0000E002317A21021049006F0F3F900E0A6
S31508001BC000BF00BF01201021CDE900101249059879
S31508001BD011F8100004901021059801EB4010C0B2CE
S31508001BE001230390049A06F01FFC2021059801EBB7
S31508001BF0401013E087130020A8170020C6170020FE
S31508001C002020202000000000C7B00000BAF3000022
S31508001C10D7F30000D3D20000E4170020C0B20E901C
S31508001C2010200D900698401CC0B206900598401CDE
S31508001C30C0B2059005980428FFF677AF04200590F2
S31508001C407CE0FE49059811F8100090B9059801EB5B
S31508001C504000407868B9012000900598001F4007A9
S31508001C60000E1023AFF268022021049006F030FC23
S31508001C7060E0F249059801EB4000407890B10128F0
S31508001C8004D003281AD0042830D123E00598001F71
S31508001C904007000E0023AFF290022021049006F0C0
S31508001CA081F924E00598001F4007000E0023AFF2D3
S31508001CB0A4022021049006F075F918E00598001F83
S31508001CC04007000E0023AFF2B8022021049006F068
S31508001CD069F90CE00598001F4007000E0023AFF2D3
S31508001CE0CC022021049006F05DF900E000BF00BF99
S31508001CF001201021CDE90010D049059811F81000EF
S31508001D0004900598001F102101EB4010C0B2012372
S31508001D1003902021049A06F087FB0598001F2021CE
S31508001D2001EB4010C0B20E9020200D900698401C82
S31508001D30C0B206900598401CC0B2059005980828C0
S31508001D40FFF67FAF0820059075E0BC49059811F8A5
S31508001D50100088B9059801EB4000407860B9012069
S31508001D60009005984007000E1023AFF26C12302140
S31508001D70049006F0ADFB5AE0B049059801EB400027
S31508001D80407888B1012804D0032818D004282CD11B
S31508001D9020E005984007000E0023AFF29412302188
S31508001DA0049006F0FFF821E005984007000E00238E
S31508001DB0AFF2A8123021049006F0F4F816E0059860
S31508001DC04007000E0023AFF2B8123021049006F047
S31508001DD0E9F80BE005984007000E0023AFF2CC1295
S31508001DE03021049006F0DEF800E000BF00BF0120B5
S31508001DF01021CDE900109149059811F810000490BA
S31508001E001021059801EB4010C0B201230390302140
S31508001E10049A06F009FB2021059801EB4010C0B290
S31508001E200E9030200D900698401CC0B2069005987A
S31508001E30401CC0B2059005980C2886DB06F02EFAE1
S31508001E4001F00ABA06F0B4FBFFF7C2F87C4800783E
S31508001E500128F5D106980B2801DB0B2006900020F7
S31508001E6077490870774800782A2801D00020099019
S31508001E70744800786F2801D00020089072480078CE
S31508001E8001287DD17148007820B97048407808B992
S31508001E90002006906B480078362872D012DC32286B
S31508001EA070D008DC23286ED02A286DD030286CD054
S31508001EB031286BD10AE1332869D0342868D035280F
S31508001EC0F7D1BBE1732872D008DC37286CD03828E4
S31508001ED06BD039286AD06F28EBD103E378287DD0F8
S31508001EE0792802D07A28E4D129E00A98012825D150
S31508001EF00D98302822DC002009900A900D980B9046
S31508001F000E980C900023AFF2F422DDE90D1006F0CE
S31508001F1049F80E981030C0B20E900E987F2805DB4F
S31508001F2000200E900D981030C0B20D9006F0B6F94C
S31508001F300421464A069802EB40004170EAE20A98F4
S31508001F4001282FD10D9830282CDC002009900A9002
S31508001F500D980B900E980C900023AFF24C32DDE9E9
S31508001F600D1006F01FF80E981030C0B20E900E989D
S31508001F707F280FDB00200E900D981030C0B208E0C5
S31508001F80D1E289E1D0E0BBE23EE271E0C1E2F9E0EC
S31508001F9026E10D9006F082F903212C4A069802EBF9
S31508001FA040004170B6E202E0A4E1D1E1FEE10A9800
S31508001FB0012827D10D98302824DC002009900A90A2
S31508001FC00D980B900E980C900023AFF2C432DDE901
S31508001FD00D1005F0E7FF0E98103000E013E0C0B2D0
S31508001FE00E900E987F2805DB00200E900D98103075
S31508001FF0C0B20D9006F052F90121144A069802EB78
S315080020004000417086E20A98012830D10D983028A0
S315080020102DDC002009900A900D980B900E980C90D4
S315080020200023AFF21842DDE90D1005F0BBFF0E984C
S315080020301030C0B20E900E987F2809E0E4170020F1
S31508002040010000200200002087130020A8170020A6
S3150800205005DB00200E900D981030C0B20D9006F0EA
S315080020601DF90021F84A069802EB4000417051E23A
S315080020700A9850BB0D98302827DC002009900120CB
S315080020800A900D980B900E980C9001201023EFA241
S315080020900090DDE90D1006F01BFA0E981030C0B25C
S315080020A00E900E987F2805DB00200E900D981030B4
S315080020B0C0B20D9006F0F2F80021E34A069802F83D
S315080020C010100698401CC0B2069023E20A9850BB2E
S315080020D00D98302827DC0020099001200A900D98D9
S315080020E00B900E980C9001201023D9A20090DDE9E0
S315080020F00D1006F0EDF90E981030C0B20E900E983D
S315080021007F2805DB00200E900D981030C0B20D9088
S3150800211006F0C4F80121CC4A069802F81010069871
S31508002120401CC0B20690F5E10A9850BB0D983028BD
S3150800213027DC0020099001200A900D980B900E9834
S315080021400C9001201023C3A20090DDE90D1006F0C3
S31508002150BFF90E981030C0B20E900E987F2805DB96
S3150800216000200E900D981030C0B20D9006F096F82B
S315080021700221B54A069802F810100698401CC0B20B
S315080021800690C7E10A9850BB0D98302827DC002036
S31508002190099001200A900D980B900E980C9001203A
S315080021A01023ADA20090DDE90D1006F091F90E9806
S315080021B01030C0B20E900E987F2805DB00200E90D6
S315080021C00D981030C0B20D9006F068F803219E4AAB
S315080021D0069802F810100698401CC0B2069099E1BD
S315080021E00A9850BB0D98302827DC0020099001205A
S315080021F00A900D980B900E980C900120102397A228
S315080022000090DDE90D1006F063F90E981030C0B2A3
S315080022100E900E987F2805DB00200E900D98103042
S31508002220C0B20D9006F03AF80421874A069802F8DB
S3150800223010100698401CC0B206906BE10A9850BB75
S315080022400D98302827DC0020099001200A900D9867
S315080022500B900E980C900120102381A20090DDE9C6
S315080022600D1006F035F90E981030C0B20E900E9883
S315080022707F2805DB00200E900D981030C0B20D9017
S3150800228006F00CF80521704A069802F81010069810
S31508002290401CC0B206903DE10A9850BB0D98302804
S315080022A027DC0020099001200A900D980B900E98C3
S315080022B00C90012010236BA20090DDE90D1006F0AA
S315080022C007F90E981030C0B20E900E987F2805DBDD
S315080022D000200E900D981030C0B20D9005F0DEFF6C
S315080022E00621594A069802F810100698401CC0B2F2
S315080022F006900FE10A9850BB0D98302827DC00207D
S31508002300099001200A900D980B900E980C900120C8
S31508002310102355A20090DDE90D1006F0D9F80E98A5
S315080023201030C0B20E900E987F2805DB00200E9064
S315080023300D981030C0B20D9005F0B0FF0721424A43
S31508002340069802F810100698401CC0B20690E1E004
S315080023500A9850BB0D98302827DC002009900120E8
S315080023600A900D980B900E980C90012010233FA20E
S315080023700090DDE90D1006F0ABF80E981030C0B2EB
S315080023800E900E987F2805DB00200E900D981030D1
S31508002390C0B20D9005F082FF08212B4A069802F874
S315080023A010100698401CC0B20690B3E00A9850BBBD
S315080023B00D98302827DC0020099001200A900D98F6
S315080023C00B900E980C900120102329A20090DDE9AD
S315080023D00D1006F07DF80E981030C0B20E900E98CB
S315080023E07F2805DB00200E900D981030C0B20D90A6
S315080023F005F054FF0921144A069802F810100698A9
S31508002400401CC0B2069085E00998401CC0B20990ED
S315080024100998022865DB0C48007828B90A484078EC
S3150800242010B90020069030E00A9860B90021069895
S31508002430401E054A02EB400041700698012819DC47
S315080024400120069021E01AE0A81700204F0000009E
S3150800245031000000320000003300000034000000A4
S315080024603500000036000000370000003800000084
S31508002470390000000698401EC0B2069005E000210B
S315080024800698401EFD4A02F81010002009900A9886
S3150800249008B9012000E000200A900C980E900B98CD
S315080024A00D9001201023F6A20090DDE90D1006F02C
S315080024B00FF805F0F3FE0C9828B90B98102802D1EE
S315080024C001200A9026E00E98102804DB0C98103894
S315080024D0C0B20C9005E07F200C900B981038C0B263
S315080024E00B9017E00898401CC0B20890089802287C
S315080024F005DB00200890E148069901F0F1FF09E0A4
S31508002500012007907A20DF490870DF49069808708D
S3150800251000E000BF00BF079801287DD1D9480078A0
S315080025207A28FAD148E3D9480078022875D1D848DC
S31508002530007820B9D648407808B900200690D148D6
S31508002540007836286AD012DC322868D008DC2328BE
S3150800255066D02A2878D0302877D0312876D100E17D
S31508002560332874D0342873D03528F7D1C1E17328BD
S3150800257074D008DC37286DD038286CD039286BD051
S315080025806F28EBD1F8E2782867D0792802D07A2824
S31508002590E4D129E00A98012825D10D98302822DCB3
S315080025A0002009900A900D980B900E980C90002325
S315080025B0AFF6A012DDE90D1005F0F4FC0E98103008
S315080025C0C0B20E900E987F2805DB00200E900D985D
S315080025D01030C0B20D9005F061FE0421AC4A069891
S315080025E002EB40004170DFE20A9801282BD10D98D2
S315080025F0302828DC002009900A900D980B900E9838
S315080026000C900023AFF6F812DDE90D1005F0CAFCB0
S315080026100E981030C0B204E048E3CEE298E1CFE06D
S31508002620B8E20E900E987F2805DB00200E900D98D4
S315080026301030C0B20D9005F031FE0321944A069879
S3150800264002EB40004170AFE23EE25BE0ABE2E6E05F
S3150800265020E103E0ABE1D9E107E229E00A98012885
S3150800266025D10D98302822DC002009900A900D9873
S315080026700B900E980C900023AFF67422DDE90D102E
S3150800268005F090FC0E981030C0B20E900E987F2878
S3150800269005DB00200E900D981030C0B20D9005F0A5
S315080026A0FDFD01217A4A069802EB400041707BE263
S315080026B00A98012825D10D98302822DC0020099097
S315080026C00A900D980B900E980C900023AFF6C42232
S315080026D0DDE90D1005F066FC0E981030C0B20E90BC
S315080026E00E987F2805DB00200E900D981030C0B29A
S315080026F00D9005F0D3FD0021654A069802EB4000CF
S31508002700417051E20A9858BB0D98302828DC002001
S31508002710099001200A900D980B900E980C900120B4
S315080027201023AFF2D8220090DDE90D1005F0D0FE97
S315080027300E981030C0B20E900E987F2805DB002048
S315080027400E900D981030C0B20D9005F0A7FD00212F
S315080027504F4A069802F810100698401CC0B2069018
S3150800276022E20A9858BB0D98302828DC00200990E8
S3150800277001200A900D980B900E980C9001201023BA
S31508002780AFF234320090DDE90D1005F0A1FE0E9887
S315080027901030C0B20E900E987F2805DB00200E90F0
S315080027A00D981030C0B20D9005F078FD0121384A19
S315080027B0069802F810100698401CC0B20690F3E17D
S315080027C00A9858BB0D98302828DC0020099001206B
S315080027D00A900D980B900E980C9001201023AFF2DA
S315080027E08C320090DDE90D1005F072FE0E9810305F
S315080027F0C0B20E900E987F2805DB00200E900D982B
S315080028001030C0B20D9005F049FD0221204A069805
S3150800281002F810100698401CC0B20690C4E10A9847
S3150800282058BB0D98302828DC0020099001200A9012
S315080028300D980B900E980C9001201023AFF2E832F9
S315080028400090DDE90D1005F043FE0E981030C0B279
S315080028500E900E987F2805DB00200E900D981030FC
S31508002860C0B20D9005F01AFD0321094A069802F830
S3150800287010100698401CC0B2069095E1A8170020D3
S315080028802020000002000020B50000208713002049
S31508002890C61700200A9858BB0D98302828DC002057
S315080028A0099001200A900D980B900E980C90012023
S315080028B01023AFF258420090DDE90D1005F008FE2E
S315080028C00E981030C0B20E900E987F2805DB0020B7
S315080028D00E900D981030C0B20D9005F0DFFC042163
S315080028E0FC4A069802F810100698401CC0B20690DA
S315080028F05AE10A9858BB0D98302828DC0020099020
S3150800290001200A900D980B900E980C900120102328
S31508002910AFF2B4420090DDE90D1005F0D9FD0E982E
S315080029201030C0B20E900E987F2805DB00200E905E
S315080029300D981030C0B20D9005F0B0FC0521E54A9F
S31508002940069802F810100698401CC0B206902BE1B3
S315080029500A9858BB0D98302828DC002009900120D9
S315080029600A900D980B900E980C9001201023AFF248
S315080029700C520090DDE90D1005F0AAFD0E981030F6
S31508002980C0B20E900E987F2805DB00200E900D9899
S315080029901030C0B20D9005F081FC0621CD4A06988C
S315080029A002F810100698401CC0B20690FCE00A987F
S315080029B058BB0D98302828DC0020099001200A9081
S315080029C00D980B900E980C9001201023AFF26852C8
S315080029D00090DDE90D1005F07BFD0E981030C0B2B1
S315080029E00E900E987F2805DB00200E900D9810306B
S315080029F0C0B20D9005F052FC0721B64A069802F8B7
S31508002A0010100698401CC0B20690CDE00A9858BB34
S31508002A100D98302828DC0020099001200A900D988E
S31508002A200B900E980C9001201023AFF2C052009024
S31508002A30DDE90D1005F04CFD0E981030C0B20E9071
S31508002A400E987F2805DB00200E900D981030C0B236
S31508002A500D9005F023FC08219E4A069802F81010EE
S31508002A600698401CC0B206909EE00A9858BB0D987E
S31508002A70302828DC0020099001200A900D980B9038
S31508002A800E980C9001201023AFF21C620090DDE92D
S31508002A900D1005F01DFD0E981030C0B20E900E9860
S31508002AA07F2805DB00200E900D981030C0B20D90DF
S31508002AB005F0F4FB0921874A069802F810100698D3
S31508002AC0401CC0B206906FE00998401CC0B209903D
S31508002AD0099802284FDB7F48007828B97D48407856
S31508002AE010B90020069019E00A9888B900210698BE
S31508002AF0401E784A02EB400041700698012802DC25
S31508002B00012006900AE00698401EC0B2069005E02D
S31508002B1000210698401E6F4A02F8101000200990FE
S31508002B200A9808B9012000E000200A900C980E9037
S31508002B300B980D9001201023AFF2BC220090DDE91E
S31508002B400D1005F0C5FC05F0A9FB0C9828B90B98E3
S31508002B50102802D101200A9026E00E98102804DBDE
S31508002B600C981038C0B20C9005E07F200C900B989A
S31508002B701038C0B20B9017E00898401CC0B20890F5
S31508002B800898022805DB002008905248069901F0AB
S31508002B90A7FC09E0012007907A204F4908704F49A1
S31508002BA00698087000E000BF00BF079801287DD18D
S31508002BB0494800787A28FAD150E34948007803282A
S31508002BC0F5D14848007820B94648407808B9002029
S31508002BD0069041480078362869D012DC322867D03A
S31508002BE008DC232873D02A2872D0302871D03128DF
S31508002BF07ED10AE133287CD034287BD03528F7D11A
S31508002C00BFE1732877D008DC372875D0382874D008
S31508002C10392873D06F28EBD1FDE278286FD0792850
S31508002C2002D07A28E4D128E00A98012824D10D9800
S31508002C30302821DC002009900A900D980B900E98F8
S31508002C400C90002328A2DDE90D1005F0ABF90E98CB
S31508002C501030C0B20E900E987F2805DB00200E902B
S31508002C600D981030C0B20D9005F018FB04211D4ACE
S31508002C70069802EB40004170E5E20A98012842D125
S31508002C800D9830283FDC002009900A900D980B908B
S31508002C900E980C90002315A2DDE90D1005F082F9B7
S31508002CA00E981030C0B20E900E9802E0D4E297E16A
S31508002CB0DAE07F2805DB00200E900D981030C0B2B0
S31508002CC00D9005F0EBFA0321064A069818E0B0E2E3
S31508002CD049E26BE0C617002002000020B60000207B
S31508002CE087130020E4170020D3D20000D7F3000092
S31508002CF0A8E2E8E016E107E0A1E1CFE1FDE12CE07A
S31508002D0002EB400041709EE20A98012824D10D98F2
S31508002D10302821DC002009900A900D980B900E9817
S31508002D200C900023FEA2DDE90D1005F03BF90E9884
S31508002D301030C0B20E900E987F2805DB00200E904A
S31508002D400D981030C0B20D9005F0A8FA0121F54A89
S31508002D50069802EB4000417075E20A98012824D1D2
S31508002D600D98302821DC002009900A900D980B90C8
S31508002D700E980C900023ECA2DDE90D1005F012F96F
S31508002D800E981030C0B20E900E987F2805DB0020F2
S31508002D900E900D981030C0B20D9005F07FFA002104
S31508002DA0E04A069802EB400041704CE20A9858BB8C
S31508002DB00D98302828DC0020099001200A900D98EB
S31508002DC00B900E980C9001201023AFF680120090FD
S31508002DD0DDE90D1005F07CFB0E981030C0B20E90A0
S31508002DE00E987F2805DB00200E900D981030C0B293
S31508002DF00D9005F053FA0021CA4A069802F81010F9
S31508002E000698401CC0B206901DE20A9858BB0D9859
S31508002E10302828DC0020099001200A900D980B9094
S31508002E200E980C9001201023AFF6DC120090DDE915
S31508002E300D1005F04DFB0E981030C0B20E900E988E
S31508002E407F2805DB00200E900D981030C0B20D903B
S31508002E5005F024FA0121B34A069802F810100698DC
S31508002E60401CC0B20690EEE10A9858BB0D9830286F
S31508002E7028DC0020099001200A900D980B900E98E6
S31508002E800C9001201023AFF634220090DDE90D10D6
S31508002E9005F01EFB0E981030C0B20E900E987F28D3
S31508002EA005DB00200E900D981030C0B20D9005F08D
S31508002EB0F5F902219B4A069802F810100698401C5C
S31508002EC0C0B20690BFE10A9858BB0D98302828DC96
S31508002ED00020099001200A900D980B900E980C90EE
S31508002EE001201023AFF690220090DDE90D1005F0C1
S31508002EF0EFFA0E981030C0B20E900E987F2805DBB8
S31508002F0000200E900D981030C0B20D9005F0C6F94D
S31508002F100321844A069802F810100698401CC0B28D
S31508002F20069090E10A9858BB0D98302828DC0020B6
S31508002F30099001200A900D980B900E980C9001208C
S31508002F401023AFF6E8220090DDE90D1005F0C0FA6F
S31508002F500E981030C0B20E900E987F2805DB002020
S31508002F600E900D981030C0B20D9005F097F9042117
S31508002F706C4A069802F810100698401CC0B20690D3
S31508002F8061E10A9858BB0D98302828DC0020099082
S31508002F9001200A900D980B900E980C900120102392
S31508002FA0AFF644320090DDE90D1005F091FA0E985F
S31508002FB01030C0B20E900E987F2805DB00200E90C8
S31508002FC00D981030C0B20D9005F068F90521554AE4
S31508002FD0069802F810100698401CC0B2069032E116
S31508002FE00A9858BB0D98302828DC00200990012043
S31508002FF00A900D980B900E980C9001201023AFF6AE
S315080030009C320090DDE90D1005F062FA0E9810303A
S31508003010C0B20E900E987F2805DB00200E900D9802
S315080030201030C0B20D9005F039F906213D4A0698D0
S3150800303002F810100698401CC0B2069003E10A98E0
S3150800304058BB0D98302828DC0020099001200A90EA
S315080030500D980B900E980C9001201023AFF6F832BD
S315080030600090DDE90D1005F033FA0E981030C0B265
S315080030700E900E987F2805DB00200E900D981030D4
S31508003080C0B20D9005F00AF90721264A069802F8FB
S3150800309010100698401CC0B20690D4E00A9858BB97
S315080030A00D98302828DC0020099001200A900D98F8
S315080030B00B900E980C9001201023AFF6504200900A
S315080030C0DDE90D1005F004FA0E981030C0B20E9026
S315080030D00E987F2805DB00200E900D981030C0B2A0
S315080030E00D9005F0DBF808210E4A069802F8101034
S315080030F00698401CC0B20690A5E00A9890BB0D98A9
S3150800310030282FDC0020099001200A900D980B909A
S315080031100E980C9001201023AFF6AC42009005E003
S31508003120C7B00000E4170020BAF30000DDE90D106F
S3150800313005F0CEF90E981030C0B20E900E987F2882
S3150800314005DB00200E900D981030C0B20D9005F0EA
S31508003150A5F80921434A069802F810100698401C5B
S31508003160C0B206906FE00998401CC0B20990099851
S3150800317002284FDB3B48007828B93A48407810B90E
S315080031800020069019E00A9888B900210698401E82
S31508003190344A02EB400041700698012802DC0120FF
S315080031A006900AE00698401EC0B2069005E0002187
S315080031B00698401E2B4A02F81010002009900A981B
S315080031C008B9012000E000200A900C980E900B9890
S315080031D00D9001201023AFF658120090DDE90D106E
S315080031E005F076F905F05AF80C9828B90B981028C6
S315080031F002D101200A9026E00E98102804DB0C98CC
S315080032001038C0B20C9005E07F200C900B9810384F
S31508003210C0B20B9017E00898401CC0B208900898F6
S31508003220022805DB002008900E48069901F058F997
S3150800323009E0012007907A200B4908700B49069887
S31508003240087000E000BF00BF0798012804D10648AF
S3150800325000787A2800D101E0FEF7F4BD00BF0FB070
S3150800326000BD0000E417002002000020B70000207F
S315080032707CB505F09DF9002004F034FE002395A2E4
S315080032801021184604F08EFE0020102393A219463A
S315080032900090202005F01CF901238EA22021002091
S315080032A004F080FE012010238DA2202100900846FC
S315080032B005F00EF9012387A23021002004F072FEE2
S315080032C00120102387A230210090202005F000F964
S315080032D0002010210223CDE90010834802786020DF
S315080032E005F0A2F8012010210223CDE900107F483D
S315080032F002782021602005F097F80120102102238A
S31508003300CDE900107A4802783021602005F08CF863
S3150800331078480078012807D1102377A2194600902B
S31508003320402005F0D5F816E074480078012807D142
S31508003330102371A220210090402005F0C9F80AE068
S315080033406F480078012806D110236BA2302100901F
S31508003350402005F0BDF804F0A1FFB8E005F028F913
S31508003360FDF736FE674800780128F6D10020654942
S31508003370087060480078012807D06048007801285E
S3150800338003D05F48007801287ED15F4800782A2854
S315080033907BD158480078012818D100240FE0002571
S315080033A009E05A4800EB4500005D584901EB450124
S315080033B00855681CC5B20C2DF3DB601CC4B2022C80
S315080033C0EDDB494800784849087038E04B480078F2
S315080033D0012818D100240FE0002509E04C4800EB2D
S315080033E04500005D494901EB45010855681CC5B211
S315080033F00C2DF3DB601CC4B2022CEDDB3B480078D5
S31508003400394908701BE03E480078012817D1002486
S315080034100FE0002509E03F4800EB4500005D3B4909
S3150800342001EB45010855681CC5B20C2DF3DB601C81
S31508003430C4B2022CEDDB2E4800782B490870012017
S31508003440102335A219460090402005F041F80120C6
S31508003450102331A220210090402005F039F80120E0
S3150800346010232DA230210090402005F031F80020CD
S3150800347010210223CDE900101B480278602004F0D1
S31508003480D3FF04F00BFF01E011E007E00020194923
S3150800349008701A4908701A49087018E01A4800781E
S315080034A0732803D018480078782810D110E01648F9
S315080034B000786F2803D101201849087006E01248E1
S315080034C000782A2802D101200A49087000E045E759
S315080034D000BF7CBDD7D4C9E8000000003100000059
S315080034E03200000033000000B5000020B6000020BE
S315080034F0B7000020881300202A0000008913002046
S315080035008A1300200100002002000020A8170020CE
S31508003510C6170020E41700202000000087130020AB
S315080035207CB505F045F8002004F0DCFC012396A2E2
S315080035301021002004F036FD0120102394A219461C
S315080035400090202004F0C4FF00238FA220211846F3
S3150800355004F028FD002010238EA2202100900846A2
S3150800356004F0B6FF012388A23021002004F01AFDDA
S315080035700120102388A230210090202004F0A8FF03
S31508003580012010210223CDE900108448027860202A
S3150800359004F04AFF002010210223CDE900108048DC
S315080035A002782021602004F03FFF01201021022329
S315080035B0CDE900107B4802783021602004F034FF02
S315080035C079480078012807D1102378A21946009077
S315080035D0402004F07DFF16E075480078012807D1E1
S315080035E0102372A220210090402004F071FF0AE007
S315080035F070480078012806D110236CA2302100906B
S31508003600402004F065FF04F049FEB9E004F0D0FF5D
S31508003610FDF7DEFC684800780128F6D100206649E7
S31508003620087061480078012807D0614800780128A9
S3150800363003D06048007801287DD1604800782A28A0
S315080036407AD159480078012818D100240FE00025BE
S3150800365009E05B4800EB4500005D5A4901EB45016E
S315080036600855681CC5B20C2DF3DB601CC4B2022CCD
S31508003670EDDB4A4800784A49087038E04C4800783B
S31508003680012818D100240FE0002509E04D4800EB79
S315080036904500005D4B4901EB45010855681CC5B25C
S315080036A00C2DF3DB601CC4B2022CEDDB3C48007821
S315080036B03B4908701BE03F480078012817D10024D1
S315080036C00FE0002509E0404800EB4500005D3D4954
S315080036D001EB45010855681CC5B20C2DF3DB601CCF
S315080036E0C4B2022CEDDB2F4800782D490870012062
S315080036F0102336A219460090402004F0E9FE012066
S31508003700102332A220210090402004F0E1FE01207F
S3150800371010232EA230210090402004F0D9FE00206C
S3150800372010210223CDE900101D48027820216020CF
S3150800373004F07AFE01E013E009E004F0AFFD002092
S31508003740194908701A4908701A49087018E01B4880
S315080037500078732803D019480078782810D110E02B
S31508003760164800786F2803D102201949087006E028
S31508003770124800782A2802D101200D49087000E075
S3150800378044E700BF7CBD0000D7D4C9E800000000AC
S31508003790310000003200000033000000B5000020B0
S315080037A0B6000020B7000020881300202A00000079
S315080037B0891300208A13002001000020020000203F
S315080037C0A8170020C6170020E417002020000000D4
S315080037D0871300207CB504F0EBFE002004F082FB82
S315080037E0012396A21021002004F0DCFB01201023FF
S315080037F094A219460090202004F06AFE01238FA2A5
S315080038002021002004F0CEFB012010238EA22021C7
S315080038100090084604F05CFE002388A23021184672
S3150800382004F0C0FB0020102388A23021009020203D
S3150800383004F04EFE012010210223CDE90010844831
S315080038400278602004F0F0FD012010210223CDE962
S315080038500010804802782021602004F0E5FD002051
S3150800386010210223CDE900107B4802783021602020
S3150800387004F0DAFD79480078012807D1102378A2E8
S3150800388019460090402004F023FE16E0754800789B
S31508003890012807D1102372A220210090402004F0AD
S315080038A017FE0AE070480078012806D110236CA29A
S315080038B030210090402004F00BFE04F0EFFCB9E044
S315080038C004F076FEFDF784FB684800780128F6D1F7
S315080038D000206649087061480078012807D06148C9
S315080038E00078012803D06048007801287DD1604817
S315080038F000782A287AD159480078012818D1002456
S315080039000FE0002509E05B4800EB4500005D5A49D9
S3150800391001EB45010855681CC5B20C2DF3DB601C8C
S31508003920C4B2022CEDDB4A4800784B49087038E0EF
S315080039304C480078012818D100240FE0002509E03A
S315080039404E4800EB4500005D4B4901EB4501085523
S31508003950681CC5B20C2DF3DB601CC4B2022CEDDB6F
S315080039603C4800783C4908701BE03F48007801282D
S3150800397017D100240FE0002509E03F4800EB450079
S31508003980005D3D4901EB45010855681CC5B20C2D83
S31508003990F3DB601CC4B2022CEDDB2F4800782E49FD
S315080039A008700120102336A219460090402004F022
S315080039B08FFD0120102332A220210090402004F020
S315080039C087FD012010232EA230210090402004F00C
S315080039D07FFD002010210223CDE900101E48027841
S315080039E03021602004F020FD01E013E009E004F036
S315080039F055FC0020194908701A4908701A490870B8
S31508003A0018E01B480078732803D0194800787828EE
S31508003A1010D110E0164800786F2803D10320194901
S31508003A20087006E0124800782A2802D101200E49BB
S31508003A30087000E044E700BF7CBD0000D7D4C9E8A1
S31508003A4000000000310000003200000033000000D2
S31508003A50B5000020B6000020B7000020881300201B
S31508003A602A000000891300208A1300200100002084
S31508003A7002000020A8170020E4170020C61700201F
S31508003A8020000000871300201CB504F091FD0020DB
S31508003A9004F028FAFA480078012877D1002451E082
S31508003AA0F84810F8140070B9F64800EB440040785E
S31508003AB048B9012061070090080E1023F2A21946A2
S31508003AC004F006FD3CE0EF4800EB4400407870B196
S31508003AD0012804D0032812D0042820D117E0610752
S31508003AE0080E0123EAA2102104F05CFA18E0610727
S31508003AF0080E0123E7A2102104F054FA10E061072A
S31508003B00080E0123E4A2102104F04CFA08E061072C
S31508003B10080E0123E1A2102104F044FA00E000BFD8
S31508003B2000BF01201021CDE90010D64911F8142054
S31508003B30102101EB4411C8B20123102104F074FCD2
S31508003B40601CC4B2042CABDB042458E0CD4810F842
S31508003B50140078B9CB4800EB4400407850B90120EE
S31508003B60211F49070090080E1023C7A2202104F040
S31508003B70AFFC42E0C34800EB4400407880B101281E
S31508003B8005D0032815D0042825D11BE090E0211F75
S31508003B904907080E0123BEA2202104F003FA1BE000
S31508003BA0211F4907080E0123BAA2202104F0FAF9B9
S31508003BB012E0211F4907080E0123B7A2202104F0AD
S31508003BC0F1F909E0211F4907080E0123B3A22021B4
S31508003BD004F0E8F900E000BF00BF01201021CDE99C
S31508003BE00010A84911F81420211F102303EB4111D6
S31508003BF0C8B20123202104F017FC601CC4B2082CAB
S31508003C00A4DB082451E09F4810F8140070B99D48B9
S31508003C1000EB4400407848B9012061070090080E7F
S31508003C20102399A2302104F053FC3CE0954800EBA0
S31508003C304400407870B1012804D0032812D0042823
S31508003C4020D117E06107080E012391A2302104F064
S31508003C50A9F918E06107080E01238EA2302104F0A5
S31508003C60A1F910E06107080E01238BA2302104F0A8
S31508003C7099F908E06107080E012388A2302104F0AB
S31508003C8091F900E000BF00BF01201021CDE9001026
S31508003C907C4911F81420102303EB4411C8B2012300
S31508003CA0302104F0C1FB601CC4B20C2CABDB3CE237
S31508003CB073480078022877D1002451E0784810F834
S31508003CC0140070B9764800EB4400407848B90120E2
S31508003CD061070090080E10236BA2194604F0F8FB42
S31508003CE03CE06F4800EB4400407870B1012804D0EE
S31508003CF0032812D0042820D117E06107080E0123F3
S31508003D0063A2102104F04EF918E06107080E01239A
S31508003D1060A2102104F046F910E06107080E01239D
S31508003D205DA2102104F03EF908E06107080E0123A0
S31508003D305AA2102104F036F900E000BF00BF0120A6
S31508003D401021CDE90010564911F81420102101EB75
S31508003D504411C8B20123102104F066FB601CC4B2EA
S31508003D60042CABDB042458E04D4810F8140078B94D
S31508003D704B4800EB4400407850B90120211F490701
S31508003D800090080E102340A2202104F0A1FB42E077
S31508003D90434800EB4400407880B1012805D0032849
S31508003DA015D0042825D11BE0A4E0211F4907080ED9
S31508003DB0012337A2202104F0F5F81BE0211F49074B
S31508003DC0080E012333A2202104F0ECF812E0211F8B
S31508003DD04907080E012330A2202104F0E3F809E080
S31508003DE0211F4907080E01232CA2202104F0DAF826
S31508003DF000E000BF00BF01201021CDE900102849CE
S31508003E0011F81420211F102303EB4111C8B2012316
S31508003E10202104F009FB601CC4B2082CA4DB08248A
S31508003E2065E01F4810F8140070B91D4800EB4400FF
S31508003E30407848B9012061070090080E102312A2A5
S31508003E40302104F045FB50E0154800EB440040786B
S31508003E5070B1012804D0032824D0042834D12AE0DC
S31508003E606107080E01230AA2302104F09BF82CE012
S31508003E706107080E012307A2302104F093F824E015
S31508003E8087130020A817002020202020000000000B
S31508003E90C7B00000BAF30000D7F30000D3D2000081
S31508003EA0C61700206107080E0123AFF2140230215D
S31508003EB004F078F809E06107080E0123AFF224023E
S31508003EC0302104F06FF800E000BF00BF0120102188
S31508003ED0CDE90010BA4911F81420102303EB441158
S31508003EE0C8B20123302104F09FFA601CC4B20C2C1E
S31508003EF097DB1AE1B34800780328FAD1002456E084
S31508003F00B14810F8140078B9AF4800EB440040787F
S31508003F1050B9012061070090080E1023AFF29802ED
S31508003F20194604F0D5FA40E0A74800EB440040786B
S31508003F3078B1012804D0032814D0042824D11AE023
S31508003F406107080E0123AFF2B802102104F02AF81F
S31508003F501BE06107080E0123AFF2C802102104F026
S31508003F6021F812E06107080E0123AFF2D4021021EE
S31508003F7004F018F809E06107080E0123AFF2E4021D
S31508003F80102104F00FF800E000BF00BF0120102147
S31508003F90CDE900108C4911F81420102101EB4411C9
S31508003FA0C8B20123102104F03FFA601CC4B2042CE5
S31508003FB0A6DB04245CE0844810F8140080B9824823
S31508003FC000EB4400407858B90120211F49070090AA
S31508003FD0080E1023AFF25012202104F079FA45E0BA
S31508003FE0794800EB4400407880B1012804D00328C2
S31508003FF016D0042828D11DE0211F4907080E0123E1
S31508004000AFF27412202103F0CDFF1EE0211F4907ED
S31508004010080E0123AFF28412202103F0C3FF14E037
S31508004020211F4907080E0123AFF29412202103F03D
S31508004030B9FF0AE0211F4907080E0123AFF2A412AF
S31508004040202103F0AFFF00E000BF00BF01201021D0
S31508004050CDE900105C4911F81420211F102303EB49
S315080040604111C8B20123202104F0DEF9601CC4B254
S31508004070082CA0DB082456E0534810F8140078B939
S31508004080514800EB4400407850B901206107009080
S31508004090080E1023AFF21022302104F019FA40E07E
S315080040A0494800EB4400407878B1012804D0032839
S315080040B014D0042824D11AE06107080E0123AFF2B0
S315080040C03022302103F06EFF1BE06107080E012342
S315080040D0AFF24022302103F065FF12E06107080EB7
S315080040E00123AFF24C22302103F05CFF09E061079F
S315080040F0080E0123AFF25C22302103F053FF00E0E3
S3150800410000BF00BF01201021CDE900102E4911F88B
S315080041101420102303EB4411C8B20123302104F004
S3150800412083F9601CC4B20C2CA6DB04F0B7F8002493
S3150800413042E004F03DFAFCF74BFF244800780128DA
S315080041403AD1002021490870214800786F2828D1E3
S31508004150002420A206210A2001F0CAFF1948007887
S31508004160012805D11C4801781C4800F0B9F912E06D
S3150800417014480078022805D119480178104800F03B
S31508004180AFF908E00F480078032804D115480178EC
S315080041900D4800F0A5F914A206210A2001F0A8FF8F
S315080041A00AE00B480078792805D1601CC4B2022CB5
S315080041B002DB002401E000E0BBE700BF1CBD0000F5
S315080041C0C617002087130020E417002001000020EE
S315080041D002000020676F0000B5000020A817002025
S315080041E0B6000020B7000020202000002DE9F05F6F
S315080041F004460D4616460AAF97E880074FF0000BAF
S315080042009048066090480570012C4DD100BF0120EA
S315080042108C49086004F0E6FA00BF8C48B0F9000043
S31508004220844203DD8A4800780028F6D1012005F08B
S3150800423067FB884908700846007838B900BF854882
S31508004240007818B9824800780028F8D181480078A3
S31508004250012802D10AF0C4FBECE07E480078032866
S315080042600DD107E07B480078012803D1784800780B
S3150800427000B100E0F6E700BF0AF0B2FBDAE07548E5
S31508004280007804280DD107E072480078012803D188
S315080042906F48007800B100E0F6E700BF0AF0A0FB1F
S315080042A0C8E00AF09DFBC5E0022C5AD102206549F8
S315080042B0086004F097FA00BF601E6449B1F900105F
S315080042C0884203DD624800780028F5D101205D495F
S315080042D0086000BF5D48B0F90000844203DD5C4811
S315080042E000780028F6D1012005F00AFB5949087024
S315080042F00846007838B900BF5648007818B95448B7
S3150800430000780028F8D153480078012802D10AF02D
S3150800431067FB8FE04F48007803280DD107E04D482A
S315080043200078012803D14A48007800B100E0F6E792
S3150800433000BF0AF055FB7DE04648007804280DD1F9
S3150800434007E044480078012803D14148007800B1C5
S3150800435000E0F6E700BF0AF043FB6BE00AF040FB1B
S3150800436068E0032C66DB03203649086004F03AFA55
S3150800437000BF3648B0F90000012803DA344800784F
S315080043800028F6D102202F49086000BF601E2F4979
S31508004390B1F90010884203DD2D4800780028F5D1D0
S315080043A001202849086000BF2848B0F90000844267
S315080043B003DD274800780028F6D1012005F0A0FA89
S315080043C0244908700846007838B900BF21480078A3
S315080043D018B91F4800780028F8D11E480078012827
S315080043E002D10AF0FDFA25E01A48007803280DD113
S315080043F007E018480078012803D11548007800B16D
S3150800440000E0F6E700BF0AF0EBFA13E0114800787F
S3150800441004280DD107E00F480078012803D10C487D
S31508004420007800B100E0F6E700BF0AF0D9FA01E02B
S315080044300AF0D6FA00200549088009F03DF8BDE8DB
S31508004440F09F00009C0000204D0000204A0000203C
S315080044506C0000204C0000202DE9FF4107460C4661
S3150800446016464FF00008092F38D00425042D00DB26
S3150800447000BF032C01D0042C07D10A2009F07CFBCD
S315080044800021204600F0F2FA0124052C01D0062C62
S3150800449004D1B0464146204600F078F9072C01D0F1
S315080044A0082C05D12A462146384600F031F800275F
S315080044B0092C01D00A2C03D1204600F0F9F900276F
S315080044C0002000900190029003462A462146039058
S315080044D03846FFF78BFE322009F04EFBBDE8FF8118
S315080044E070B505460E46002400BF0BE005EB4403F5
S315080044F01A7905EB4403597815F81400FFF7ACFF51
S31508004500601CC4B2B442F1DB0AF06AFA70BD00005E
S3150800451070B504460E46154694480560F01F944942
S3150800452008700120934908709148007800B300206C
S31508004530914908609149C1F888018F49083908608E
S315080045408E49C1F880014FF4C3718D4807F0C3F94D
S315080045504FF4C3718A4807F0BCF94FF4C371884811
S3150800456007F0B5F94FF4C371854807F0AEF91FE0B7
S315080045700120814908608149C1F888017E490839C6
S3150800458008607E49C1F880014FF4C3717C4807F082
S31508004590A2F94FF4C3717A4807F09BF94FF4C37137
S315080045A0774807F094F94FF4C371754807F08DF909
S315080045B0012C1DD14FF4967009F0DEFA01206B49E3
S315080045C0086004F00FF900206E490880012005F004
S315080045D0C1FC6C49088000BF6A48B0F900008442F3
S315080045E003DD694800780028F6D10AF0F9F967E092
S315080045F0022C2BD14FF4967009F0BEFA02205B49C3
S31508004600086004F0EFF800205E490880012005F0F4
S31508004610A1FC5C49088000BF601E5A49B1F9001028
S31508004620884203DD584800780028F5D101204F4913
S31508004630086000BF5348B0F90000844203DD5248C1
S3150800464000780028F6D10AF0CBF939E0032C37DBDD
S315080046504FF4967009F090FA03204449086004F074
S31508004660C1F8002047490880012005F073FC454938
S31508004670088000BF4348B0F90000012803DA424821
S3150800468000780028F6D102203849086000BF601E6D
S315080046903C49B1F90010884203DD3B480078002800
S315080046A0F5D101203149086000BF3648B0F900004D
S315080046B0844203DD344800780028F6D10AF090F9E0
S315080046C00A21062000F062F82948007828B301205C
S315080046D0294908602949C1F8880127490839086025
S315080046E02649C1F880014FF4C371254807F0F3F84D
S315080046F04FF4C371224807F0ECF84FF4C371204811
S3150800470007F0E5F84FF4C3711D4807F0DEF85A20A4
S3150800471009F032FA0AF064F924E001201649086023
S315080047201649C1F888011449083908601349C1F8BF
S3150800473080014FF4C371124807F0CDF84FF4C371E6
S315080047400F4807F0C6F84FF4C3710D4807F0BFF8D5
S315080047504FF4C3710A4807F0B8F85A2009F00CFA62
S315080047600AF03EF900200349087070BD9C0000203D
S315080047704D000020490000208C8122420080224200
S31508004780003401404A0000206C0000202DE9F04169
S3150800479005460E464CF2503006FB00F4052D38D17E
S315080047A00AF01EF923E001203E4908604FF4D27151
S315080047B03D4807F090F800203C49C1F888014FF4BD
S315080047C0AF71394807F085F800203649083908607E
S315080047D04FF4AF71344807F07AF801203349C1F82D
S315080047E080014FF4AF71304807F06FF8641E052C4E
S315080047F0D9D200212C4807F06EF800212A4807F084
S3150800480068F80021284807F060F80021264807F0D4
S315080048105EF8062D38D123E00020224908604FF4BF
S31508004820C371214807F057F801202049C1F88801CB
S315080048304FF4AF711C4807F04CF8012019490839A4
S3150800484008604FF4AF71184807F041F8002017497F
S31508004850C1F880014FF4AF71134807F036F8641EAB
S31508004860052CD9D20021104807F035F800210E484A
S3150800487007F02FF800210C4807F027F800210A480E
S3150800488007F025F80AF0ACF80AF0AAF8002704E0C1
S31508004890642009F071F9781CC7B2082FF8DBBDE867
S315080048A0F08100008C8122420034014000802242BF
S315080048B070B5044600250120334908700A2C2FD10B
S315080048C00020324908603249C1F888012F49083961
S315080048D008602F49C1F880014FF496712D4806F0FB
S315080048E0FAFF4FF496712B4806F0F3FF4FF49671D2
S315080048F0284806F0ECFF4FF49671264806F0E5FFC7
S31508004900012004F0FDFFC5B203E0012004F0F8FF22
S31508004910C5B2002DF9D00AF063F800201A490870CC
S31508004920092C2FD10120194908601949C1F88801B5
S315080049301649083908601649C1F880014FF496717E
S31508004940144806F0C8FF4FF49671124806F0C1FFE6
S315080049504FF496710F4806F0BAFF4FF496710D485A
S3150800496006F0B3FF012004F0CBFFC5B203E0012037
S3150800497004F0C6FFC5B2002DF9D00AF031F80020C0
S315080049800149087070BD0000480000208C81224251
S3150800499000802242003401402DE9F04104460D46CC
S315080049A017461E4601202B4908602B48057003F060
S315080049B019FF012C3CDD00BF601E2849B1F9001023
S315080049C0884203DD264800780028F5D1012004F046
S315080049D097FF244908700846007838B900BF21486F
S315080049E0007818B91E4800780028F8D11D480078C4
S315080049F001281DD01B48007803280AD107E019486A
S31508004A000078012803D11648007800B100E0F6E7DF
S31508004A100EE01448007804280AD107E01148007807
S31508004A20012803D10E48007800B100E0F6E700BF80
S31508004A3001200849086000200B49086000BF0A48A1
S31508004A400068B042FBD300200449088008F034FD12
S31508004A50BDE8F0819C0000204D0000204A0000209F
S31508004A606C0000204C000020500000202DE9F04189
S31508004A7004460E46042098490860032C4BD10027AB
S31508004A80012240F22551954807F055F9012193482E
S31508004A9007F00EF900209249086000BF00219048EF
S31508004AA00068FBF743FEF9D08D4807688D493846FC
S31508004AB0FBF77EFB07468C493846FBF741FE04D8D0
S31508004AC089493846FBF7C6FB07460220874908701E
S31508004AD003F088FE00BF824801683846FBF7BAFB38
S31508004AE08046FBF7A3FD051E01DB284600E0684269
S31508004AF00528F0DA00207E490880002240F2255178
S31508004B00764807F018F90021744807F0D1F8002014
S31508004B107349086000BF042C48D10027012240F2DF
S31508004B2025516E4807F007F901216C4807F0C0F8CF
S31508004B3000206B49086000BF002169480068FBF740
S31508004B40F5FDF9D06648076866493846FBF782FBE3
S31508004B50074600213846FBF7E9FD04D8624938467E
S31508004B60FBF726FB074603206049087003F03AFE68
S31508004B7000BF5B4801683846FBF76CFB8046FBF7CD
S31508004B8055FD051E01DB284600E068420528F0DAD7
S31508004B90002240F22551514807F0CDF800214F4830
S31508004BA007F086F800204E4908608BE0052C19D1DD
S31508004BB002204E49087003F015FE00204D49088072
S31508004BC001204B49088000BF4A49B1F90000002876
S31508004BD001DB014600E041426429F5DB0020444937
S31508004BE008806FE0062C1AD102204049087003F0AD
S31508004BF0F9FD00203F49088001203D49088000BF93
S31508004C003C49B1F90000002801DB014600E04142B9
S31508004C10B1F5C87FF4DB00203549088052E0072C3F
S31508004C2019D103203149087003F0DCFD0020314911
S31508004C30088001202E49088000BF2E49B1F90000DE
S31508004C40002801DB014600E04142B429F5DB0020DB
S31508004C502749088036E0082C19D102202349087014
S31508004C6003F0C0FD00202349088001202049088060
S31508004C7000BF2049B1F90000002801DB014600E029
S31508004C8041426429F5DB0020194908801AE0092CFD
S31508004C9018D103201549087003F0A4FD0020154912
S31508004CA0088001201249088000BF1249B1F90000A6
S31508004CB0002801DB014600E041426429F5DB0020BB
S31508004CC00B49088008F0F8FB09F08AFE00200A491B
S31508004CD00880BDE8F08100009C00002000380140F3
S31508004CE0981500200000BA420000B4434D00002089
S31508004CF054000020560000204A0000202DE9FF5FDE
S31508004D0006460F4690461C46DDE911ABDDF8409095
S31508004D100E9D052D0EDA6EB113988DE8000E0390E0
S31508004D204246394630460F9BFFF760FA642008F082
S31508004D3023FF0AE0052D08DB2B4642463946304656
S31508004D40FFF72AFE642008F017FF032C01D0042C75
S31508004D5006D139462046FFF789FE642008F00CFF85
S31508004D60BDE8FF9F21B1026842F00102026004E03B
S31508004D7002684FF6FE731A400260704701684FF6E4
S31508004D80FE72114001600021016041608160C160CE
S31508004D904B49884208D14A490839496841F00F0108
S31508004DA0474A083A51608AE045491431884208D191
S31508004DB043490839496841F0F001414A083A5160C7
S31508004DC07DE03F492831884208D13D49083949687C
S31508004DD041F470613A4A083A516070E038493C310A
S31508004DE0884208D136490839496841F47041344A3D
S31508004DF0083A516063E032495031884208D1304957
S31508004E000839496841F470212D4A083A516056E03C
S31508004E102B496431884208D129490839496841F43F
S31508004E207001274A083A516049E025497831884295
S31508004E3008D123490839496841F07061204A083A7F
S31508004E4051603CE01F49884206D1011F096841F0BC
S31508004E500F01021F116032E01A491431884208D145
S31508004E601849091F096841F0F001164A121F116016
S31508004E7025E014492831884208D11249091F0968D2
S31508004E8041F470610F4A121F116018E00D493C3158
S31508004E90884208D10B49091F096841F47041094A3B
S31508004EA0121F11600BE007495031884207D10549A6
S31508004EB0091F096841F47021024A121F11607047E0
S31508004EC0080002400804024010B50022026847F6AE
S31508004ED0F0739A430C6A8B6823430C6923434C6925
S31508004EE023438C692343CC6923434C6A23438C6A46
S31508004EF023431A430260CB6843600B6883604B68A0
S31508004F00C36010BD1CB503F053FB002002F0EAFF96
S31508004F100020244948231822CDE900101321022035
S31508004F2003F0BCF80120204948231822CDE90010D7
S31508004F3013211A2003F0B2F801201C49482318222D
S31508004F40CDE900101321322003F0A8F801201849F2
S31508004F5048231822CDE9001013214A2003F09EF8B1
S31508004F600120144948231822CDE900101321622094
S31508004F7003F094F8012310A22F21084603F012F833
S31508004F8003F08CF90BE003F013FBFCF721F80C484F
S31508004F900078012803D100200949087000E0F2E7EB
S31508004FA000BF1CBD2E28010896290108B62A01084B
S31508004FB06E2A0108262A0108C9E8D6C3000000009F
S31508004FC001000020704700001CB547488078474913
S31508004FD0887045488078401EC1B244484173407B7A
S31508004FE0012802DC0121414841733F4881783F4846
S31508004FF001763D488078401EC1B23C4880F82310AF
S3150800500090F82300012803DC0121384880F8231092
S3150800501003F0CEFA002002F065FF002334A2102127
S31508005020184602F0BFFF0020102333A2194600904D
S31508005030202003F04DFA01232DA22021002002F0A2
S31508005040B1FF012010232DA220210090084603F06D
S315080050503FFA01232AA23021002002F0A3FF0120F3
S31508005060102329A230210090202003F031FA0020D5
S315080050701021CDE900101C48807825490A5C0223D6
S315080050801021602003F0D0F901201021CDE900108D
S31508005090164880781E490A5C02232021602003F006
S315080050A0C3F903F0FBF81CE003F082FAFBF790FF64
S315080050B018480078012814D10020164908701648A7
S315080050C0007879280CD115A206210A2001F010F8DB
S315080050D008F0F8F912A206210A2001F009F800E002
S315080050E000E0E1E700BF1CBDB80000202601002053
S315080050F0C2B7CFDF000000003578300035783200BF
S31508005100D1ADBCA30000000053543138380000006C
S31508005110A00000200100002002000020676F0000A8
S31508005120202000002DE9F04706460F4690461C460B
S31508005130DDF82090E11704EB5171C910A4EBC10109
S3150800514031B92046E11704EB5171C1F3C70506E0F2
S315080051502046E11704EB5171C910491CCDB23D46F2
S3150800516011E02946304601F00DF9B24607E019F874
S31508005170010B01F049F90AF1010000F0FF0AC245E6
S31508005180F5DD681CC5B2A542EBDDBDE8F087000079
S31508005190FEB504460E46002001900290002E33D13B
S315080051A040F27620844200DC0446A4F2762084B2DB
S315080051B00A2094FBF0F084B2152C00DD1524002596
S315080051C009E0042105F10800254A11542021203060
S315080051D01154681CC5B2152DF3DB00250AE0F4202E
S315080051E0C5F11C011E4A50542F20C5F13C015054EC
S315080051F0681CC5B2A542F2DB194801237F220021AB
S3150800520000906020FFF78EFF012E28D100BF642092
S3150800521094FBF0F00A2190FBF1F201FB120030300A
S31508005220C0B28DF804002E208DF805000A2094FBE4
S31508005230F0F090FBF1F201FB12003030C0B28DF8AD
S3150800524006000A2094FBF0F100FB11403030C0B292
S315080052508DF8070001AA0021602001F04FF8FEBD75
S31508005260020900201CB503F0A3F9002002F03AFE5B
S315080052700120244948231822CDE9001013210220D1
S3150800528002F00CFF0120204948231822CDE900101E
S3150800529013211A2002F002FF01201C494823182274
S315080052A0CDE900101321322002F0F8FE012018493A
S315080052B048231822CDE9001013214A2002F0EEFEF9
S315080052C00020144948231822CDE900101321622032
S315080052D002F0E4FE012310A22F211F2002F062FE35
S315080052E002F0DCFF0BE003F063F9FBF771FE0D48F3
S315080052F00078012803D100200A49087000E0F2E787
S3150800530000BF1CBD2E28010896290108B62A0108E7
S315080053106E2A0108262A0108B6E6BBFAB5F7BDDAF1
S31508005320000000000100002008B503F041F9002044
S3150800533002F0D8FD0120102334A21946009000205F
S3150800534003F0C6F8012332A21021084602F02AFE0D
S315080053500120102330A219460090402003F0B8F827
S3150800536001232EA21021502002F01CFE012010233A
S315080053702CA220210090002003F0AAF801232AA2DB
S315080053802021102002F00EFE0120102328A2202141
S315080053900090402003F09CF8012326A220215020EB
S315080053A002F000FE0120102324A2302100900020E4
S315080053B003F08EF8012322A23021102002F0F2FD1C
S315080053C002F06CFF21E02048007880B90120102304
S315080053D01EA230210090402003F07AF8012315A27E
S315080053E03021502002F0DEFD02F058FF09E00120CE
S315080053F0102317A230210090402003F069F802F02C
S315080054004DFF03F0D5F8FBF7E3FDDCE7312E00008E
S31508005410D5C5BFAA00000000322E0000C8FDBDC7D2
S3150800542000000000332E0000C9ECD6B100000000D1
S31508005430342E0000CAD5BBD8000000004F2E00004D
S31508005440C9E8D6C300000000711500207A2E0000B6
S31508005450202020202020000030B5044604254FF4E3
S31508005460302000F06FF80546042D17D10C48006966
S3150800547040F002000A49086108464461006940F0A4
S31508005480400008614FF4302000F05CF805460448F7
S31508005490006941F6FD71084001490861284630BD9A
S315080054A00020024004200B49C96801F0010109B136
S315080054B001200EE00749C96801F0040109B102207C
S315080054C007E00449C96801F0100109B1032000E0AA
S315080054D004207047002002400348006940F080001D
S315080054E001490861704700000020024070B5044673
S315080054F00D460426F00200F025F80646042E11D1C2
S315080055000948006940F00100074908612580F00252
