S31508000000880B00204501000841190008BD120008A8
S315080000103D190008690F0008F741000800000000B4
S31508000020000000000000000000000000B51D0008E8
S315080000300D11000800000000AD1B0008892C0008FF
S315080000405F0100085F0100085F0100085F01000802
S315080000505F0100085F0100085F0100085F010008F2
S315080000605F0100085F0100085F0100085F010008E2
S315080000705F0100085F0100085F0100085F010008D2
S315080000805F0100085F0100085F0100085F010008C2
S315080000905F0100085F0100085F0100085F010008B2
S315080000A05F0100085F0100085F0100085F010008A2
S315080000B05F0100085F0100085F0100085F01000892
S315080000C05F0100085F0100085F0100085F01000882
S315080000D05F010008613E0008493F0008D53F000857
S315080000E05F0100085F0100085F0100085F01000862
S315080000F05F0100085F0100085F0100085F01000852
S315080001005F0100085F0100085F0100085F01000841
S315080001105F0100085F0100082D2F00085530000810
S315080001205F0100085F0100085F0100085F01000821
S31508000130DFF80CD000F04AFC00480047994F000849
S31508000140880B00200648804706480047FEE7FEE77A
S31508000150FEE7FEE7FEE7FEE7FEE7FEE7FEE7FEE769
S315080001608D2C00083101000840EA01039B0703D0E3
S3150800017009E008C9121F08C0042AFAD203E011F8D8
S31508000180013B00F8013B521EF9D27047D2B201E09A
S3150800019000F8012B491EFBD270470022F6E710B57E
S315080001A013460A4604461946FFF7F0FF204610BDD7
S315080001B0F0B480EA0102D40F4200B2EB410F02D23A
S315080001C00246084611464A0042D0C30DDDB2C1F3C5
S315080001D0C752AD1A202D35DAC1F3160141F40002D3
S315080001E004B15242C5F1200602FA06F12A4110442A
S315080001F0B3EBD05F23D0C4B1012DA0EBC35009DC0B
S31508000200F0BC4FF0004202EAC352DBB200F5000030
S3150800021000F021BB400000F1807000EBC350A0F154
S31508000220807040EAD170490009E0490841EAC07186
S31508000230A0EBC35000F50000400800EBC350F0BC2B
S3150800024000F000BB6142012202EB4101001BF6E708
S31508000250F0BC704781F00041AAE780F00040A7E7AC
S3150800026080EA010210B502F00043400022D04A009D
S315080002701FD0010E01EB1261C0F35600C2F35602FD
S3150800028040F4000042F40002A0FB022000047F397B
S31508000290140400D0401C50EA124001D44000491E04
S315080002A0C2B20C0604EBD010401C4008802A02D0CB
S315080002B003E0002010BD20F00100002900DA00202C
S315080002C0184310BD2DE9FE4F804681EA0300C00F92
S315080002D00C46009021F0004123F00045B8EB0200DF
S315080002E0A94105D24046214690461C460B46024681
S315080002F023F00040104347D0270DC7F30A00C3F385
S315080003000A510290401A019040286BDAC3F3130091
S3150800031040F4801B0098924620B10023D2EB030AD2
S3150800032063EB0B0B01985946C0F14002504600F0AA
S3150800033058FA06460D4650465946019A00F070FA94
S3150800034010EB08006141002487EA115284EAE7733A
S315080003501A4340D0009A62B3019A012A4FEA07521B
S3150800036015DC001B61EB02014FF0004202EA07525E
S31508000370CDE90042001C41F5801132462B4600F0BB
S31508000380A7FA03B0BDE8F08F40462146F9E7001BFF
S3150800039061EB0201001C41F5801300185B4120182F
S315080003A0A2F5001747EB030140EAD570B6196D416F
S315080003B011E06D084FEA360645EAC0754FEA07525E
S315080003C0001B61EB0201001C41F5801149084FEA48
S315080003D030000019514132462B4603B0BDE8F04FB4
S315080003E000F067BA0098012240000023D0EB020211
S315080003F063EBE073009821464FEAE074B8EB00001F
S3150800040061EB0401E9E783F000435BE781F0004113
S3150800041058E72DE9FE4F81EA030404F0004421F071
S31508000420004100944FF0000B23F0004350EA01040A
S315080004305ED052EA03045BD0C3F30A54C1F30A55EB
S315080004402C44A4F2F3340194A0FB0254C1F3130123
S3150800045041F48011C3F3130343F4801301FB0244F0
S3150800046000FB034E840A970A44EA815447EA8357F5
S31508000470A4FB076802958D0A05FB07854FEA932CAE
S3150800048004FB0C542705029D4FEA065847EA16371F
S31508000490B5EB08056EEB070C870E920E47EA811737
S315080004A042EA8312A7FB0201B6EB0B0164EB0004D8
S315080004B02B0D43EA0C335E1844EB1C50DA465146C2
S315080004C0E7FB0201C5F313044FEA0B3343EA14535F
S315080004D04FEA0432019C43EA0603A4F10C04029491
S315080004E0009CCDE900B400F0F3F903B0BDE8F08F45
S315080004F000200146F9E72DE9F04D81EA030404F0EE
S31508000500004B21F0004514464FF0000A23F0004145
S3150800051050EA050220D054EA01021DD0C5F30A5755
S315080005200246C5F31303C1F31300C1F30A5640F498
S31508000530801543F48013A7EB0608101BD64608F26D
S31508000540FD3873EB050002D308F1010801E09218A3
S315080005505B41B8F1000F03DA00200146BDE8F08DD3
S3150800056000204FF48011064684460EE0171B73EBF5
S31508000570050705D3121B63EB050306434CEA010C7A
S3150800058049084FEA300092185B4150EA0107EDD15D
S3150800059052EA030012D082EA040083EA05010843FE
S315080005A005D0101BAB4106D20122002306E000222B
S315080005B04FF0004302E06FF0010253101AEB0600F9
S315080005C04CEB085110EB0A0041EB0B01BDE8F04D6E
S315080005D000F06FB9C10F80EAE0700844CA07962395
S315080005E0002100F038B996230022114600F033B9ED
S315080005F00EB5C10F80EAE0700844CA07002140F230
S3150800060033438DE80E000A460B4600F061F903B045
S3150800061000BD0EB540F2334102910021CDE900112B
S315080006200A460B4600F054F903B000BD00F000423C
S3150800063020F00040C10DC0F3160040F400007F29E9
S3150800064001DA00207047962903DCC1F19601C840FB
S3150800065001E096398840002AF4D04042704770B5C8
S31508000660C1F30A5201F000450024C1F3130140F218
S31508000670FF3341F480119A4201DA002070BD40F23E
S3150800068033439A42A2F2334203DC524200F0B8F8EE
S3150800069000E090402C43F1D0404270BD00F000428B
S315080006A030F000400AD0C10D01F56071C0F31600A4
S315080006B042EA0151C208400711437047002001462B
S315080006C07047000030B5041E71F1000404DB4FF0DA
S315080006D00044404264EB0101141E73F1000405DB7B
S315080006E01C464FF00043524263EB0403994208BF8D
S315080006F0904230BD01F0004330B421F0004150EA89
S31508000700010206D00A0DA2F56072C1F31301002A90
S3150800071002DC30BC00207047440F44EAC104C10023
S31508000720E01830BC00EBC25000F08CB8002801DBA2
S31508000730C0F10040002901DBC1F100418142704748
S31508000740002801DBC0F10040002901DBC1F10041AE
S315080007508842704730B50B46014600202022012406
S3150800076009E021FA02F59D4205D303FA02F5491B71
S3150800077004FA02F52844151EA2F10102F1DC30BD87
S315080007802DE9F05F0546002092469B4688460646B8
S31508000790814640241BE0284641464746224600F04B
S315080007A02FF853465A46C01A914110D31146184697
S315080007B0224600F016F82D1A67EB01084F46224626
S315080007C00120002100F00DF817EB00094E41201E0C
S315080007D0A4F10104DFDC484631462A464346BDE813
S315080007E0F09F202A04DB203A00FA02F10020704725
S315080007F09140C2F1200320FA03F319439040704751
S31508000800202A04DB203A21FA02F00021704721FA57
S3150800081002F3D040C2F120029140084319467047BE
S31508000820202A06DBCB17203A41FA02F043EAE073A6
S3150800083006E041FA02F3D040C2F120029140084393
S31508000840194670470029A8BF7047401C490008BFD1
S3150800085020F00100704710B4B0FA80FC00FA0CF0E2
S3150800086050EA010404BF10BC704749B1CCF120041A
S3150800087021FA04F411FA0CF118BF012121430843A7
S31508000880A3EB0C01CB1D4FEA00614FEA102042BFD3
S31508000890002010BC704700EBC35010440029A4BFC9
S315080008A010BC7047401C490008BF20F0010010BC6E
S315080008B0704710B5141E73F1000408DA401C41F1A4
S315080008C0000192185B411A4301D120F0010010BDC6
S315080008D02DE9F04D92469B4611B1B1FA81F202E03C
S315080008E0B0FA80F220329046FFF77BFF04460F46A7
S315080008F040EA0A0041EA0B0153465A46084313D018
S31508000900114653EA010019D0C8F140025046FFF7D4
S3150800091077FF05460E46504659464246FFF761FFA1
S31508000920084305D0012004E020463946BDE8F08D8D
S315080009300020054346EAE0762C4337430A986305C8
S31508000940E40AA0EB08000022FD0A44EA47540A30EC
S3150800095002D500200146E9E7010510196941DDE9DC
S31508000960084500196941BDE8F04DA2E770B521F0C8
S31508000970004303430CD0C1F30A550024D5EB040504
S3150800098064EB0403D617AD1AB34102DB0020014617
S3150800099070BD201841EB025170BDC1F30A52C1F374
S315080009A0130140F2FF3341F480119A4202DA002023
S315080009B00146704740F233439A42A2F2334202DCC0
S315080009C05242FFF71DBFFFF70CBF0000064C074D4C
S315080009D006E0E06840F0010394E807009847103401
S315080009E0AC42F6D3FFF7A8FB207A0008407A000845
S315080009F02DE9F04D00231A461B1A8A4103DB002015
S31508000A000146BDE8F08DC1F30A52C1F3130141F462
S31508000A1080154FF0000BD10702D100186D41521E08
S31508000A200027044640F2FF11384601EB620A3E46AB
S31508000A308046024600204FF48011FFF7E1FEC219F6
S31508000A407141BB1846EB0100B4EB030C75EB000CC7
S31508000A5004D3E41A65EB000517460E46241908F177
S31508000A6001006D4180463428E3DDF91946EB06009E
S31508000A70091BA84103D24FF0FF32134601E00022BA
S31508000A8013461BEB070046EB0A51BDE8F04DFFF78E
S31508000A9010BF70B58C1810F8015B15F0070301D16B
S31508000AA010F8013B2A1106D110F8012B03E010F8C3
S31508000AB0016B01F8016B5B1EF9D12B0705D40023E6
S31508000AC0521E0DD401F8013BFAE710F8013BCB1A88
S31508000AD0921C03E013F8015B01F8015B521EF9D57D
S31508000AE0A142D8D3002070BD21B1826842F001022C
S31508000AF0826003E0826822F001028260704721B1B9
S31508000B00826842F48072826003E0826822F480720E
S31508000B108260704700B58BB00121084601F07CF869
S31508000B20114800F02FFA1148009011480190002052
S31508000B300290012003900020049080200590400038
S31508000B400690800007902020089000020990002057
S31508000B500A906946044800F0BBFA0121024800F0F1
S31508000B6005FA0BB000BD0000080002404C24014005
S31508000B707002002000B587B0FFF7CCFF01214FF4C3
S31508000B80047001F079F84FF4004001F039F80120BB
S31508000B90ADF8040003208DF8060000208DF8070044
S31508000BA001A91E4800F0B3FA002002908DF80C0047
S31508000BB001208DF80D004FF4602004900020059068
S31508000BC001208DF8180002A9154800F06DF80523D4
S31508000BD001220A21124800F08FF801211048FFF778
S31508000BE08EFF01210E48FFF77FFF0D4800F0E0F861
S31508000BF000BF0B4800F04EF80028FAD1084800F06C
S31508000C00E7F800BF064800F03BF80028FAD10121B2
S31508000C10034800F0D2F807B000BD000000100140FC
S31508000C200024014010B504461248844208D1012127
S31508000C30401501F031F80021601501F02DF817E094
S31508000C400D48844208D10121001501F025F800213C
S31508000C50201501F021F80BE00848844208D101214B
S31508000C60C80301F019F800214FF4004001F014F808
S31508000C7010BD00000024014000280140003C01404E
S31508000C80014600208A6802F004020AB1012000E049
S31508000C9000207047014600208A6802F008020AB15F
S31508000CA0012000E00020704730B5024600200023EE
S31508000CB050680F4C20400D790C6844EA05242043FF
S31508000CC0506090680B4C2040D1E902542C434D7972
S31508000CD044EA450420439060D06A20F470000C7CF6
S31508000CE0641EE4B2234340EA0350D06230BD0000DC
S31508000CF0FFFEF0FFFDF7F1FFF0B504460D460020B4
S31508000D000021092D11DDE068A5F10A0606EB460764
S31508000D10072606FA07F18843A5F10A0606EB4606F2
S31508000D2003FA06F10843E0600CE0206905EB450785
S31508000D30072606FA07F1884305EB450603FA06F186
S31508000D4008432061072A0FDA606B561E06EB8607F2
S31508000D501F2606FA07F18843561E06EB860605FA8D
S31508000D6006F10843606322E00D2A0FDA206BD61FCE
S31508000D7006EB86071F2606FA07F18843D61F06EBF9
S31508000D80860605FA06F10843206310E0E06AA2F138
S31508000D900D0606EB86071F2606FA07F18843A2F119
S31508000DA00D0606EB860605FA06F10843E062F0BD75
S31508000DB0816841F008018160704721B1826842F478
S31508000DC0A002826003E0826822F4A0028260704773
S31508000DD0816841F0040181607047000000B587B062
S31508000DE0012148F2800000F047FF4FF4004000F070
S31508000DF007FF4020ADF8040000208DF8070001A980
S31508000E00174800F084F91748FFF70CFF00200290F6
S31508000E108DF80C008DF80D004FF46020049000202A
S31508000E20059001208DF8180002A90E48FFF73CFF2F
S31508000E3001210C48FFF758FE0A48FFF7B9FF00BF23
S31508000E400848FFF727FF0028FAD10648FFF7C0FF32
S31508000E5000BF0448FFF714FF0028FAD107B000BD09
S31508000E60001C0140003C014008B50121202000F08B
S31508000E7003FF0F20ADF8000010208DF803000320B3
S31508000E808DF802006946344800F041F94FF4406095
S31508000E90ADF8000028208DF8030069462E4800F0BA
S31508000EA036F90121C82000F0E7FE7420ADF80000ED
S31508000EB010208DF8030003208DF8020069462748A4
S31508000EC000F025F91220ADF8000010208DF8030077
S31508000ED003208DF802006946214800F018F94FF4FE
S31508000EE08070ADF8000010208DF8030003208DF8FF
S31508000EF0020069461B4800F00AF90820ADF8000010
S31508000F0004208DF803006946144800F000F92420EF
S31508000F10ADF8000004208DF803006946104800F07B
S31508000F20F6F84FF40070ADF8000004208DF80300C1
S31508000F3069460C4800F0EBF84FF42050ADF8000075
S31508000F4010208DF8030003208DF802006946034837
S31508000F5000F0DDF808BD000000140140001801404B
S31508000F60001C0140000C014000BFFEE721B10268E9
S31508000F7042F00102026004E002684FF6FE731A406E
S31508000F800260704701684FF6FE7211400160002149
S31508000F90016041608160C1604B49884208D14A4975
S31508000FA00839496841F00F01474A083A51608AE012
S31508000FB045491431884208D143490839496841F0FE
S31508000FC0F001414A083A51607DE03F49283188429C
S31508000FD008D13D490839496841F470613A4A083AE6
S31508000FE0516070E038493C31884208D136490839A1
S31508000FF0496841F47041344A083A516063E032491D
S315080010005031884208D130490839496841F470217D
S315080010102D4A083A516056E02B496431884208D176
S3150800102029490839496841F47001274A083A516044
S3150800103049E025497831884208D123490839496861
S3150800104041F07061204A083A51603CE01F498842E5
S3150800105006D1011F096841F00F01021F116032E035
S315080010601A491431884208D11849091F096841F0FC
S31508001070F001164A121F116025E0144928318842EA
S3150800108008D11249091F096841F470610F4A121FF5
S31508001090116018E00D493C31884208D10B49091FF7
S315080010A0096841F47041094A121F11600BE00749AB
S315080010B05031884207D10549091F096841F4702152
S315080010C0024A121F116070470800024008040240D5
S315080010D010B50022026847F6F0739A430C6A8B68CB
S315080010E023430C6923434C6923438C692343CC6906
S315080010F023434C6A23438C6A23431A430260CB6812
S3150800110043600B6883604B68C36010BD70472DE968
S31508001110F04102460025002600200023002400276F
S3150800112091F803C00CF00F0591F803C00CF0100CF1
S31508001130BCF1000F03D091F802C04CEA050591F8FE
S3150800114000C0BCF1000F31D0146800202BE04FF02E
S31508001150010C0CFA00F3B1F800C00CEA03069E4233
S3150800116020D183004FF00F0C0CFA03F7BC4305FAA5
S3150800117003FC4CEA040491F803C0BCF1280F06D11D
S315080011804FF0010C0CFA00FCC2F814C00AE091F802
S3150800119003C0BCF1480F05D14FF0010C0CFA00FC56
S315080011A0C2F810C0401C0828D1D31460B1F800C09A
S315080011B0BCF1FF0F34DD546800202EE000F1080C66
S315080011C04FF0010808FA0CF3B1F800C00CEA030660
S315080011D09E4221D183004FF00F0C0CFA03F7BC4353
S315080011E005FA03FC4CEA040491F803C0BCF1280F85
S315080011F005D100F1080C08FA0CF8C2F8148091F829
S3150800120003C0BCF1480F07D100F1080C4FF00108E4
S3150800121008FA0CF8C2F81080401C0828CED354608F
S31508001220BDE8F081F0B50A46002300240021002518
S3150800123000F00046B6F1004F02D11D4EF16901E0FB
S315080012401B4E7168C0F3034583B200F44016B6F529
S31508001250401F08D121F07061154E766826F0706639
S31508001260134F7E6012E000F48016B6F5801F06D193
S31508001270032606FA05F4A14341F0706106E0460D1F
S31508001280360103FA06F6B14341F0706122B1460D04
S31508001290360103FA06F6314300F00046B6F1004F70
S315080012A002D1034EF16101E0014E7160F0BD00000C
S315080012B000000140416170470161704700BFFEE7C9
S315080012C000B587B00121084600F0B6FC01210D20C3
S315080012D000F0D2FC01218748FFF7A4FF01218648C8
S315080012E0FFF7A0FF4FF40040ADF8180004208DF872
S315080012F01B0003208DF81A0006A98048FFF707FF90
S315080013000820ADF8180004208DF81B0003208DF87E
S315080013101A0006A97A48FFF7FAFE4FF0804002F055
S315080013208DFA4FF6FF70ADF810000020ADF80C00EE
S31508001330ADF81200ADF80E0003A94FF0804002F098
S315080013403DFD00231A4603214FF0804002F06AFB58
S31508001350684602F0EFFB0620ADF8080069464FF034
S31508001360804002F091FB00204FF0804188840121E3
S31508001370880702F048FA0121022000F05DFC0121ED
S31508001380042000F079FCC020ADF8180004208DF880
S315080013901B0003208DF81A0006A95848FFF7B7FE68
S315080013A0584802F04BFA4FF6FF70ADF810000020CF
S315080013B0ADF80C00ADF81200ADF80E0003A95148BF
S315080013C002F0FCFC00231A4603214E4802F02AFBD1
S315080013D0684602F0AFFB0620ADF8080069464948A2
S315080013E002F052FB00204749243108800121454874
S315080013F002F009FA0121042000F01EFC0121082050
S3150800140000F03AFCC020ADF8180004208DF81B0047
S3150800141003208DF81A0006A93948FFF778FE3A48DE
S3150800142002F00CFA4FF6FF70ADF810000020ADF888
S315080014300C00ADF81200ADF80E0003A9324802F010
S31508001440BDFC00231A4603212F4802F0EBFA684632
S3150800145002F070FB0620ADF8080069462A4802F03B
S3150800146013FB00202849243108800121264802F070
S31508001470CAF90121082000F0DFFB0121042000F051
S31508001480FBFB0320ADF8180004208DF81B00032091
S315080014908DF81A0006A91948FFF739FE1B4802F00D
S315080014A0CDF94FF6FF70ADF810000020ADF80C002E
S315080014B0ADF81200ADF80E0003A9144802F07EFC40
S315080014C000231A460321114802F0ACFA684602F0D6
S315080014D031FB0620ADF8080069460C4802F0D4FA3C
S315080014E000200A49243108800121084802F08BF9B6
S315080014F007B000BD000230000003180000080140D4
S31508001500000C01400004004000080040000C0040A8
S3150800151030B589B005460C460121C80200F0ACFB7F
S315080015200121402000F0A8FB01213048FFF77AFE90
S315080015304FF42050ADF8200018208DF82300032022
S315080015408DF8220008A92A48FFF7E1FDADF81850E2
S31508001550ADF814400020ADF81A00ADF8160005A93C
S31508001560244802F02BFC6020ADF804000120ADF8F9
S3150800157006000020ADF80A00ADF80C000420ADF80E
S3150800158008000020ADF80E004FF48070ADF810008A
S315080015900020ADF8120001A9164802F0D5FA01A9F3
S315080015A0144802F01DFB0821124802F06BFB01A942
S315080015B0104802F075FB08210E4802F0C1FB012114
S315080015C00C4802F02CF901210A4802F00DF9002115
S315080015D0084802F0C0FB0021064802F0BEFB0121C4
S315080015E0044802F010F909B030BD0000C00016002A
S315080015F000180140002C0140F8B504460F4616466F
S31508001600002535E0705D7F281BDD705D8DF80000D4
S31508001610681C305C8DF8010000208DF802007620E9
S31508001620B0EBC40F02DA0024B81CC7B2E106080EF4
S315080016306A46394600F04AF8A01CC4B2A81CC5B2CE
S3150800164016E0705D8DF8000000208DF80100782006
S31508001650B0EBC40F02DA0024B81CC7B2E106080EC4
S315080016606A46394600F0B2F8601CC4B2681CC5B2B6
S31508001670705D0028C6D1F8BD70B5002415E004F1E8
S31508001680B001C8B200F0F8F8012000F0F5F8102013
S3150800169000F0F2F8002504E0002000F01DF9681CAF
S315080016A0C5B2802DF8DB601CC4B2082CE7DB70BD20
S315080016B009E043F2264100BF0A00A1F1010399B2ED
S315080016C0FAD1421E90B20028F3D170472DE9F047AF
S315080016D081460F4690460024002501266BE000242B
S315080016E0012611E03748005D18F80510884209D12F
S315080016F03449601C095C681C18F80000814201D155
S31508001700260105E0A01CC4B22E48005D7F28E9DC4E
S3150800171000BFB9F1760F03DD4FF00009B81CC7B258
S315080017203946484600F096F8012E21D039464846F3
S3150800173000F090F8002407E02349885D00F0CCF813
S31508001740701C86B2601CC4B2102CF5DB781CC1B2C2
S31508001750484600F07FF8002407E01B49885D00F042
S31508001760BBF8701C86B2601CC4B2102CF5DB1CE0FA
S31508001770681CC5B23946484600F06CF8002404E0F7
S31508001780002000F0A9F8601CC4B2102CF8DB781C05
S31508001790C1B2484600F05EF8002404E0002000F0DC
S315080017A09BF8601CC4B2102CF8DB09F1100000F09D
S315080017B0FF09A81CC5B218F8050000288FD1BDE896
S315080017C0F0870000745F0008816000082DE9F04783
S315080017D006460F46904600250024A14631E018F833
S315080017E009002038C5B2782E02DD0026781CC7B25B
S315080017F03946304600F02EF8002407E004EB0511C0
S31508001800134A505C00F068F8601CC4B2082CF5DB7B
S31508001810781CC1B2304600F01DF8002408E004EB3D
S31508001820051108310A4A505C00F056F8601CC4B22B
S31508001830082CF4DB06F10800C6B209F1010000F035
S31508001840FF0918F809000028C9D1BDE8F08700008B
S315080018505E73000870B504460D4605F1B001C8B2BE
S3150800186000F00AF8102141EA141000F005F804F017
S315080018700F0000F001F870BD70B504460825042174
S315080018801448FFF717FD08211248FFF713FD4021FA
S315080018901048FFF70FFD16E004F0800020B1202164
S315080018A00C48FFF709FD03E020210A48FFF702FD6F
S315080018B040210848FFF700FD00BF40210548FFF713
S315080018C0F9FC6006040E2800A5F10101CDB2E3D1AA
S315080018D070BD00000020014070B5044608250421AB
S315080018E01548FFF7E7FC08211348FFF7E5FC00BF9A
S315080018F040211148FFF7DEFC00BF16E004F0800027
S3150800190020B120210C48FFF7D7FC03E020210A4824
S31508001910FFF7D0FC40210848FFF7CEFC00BF402166
S315080019200548FFF7C7FC6006040E2800A5F101016B
S31508001930CDB2E3D170BD00000020014000BFFEE734
S315080019407047000070B5002100230F22C47804B345
S31508001950154C246804F4E064C4F5E064210AC1F176
S315080019600403CA40447804FA03F1847814402143F6
S3150800197009010E4C0678A155047804F01F050124C8
S31508001980AC4005786D11AD0005F1E025C5F80041BC
S3150800199009E0047804F01F050124AC40044D0678DC
S315080019A0761145F8264070BD0CED00E000E400E035
S315080019B080E100E070B50646002415E004F1B001A8
S315080019C0C8B2FFF759FF0120FFF756FF1020FFF7AF
S315080019D053FF002504E03046FFF77EFF681CC5B2BA
S315080019E0802DF8DB601CC4B2082CE7DB70BD000054
S315080019F008B50121080200F03FF97F20ADF8000084
S31508001A0003208DF8020010208DF8030069463B4834
S31508001A10FFF77DFB04213948FFF74CFC08213748BE
S31508001A20FFF74AFC40213548FFF746FC10213348AA
S31508001A30FFF740FC3220FFF73BFE10212F48FFF747
S31508001A403BFCAE20FFF718FF0020FFF715FF10201C
S31508001A50FFF712FF4020FFF70FFF8120FFF70CFF6B
S31508001A60CF20FFF709FFA120FFF706FFC820FFF7E1
S31508001A7003FFA620FFF700FFA820FFF7FDFE3F2083
S31508001A80FFF7FAFED320FFF7F7FE0020FFF7F4FE74
S31508001A90D520FFF7F1FE8020FFF7EEFED920FFF7ED
S31508001AA0EBFEF120FFF7E8FEDA20FFF7E5FE12204D
S31508001AB0FFF7E2FEDB20FFF7DFFE4020FFF7DCFE44
S31508001AC02020FFF7D9FE0220FFF7D6FE8D20FFF76C
S31508001AD0D3FE1420FFF7D0FEA420FFF7CDFEA620E4
S31508001AE0FFF7CAFEAF20FFF7C7FE0020FFF762FF29
S31508001AF000210846FFF7AEFE08BD000000200140A1
S31508001B002DE9F84F0446D4E90701FEF7A3FBE06088
S31508001B104FF080402169FEF7A3FB8246E168FEF795
S31508001B209CFB81466169FEF743FB8046A168FEF788
S31508001B3097FB0646E1686068FEF792FB0090D4E9D9
S31508001B400301FEF787FB83462168FEF789FB81467A
S31508001B50B4F91800FEF73EFD82464946FEF728FB13
S31508001B6080460099FEF724FB07463146FEF720FB20
S31508001B700546FEF75BFD00B2208320696061E068D8
S31508001B802061B4F9180040F23E31884201DB08466C
S31508001B902083B4F918000449884202DC4FF6C24093
S31508001BA02083BDE8F88F0000C2FCFFFF70470000E5
S31508001BB00FB438B50446002564211048FEF7EDFA3F
S31508001BC006A800900D48009A059902F095FC002099
S31508001BD000900BE000BF208800F040000028FAD0F3
S31508001BE02846691C8DB20549085CA0800348405DFB
S31508001BF00028EFD138BC5DF814FB0000220700204E
S31508001C0001460020034A506820F4404008435060CB
S31508001C10704700000010024029B1064A5269024383
S31508001C20044B5A6104E0034A52698243014B5A61E4
S31508001C30704700000010024029B1064AD2690243E3
S31508001C40044BDA6104E0034AD2698243014BDA6144
S31508001C50704700000010024029B1064A1269024383
S31508001C60044B1A6104E0034A12698243014B1A6164
S31508001C70704700000010024029B1064A92690243E3
S31508001C80044B9A6104E0034A92698243014B9A61C4
S31508001C90704700000010024029B1064AD268024384
S31508001CA0044BDA6004E0034AD2688243014BDA60E7
S31508001CB0704700000010024030B5002100220024C1
S31508001CC000232D4D6D6805F00C0121B1042905D0BE
S31508001CD0082923D105E0294D056022E0274D056036
S31508001CE01FE0254D6D6805F47012234D6D6805F4E7
S31508001CF08034022505EB92421CB9214D55430560F7
S31508001D000BE01D4D6D6805F400351DB11C4D55439E
S31508001D10056002E0194D5543056002E0174D056060
S31508001D2000BF00BF144D6D6805F0F0010909154D97
S31508001D306B5C0568DD4045600F4D6D6805F4E06134
S31508001D40090A104D6B5C4568DD4085600A4D6D6873
S31508001D5005F46051C90A0B4D6B5C4568DD40C560EA
S31508001D60054D6D6805F44041890B074D6B5CC568E8
S31508001D70B5FBF3F5056130BD0010024000127A008C
S31508001D8000093D00260200203602002030B5034631
S31508001D900C461546002207E0184600F008F824F815
S31508001DA012009B1C501C82B2AA42F5DB30BD0146CC
S31508001DB008887047704710B500F002F810BD00009B
S31508001DC00CB50020019000903348006840F480303C
S31508001DD03149086000BF3048006800F400300090C0
S31508001DE00198401C0190009818B90198B0F5A06FA9
S31508001DF0F1D12948006800F4003010B101200090A4
S31508001E0001E0002000900098012843D1234800688B
S31508001E1040F01000214908600846006820F00300D9
S31508001E2008600846006840F0020008601A484068E2
S31508001E30194948600846406848600846406840F4C2
S31508001E40806048600846406820F47C104860084670
S31508001E50406840F4E81048600846006840F0807022
S31508001E60086000BF0C48006800F000700028F9D030
S31508001E700948406820F0030007494860084640685A
S31508001E8040F00200486000BF0348406800F00C00BC
S31508001E900828F9D10CBD00000010024000200240BD
S31508001EA02DE9F04F89B083464FF0000A0020FB4920
S31508001EB00870FB490870FB490870FB4908708146A1
S31508001EC076E10020F94941F82900F94941F8290045
S31508001ED0002477E00120F7490860F749C1F8900126
S31508001EE0F6490860F649C1F8A001204604EBD0710E
S31508001EF04910A4EB4101F14A08321160214604EB6E
S31508001F00D172501000EBD0725210A0EB4202ED4B8A
S31508001F10C3F89421224604EBD273591001EBD1730E
S31508001F20581000EBD0735B10A0EB4303E34D10355C
S31508001F302B600020DF490C3108600120E149C1F817
S31508001F408801DD48D0F81401012803D10020DE49B4
S31508001F50085514E00120DC490855032C01D0042C4F
S31508001F6004D1D0480078401CCE4908700AF1010017
S31508001F7000F0FF0AC9480078401CC84908700120CB
S31508001F80CC490C3108600020CE49C1F88801CB48FD
S31508001F907C380068012803D10020CC49085510E098
S31508001FA00120CA490855032C01D0042C04D1BE4887
S31508001FB00078401CBC490870B9480078401CB849EC
S31508001FC00870641C072C85DD0024B0E0C4F103000A
S31508001FD0FEF70EFB02460B46CDE9000100204FF046
S31508001FE0804103F027F805460E46B749085DFEF717
S31508001FF010FB07462A463346FEF70BFACDE90401DD
S31508002000AA4951F82900FEF7F3FACDE90201DDE9FC
S315080020100423FEF757F9CDE90601FEF720FBA3498D
S3150800202041F829002046FEF7E3FA07463A460B46EA
S3150800203000204FF0804102F0FDFF05460E46A24AF9
S31508002040211D505CFEF7E5FA2A463346CDE9000124
S31508002050FEF7DFF9CDE90401944951F82900FEF7A6
S31508002060C7FACDE90201DDE90423FEF7CCF9CDE98B
S315080020700601FEF7F4FA8D4941F829002046FEF7D5
S31508002080B7FA05462A460B4600204FF0804102F073
S31508002090D1FF8E4ACDE90201211D505CFEF7B9FA3F
S315080020A0CDE90001DDE90223FEF7B3F907468846C4
S315080020B07F4951F82900FEF79BFA3A464346CDE98F
S315080020C00401FEF7FFF8CDE90601FEF7C8FA7849DC
S315080020D041F82900C4F10300FEF78AFA02460B46C6
S315080020E0CDE9000100204FF0804102F0A3FFCDE9C1
S315080020F002017649085DFEF78CFA0546DDE90223FA
S31508002100FEF787F907468846694951F82900FEF718
S315080021106FFA3A464346CDE90401FEF774F9CDE96C
S315080021200601FEF79CFA624941F82900641C032C53
S315080021307FF74CAF59480078012819D15B4850F809
S315080021402900082803D160480078012808D0574894
S3150800215050F82900083058B95B48C079012807D1DA
S31508002160524850F8290000EB4000504941F8290030
S315080021704B480078012819D14D4850F829000828FD
S3150800218003D15248C079012808D0494850F8290097
S31508002190083058B94D480078012807D1444850F806
S315080021A0290000EB4000424941F8290009F10109DC
S315080021B0B9F1010FFFF685AE45480078012830D100
S315080021C03A4844A10268454802F082F9434A022186
S315080021D00A20FFF711FA36483EA102683F4802F086
S315080021E077F93E4A04210A20FFF706FA002416E08A
S315080021F03548025D3AA1394802F06AF9E0B2374A31
S315080022000221FFF7F9F93148025D35A1334802F09A
S315080022105FF9E0B2314A0421FFF7EEF9641C072C96
S31508002220E6DD1E480078032822D1204800680028E9
S315080022300DDD1E480068C01E1C4908600846006877
S31508002240002815DA084600684042086010E017487A
S31508002250006800280CDA15480068C01C1349086095
S3150800226008460068002803DD084600684042086002
S315080022700B480078032846D10D480068002831DD50
S315080022800B480068C01E0A4908600846006800280E
S3150800229039DA084600684042086034E0DC0100206C
S315080022A0DD010020DE010020DF010020EC01002016
S315080022B0F4010020848123420080234288012342BE
S315080022C00080214200002342140200201C02002044
S315080022D0CC010020256420200000000048040020CE
S315080022E0256400007A48006800280CDA78480068F7
S315080022F0C01C7749086008460068002803DD0846C0
S315080023000068404208607348006871490968401AC5
S31508002310714908606F480068704908606C48006831
S315080023206F4908606F480078012816D16B48006825
S3150800233010F1030F0FDB6948006803280BDCBAF1BC
S31508002340010F08DD4FF0000A0020664908700120D9
S3150800235009B0BDE8F08F0020FAE763480078012845
S3150800236057D16248007801280BDB604800780528B9
S3150800237007DA5F480078012803DB5D4800780528FE
S315080023800BDB5A48007801281FDB584800780528D7
S315080023901BDA57480078042817DD504800680328D8
S315080023A006DA4E48006810F1020F01DD0120CFE77A
S315080023B04A480068032801DB0320C9E74748006844
S315080023C010F1020F5CDC0420C2E7494800780128B6
S315080023D07BDB47480078052877DA444800780428E4
S315080023E073DD3F480068032806DA3D48006810F1A7
S315080023F0020F01DD0120ABE739480068032801DB3D
S315080024000320A5E73648006810F1020F5DDC0420BA
S315080024109EE73548007898BB3448007801280BDBDE
S3150800242032480078052807DA31480078012803DBA6
S315080024302F48007805280BDB2C480078012820DB7C
S315080024402A48007805281CDA29480078042818DD67
S3150800245022480068022806DA2048006810F1030FAF
S3150800246001DD012074E71D480068032801DB03200D
S315080024706EE71A48006810F1030F26DC042067E7A8
S3150800248023E01B48007801281FDB19480078052837
S315080024901BDA16480078042817DD11480068022858
S315080024A006DA0F48006810F1030F01DB01204FE739
S315080024B00B480068032801DB032049E70848006841
S315080024C010F1030F01DC042042E7002040E700007A
S315080024D0F4010020EC010020D40100200C020020A9
S315080024E0100200201000002015000020DC0100204A
S315080024F0DD010020F0B591B0074600262022FE49EE
S3150800250009A8FDF731FE2022FB49203101A8FDF775
S315080025102BFE052F02D10020F8490870F8480078EC
S3150800252018B1F848007801287ED10025B8E00020C7
S31508002530F54941F82500F54941F82500002455E0FC
S315080025400120F3490860F349C1F89001F24908608F
S31508002550F249C1F8A001204604EBD0714910A4EB5A
S315080025604101ED4A08321160214604EBD172501040
S3150800257000EBD0725210A0EB4202E94BC3F894214B
S31508002580224604EBD273591001EBD173581000EBB5
S31508002590D0735B10A0EB4303DFF884C3CCF8983103
S315080025A00020DB4908600120DC49C1F8A001D848B1
S315080025B07C380068012803D10020DA49085502E072
S315080025C00120D84908550120D14908600020D3497F
S315080025D0C1F8A001D4480068012803D10020D349D6
S315080025E0085502E00120D1490855641C072CA7DDCF
S315080025F000241EE0C44850F82500CC49095DC4F102
S31508002600070209AB53F8222001FB0200BE4941F834
S315080026102500BE4850F82500C249095D09AA52F8A6
S31508002620242001FB020000E033E1B84941F8250007
S31508002630641C072CDEDDB44850F82500082803D1B1
S31508002640BA480078012808D0AF4850F82500083065
S3150800265058B9B648C079012807D1AB4850F82500C3
S3150800266000EB4000A84941F82500A84850F8250085
S31508002670082803D1AB48C079012808D0A34850F8E8
S315080026802500083058B9A7480078012807D19F487F
S3150800269050F8250000EB40009C4941F825006D1CC8
S315080026A0012DFFF644AF00260020A1490870A14974
S315080026B00870A1490870A1490870002426E09B48C3
S315080026C0005D01280DD1022C06DB052C04DC9A4896
S315080026D00078401C9849087095480078401C944931
S315080026E008709048005D01280FD1701CC6B2022CF4
S315080026F006DB052C04DC91480078401C8F490870DD
S315080027008C480078401C8B490870641C072CD6DD61
S3150800271087480078032822D17B48006800280DDD09
S3150800272079480068C01E784908600846006800288D
S3150800273015DA084600684042086010E072480068EA
S3150800274000280CDA70480068C01C6F490860084603
S315080027500068002803DD084600684042086075489E
S315080027600078032822D16948006800280DDD6748EB
S315080027700068C01E6549086008460068002815DA22
S31508002780084600684042086010E060480068002873
S315080027900CDA5E480068C01C5C4908600846006898
S315080027A0002803DD0846006840420860564800686D
S315080027B063490860554800686249086052480068DD
S315080027C052490968401A604908606048007801283B
S315080027D030D14D485EA102685F4801F079FE5E4A35
S315080027E000210A20FEF708FF484859A102685A48FE
S315080027F001F06EFE584A06210A20FEF7FDFE002467
S3150800280016E04A48025D55A1534801F061FEE0B260
S31508002810514A0021FEF7F0FE4248025D4FA14E489C
S3150800282001F056FEE0B24C4A0621FEF7E5FE641CAE
S31508002830072CE6DD3F480078022802DC00204849DC
S31508002840087048480078002803DD474800780028C3
S315080028500EDC4348007858B9062E05DB01204349AB
S3150800286008703F49087006E000204049087002E0F9
S3150800287000203E4908703D480078012804D11F48C9
S315080028800078401C1D4908701C48007840B211B0F9
S31508002890F0BD1B480078012807D01948007802289F
S315080028A003D01748007803287ED1164800780028F8
S315080028B0FAD10025E4E00020134941F82500134920
S315080028C041F82500002494E00120114908601149C7
S315080028D0C1F89001104908601049C1F8A0012046C6
S315080028E004EBD0714910A4EB41010B4A0832116080
S315080028F0214604EBD1723BE05079000824020020FF
S315080029001500002011000020E4010020FC01002031
S315080029108481234200802342880123420080214289
S3150800292000002342980400202481214288040020C4
S31508002930D8010020D9010020DA010020DB0100209F
S315080029400402002008020020D0010020CC0100204B
S3150800295025642020000000004804002025640000AB
S3150800296025020020DC010020DD010020E001002016
S31508002970501000EBD0725210A0EB4202A14BC3F8E4
S315080029809421224604EBD273591001EBD1735810E7
S3150800299000EBD0735B10A0EB4303DFF868C2CCF8FA
S315080029A098310020984900E01DE108600120974908
S315080029B0C1F8A00194487C380068012803D100209A
S315080029C09349085502E001209149085501208E498E
S315080029D0086000208D49C1F8A0018E4800680128CA
S315080029E003D100208C49085502E001208A49085580
S315080029F0641C072C7FF768AF00241CE0874850F852
S31508002A0025008549095DC4F1070209AB53F8222060
S31508002A1001FB1200814941F82500814850F825003C
S31508002A207B49095D09AA52F8242001FB12007C495A
S31508002A3041F82500641C072CE0DD784850F825008D
S31508002A40083058B974480078012807D1734850F8F7
S31508002A50250000EB4000714941F82500704850F800
S31508002A602500083058B96A48C079012807D16C484A
S31508002A7050F8250000EB4000694941F825006D1C17
S31508002A80012DFFF618AF0026002066490870664932
S31508002A900870664908706649087000241DE05E489B
S31508002AA0005D012806D1701CC6B25E480078401C3D
S31508002AB05C4908705648005D01280DD1032C06DBD9
S31508002AC0042C04DC5A480078401C594908705648BA
S31508002AD00078401C54490870641C072CDFDD5148F7
S31508002AE00078032802DD00204C4908604E4800782B
S31508002AF0032802DD00204A490860484800684D4915
S31508002B000860474800684C490860454800684349DA
S31508002B100968401A4949086049480078012834D1AB
S31508002B203E48AFF2D4110268464801F0D1FC454A46
S31508002B3000210A20FEF760FD3948AFF2EC11026861
S31508002B40404801F0C5FC3F4A06210A20FEF754FD1D
S31508002B50002418E03048025DAFF20021394801F040
S31508002B60B7FCE0B2374A0021FEF746FD2848025D69
S31508002B70AFF21821334801F0ABFCE0B2314A062126
S31508002B80FEF73AFD641C072CE4DD26480078032886
S31508002B9002DC00202C4908702C480078002803DD48
S31508002BA02B48007800280EDC2748007858B9062EEE
S31508002BB005DB0120274908702349087006E0002034
S31508002BC02449087002E0002022490870214800784C
S31508002BD0012804D120480078401C1F4908701E4867
S31508002BE0007840B253E61D480078022803D01B48F7
S31508002BF00078032801D1002049E61748007840B23A
S31508002C0045E60000000023428481234200802142D9
S31508002C10980400202481214288040020E401002031
S31508002C20FC010020D8010020D9010020DA0100208B
S31508002C30DB0100200402002008020020D001002049
S31508002C40CC0100204804002025020020DC010020D9
S31508002C50DD010020E00100202402002015000020EC
S31508002C60042808D14FF0E021096941F004014FF02A
S31508002C70E022116107E04FF0E021096921F0040123
S31508002C804FF0E022116170477047000010B51348F5
S31508002C90006840F00100114908600846406810497C
S31508002CA008400E494860084600680E4908400B4926
S31508002CB008600846006820F48020086008464068D6
S31508002CC020F4FE0048604FF41F008860FFF773F891
S31508002CD04FF000600449086010BD00000010024073
S31508002CE00000FFF8FFFFF6FE08ED00E0F0B50C4621
S31508002CF0154600220021068C4FF6FE773E400684D4
S31508002D00028B018C4FF60C7632407E1C06EA0316BF
S31508002D102E433243104EB0420ED0104EB0420BD066
S31508002D20B0F1804F08D00E4EB04205D00D4EB042DD
S31508002D3002D00D4EB04206D14FF6FD76314044F032
S31508002D400106314305E04FF6F576314044F00106B9
S31508002D50314302830184F0BD002C01400034014058
S31508002D600004004000080040000C0040F0B50C4686
S31508002D701546002200210026078C4FF6EF7C07EA4D
S31508002D800C070784028B018C4FF6FF7707EA0416B7
S31508002D9040F6FF473A404FF6FF7707EA03373A43CC
S31508002DA04FF6FF7707EA05273A43114FB8420ED088
S31508002DB0104FB8420BD0B0F1804F08D00E4FB84232
S31508002DC005D00E4FB84202D00D4FB84206D14FF685
S31508002DD0DF77394046F01007394305E04FF65F774D
S31508002DE0394044F01007394302830184F0BD0000DE
S31508002DF0002C014000340140000400400008004057
S31508002E00000C0040F0B50C461546002200210026AD
S31508002E10078C4FF6FF6C07EA0C070784828B018C38
S31508002E204FF6FF7707EA04264FF60C773A404FF637
S31508002E30FF7707EA03172F433A43114FB8420ED0DC
S31508002E40104FB8420BD0B0F1804F08D00E4FB842A1
S31508002E5005D00E4FB84202D00D4FB84206D14FF6F4
S31508002E60FF57394046F48077394305E04FF2FF575C
S31508002E70394044F48077394382830184F0BD0000E9
S31508002E80002C0140003401400004004000080040C6
S31508002E90000C0040F0B50C4615460022002100261D
S31508002EA0078C4EF6FF7C07EA0C070784828B018C99
S31508002EB04FF6FF7707EA043640F6FF473A404FF6E3
S31508002EC0FF7707EA05273A434FF6FF7707EA0337FE
S31508002ED03A43114FB8420ED0104FB8420BD0B0F15A
S31508002EE0804F08D00E4FB84205D00E4FB84202D0D8
S31508002EF00D4FB84206D14DF6FF77394046F4805754
S31508002F00394305E047F6FF57394044F480573943BB
S31508002F1082830184F0BD0000002C0140003401408A
S31508002F200004004000080040000C004010B50121D4
S31508002F303C4800F098FD002872D03B4800783B4991
S31508002F400978081A3A49087008460078002803DA0A
S31508002F500846007840420870334840783549097871
S31508002F60081A3549087008460078002803DA084622
S31508002F700078404208702C48807830490978081A49
S31508002F802F49087008460078002803DA08460078B2
S31508002F90404208702448C0782A490978081A2A49FC
S31508002FA0087008460078002803DA08460078404288
S31508002FB008702348007800280BDC2348007800288E
S31508002FC007DC1B480078002803DC1B48007800282B
S31508002FD010DD00201D490880144800781249087041
S31508002FE014480078487015480078887015480078A5
S31508002FF0C87004E015480088401C14490880134826
S315080030000088B0F5967F07DB01201149087002F0A9
S3150800301063FD00200D4908800121024800F0F0FBFD
S3150800302010BD000000100040000000200C02002027
S3150800303004000020100200200500002004020020E1
S3150800304006000020080200200700002008000020D3
S315080030500A0000202DE9F05F0121FE4800F003FD7B
S3150800306000287DD0FC48007800287AD0FB490988DA
S3150800307008B2FDF7AFFAFA490862FA49098808B2B0
S31508003080FDF7A8FAF8490862F849098808B2FDF771
S31508003090A1FAF74908624FF08041898C09B2484283
S315080030A0FDF798FAF3490862F3480088002846D0E5
S315080030B0F248B0F90000FDF78DFA0546EC48016ABA
S315080030C02846FDF775F80446FDF7B0FA00B2EB4955
S315080030D00880EB48B0F90000FDF77CFA0546E048A1
S315080030E0016A2846FDF764F80446FDF79FFA00B220
S315080030F0E3490880E348B0F90000FDF76BFA054696
S31508003100D948016A2846FDF753F80446FDF78EFAB2
S3150800311000B2DC490880DA4AB2F90010002901DB5E
S315080031200A4600E04A42D74BB3F90000002801DB03
S31508003130034600E04342D21A12B2D34B1A8000204B
S315080031404FF080418884C5490880C6490880C74928
S315080031500880CE48007801287ED1FEF7A1FE01E05E
S3150800316024E313E3CA4908700120FFF7C3F9C949E4
S315080031700880C949C94A1268885CFDF734FAB84913
S31508003180C861C549C54A1268885CFDF72CFAB64974
S31508003190C861C149C14A1268885CFDF724FAB44976
S315080031A0C861BD49BD4A1268885CFDF71CFAB14979
S315080031B0C86101F023F800B2A94948830846408B44
S315080031C0A9494883A648408BA9494883A448408B07
S315080031D0A8494883A248FEF793FCA548FEF790FC49
S315080031E0A148FEF78DFCA348FEF78AFCAC48007898
S315080031F000B39B48008B9A49498B401A00B29849FC
S3150800320008839948008B9849498B401A00B2964919
S3150800321008839748008B9649498B084400B294491D
S3150800322008839448008B9349498B084400B2914916
S3150800323008833CE29448B0F90000FDF7D9F98246C4
S31508003240984A994BFDF7E5F806460F468449B1F9C1
S315080032501800FDF7CDF900E05FE0804632463B46B0
S31508003260FDF7D1F80446FDF7FAF900B27C49088360
S315080032708548B0F90000FDF7BBF98246894A8A4BB2
S31508003280FDF7C7F806460F467749B1F91800FDF766
S31508003290AFF9804632463B46FDF7B5F80446FDF7DA
S315080032A0DEF900B2704908837748B0F90000FDF7E7
S315080032B09FF982467B4A7C4BFDF7ABF806460F46DC
S315080032C06B49B1F91800FDF793F9804632463B463B
S315080032D0FCF7F8FF0446FDF7C2F900B26449088313
S315080032E06948B0F90000FDF783F982466D4A6E4BCE
S315080032F0FDF78FF804460D465E49B1F91800FDF74B
S3150800330077F9064622462B46FCF7DCFF8046FDF792
S31508003310A6F900B257490883C9E15C480078002835
S315080033207ED10120FEF7BCFD594908700120FFF740
S31508003330E1F8584908805849584A1268895C484251
S31508003340FDF748F94649C8615349544A1268895CE9
S315080033504842FDF73FF94449C8614F494F4A126848
S31508003360895C4842FDF736F94149C8614A494B4AE2
S315080033701268895C4842FDF72DF93E49C86100F09C
S315080033803DFF00B2364948830846408B3649488394
S315080033903348408B364948833148408B3549488302
S315080033A02F48FEF7ADFB3248FEF7AAFB2E48FEF77C
S315080033B0A7FB3048FEF7A4FB3948007800B3284835
S315080033C0008B2749498B401A00B2254908832648AD
S315080033D0008B2549498B401A00B2234908832448A3
S315080033E0008B2349498B084400B2214908832148A8
S315080033F0008B2049498B084400B21E49088356E1D0
S315080034002148B0F90000FDF7F3F88246254A264B15
S31508003410FCF7FFFF804689461149B1F9180000E01C
S315080034208EE0FDF7E5F8064642464B46FCF7EBFF0D
S315080034300446FDF714F900B2094908831248B0F9A1
S315080034400000FDF7D5F80646164A174BFCF7E1FFCC
S3150800345080462BE00014004035000020240400407C
S315080034607C02002024080040F4020020240C0040BE
S31508003470A4020020CC0200201C0000201E00002010
S31508003480220000202400002026000020150000202D
S3150800349014000020120000206800002064000020AC
S315080034A0200000209A9999999999B93F8946C04967
S315080034B0B1F91800FDF79CF8044642464B46FCF75E
S315080034C0A2FF8246FDF7CBF800B2B9490883B9488E
S315080034D0B0F90000FDF78CF88246B74AB74BFCF7FF
S315080034E098FF80468946B649B1F91800FDF780F875
S315080034F0064642464B46FCF7E5FE0446FDF7AFF89E
S3150800350000B2AF490883AB48B0F90000FDF770F880
S315080035100646A94AA94BFCF77CFF04460D46A9496D
S31508003520B1F91800FDF764F8804622462B46FCF7E9
S31508003530C9FE8246FDF793F800B2A2490883B6E0B1
S31508003540A1480078022857D1A049A14A1268895C87
S315080035504842FDF73FF89F49C8619C499C4A126852
S31508003560895C4842FDF736F89149C8619749984AF7
S315080035701268885CFDF737F89149C8619349944AFF
S315080035801268885CFDF72FF88E49C86100209149BA
S315080035904883874948838A4948838A4948838D48A6
S315080035A0FEF7AEFA8648FEF7ABFA8148FEF7A8FAA8
S315080035B08448FEF7A5FA8748008B8649498B401A46
S315080035C000B2844908837A48008B7949498B401AA6
S315080035D000B2774908837A48008B7949498B0844B1
S315080035E000B2774908837748008B7649498B0844A7
S315080035F000B2744908835AE073480078032856D104
S315080036007249734A1268885CFCF7EDFF7149C86114
S315080036106E496F4A1268885CFCF7E5FF6449C86121
S315080036206A496B4A1268895C4842FCF7D3FF6449C9
S31508003630C8616649664A1268895C4842FCF7CAFF4F
S315080036406049C861002063494883594948835C49F1
S3150800365048835C4948835F48FEF752FA5848FEF7A4
S315080036604FFA5348FEF74CFA5648FEF749FA5948B6
S31508003670008B5849498B401A00B2564908834C4872
S31508003680008B4B49498B401A00B2494908834C487C
S31508003690008B4B49498B084400B24949088349487D
S315080036A0008B4849498B084400B2464908834A4872
S315080036B00068401C48490860464800F0F5FE404846
S315080036C000F0F2FE3A4800F0EFFE3E4800F0ECFE4D
S315080036D04048B0F91800002809DB00203F49086077
S315080036E03C48008B81B23E4800F039FB09E00120D6
S315080036F03A4908603748008B404281B2384800F0A2
S315080037002EFB2F48B0F9180000280ADB00203349A1
S31508003710091F08602A48008B81B2314800F01DFB5A
S315080037200AE001202D49091F08602548008B404200
S3150800373081B22B4800F011FB1D48B0F9180000288B
S315080037400ADB00202549083908601948008B81B230
S31508003750234800F000FB0AE00120204908390860E8
S315080037601348008B404281B21D4800F0F4FA154810
S31508003770B0F9180000280ADB002018490C3908603F
S315080037801048008B81B2164800F0E3FA0AE00120DF
S3150800379012490C3908600B48008B404281B2104828
S315080037A000F0D7FA01210F4800F02AF8BDE8F09F8B
S315080037B0F4020020260000209A9999999999B93F10
S315080037C0A4020020CC02002015000020680000207A
S315080037D0640000207C020020180000208C81224210
S315080037E0003401400014004021B1028842F08002F2
S315080037F0028004E002884FF67F731A400280704701
S31508003800CA430282704721B1028842F0010202804F
S3150800381004E002884FF6FE731A400280704731B101
S31508003820B0F8442042F40042A0F8442005E0B0F87D
S315080038304420C2F30E02A0F84420704710B504468F
S315080038406848844208D10121C014FEF725FA0021F0
S31508003850E014FEF721FAC4E0B4F1804F08D1012143
S315080038600846FEF7F9F900210120FEF7F5F9B8E058
S315080038705D48844208D101210220FEF7EDF90021B6
S315080038800220FEF7E9F9ACE05848844208D1012144
S315080038900420FEF7E1F900210420FEF7DDF9A0E097
S315080038A05348844208D101210820FEF7D5F90021A2
S315080038B00820FEF7D1F994E04E48844208D1012148
S315080038C01020FEF7C9F900211020FEF7C5F988E097
S315080038D04948844208D101212020FEF7BDF900217C
S315080038E02020FEF7B9F97CE04448844208D101213A
S315080038F04014FEF7D1F900216014FEF7CDF970E007
S315080039003F48844209D10121C804FEF7C5F90021C0
S315080039104FF40020FEF7C0F963E03A48844209D123
S3150800392001210805FEF7B8F900214FF48010FEF7CB
S31508003930B3F956E03448844209D101214805FEF717
S31508003940ABF900214FF40010FEF7A6F949E02F481D
S31508003950844208D101214020FEF77EF9002140204B
S31508003960FEF77AF93DE02A48844208D101218020F1
S31508003970FEF772F900218020FEF76EF931E025483E
S31508003980844208D101218015FEF766F90021A015A9
S31508003990FEF762F925E02048844209D1012108048E
S315080039A0FEF77AF900214FF48030FEF775F918E032
S315080039B01A48844209D101214804FEF76DF900210D
S315080039C04FF40030FEF768F90BE01548844208D139
S315080039D001218804FEF760F900214FF48020FEF7E4
S315080039E05BF910BD002C01400004004000080040AF
S315080039F0000C004000100040001400400034014054
S31508003A00004C01400050014000540140001800409D
S31508003A10001C0040002000400040014000440140D6
S31508003A2000480140F0B50C4615461E460021002206
S31508003A3000230189028B038C4FF6F877394021431E
S31508003A404FF6FC473A4040F201173A434FF6DD7706
S31508003A503B404FF6FF7707EA06172F433B430181A2
S31508003A6002830384F0BD30B50246002000230024FB
S31508003A70158A05EA0103958905EA010413B10CB113
S31508003A80012000E0002030BD70B505460C462448EC
S31508003A9085420ED0234885420BD0B5F1804F08D019
S31508003AA02148854205D02148854202D020488542D2
S31508003AB000D100E000BF208850B92389A288618818
S31508003AC02846FFF713F9E188284600F04BF925E068
S31508003AD0208804280AD12389A28861882846FFF706
S31508003AE045F9E188284600F046F917E020880828B5
S31508003AF00AD12389A28861882846FFF783F9E188D5
S31508003B00284600F045F909E02389A28861882846F5
S31508003B10FFF7C0F9E188284600F043F970BD0000B8
S31508003B20002C014000340140000400400008004019
S31508003B30000C004000210180418001218180002184
S31508003B40C18001817047000070B50024002200235F
S31508003B50058C4FF6FE7635400584028C8388048BE7
S31508003B604FF68F752C40B51E2C400D882C43751EBC
S31508003B702A400D892A434D882A43144DA8420BD062
S31508003B80134DA84208D0134DA84205D0124DA8429D
S31508003B9002D0124DA84213D14FF6F7752A404D8927
S31508003BA02A434FF6FB752A408D882A434FF6FF6550
S31508003BB02B404FF6FF552B408D892B43CD892B4340
S31508003BC083800483CD888586028470BD002C0140DD
S31508003BD000340140004001400044014000480140D3
S31508003BE070B5002400220023058C4FF6EF76354089
S31508003BF00584028C8388048B48F6FF752C404FF6A3
S31508003C00FF452C400D884FF6FF7606EA05252C431E
S31508003C104FF6DF752A400D8906EA05152A434D88B1
S31508003C2006EA05152A43154DA84202D0144DA842A6
S31508003C301DD14FF67F752A404D894FF6FF7606EA65
S31508003C4005152A434FF6BF752A408D8806EA0515DD
S31508003C502A434FF6FF352B404FF2FF752B408D89CF
S31508003C6006EA85052B43CD8906EA85052B4383801D
S31508003C700483CD880587028470BD0000002C0140AE
S31508003C80003401400A460021018B4FF2FF731940A8
S31508003C904FF6FF7303EA02231943018370470000B6
S31508003CA070B5002400220023058C4FF6FF663540C8
S31508003CB00584028C8388848B4FF68F752C404FF6CB
S31508003CC0FC752C400D882C434FF6FF552A400D896C
S31508003CD04FF6FF7606EA05252A434D8806EA0525A6
S31508003CE02A43154DA84202D0144DA8421DD14FF2C1
S31508003CF0FF752A404D894FF6FF7606EA05252A43C1
S31508003D004FF6FF352A408D8806EA05252A434EF6E2
S31508003D10FF752B404DF6FF752B408D8906EA051574
S31508003D202B43CD8906EA05152B4383808483CD88EA
S31508003D308587028470BD0000002C014000340140D4
S31508003D400A460021818B4FF6F77319401143818388
S31508003D507047818670470187704781877047A0F84A
S31508003D6040107047028B4FF6F3731A400283028B9A
S31508003D700A4302837047028B4FF2FF331A400283CD
S31508003D80028B4FF6FF7303EA01231A430283704737
S31508003D90828B4FF6F3731A408283828B0A4382839F
S31508003DA07047828B4FF2FF331A408283828B4FF61D
S31508003DB0FF7303EA01231A438283704700220288AD
S31508003DC01D4B98420ED01D4B98420BD0B0F1804F38
S31508003DD008D01B4B984205D01A4B984202D01A4B72
S31508003DE0984204D14FF68F731A404B881A43174BE3
S31508003DF0984207D0164B984204D04FF6FF431A4014
S31508003E00CB881A4302808B8883850B8803850A4BE7
S31508003E1098420BD0094B984208D00E4B984205D0D1
S31508003E200D4B984202D00D4B984201D10B7A03866E
S31508003E300123838270470000002C014000340140B2
S31508003E400004004000080040000C0040001000403C
S31508003E500014004000400140004401400048014071
S31508003E602DE9F04740F22551304800F003F90028C3
S31508003E705AD02E4800F0BAF900F0FF0A2C4800780C
S31508003E80012805D100202A4908702A4908804BE0F4
S31508003E902848008800F40040002845D125480088B5
S31508003EA000F4804020B3BAF1460F03D00120204920
S31508003EB0087039E0204989791F4AD27941EA0220F7
S31508003EC0FCF796FB064600221C4BFCF714FB04463F
S31508003ED000221B4BFCF79DFA8046FCF70BFC1949A0
S31508003EE008600120124908700020124908801BE06A
S31508003EF0BAF16C0F06D10F48008840F480400D498E
S31508003F00088011E00B480088C0F30D000A4901F843
S31508003F1000A008480088401C064908800846008812
S31508003F20C72801DD00200880BDE8F0870038014079
S31508003F304A02002048020020CA0400200000E0408F
S31508003F40008066404C02002010B502201D4908601A
S31508003F5040F225511C4800F08DF8F8B11A4800F0D7
S31508003F6045F9C4B21948008800F40040B0B91748AA
S31508003F70008800F4804048B10A2C03D00020134979
S31508003F8008801DE000201149088019E00D2C06D193
S31508003F900E48008840F480400C49088010E00B4821
S31508003FA00088C0F30D000A490C5408480088401CD4
S31508003FB00649088008460088C72801DD00200880D1
S31508003FC010BD0000400200200044004050020020BE
S31508003FD09205002010B540F225511D4800F04AF818
S31508003FE010B31B4800F002F9C4B21A48008800F45E
S31508003FF00040C8B91748008800F4804060B10A2C10
S3150800400003D000201349088020E01248008840F4B5
S3150800401000401049088019E00D2C06D10D4800888B
S3150800402040F480400B49088010E00A480088C0F335
S315080040300D0009490C5407480088401C05490880AA
S3150800404008460088C72801DD0020088010BD00004A
S3150800405000480040520200205A06002021B18289F9
S3150800406042F40052828104E082894DF6FF731A40B9
S315080040708281704770B5024600240023002500207F
S3150800408040F66A16B14200D100BFC1F3421501F0ED
S315080040901F03012606FA03F3012D02D19689334040
S315080040A006E0022D02D1168A334001E0968A334093
S315080040B00C12012606FA04F41688344013B10CB122
S315080040C0012000E0002070BDF0B50346002400265C
S315080040D00025002040F66A17B94200D100BF1846ED
S315080040E0C1F3421401F01F06012707FA06F5012C51
S315080040F001D10C3004E0022C01D1103000E014305C
S315080041001AB107682F43076002E00768AF430760E4
S31508004110F0BD00002DE9F04786B005460E4600249E
S31508004120A24600BFA1460027B08900B100BF2F46AE
S315080041302C8A4CF6FF700440F08804432C82AC8924
S315080041404EF6F3100440B088318908437189084354
S315080041500443AC81AC8A4FF6FF400440B08904435F
S31508004160AC8201A8FDF7A8FD1F48874202D1DDF8F9
S3150800417010A001E0DDF80CA0A88900F4004040B1C9
S315080041800AEBCA0000EB0A1031684900B0FBF1F8E7
S3150800419007E00AEBCA0000EB0A1031688900B0FB99
S315080041A0F1F86420B8FBF0F004012009642101FB52
S315080041B01089A88900F4004040B1322000EBC900FC
S315080041C0B0FBF1F000F00700044308E0322000EBF2
S315080041D009106421B0FBF1F000F00F0004432C81B4
S315080041E006B0BDE8F087000000380140014688881F
S315080041F0C0F30800704700BFFEE700002DE9FC4742
S3150800420095480078012802D10020BDE8FC8793482C
S31508004210007801287ED19249924A1268885CFCF798
S31508004220E2F99149086091498E4A1268885CFCF760
S31508004230DAF98F4908608F4909680846FCF7CAF910
S315080042408D4908608D48006840428C4908604FF0E7
S315080042507E5189480068FCF773FA05D9884986486B
S315080042600068FCF763FA28D286480068FCF716FA55
S315080042700446854A854BFCF7CCF80646FCF73AFA1D
S31508004280804908607C480068FCF708FA7E4A804B3B
S31508004290CDE90001FCF7BDF806460F4679480068E7
S315080042A0FCF7FCF9804632463B46FCF70BF8044619
S315080042B0FCF720FA7349086013E071496E480068F4
S315080042C0FCF73EFA0DD84FF07E516B480068FCF7B4
S315080042D02DFA06D200206B4908606E4908606749C6
S315080042E0086066480068FCF775F907466048016883
S315080042F03846FBF7B5FF0546674801686548006814
S31508004300FBF7AEFF0746584801685E480068FBF7AA
S31508004310A7FF00E00FE080463946FBF749FF06464F
S315080043202946FBF745FF0446FCF780F98246142028
S315080043309AFBF0FA8EE0494800780028FAD14849F5
S31508004340484A1268885CFCF74EF9474908604749AD
S31508004350444A1268885CFCF746F9454908604F49A3
S3150800436009680846FCF736F9434908604348006877
S315080043704042424908604A493F480068FCF7E0F96C
S3150800438005D948493C480068FCF7D0F928D83D4883
S315080043900068FCF783F904463B4A3C4BFCF739F8BE
S315080043A00646FCF7A7F93749086033480068FCF762
S315080043B075F9354A364BCDE90001FCF72AF88046EF
S315080043C0894630480068FCF769F9064642464B4676
S315080043D0FBF778FF0446FCF78DF92A49086012E0D6
S315080043E0304925480068FCF7ABF90CD22C4922481D
S315080043F00068FCF79BF906D2002022490860254987
S3150800440008601E4908601D480068FCF7E3F807467F
S31508004410174801683846FBF723FF05461E4801681A
S315080044201C480068FBF71CFF07460F48016815483B
S315080044300068FBF715FF80463946FBF7B9FE0646C6
S315080044402946FBF7B5FE0446FCF7F0F88246142029
S315080044509AFBF0FA5046D8E6E00100201500002045
S315080044603600002064000020440000203B000020A5
S315080044704C0000200402002074000020D001002017
S31508004480000080BF780000209A9999999999E93F88
S315080044909999C93F500000204800002008020020D2
S315080044A000004040000040C0B0F9181040F25232F7
S315080044B0914201DB11460183B0F91810034A914273
S315080044C002DC4FF6AE41018370470000AEFCFFFFE9
S315080044D00FB4084B10B504A902AA039800F070F9A6
S315080044E0044602A9002000F002FD204610BC5DF833
S315080044F014FB0000EF4E000837B514460846064B75
S315080045006A46214600F05CF904466946002000F038
S31508004510EEFC20463EBD0000EF4E0008490050EA7A
S31508004520C12018BF04204A0D18BF40F0010040F210
S31508004530FF72B2EB515F08BF40F00200012808BFC6
S31508004540052070472DE9F0414F1E00EBC7010446D0
S31508004550D1E9000115461E4637F006020DD02A4657
S315080045603346FBF756FF7F1E04EBC703D3E9002348
S31508004570FBF7A8FE37F00602F1D1022F25D0042F4B
S3150800458013D0062F18BFBDE8F0812A463346FBF73D
S3150800459040FFD4E90A23FBF795FE2A463346FBF784
S315080045A038FFD4E90823FBF78DFE2A463346FBF786
S315080045B030FFD4E90623FBF785FE2A463346FBF788
S315080045C028FFD4E90423FBF77DFE2A463346FBF78A
S315080045D020FFD4E90223FBF775FE2A463346FBF78C
S315080045E018FFD4E90023BDE8F041FBF76BBE0000D5
S315080045F00022134610460149FBF77DBF0000F03F35
S31508004600FBF760BE0022134610461146FBF773BF40
S3150800461040F2013200204FF0E041FCF7A7B9000054
S31508004620024A00201107FCF7A1B9000001FDFFFFAF
S3150800463002E008C8121F08C1002AFAD1704770475D
S31508004640002001E001C1121F002AFBD170470000BB
S3150800465001490860704700006C0200202DE9FF5FE1
S31508004660DDE90220010DDDF838B0024318D044F622
S315080046701050A1F2FF3141430D140F98012820D0A4
S31508004680A5EB0B00401C5FEA000A4FF00004474EFA
S31508004690DFF81C91A046504616D5CAF1000728E057
S315080046A00F98012443A2012808D0002100980F9BE7
S315080046B0C0E90021C0E90243BDE8FF9F6FEA0B018C
S315080046C0F4E7CBF10000DEE7074612E0F80707D06B
S315080046D02246334640464946FBF79BFE80468946B6
S315080046E02246334610461946FBF793FE04460E4605
S315080046F07F10002FEAD1DDE90201BAF1000F424628
S315080047004B4602DAFBF785FE01E0FBF7F4FE0446AA
S315080047100E460022284BFBF7D5FF03D84FF0FF3093
S31508004720014607E00022254B20463146FBF7CAFD25
S31508004730FCF733F9102409E0002C0ADB0A220023CF
S31508004740FCF71EF8019B30321A55641E50EA010226
S31508004750F2D1641C019AC4F1110314440F9A012A78
S3150800476003D0012208430DD10AE0084304D00020F3
S315080047704FF0110B0F9080E7A3EB0B056D1E0DE0B4
S315080047805B4504DD4FF0000205F1010504E003DA9C
S315080047904FF00002A5F10105002AECD000980F9908
S315080047A0C0E90231C0E9004586E700000000244060
S315080047B00000F03F300000000000F0430000E03F3A
S315080047C02DE9FF4F95B09B468946064600250FE220
S315080047D0252877D100242746F84A0121059400E0C8
S315080047E0044316F8013F203B01FA03F01042F7D1C3
S315080047F030782A2811D06FF02F033078A0F13002D4
S31508004800092A16D8059A44F0020402EB820203EB41
S3150800481042021044761C0590EFE759F8042B0592DE
S31508004820002A03DA504244F40054059044F0020486
S31508004830761C30782E2816D116F8010F44F0040499
S315080048402A280DD06FF02F023078A0F13003092BFB
S3150800485009D807EB870302EB4303C718761CF3E76F
S3150800486059F8047B761C30786C280FD006DC4C2867
S3150800487017D068280DD06A2814D104E0742810D0FF
S315080048807A280FD10DE044F400140AE044F48014A9
S3150800489001E044F440147278824202D104F580148F
S315080048A0761C761C307866280BD013DC582877D00F
S315080048B009DC002875D04528F6D04628F4D04728C4
S315080048C01AD19DE118E0632835D0642879D0652887
S315080048D012D195E1702873D008DC6728F1D06928D1
S315080048E06FD06E280DD06F2806D1B5E073282CD06E
S315080048F0752875D0782874D05A46179990476D1C34
S3150800490075E1C4F30250022809D003280DD0D9F85E
S31508004910001004280DD00D6009F1040967E1D9F8E3
S315080049200010EA17C1E90052F6E7D9F800100D8021
S31508004930F2E70D70F0E719F8041B8DF80010002057
S315080049408DF80100EA46012003E059F804AB4FF060
S31508004950FF3061074FF0000102D40DE008F10101B4
S315080049608846B9420FDA8045F8DB1AF8081000299C
S31508004970F4D108E008F1010188468142FADB1AF809
S3150800498008100029F6D105985B46A0EB08072146D2
S315080049903846179A00F094FA284400EB080507E011
S315080049A04DE029E10DE01AF8010B5A461799904790
S315080049B0B8F10108F7D25B4621463846179A13E143
S315080049C042E00A220092C4F302524FF0000A022A79
S315080049D008D059F804CB032A4FEAEC710AD00DE047
S315080049E029E02AE009F1070121F00702F2E802C1ED
S315080049F0914609E00FFA8CFC4FEAEC71042A03D1C0
S31508004A004FFA8CFC4FEAEC71002907DA0A460021B6
S31508004A10DCF1000C61EB02012D2202E0220504D52F
S31508004A202B228DF80420012203E0E20701D0202280
S31508004A30F7E7904659E00A2102E010220DE010211E
S31508004A404FF0000A00910BE010224FF0000A44F0E4
S31508004A5004040827009203E008224FF0000A009297
S31508004A60C4F30252022A05D059F804CB0021032ABE
S31508004A7008D009E009F1070121F00702F2E802C1AE
S31508004A80914605E01FFA8CFC042A01D10CF0FF0CB4
S31508004A904FF00008220728D5702806D0009B83F01F
S31508004AA0100353EA0A0305D00EE040228DF80420CD
S31508004AB0012208E05CEA010206D030228DF80420C3
S31508004AC08DF8050002229046009B83F0080353EAFE
S31508004AD00A030AD15CEA010201D1620705D5302230
S31508004AE08DF804204FF001087F1E582804D034A002
S31508004AF003900EA802900DE036A0F9E753466046EB
S31508004B00009AFBF73DFE84460398825C0298401E95
S31508004B10029002705CEA0100F0D1029806A9081A10
S31508004B2000F1200A600702D524F4803400E001274A
S31508004B30574502DDA7EB0A0000E0002000EB0A015A
S31508004B40009005984144401A0590E00306D45B4658
S31508004B502146179A059800F0B3F90544002706E0A0
S31508004B6001A85A46C05D179990476D1C7F1C47459A
S31508004B70F6DBE0030CD55B462146179A059800F04C
S31508004B809FF9054404E030205A46179990476D1C52
S31508004B900099481E00900029F5DC08E00298029961
S31508004BA05A460078491C0291179990476D1CBAF12C
S31508004BB00001AAF1010AF1DC65E1000009280100FB
S31508004BC03031323334353637383961626364656675
S31508004BD00000000030313233343536373839414237
S31508004BE0434445460000000000F058F90544761C89
S31508004BF0307800287FF4ECAD19B02846BDE8F08F70
S31508004C00620700D4062709F1070222F0070CFCE820
S31508004C100223E14603F000485FEA080C02D00FF2CF
S31508004C20702C0DE05FEA045C02D50FF2682C07E0F1
S31508004C305FEAC47C02D00FF2602C01E0AFF2700C80
S31508004C404FF0FF3823F00043CDF850C065280CD04C
S31508004C5006DC452809D046281DD047283DD13DE029
S31508004C60662818D067287ED138E00021112F01DB8D
S31508004C70112000E0781CCDE9000106A90EA8FFF76F
S31508004C80EDFCDDE90F010E9A03910021009207F170
S31508004C90010A04914DE04FF000400097CDE901105C
S31508004CA006A90EA8FFF7DAFCDDE90F0203920E9BB0
S31508004CB011990022DDF80CA00093049211B9791C11
S31508004CC000EB010AB7EB0A0004D4C0F1FF3007F184
S31508004CD0010A0490AAEB0700019044E0012F00DACC
S31508004CE001270021112F01DD112000E03846CDE90A
S31508004CF0000106A90EA8FFF7B1FCDDE90F010E9A1F
S31508004D000391002104910092BA4621070CD4039915
S31508004D10514500DA8A46BAF1010F05DD009AAAF173
S31508004D200101515C302908D0B84202DA10F1040FAB
S31508004D3006DA0121CDE9011015E0AAF10101E9E73A
S31508004D40002805DC049901440491AAEB000102E05D
S31508004D50411C514500DD8A460499401A401C0190C1
S31508004D604FF000400290200704D40198504501DB1B
S31508004D70CDF8048000208DF84F0002980DF14F07FA
S31508004D80B0F1004F25D02B200E9002984FF0020864
S31508004D9000280CDA404202902D200E9007E00A21E6
S31508004DA00298FBF7D7FC3031029007F8011DB8F1DD
S31508004DB00001A8F10108F2DC02980028EFD1791E5B
S31508004DC00E980870307800F0200040F0450007F88B
S31508004DD0020D12A8C01B00F107081498007800B14C
S31508004DE0012000EB0A01019801EBE07105984144A6
S31508004DF0401A401E0590E00306D45B462146179AE2
S31508004E00059800F05DF805441498007818B15A46DC
S31508004E10179990476D1CE00324D55B462146179ADF
S31508004E20059800F04DF805441CE00498002807DBB7
S31508004E30DDE90301884203DD0098405C179901E02B
S31508004E40179930205A469047049805F10105401CE9
S31508004E5004900198401E019004D12E205A461799B5
S31508004E6090476D1CBAF10001AAF1010ADDDC05E0E4
S31508004E7017F8010B5A46179990476D1CB8F10001AF
S31508004E80A8F10108F4DC5B462146179A0598ABE6BB
S31508004E902D0000002B000000200000002DE9F04145
S31508004EA0044600251E461746880404D405E03946FC
S31508004EB02020B0476D1C641EF9D52846BDE8F08150
S31508004EC02DE9F041044600251E469046C80301D543
S31508004ED0302700E02027880404D505E041463846F7
S31508004EE0B0476D1C641EF9D52846BDE8F0810A68EE
S31508004EF0531C0B60107070470020014908707047FA
S31508004F002402002010B56FF00400FDF7A9FE0A4838
S31508004F1000680A49B0FBF1F00949087008460078AC
S31508004F2000EB4001C1EBC0104FF6FF7101EAC0006B
S31508004F300449088010BD00005802002000127A00BB
S31508004F403A0200203C0200200146114A12884A43D0
S31508004F504FF0E0235A6100229A611A46126942F01C
S31508004F6001021A6100BF4FF0E022106900F0010249
S31508004F701AB100F48032002AF5D04FF0E022126907
S31508004F8022F001024FF0E0231A6100229A6170476D
S31508004F903C0200207047000000BFFFF7B3FFFCF794
S31508004FA027FDFCF769FBFBF75FFF4FF4E13000F0E4
S31508004FB0D7FD4FF4E13000F023FE4FF4165000F011
S31508004FC071FEFCF77DF9472140F6B730FCF7A0FAE9
S31508004FD0FBF7D0FDFBF702FF00F008FDFCF74CFBE2
S31508004FE00CA20EA10F48FCF7E3FD0AA20EA10F487A
S31508004FF0FFF76EFA0D4A00210846FCF7FDFA642011
S31508005000FFF7A2FF4FF4FA710948FEF7A4FE00BFA6
S31508005010FEE70000746C63646200000025730D0AE5
S3150800502000000000004800402573000048040020E6
S31508005030002C01402DE9F04D16460F4694B01C464B
S3150800504021F0004123F00042002814BF4FF0010C64
S315080050504FF0000C0CEB470CFE4B0CEB03054FEA2C
S31508005060630C65452BD3350018BF012505EB4405B0
S315080050701D44F94B9D4222D3F84B52EA060C02D046
S315080050809F4205D148B914B000201946BDE8F08DF5
S31508005090002808BF4FF0000C01D04FF0010C0CEBB4
S315080050A0470313F5001F0AD8002E14BF4FF0010C52
S315080050B04FF0000C0CEB440313F5001F07D914B08E
S315080050C0324623463946BDE8F04DFFF799BADFF870
S315080050D090834FF0000A002FB8BF424523DAE14B10
S315080050E09A42A8BF4FF0020A1DDADC4B93421ADC3B
S315080050F0DD4B03EB2253142B08DDC3F1340C26FADF
S315080051000CF303FA0CFCB4450DD108E05EB9C3F103
S31508005110140C22FA0CF303FA0CFC944503D103F0A1
S315080051200103C3F1020A51EA00031BD1002C19DA64
S31508005130002F18BFBAF1020F02D0BAF1010F07D03B
S315080051400220FFF785FA14B0BDE8F04DFFF750BA14
S315080051500220FFF77DFAFFF74BFA14B081F0004101
S31508005160BDE8F08D330070D1424525D107F1804264
S3150800517012F5801201BF00280020B84914B008BFF4
S31508005180BDE8F08DB548884207DC002CA1BF18465B
S31508005190214614B0BDE8F08D07E0002CBFBF1846C5
S315080051A084F0004114B0BDE8F08DB0497944D1E9E6
S315080051B0000114B0BDE8F08DDFF8A0C262452AD11F
S315080051C0002C24DA39B1414517D1002804BF002044
S315080051D002461CD106E040B10220FFF739FAFFF774
S315080051E017FA0A46394600F0D7BA9D4A394614B026
S315080051F0002062F31E01BDE8F08D08DA14B03B46C4
S31508005200BDE8F04D024600206146FBF774B914B0BC
S315080052103946BDE8F08D414517DAB4F1804F0CD018
S31508005220A4F10053B3F1FF530FD13B1E0DDB14B0AD
S315080052301946BDE8F04D00F029BC3B4614B00246BD
S31508005240BDE8F04D1946FBF7E4B8050027F0004322
S315080052503AD1E1B1414537D1002F06DD002CA1BF77
S315080052600020414614B0BDE8F08D002F01DD002C6A
S315080052701FDB002F16DA002C14DBBAF1010F4FF0F2
S31508005280000014BF76497A4914B0BDE8F08DBAF12A
S31508005290020F18BF002F0CD0BAF1010F09D1002F49
S315080052A007DA0BE0002FB8BF002C0DDABAF1010FB0
S315080052B004D0002014B00146BDE8F08D14B00020DB
S315080052C04FF00041BDE8F08D4FF0010808EBE77C90
S315080052D0CDF814C05CEA0A0C0DD0DFF898C1624517
S315080052E07EDDDFF894C1654B624512DD8B420ADB31
S315080052F0002C18DB23E00120FFF7AAF914B0BDE85B
S31508005300F04DFFF77FB9554A8A4202DC002C0ADCC9
S3150800531015E0994202DA002C11DA04E04F4B994263
S3150800532019DD002C0BDD0220FFF792F9FFF770F963
S315080053304B4A14B061F31E021146BDE8F08D0220F7
S31508005340FFF786F9FFF76CF9444A14B061F31E02B9
S315080053501146BDE8F08D00223946FBF754F807469A
S315080053600D466FF00102FBF701FB4FF05532444B37
S31508005370FBF74CF83A462B46FBF74BF80022414B15
S31508005380FBF744F880468B463A462B4610461946A4
S31508005390FBF73FF842465B46FBF73BF888460E901C
S315080053A04FF0C042384B38462946FBF732F8834659
S315080053B00091364A344B41460E98FBF72AF8804648
S315080053C00191334A334B38462946FBF722F84246C1
S315080053D0019BFBF718F80D4602460B460C9000E0B9
S315080053E011E058460099FAF76DFF002788465A4695
S315080053F03846009BFBF707F82B460C9AFBF706F88E
S31508005400024600F079B90020B1F5801F07DA352287
S3150800541028461946FBF7AAFA05466FF0340000EB52
S315080054202150A0F2FF300190C1F3130040F07F61D4
S3150800543041F04051029118498842D8BF4FF0000BFD
S3150800544035DD16498142C8BF4FF0010B2FDC4FF0FE
S31508005450000B25E0FFFF1F00FFFF0F000000F03FD5
S315080054600000F07F0000404301FCFFFF68280000B1
S315080054700000F0FF0000E0410000F043FFFFEF3FAF
S315080054805555D53F0000E03F4715F73FFE822B658F
S3150800549044DF5DF80BAE543E8E9803007AB60B00D7
S315080054A00198401C01900298A0F580100290FF48D0
S315080054B00299784400EBCB000991D0E900232846ED
S315080054C00B931292FAF79FFF00910A9028460B9BBE
S315080054D0129A0999FAF7F6FE02460B460020F44995
S315080054E0FBF709F8CDE90C010B46024600990A9824
S315080054F0FAF78FFF0690EF48884600277844029906
S31508005500006810904FF0005040EA610000EB8B40B5
